:060000008831AA2D00006A
:0800080083018031200077081C
:10001000A0007808A1007908A2007A08A3002300B4
:1000200011082000A400230012082000A5002300CE
:1000300013082000A600230014082000A7008B1E30
:1000400023280B194328850191308400801E2A281B
:10005000911A45282008F7002108F8002208F90025
:100060002308FA002408230091002000250823001B
:100070009200200026082300930020002708230078
:100080009400090020008031472880319C2864308A
:1000900095000130AC070318AD0A0319AE0A031925
:1000A000AF0AAF08031D5E28AE08031D5E28AD0829
:1000B000031D5E282C08633C03188A28AF01AE019B
:1000C000AD01AC010130B0070318B10A0319B20A3F
:1000D0000319B30AB308031D7F283208003C031834
:1000E0008A28FF3A031D7F283108503C03188A28CC
:1000F000FF3A031D7F2830087F3C03188A28803090
:10010000B0025130B13B0130B23B0030B33BB40AD6
:100110000319B50A0B1180312A28092AE9366539F5
:10012000A034EE34F4346136693D6510E3376D3840
:10013000EC32F4320D0500002B08023C0319A42810
:100140002B08053C031DA6282A1CB92858081F3C6B
:10015000031CB9285808D80A1F39183E84002030DB
:1001600085000318850A911EB32823001908800012
:100170002000911280312A28892A41295410693798
:10018000693AE930EC34FA32A031EF367036653A2C
:10019000E5060A00D33BE53270106937693AE93069
:1001A000EC34FA32A031EF367036653AE5060A00D3
:1001B000533A61397410D32BC522D0060A0089291D
:1001C000F7326538A039F43270103A10A53A0D05AF
:1001D000000045274410D32BC522D0060A00CC3797
:1001E000E7336532A021C9235310E430F4300D0504
:1001F0008000D3264610E430F4302036E9397410FC
:10020000E93920337536EC10A1100D050000D32616
:100210004610E430F4302036E9397410E939A03260
:100220006D38F43C0D0500006636E1396810E23A9D
:10023000F33C8A060000D2326132A024441D000142
:100240006636E1396810E3376E37E5317410CF2533
:100250000D0500016636E1396810EE377410E3379A
:100260006E37E531F4060A006539F237721D6636DD
:10027000E1396810ED37E4326C10E939A0346E3B97
:10028000613669320D0500016636E1396810F434D3
:10029000ED32EF3AF4060A006636E1396810F332BF
:1002A000633A6F39A032F230F332A031EF36703654
:1002B000653AE5060A006539F237721D6636E1399E
:1002C0006810ED37E4326C10E939A0346E3B6136CA
:1002D00069320D0500016636E1396810F434ED32FB
:1002E000EF3AF4060A006636E139681033196B21DB
:1002F000793A6510F33AE239E531F437721065392D
:10030000E1396510E3376D38EC32F4320D05000049
:100310006539F237721D6636E1396810ED37E4321F
:100320006C10E939A0346E3B613669320D0500016D
:100330006636E1396810F434ED32EF3AF4060A001B
:100340006636E1396810B435C23CF432A0397531F3
:10035000F332633A6F39A032F230F332A031EF3624
:100360007036653AE5060A006636E1396810F434FD
:10037000ED32EF3AF4060A006636E1396810773953
:10038000693A6510E3376D38EC32F4320D05000040
:100390006636E1396810F434ED32EF3AF4060A00BB
:1003A0006636E13968107739693A6510E3376D3898
:1003B000EC32F4320D050000533A61397410ED301F
:1003C000EB325F39E531E534F632DF31EF36ED30CF
:1003D0006E320D0589163E10000145376410ED3070
:1003E000EB325F39E531693BE52FE337ED366137B5
:1003F000E4068A060A00F33467376136A0326E32AB
:10040000A03B693A68105323C4060A00E437EE1390
:100410007410E6346E32A02946220D0500008916BC
:100420003E104937F630EC3464104639E136651039
:1004300049222039E531E534F632641DA012D80690
:100440000A0089163E10432943106539F237F2102D
:100450000D05000189042D1F2039E531E534F63200
:1004600064104329431DA012D8060A0089042010F5
:10047000A0316F36EC32633AA021D221201DA012A8
:10048000D8060A0089163E104937F630EC3464105D
:10049000E432F634E332A0244410F232E332693B12
:1004A00065320D05000189042D1F2039E531E53441
:1004B000F632641D20102010A012D8060A0089040C
:1004C0002010A0267910E432F634E332A024441D33
:1004D000A012D8060A0054396137F3347410E33798
:1004E000ED366137E4068A042D1F2000A110A137E4
:1004F000F6327233EC377710653CE531753A653288
:10050000DF36E939F3346F372036E939F4060A006B
:10051000533A61397410D3264610F539693767109C
:10052000F232F132733AA039E530F13A6537E3320D
:100530000D0500014539F237F2102029E531E53487
:10054000F634EE33A031EF36ED306E32A034EE31BA
:100550006F37F334733A65377410F7347434203AD4
:10056000E8322032E539E933EE060A00D326461098
:10057000F5396510F232F13AE53974106136EC372D
:10058000F732E4060A00D3264610F5396510F23238
:10059000F13AE5397410E432EE3C65320D050001A4
:1005A000D23274397910F232F13AE5397410F437F5
:1005B0002021CF295310D024C3060A004539F23731
:1005C000F2102029E531E534F634EE33A031EF3670
:1005D000ED306E32A034EE316F37F334733A653755
:1005E0007410F7347434203AE8322032E539E933B4
:1005F000EE060A0045376410D3264610F5396937F0
:100600006710F232F132733AA039E530F13A6537CA
:10061000E3320D050000533A61397410CD27C4222E
:10062000A026C520D32AD2220D050000533A6139F5
:100630007410CD27C422A026C520D32AD222202B75
:100640006F36F430E7320D050000F4326D385F3A52
:100650006F383A10252C0D050001F4326D385F31EA
:100660006F3A3A10252C0D05000070325F3B613661
:10067000F5323A10252C0D050000E334E7395F3BD5
:100680006136F5323A10252C0D050000E33A723937
:100690006537F42FF630EC3A651DA012D8060A0033
:1006A000F6376C3AE133E52FF630EC3A651DA012CF
:1006B000D8060A00533A613974104636E139681099
:1006C0004539E13965104136EC060A0045376410BA
:1006D0004636E13968104539E13965104136EC0696
:1006E0000A00533A613974104636E13968104539C9
:1006F000E13965103110D332633A6F390D050001CD
:10070000453764104636E13968104539E1396510DE
:100710003110D332633A6F390D050000533A613915
:1007200074104636E1396810C337F03CA018A02990
:10073000E531F437F2060A00453764104636E139F0
:100740006810C337F03CA018A029E531F437F20651
:100750000A00C432733A6937613AE9376E10613280
:100760006439E539731DA004303C25183826D806B5
:100770000A00D3377539E332A0306432F232F339EC
:100780003A100918F812301C4C2C0D050001C43029
:10079000F430A039693D651DA0040910A012301C79
:1007A0004C2C0D050001C337F03C69376717000179
:1007B000DF2FDF2FDF2FDF2FDF226E32A0316F38E8
:1007C000F92FE430F430DF2FDF2FDF2FDF2FDF06AC
:1007D0008A2FDF2FDF2FDF2FDF2FDF2FDF2FDF2FFE
:1007E000DF2FDF2FDF2FDF2FDF2FDF2FDF2FDF06C2
:1007F0008A060A00533A61397410653CE531753A4E
:10080000E52FE337ED366137E4060A0089163E101E
:100810005538EC34EE35A031EF36ED306E320D0543
:1008200000010910201054396137F336693AA020CD
:10083000E335EE3777366532E7320D05000089166D
:100840003E10533A613AF539A031E832E3350D05EF
:10085000000189042D1FA0267910733A613AF539F9
:10086000A034731025320D050010091020105439E2
:100870006137F336693AA026C929A026C32AA029E0
:10088000F430F43AF3060A00E634EE347334653299
:10089000A0346E10733A613AF539DF31E832E3354E
:1008A0000D05000089163E10E939A0294D23A0301E
:1008B000F63069366131EC320D0500010910201067
:1008C00054396137F336693AA020E335EE3777368D
:1008D0006532E7320D05000189042D1FA0306C360A
:1008E000EF3B65320D05000189042D1F203265376D
:1008F000E932E4060A000D055434E9392010ED34DC
:10090000F339E9376E10E939A032F832E33AF432BC
:10091000E4068A042D1F2018F812E4060A000D05CB
:10092000DF2FDF2FDF2FDF2FDF2FDF2FDF2FDF2F57
:10093000DF2FDF2FDF2FDF2FDF2FDF2FDF2FDF2F47
:10094000DF2FDF2F0D05DF2FDF2FDF2FDF2F533AB4
:1009500061397410653CE531753AE52FED34F339B2
:10096000E937EE2FDF2FDF2FDF2FDF068A060A00A1
:10097000C337ED366137641049223A10252C0D0536
:100980000D05000189042D1FA0246E3B61366932DC
:10099000A0214D22A024C4100D0500010D05DF2F5C
:1009A000DF2FDF2FDF2FDF226E32A032F832E33A63
:1009B000F432DF36E939F3346F37DF2FDF2FDF2FE3
:1009C000DF2FDF068A2FDF2FDF2FDF2FDF2FDF2F35
:1009D000DF2FDF2FDF2FDF2FDF2FDF2FDF2FDF2FA7
:1009E000DF2FDF2FDF2FDF2FDF060A000D05BD1EF3
:1009F000BD1EBD1EBD1EBD1EBD1EBD1EBD1EBD1E1F
:100A0000BD1EBD1EBD1EBD1EBD1EBD1EBD1EBD1E0E
:100A1000BD1EBD1EBD1EBD1EBD1EBD1EBD1EBD1EFE
:100A2000BD1EBD1EBD1EBD1EBD1E0D0500015434E4
:100A3000E939A0347310CD27CD24CA24A021C923BD
:100A40005310D024431042214D10E6377210CD24AC
:100A5000D31B5F21C22631172026E1397410753867
:100A6000E430F43264106F3720193019B517301A9A
:100A70002F193516203179104937EF3A65170D05D2
:100A80000001D33265107434651063346137E73286
:100A9000EC376710E63772107434651063346137D1
:100AA000E73273106937203AE8347310F232EC32CF
:100AB000E13965050D00C324C7292028C921A029D3
:100AC000F430723AA027F032F230F4346F370D056B
:100AD0000D0500014639E136E524441DA012312CF4
:100AE0000D050001F0307936EF306410F334FA323E
:100AF0003A1025320D050001F0307936EF30641DD3
:100B000020000D050D05000189163E104937F6300D
:100B1000EC346410E337ED366137E4060A000D0566
:100B20000D05BD1EBD1EBD1E0D050D05C634EE34E2
:100B3000733465322038F237E332F339AE068A2B4C
:100B4000E1347410E6377210C227D3292028C92156
:100B5000203A75396E106F336610ED32000145375B
:100B60006410ED3069370D05000021000D122200E0
:100B70000D120830F800BC2D0000F817CF2DF81327
:100B80003100A00C220003180D16031C0D1278175B
:100B9000CF2D7813F80BC02DCD2D00000D1684300D
:100BA0008400840BD12D0000F81BBF2D781BC92DAC
:100BB000200008000B088B13230095171514000064
:100BC0000000891B8B1713087F390319282E30006A
:100BD000ED00230011083000EE0023001208300061
:100BE000EF006D083100A0002000B52530006E0830
:100BF0002300910030006F08230092000B088B1334
:100C00009517151400000000891B8B17130D140D88
:100C10007F390319282E3000ED0023001108300021
:100C2000EE00230012083000EF006D083100A00034
:100C30002000B52530006E082300910030006F08B9
:100C400023009200910A0319920A2000DA2D230052
:100C50002000080021000E1022000E1021008E112D
:100C600022008E1188312000532E21009116C030B1
:100C70008B04BC3023009100003092002000DA2564
:100C80008831562E111087309800990196018030D6
:100C900097009601000021001114C0308B048D30A4
:100CA00023009100003092002000DA258831592E6F
:100CB0003000ED1B6E2E0F30F7006C0EF7050A307A
:100CC00077020318662E3030F707682E6D08F70795
:100CD00077083100A0002000B52530000F30EC056A
:100CE0000A306C020318762E3030782EED136D0822
:100CF000EC076C083100A0002000B52508000B08A7
:100D00008B1323009517151400000000891B8B1707
:100D10000318B32E13087F393000ED0023001108AB
:100D20003000EE00230012083000EF006D083100A3
:100D3000A0002000B52530006E082300910030008F
:100D40006F08230092000B088B13951715140000F1
:100D50000000891B8B173000EC0BAF2EB12E230047
:100D6000B32ED72E2300130D140D7F393000ED0064
:100D7000230011083000EE00230012083000EF00BD
:100D80006D083100A0002000B52530006E0823005A
:100D9000910030006F0823009200910A0319920A13
:100DA00003103000EC0BD52ED72E20007F2E200014
:100DB000080030006D0884006E088500003F310097
:100DC000A0000130A10030006F083100210203189B
:100DD000F52E2108A10A30006D07840000306E3D19
:100DE000850000083100A006E32E2008F80020004E
:100DF000080030004908F80148020318022F48088B
:100E0000F7000E2FF7010830CA00C80DF70D49088A
:100E100077020318F700F80DCA0B052F2000080011
:100E200020303000401E3030C4003F08F700BF1FA4
:100E3000212FF709F70A7708BF002D30C400C0172B
:100E400040143F08C8006430C9002000F926770824
:100E50003000BF0030307807C5003F08C8000A30B6
:100E6000C9002000F926303077073000C700303045
:100E70007807C6004408F700303045020319442FB4
:100E8000C014C01B4015582F4408C5002030C400B2
:100E9000303046020319502F4014C01BC014582F85
:100EA000031D4014031D582F4508C6002030C500FF
:100EB00040195F2FC018652F40186B2F712F440801
:100EC0003100A0002000B525300045083100A00009
:100ED0002000B525300046083100A0002000B525CF
:100EE000300047083100A0002000B5250800300080
:100EF0003608FA00350884007A0885000008B80032
:100F00003408850033088400F7013808F8007808B1
:100F100003198E2F77081A00F80B8A2F35088400E2
:100F2000360885008001883120000E2F0F303000F8
:100F3000B800BA01B901BB018831200033228031E9
:100F40000800D530F8000730F9000800F701F80173
:100F500030004C0803104D18F707F70CF80CCD18AB
:100F6000F707F70CF80C4D19F707F70CF80CCD192B
:100F7000F707F70CF80C4D1AF707F70CF80CCD1A19
:100F8000F707F70CF80C4D1BF707F70CF80CCD1B07
:100F9000F707F70CF80C200008002F004608450260
:100FA0000319D42F0030D52F0130F800200008009D
:100FB000253085001D30840000080319ED2F053011
:100FC000F800F701F70BE22FF80BE12F2E30F700B6
:0C0FD000F70BE82FEB2F800BDF2F080041
:101000003000BC01BD01BE01BF01C001C101C20170
:10101000C301C401C501C601C701C801C901CA0194
:10102000CB01CC01CD01CE01CF01D001D101D20144
:10103000D301D401D501D601D701D801D901DA01F4
:10104000DB01DC01DD01DE01DC3023009100013039
:10105000920080312000DA2588313000DF013B0822
:101060005F0203184C285F083907840000303A3DBE
:1010700085000008E700EC003730ED0080312000EB
:101080005826883120303100A00080312000B5255D
:1010900088313000DF0A2F280D303100A000803168
:1010A0002000B52588310A303100A00080312000B1
:1010B000B525883130003A08E8003908E7003B08D8
:1010C000E900EA01EA01013069026A02031878289E
:1010D0006A08670784000030683D85000008AA3C64
:1010E000031D762801306A07F8009D28EA0A632864
:1010F0006A08670784000030683D85000008AA3C44
:10110000031D9028FB3023009100013092008031B4
:101110002000DA258831FF30F80030009D289D2816
:101120000630230091000230920080312000DA2541
:101130008831FF30F80030009D287808E000600812
:10114000FF3C031DA8283C30F8000830F900302A85
:1011500060083907E10000303A3DE2006108840090
:1011600062088500003100080F39E3006308E700DA
:10117000E8016808023C031CD7280310680DDF3E15
:101180008400243085000318850A00086702031DC7
:10119000D5280310680D013EDF3E84002430850011
:1011A0000318850A0008F800FE28E80AB9280F305D
:1011B000230091000230920003101F303000EC0039
:1011C000803120007F26883130006708EC003730FE
:1011D000ED0080312000582688310D303100A0000C
:1011E00080312000B52588310A303100A0008031DF
:1011F0002000B5258831FF30F80030007808E40081
:101200006408FF3C031D09293C30F8000830F90050
:10121000302A60083B02E5006208E8006108E70048
:101220006508E90001306902670784000030683D05
:1012300085000008EA0001306902EC006808EE0051
:101240006708ED006C08EF0080312000D926883156
:1012500078083000EB006B086A02031D3329013067
:10126000F80088298829213023009100023092005B
:1012700080312000DA2588312A30230091000230A5
:101280009200031013303000EC00803120007F26E4
:10129000883130006A08EC003730ED0080312000E2
:1012A000582688310D303100A00080312000B5254E
:1012B00088310A303100A00080312000B525883106
:1012C00036302300910002309200031013303000BA
:1012D000EC00803120007F26883130006B08EC0064
:1012E0003730ED0080312000582688310D30310034
:1012F000A00080312000B52588310A303100A000DF
:1013000080312000B52588310030F8003000882970
:10131000F808031D90293C30F8000830F900302A05
:10132000610884006208850000310008F039F70088
:10133000770EE7000F30E7056708E80068080B3C08
:10134000031DA6290130F800FB29FB2942302300A8
:1013500091000230920080312000DA25883153302C
:101360002300910002309200031013303000EC0093
:10137000803120007F26883130006808EC0037304B
:10138000ED0080312000582688310D303100A0005A
:1013900080312000B52588310A303100A00080312D
:1013A0002000B52588315F30230091000230920083
:1013B000031013303000EC00803120007F2688318C
:1013C0000B303000EC003730ED0080312000582623
:1013D00088310D303100A00080312000B5258831E2
:1013E0000A303100A00080312000B525883100305E
:1013F000F8003000FB29F808031D032A3C30F800F0
:101400000830F900302A6308BC0001306107E700AA
:101410000030623DE80002306502E900680885009E
:10142000670884006908F80003191E2A2530870020
:101430001D30860012001E00F80B1A2A02306502C9
:10144000DD005E14ED302300910001309200803108
:101450002000DA2588313C30F8000830F9003000EF
:1014600088312000772EAA303000BC003808403880
:10147000BD003A088500390884003B08F8000319CC
:10148000492A253087001E30860012001E00F80B06
:10149000452A02303B07CC001C304C07CF002530DA
:1014A000D0000318D00A01304C02D1002530EE00E4
:1014B0001D30ED005108EF0080312000D926883121
:1014C0003000500885004F08840078088000013003
:1014D0004C07CD002530D0001C30CF004D08D10086
:1014E000D201510852020318862A52084F0784007D
:1014F0000030503D85000008D40054082000111E23
:101500007F2A23009A003000D20A712A6B30230010
:1015100091000230920080312000DA2588313000BD
:10152000D301510853020318AE2A53084F07840011
:101530000030503D85000008D400EC003730ED004D
:10154000803120005826883120303100A0008031C1
:101550002000B52588313000D30A912A0D303100A2
:10156000A00080312000B52588310A303100A0006C
:1015700080312000B52588310800D8302300910043
:101580000030920080312000DA2588313000420896
:10159000C300DF30230091000030920003100E30B2
:1015A0003000EC00803120007F2688313000430875
:1015B000C6001B30C7004608C8006430C90080312F
:1015C0002000F926883177083000C60078083030CE
:1015D000031DF12AC71CFD2AC719FD2A471A20300E
:1015E000F42AC71147124714F80778083100A00001
:1015F00080312000B525883130004608C8000A3007
:10160000C90080312000F926883177083000C600F3
:1016100078083030031D122BC7191B2B471C1B2BBE
:10162000471A2030F80778083100A00080312000E8
:10163000B525883130003030C60746083100A0009B
:1016400080312000B52588310D303100A000803177
:101650002000B52588310A303100A00080312000FB
:10166000B525883121000E1022000E141430F80028
:1016700021001D08833978049D000F30F8001F08F1
:10168000F03978049F000D30F700F70B452B9D14BF
:101690009D18482B1B08F8001C082C00B200780885
:1016A000B1000C30F80021001D08833978049D003A
:1016B0000F30F8001F08F03978049F000D30F70054
:1016C000F70B602B9D149D18632B1B08F8001C085A
:1016D0002C00B4007808B3000030F80021001D0889
:1016E000833978049D000F30F8001F08F039780422
:1016F0009F000D30F700F70B7B2B9D149D187E2B60
:101700001B08F8001C082C00AE007808AD00300063
:10171000C501C401C508031DF42B43084402031886
:10172000F42B4408220099008530F700F70B962B24
:101730000030F80021001D08833978049D000F3027
:10174000F8001F08F03978049F000D30F700F70B00
:10175000A72B03103000440DC600450DC700031031
:10176000460DF900470DFA007908393E8400203013
:101770007A3D850021009D149D18BC2B1B0880001C
:101780001C08813F0430F8001D08833978049D004F
:101790000F30F8001F08F03978049F000D30F70073
:1017A000F70BD02B03103000440DC600450DC700C9
:1017B0000130C6070030C73D0310460DF900470D44
:1017C000FA007908393E840020307A3D85002100F6
:1017D0009D149D18E92B1B0880001C08813F3000D8
:1017E000C40A0319C50A8A2BE9302300910000308E
:1017F000920080312000DA2588310030F800210085
:101800001D08833978049D000F30F8001F08F03957
:1018100078049F009D149D180B2C1B08F8001C08D1
:101820002C00B0007808AF0030004308C600EF304D
:10183000230091000030920080312000DA258831A9
:101840003000C7014608470203185D2D4708CC0049
:101850000330CD0080312000A627883191307807F1
:10186000F8002230FA000318FA0A78083000CC0099
:101870007A08CD000310470DFA01F9000310F90DA5
:10188000FA0D7908393E840020307A3D8500000841
:10189000CE0001310008CF003F31CF0CCE0CCF0C71
:1018A000CE0CCF0CCE0CCF0CCE0C0F30CF054E088B
:1018B000F700FA017A08CF004D0885004C08840033
:1018C0004E0880004708CC000330CD008031200056
:1018D000A6278831913078078400223085000318CC
:1018E000850A00083000CC00EC003730ED00803174
:1018F00020005826883120303100A000803120009F
:10190000B525883130004708CC000330CD00803148
:101910002000A627883101307807913EF800223058
:10192000FA000318FA0A78083000CC007A08CD00D3
:101930000310470DFA01F9000310F90DFA0D7908AB
:10194000393E840020307A3D85000008CE00013108
:101950000008CF003F310F30CE05CF01CE0DCF0DA7
:10196000CE0DCF0DCE0DCF0DCE0DCF0DF030CE055F
:101970000310470D013EFA01F9000310F90DFA0DAD
:101980007908393E840020307A3D85000008D00077
:1019900001310008D1003F315108D000D101500879
:1019A0000F39F700FA0177084E04F7007A084F0460
:1019B000FA007708CE007A08CF004D0885004C0861
:1019C00084004E0880004708CC000330CD008031F1
:1019D0002000A627883101307807913E840022300C
:1019E00085000318850A00083000CC00EC00373071
:1019F000ED00803120005826883120303100A000D1
:101A000080312000B525883130004708CC000330F4
:101A1000CD0080312000A627883102307807913E22
:101A2000F8002230FA000318FA0A78083000CC00D7
:101A30007A08CD000310470D013EFA01F9000310AA
:101A4000F90DFA0D7908393E840020307A3D850081
:101A50000008CE0001310008CF003F314E08F700EA
:101A6000FA017A08CF004D0885004C0884004E0822
:101A700080004708CC000330CD0080312000A6272D
:101A8000883102307807913E8400223085000318A7
:101A9000850A00083000CC00EC003730ED008031C2
:101AA00020005826883120303100A00080312000ED
:101AB000B52588313000C70A222C0D303100A00036
:101AC00080312000B52588310A303100A0008031F6
:101AD0002000B525883121000E1022000E1088311B
:101AE0002000A82D0B30230091000330920080319C
:101AF0002000DA25883130003F0884004008850046
:101B0000003FC1007830210099001E109E101E1168
:101B1000003023008C0090008D00E7308F00210002
:101B20001E129E161E179E171D14A030220098002C
:101B300032309900CA302300910000309200803189
:101B40002000DA25883130004108C2002000BD2A7B
:101B50009031272923009F15A0309B0001309C0065
:101B6000A6309E0090309D0021000D1222000D161F
:101B70002400951240309400093092002A309500DC
:101B800022009D129D111D1221008E120E168E1123
:101B90002000A901A8012A100330AB00AF01AE015B
:101BA000AD01AC01B301B201B101B001B501B401A5
:101BB000B701B601D8012C00AC01AB01AA01A90103
:101BC000AE01AD01B001AF01B201B101B401B30189
:101BD00023008C018D018E018F0190012200920162
:101BE00091011C2E2034603418340034FF346034EA
:101BF00039340034FF34C0340034FF34C03400348E
:101C00009334C0340034FF346334D53400340534A5
:101C1000C03400340C348034713400340134013465
:101C20007234003400340934013400340234013495
:101C30000934C034003400340D308500F2308400A3
:101C400085171200F700003A0319362E1200F8002B
:101C5000F81B2E2E3F39870012008600781B1200D9
:101C6000781F12001E00F70B302E212EF6302300B5
:101C700091000430920080312000DA25883117303D
:101C8000230091000530920080312000DA25883150
:101C90004130230091000530920080312000DA2588
:101CA000883180312A2E88318031352E883180313B
:101CB000422E88312F005E105B30230091000530EA
:101CC000920080312000DA2588312F005E185A2FCB
:101CD0002000D80803192A2F20303000BA0018300D
:101CE000B900200058083000BB0020000028790807
:101CF000FA00780884007A0885002330F800243040
:101D00008700EF30860012001E00F80B832E6A3029
:101D10002300910005309200031009303000EC00E0
:101D2000803120007F2688312F005F083000EC00D2
:101D3000B730ED0080312000582688310D30310059
:101D4000A00080312000B52588310A303100A00084
:101D500080312000B5258831723023009100053094
:101D6000920003100E303000EC00803120007F26FE
:101D7000883130003008BF001830C00080312000AA
:101D8000102788310D303100A00080312000B525AA
:101D900088310A303100A00080312000B52588311B
:101DA0007C30230091000530920080312000DA253C
:101DB00088313000B201300832020318F92EF030B9
:101DC00032078400243085000318850A0008B30018
:101DD000EC003730ED00803120005826883120306B
:101DE0003100A00080312000B52588313000B20AD2
:101DF000DB2E8130230091000530920080312000DD
:101E0000DA25883120303000B4001830B30020309B
:101E1000B6003830B50080312000772F883130008F
:101E2000311C202F2430B400EF30B300903120005B
:101E3000002888312F005E1078185E142B2F300098
:101E40008430230091000530920080312000DA2593
:101E50008831652E2F0020002B08033C031D482FDE
:101E6000B308031D402FB208031D402F290831027B
:101E7000031C482F031D402F300828020318482F49
:101E80008031CD278831F8080319482F0630AB0080
:101E90002F005E185A2F02303000B300C830BD004A
:101EA00080312000D82788313000B30B4E2F20001E
:101EB000652E2F008F302300910005309200803175
:101EC0002000DA2588312E303100A000803120003A
:101ED000B525883104303000B300FA30BD008031C0
:101EE0002000D82788313000B30B6D2F2000632FDE
:101EF000AF30230091000530920080312000DA25B8
:041F000088316300C1
:10200000FA30230091000330920080312000DA255D
:102010009031300033088400340885000031000816
:10202000003A200003191B28013A03195229033AE8
:102030000319AE29932B30003408B6003308B500DD
:102040000630230091000430920080312000DA2510
:102050009031113023009100043092008031200033
:10206000DA2590318031962790310230AB00013073
:1020700030003507F8000030363DFA007808B80027
:102080007A08B9003908BB003808BA003A08840059
:102090003B088500003FBC0001303A07F8000030E3
:1020A0003B3DFA007808BD007A08BE003C08BF003E
:1020B00080312000A12790317908FA007808840047
:1020C0007A0885000930F800253087002030860026
:1020D00012001E00F80B68283000C90148084902A8
:1020E0000318822820304907840025308500031812
:1020F000850A00083F02031D80280130F80084286B
:10210000C90A6E280030F800F8080319AD287B30A2
:102110002300910004309200031023303000EC00C3
:10212000803120007F26903130003C08BF001830FD
:10213000C00080312000102790310D303100A00008
:1021400080312000B52590310A303100A000803167
:102150002000B5259031302930003C08BF00803187
:102160002000A12790317908FA00780884007A08C5
:1021700085000930F80025308700203086001200E5
:102180001E00F80BBF2830004808083C0319D3286C
:102190004808C80A203E8400253085000318850AB7
:1021A0003F088000DD287630230091000230920045
:1021B00080312000DA25903130008F3023009100EB
:1021C0000430920080312000DA259031B8302300AD
:1021D00091000430920003100C303000EC0080318C
:1021E00020007F26903130003C08EC003730ED00B5
:1021F0008031200058269031BF30230091000430F8
:102200009200031004303000EC00803120007F2663
:10221000903130003C08013A200003191329A13AFB
:1022200003191D291E2930003E08C0003D08BF00CB
:1022300088312000722D903127292729C2302300B0
:1022400091000430920080312000DA259031CE30A8
:10225000230091000430920080312000DA25903173
:102260008031CD279031F80803194C29B308031D9C
:102270004629B208031D462929083102031C4929B1
:10228000031D462930082802031849290630AB00EF
:102290004B290330AB004E290430AB000030F8006E
:1022A0007808952B30003408B6003308B5001F308D
:1022B000230091000430920080312000DA25903113
:1022C00029302300910004309200031012303000B6
:1022D000EC00803120007F2690312B083000BF00B9
:1022E0001830C00080312000102790310D303100AF
:1022F000A00080312000B52590310A303100A000C7
:1023000080312000B5259031353023009100043014
:10231000920080312000DA25903101303000B80081
:102320002030BA000B30B9000130BB0088312000EA
:10233000332290312B08063C031DAA294430230088
:1023400091000430920080312000DA259031013074
:10235000F800AC290030F8007808952B30003408DC
:10236000B6003308B50052302300910004309200CB
:1023700080312000DA2590315E3023009100043056
:10238000920080312000DA259031803196279031FB
:102390003000350884003608850001318008031DAF
:1023A000862B6C3023009100043092008031200095
:1023B000DA2590310530AB008031CD279031F80817
:1023C000031D792B2F0046084502031DF62907300F
:1023D000230091000130920080312000DA259031F5
:1023E0000030F800F900112A112A2F0045083000AA
:1023F000BC0001302F0045070F39C50030003C08F4
:10240000CC000C30CD0080312000A6279031780818
:10241000153EF8002430FA000318FA0A7A08F90089
:10242000112A79083000B8007808B700370884000E
:102430003808850004310008BC0001310008BD00E7
:1024400001310008BE0001310008BF003D31A93054
:102450002300910003309200031018303000EC008C
:10246000803120007F26903130003F08EC0037306B
:10247000ED00803120005826903130003E08EC00FD
:102480003730ED00803120005826903130003D0873
:10249000EC003730ED0080312000582690313000BC
:1024A0003C08EC003730ED00803120005826903198
:1024B0000D303100A00080312000B52590310A3068
:1024C0003100A00080312000B52590313000370860
:1024D00084003808850000310008BC000131000884
:1024E000BD0001310008BE0001310008BF003D31D0
:1024F000B9302300910003309200031013303000F4
:10250000EC00803120007F26903130003F08EC0045
:102510003730ED00803120005826903130003E08E1
:10252000EC003730ED00803120005826903130002B
:102530003D08EC003730ED00803120005826903106
:1025400030003C08EC003730ED0080312000582688
:1025500090310D303100A00080312000B525903140
:102560000A303100A00080312000B52590313000C4
:10257000370884003808850008310008BC000131A4
:102580000008BD0001310008BE0001310008BF0095
:102590003D31C730230091000330920003100F300B
:1025A0003000EC00803120007F26903130003F0861
:1025B000EC003730ED00803120005826903130009B
:1025C0003E08EC003730ED00803120005826903175
:1025D00030003D08EC003730ED00803120005826F7
:1025E000903130003C08EC003730ED0080312000A5
:1025F000582690310D303100A00080312000B525E3
:1026000090310A303100A00080312000B525903192
:10261000D330230091000330920080312000DA256E
:10262000903104303000BC00FA30BD008031200011
:10263000D82790313000BC0B142B2E303100A00075
:1026400080312000B525903104303000BC00FA30D4
:10265000BD0080312000D82790313000BC0B272BE3
:102660002E303100A00080312000B525903104309B
:102670003000BC00FA30BD0080312000D8279031F6
:102680003000BC0B3A2B2E303100A00080312000EE
:10269000B525903104303000BC00FA30BD008031E7
:1026A0002000D82790313000BC0B4D2B2E3031004C
:1026B000A00080312000B52590310D303100A00000
:1026C00080312000B52590310A303100A0008031E2
:1026D0002000B525903104303000BC00FA30BD0038
:1026E00080312000D82790313000BC0B6E2B2000A9
:1026F000DC29D83023009100033092008031200083
:10270000DA2590310630AB008F2B30007430230077
:1027100091000430920080312000DA2590310030A1
:0E272000F8007808952B0030F8008831192F4A
:020000040001F9
:04000E00823FFF1E10
:00000001FF
;PIC16F1789
;CRC=3E7C  CREATED="09-5-25 19:56"
