:06000000B83100280000E9
:0800080083018031200077081C
:10001000A0007808A1007908A2007A08A3002300B4
:1000200011082000A400230012082000A5002300CE
:1000300013082000A600230014082000A700850153
:1000400091308400001C2628111846288501913023
:100050008400801E2D28911A48282008F7002108C6
:10006000F8002208F9002308FA0024082300910070
:10007000200025082300920020002608230093007A
:1000800020002708230094000900200080314A281E
:1000900080316A2896018030970096010000013077
:1000A000B1070318B20A0319B30A0319B40A1110ED
:1000B00080312D28D434ED3272104937693AE93055
:1000C000EC34FA320D0500008921EF367036653ABE
:1000D000E5060A006B286E28281C812859081F3C59
:1000E000031C81285908D90A1F39193E8400203081
:1000F00085000318850A911E7B28230019088000BB
:100100002000911280312D28D520522AA024EE34CF
:10011000F4346136693DE5060A008921EF36703610
:10012000653AE5060A00CD24D329C9274E10462694
:10013000C12948104937693AE930EC34FA320D05E3
:1001400000010923EC307334A0347310EE377410BF
:10015000E3376E37E531F432E4060A000923EC3068
:100160007334A0347310E3376E37E531F432E406AC
:100170000A008936E939E62FF0346336EF33DF3A87
:10018000F332DF31EF3A6E3A65392010201020103B
:100190002010201DA012EC3A0D0500008936E93927
:1001A000E62FF0346336EF33DF3AEE316F38F93251
:1001B000E42FE3377537F43272102010201DA0129F
:1001C000EC3A0D0500018936E939E62FF034633643
:1001D000EF335F36EF37F02FE3377537F4327210B5
:1001E000201020102010201DA012F5060A008921E1
:1001F000EF367036653AE5060A005538E430F432D9
:10020000A026C929D3244F272023CC205324A02063
:100210006432F232F339A020F232E1060A005B28A0
:10022000C921CC27C72E201D2000CD34F339E93752
:100230006E104636E1396810E93920376F3AA0313F
:100240006F37EE32633A65320D050000C927A024EE
:10025000EE34F4346136693DE5060A008921EF3653
:100260007036653AE5060A00412243104937693A7B
:10027000E930EC34FA320D0500018921EF36703691
:10028000653AE5060A00533A61397410D32BC5224A
:10029000D0060A008929F7326538A039F432701087
:1002A0003A10A53A0D05000145274410D32BC5226D
:1002B000D0060A00CC37E7336532A021C92353109A
:1002C000E430F4300D058000D3264610E430F430DD
:1002D0002036E9397410E93920337536EC10A11055
:1002E0000D050000D3264610E430F4302036E939FD
:1002F0007410E939A0326D38F43C0D0500000D058D
:10030000533A61397410ED30EB325F39E531E53441
:10031000F632DF31EF36ED306E320D050001892DFA
:10032000C227D3295D103E1F3E10000145376410DF
:10033000ED30EB325F39E531693BE52FE337ED36E0
:100340006137E4068A060A00F33467376136A03263
:100350006E32A03B693A68105323C4060A00E437A2
:10036000EE137410E6346E32A02946220D0500000B
:1003700089163E104937F630EC3464104639E136C0
:10038000651049222039E531E534F632641DA012AA
:10039000D8060A0089163E10432943106539F23702
:1003A000F2100D05000189042D1F2039E531E534D7
:1003B000F63264104329431DA012D8060A008904AE
:1003C0002010A0316F36EC32633AA021D221201DDB
:1003D000A012D8060A0089163E104937F630EC34D0
:1003E0006410E432F634E332A0244410F232E332F3
:1003F000693B65320D05000189042D1F2039E53167
:10040000E534F632641D20102010A012D8060A0030
:1004100089042010A0267910E432F634E332A024B7
:10042000441DA012D8060A00892DC227D3295D10C9
:100430003C1E3C10000189163E104639E13665101D
:1004400049223A10252C0D05000189163E10C337AC
:100450006E3A65377410F334FA323A1025320D05CE
:100460000010533A61397410D3264610F5396937B4
:100470006710F232F132733AA039E530F13A65375C
:10048000E3320D0500014539F237F2102029E5313C
:10049000E534F634EE33A031EF36ED306E32A03471
:1004A000EE316F37F334733A65377410F7347434C0
:1004B000203AE8322032E539E933EE060A00D32645
:1004C0004610F5396510F232F13AE53974106136AB
:1004D000EC37F732E4060A00D3264610F5396510EA
:1004E000F232F13AE5397410E432EE3C65320D0532
:1004F0000001D23274397910F232F13AE5397410D0
:10050000F4372021CF295310D024C3060A004539DF
:10051000F237F2102029E531E534F634EE33A0311C
:10052000EF36ED306E32A034EE316F37F334733A7C
:1005300065377410F7347434203AE8322032E539E4
:10054000E933EE060A0045376410D3264610F53924
:1005500069376710F232F132733AA039E530F13A77
:100560006537E3320D050000533A61397410CD2729
:10057000C422A026C520D32AD2220D050000533A5A
:1005800061397410CD27C422A026C520D32AD222D7
:10059000202B6F36F430E7320D050000533A6139F5
:1005A0007410D32BC522D0060A008929F73265388A
:1005B000A039F43270103A10A53A0D050001452714
:1005C0004410D32BC522D0060A00F4326D385F3AAE
:1005D0006F383A10252C0D050001F4326D385F316B
:1005E0006F3A3A10252C0D05000070325F3B6136E2
:1005F000F5323A10252C0D050000E334E7395F3B56
:100600006136F5323A10252C0D050000E33A7239B7
:100610006537F42FF630EC3A651DA012D8060A00B3
:10062000F6376C3AE133E52FF630EC3A651DA0124F
:10063000D8060A00533A613974104636E139681019
:100640004539E13965104136EC060A00453764103A
:100650004636E13968104539E13965104136EC0616
:100660000A00533A613974104636E1396810453949
:10067000E13965103110D332633A6F390D0500014D
:10068000453764104636E13968104539E13965105F
:100690003110D332633A6F390D050000533A613996
:1006A00074104636E1396810C337F03CA018A02911
:1006B000E531F437F2060A00453764104636E13971
:1006C0006810C337F03CA018A029E531F437F206D2
:1006D0000A00533A613974104636E13968105739C7
:1006E000693A6510C432ED370D05000145376410D5
:1006F0004636E13968105739693A6510C432ED372A
:100700000D050001D23261322022613A611DA01232
:10071000301958102518322CA012301958102518ED
:10072000322C0D050001D23261322022613A611D66
:10073000A012301958102518322CA0123019581058
:100740002518322C0D050001453764104636E13975
:1007500068105739693A6510C432ED370D0500004D
:10076000533A613974104636E13968105739693A9D
:100770006510B435C23CF432A0297531F332633AC6
:100780006F390D050001453764104636E1396810B0
:100790005739693A6510B435C23CF432A029753135
:1007A000F332633A6F390D050000533A6139741022
:1007B0004636E1396810D23261320D0500018926D2
:1007C0004F224510201020103A102518322C0D050C
:1007D000000189206432F232F33920103A10303CA3
:1007E00025183826D8060A000928E131EB3274278B
:1007F000F5363A10303C25183426D8060A00D222A5
:1008000041222022412AC1060A004537641046369B
:10081000E1396810D23261320D050000533A613976
:1008200074104636E1396810D2326132A020643249
:10083000F232F3390D050001D23261322022613AE1
:10084000611DA012301958102518322CA012301931
:1008500058102518322C0D05000145376410463616
:10086000E1396810D2326132A0206432F232F339B9
:100870000D050000533A613974104636E1396810AD
:10088000D3264610C337F03C0D05000145376410F0
:100890004636E1396810D3264610C337F03C0D05C3
:1008A0000000533A613974104636E1396810D32696
:1008B0004610D23261320D050001D232613220225F
:1008C000613A611D20000D05453764104636E13957
:1008D0006810D3264610D23261320D050000533A1B
:1008E000613974104636E1396810D32646105739FD
:1008F000693AE5060A00453764104636E139681062
:10090000D32646105739693AE5060A00533A613949
:1009100074104636E139681041326439E539731094
:10092000D232F332F4060A00453764104636E13914
:10093000681041326439E5397310D232F332F4066B
:100940000A000D05DF2FDF2FDF2FDF2FDF2FDF2F37
:10095000DF2FDF2FDF2FDF2F0D050001DF2FDF2936
:10096000F430723AA0316F38F92FE430F430DF2FD1
:100970000D050001533A61397410DB1264107434B0
:100980005D10E430F430A0316F38F9068A060A00B1
:100990000D05DF2FDF226E32A0316F38F92FE430E2
:1009A000F430DF2FDF2F0D050001DF2FDF2FDF2FCA
:1009B000DF2FDF2FDF2FDF2FDF2FDF2FDF2F0D05C3
:1009C0000D0500004937A0396D33A036E939F334FD
:1009D0006F372032613A6110733A61397410201018
:1009E00061326439E539731DA0124C2C0D050001EC
:1009F0004937A0396D33A036E939F3346F372032E7
:100A0000613A61106537641020102010613264393A
:100A1000E539731DA0124C2C0D0500014937A026A5
:100A2000C92920234D105739693A6510F3377539B4
:100A3000E3322032613A611061326439E539731D65
:100A4000A0124C2C0D0500014937A026C9292023EE
:100A50004D105739693A6510E430F430A039693DDA
:100A600065102010201020102010201DA012EC3A3C
:100A70000D050D050001D334FA32A030F2326110B9
:100A8000F23261320D050001F5396532DF39693D19
:100A900065103D1025367510A839F2312018F8126E
:100AA000301C4C2CA9060A00EC376F38A031EF3A05
:100AB0006E3A3D1025322010A839F2312018F81274
:100AC000301C4C2CA9068A060A0057396138203A96
:100AD000F234E733653965323A10D232F332743A80
:100AE00069376710E430F430DF3BF234F432DF3042
:100AF00064327210F437A039F430723A0D050000F8
:100B00005538E430F432A039693D65106139E5307B
:100B10000D050001F5396532DF39693D65103D107D
:100B20002536E4060A00EC376F38DF31EF3A6E3ACB
:100B3000A01EA012F5068A060A000D05DF2FDF2F82
:100B4000DF2FDF2FDF2FDF2FDF2FDF2FDF2FDF2F35
:100B5000DF2FDF2FDF2FDF2FDF2F0D05DF2FDF2F21
:100B6000DF29F430723AA032F832E33AF432DF3659
:100B7000E939F3346F37DF2FDF2FDF068A060A00EB
:100B8000C337ED366137641049223A10252C0D0524
:100B90000D05000189163E10453CE13670366510A2
:100BA000E337ED3661376410303C30180D05000135
:100BB00089042D1FA0246E3B61366932A0214D228D
:100BC000A024C4100D0500010D05DF2FDF2FDF2F3E
:100BD00045376410653CE531753AE52FED34F3395E
:100BE000E937EE2FDF2FDF2FDF068A2FDF2FDF2FF2
:100BF000DF2FDF2FDF2FDF2FDF2FDF2FDF2FDF2F85
:100C0000DF2FDF2FDF2FDF2FDF2F0D050000533AFF
:100C100061397410653CE531753AE52FE337ED36FF
:100C20006137E4060A0089163E105538EC34EE357B
:100C3000A031EF36ED306E320D05000109102010A5
:100C400054396137F336693AA020E335EE37EC3298
:100C50006732E5060A0089163E10533A613AF539C3
:100C6000A031E832E3350D05000109102010543998
:100C70006137F336693AA026C929A026C32AA029DC
:100C8000F430F43AF3060A00E634EE347334653295
:100C9000A0346E10733A613AF539DF31E832E3354A
:100CA0000D05000089163E10D3264610613BE13445
:100CB000EC30623665106334E531EB060A0009104A
:100CC000201054396137F336693AA020E335EE3706
:100CD000EC326732E5060A0089042D1FA0306C361D
:100CE000EF3BE4060A0089042D1F20326537F932F4
:100CF000E4060A000D050D050D05BD1EBD1EBD1E39
:100D0000BD1EBD1EBD1EBD1EBD1EBD1EBD1EBD1E0B
:100D1000BD1EBD1EBD1EBD1EBD1EBD1EBD1EBD1EFB
:100D2000BD1EBD1EBD1EBD1EBD1EBD1EBD1EBD1EEB
:100D3000BD1EBD1EBD1E0D0500015434E939A03491
:100D40007310CD27CD24CA24A021C9235310D02449
:100D5000431042214D10E6377210CD24D31B5F2182
:100D6000C22631170D050001CC30733AA03A70321B
:100D7000613A6532A0376E103218B21A2F18B617C2
:100D8000B11A2C10E23CA024EE37F532AE068A06EA
:100D90000A00DF2FDF2FC324C7292028C921A0295B
:100DA000F430723AA027F032F230F4346F37DF2F8C
:100DB000DF2FDF068A060A00F730693A69376710C5
:100DC000E6377210C227D3292028C921A031EF3677
:100DD000ED306E3200010D05F730693A6937671062
:100DE000E6377210C227D3292028C921A031EF3657
:100DF000ED306E3200010D050D05BD1EBD1EBD1E80
:100E00000D050D05C634EE34733465322038F237E3
:100E1000E332F339AE068A2BE1347410E6377210F0
:100E2000C227D3292028C921203A75396E106F3383
:100E30006610ED32000145376410ED3069370D055D
:100E4000000021000D1222000D120830F8002000D1
:100E5000292F0000F8173F2FF8133300AE0C2200A3
:100E600003180D16031C0D12200078173F2F78135E
:100E7000F80B2D2F3B2F000022000D162000843090
:100E80008400840B412F0000F81B2C2F781B372F78
:100E900008000B088B1323009517151400000000A1
:100EA000891B8B1713087F39031D582F2000982F9B
:100EB0003300AB00230011083300AC0023001208FC
:100EC0003300AD002B08AE002000212733002C0892
:100ED0002300910033002D08230092000B088B1390
:100EE0009517151400000000891B8B17130D140DA6
:100EF0007F39031D7D2F2000982F3300AB00230086
:100F000011083300AC00230012083300AD002B0899
:100F1000AE002000212733002C082300910033006D
:100F20002D0823009200910A0319920A2000492FEC
:100F3000080026302300910001309200200049274C
:100F400021000E1022000E1021008E1122008E11A1
:100F50002E30230091000130920020004927B83143
:100F6000152D3430230091000130920020004927D4
:100F70007830210099001E109E101E1100302300B1
:100F80008C000030900000308D00EB308F0021008D
:100F90001E129E161E179E131D14983022009800D4
:100FA000323099003D302300910001309200200042
:100FB0004927B831182D8430230091000030920069
:100FC0002000492721009116C0308B048D3023006A
:100FD00091000030920020004927B8311B2D2F00CE
:100FE0004210C3154311C2104211C2112000B83182
:020FF000212DB1
:101000005A3023009100003092008031200049279F
:10101000883111108F309800990196018030970027
:101020009601000021001114C0308B0464302300AD
:101030009100003092008031200049278831B8317A
:101040001E2D330049080739F700490CF800F80C49
:10105000F80C1F30F80578084B07840000304C3D31
:101060008500F801F80AF70A20003728F80DF70B79
:1010700036283300CA08031D3F282000432878087B
:10108000800420004628F80978088005080024001C
:101090001108330066082400910020002400140C7D
:1010A0000318542820004E281108F70020000800DB
:1010B0002400110833006608240091002000240059
:1010C000140C0318652820005F281108F700200081
:1010D000080033004908003A200003197328013A38
:1010E0000319F42875293300D801D70120003300F3
:1010F0005808500203187E282000A5282000031D50
:10110000892833004F085702031C88282000A5288F
:10111000200033004D08570784004E08583D8500D5
:101120000008E40024009512403094000930920039
:101130002A30950033006408E60020004720330081
:10114000D70A0319D80A200077283300DC01DB0115
:10115000DA01D901200033005C0856020318B228D6
:101160002000F3282000031DD12833005B0855021E
:101170000318BC282000F3282000031DD1283300C9
:101180005A0854020318C6282000F3282000031D23
:10119000D128330053085902031CD0282000F3281B
:1011A0002000330051085907840052085A3D850039
:1011B0002400951240309400093092002A309500A6
:1011C00001303300E60020004720780877088000CF
:1011D00001303300D9070318DA0A0319DB0A0319AF
:1011E000DC0A2000AB2876293300DE01DD01200077
:1011F00033005E0850020318FF2820002629200033
:10120000031D0A2933004F085D02031C0929200031
:101210002629200033004D085D0784004E085E3DFE
:1012200085000008E4002400951240309400093045
:1012300092002A30950033006408E6002000582010
:101240003300DD0A0319DE0A2000F8283300E2012A
:10125000E101E001DF0120003300620856020318BB
:101260003329200074292000031D5229330061080E
:10127000550203183D29200074292000031D52291E
:101280003300600854020318472920007429200005
:10129000031D5229330053085F02031C512920000B
:1012A00074292000330051085F0784005208603D14
:1012B00085002400951240309400093092002A30B5
:1012C000950002303300E6002000582078087708A7
:1012D000800001303300DF070318E00A0319E10A38
:1012E0000319E20A20002C297629762908009F306C
:1012F0003000EF006D083300C900CA010130CC0096
:10130000CB012000212030006D083300C900CA0144
:10131000CC018030CB002000212030006E0833004B
:10132000CC0030006D083300CB0030006C08330077
:10133000CA0030006B083300C9002530CE004F30A2
:10134000CD00D0010130CF002530D2005030D10087
:10135000D601D501D4010430D3002000692030002B
:101360006D083300C9000130CA000130CC00CB0148
:101370002000212030006D083300C900CA01CC01D3
:101380008030CB002000212031002008203C0319B0
:10139000CB292000D02920000130F800D329D329FF
:1013A0000030F800D32908003300AA080319DA290D
:1013B0002000482A200003303300B7002F08C40063
:1013C0003008C500C601C7014408F700F801F9015B
:1013D000FA017708B8002E08C4002F08C5003008AD
:1013E000C600C7014408F700F801F901FA017708BF
:1013F000B9002D08F700F801F901FA017708BA00E1
:101400002B08C900CA010130CC00CB0120002120EB
:1014100033002B08C900CA01CC018030CB0020006A
:10142000212033002C08CC002B08CB002A08CA004E
:101430002908C9002630CE000730CD00D001043085
:10144000CF003208D2003108D1003608D600350866
:10145000D5003408D4003308D300200069200230BE
:10146000F700F70B312A000033002B08C9000130C8
:10147000CA000130CC00CB012000212033002B0812
:10148000C900CA01CC018030CB0020002120C82A2D
:1014900033002A0B4D2A4F2A20002000C82A2000A2
:1014A00013303300BB003008C400C501C601C701BA
:1014B0004408F700F801F901FA017708BC002F0889
:1014C000C4003008C500C601C7014408F700F80190
:1014D000F901FA017708BD002E08C4002F08C500E5
:1014E0003008C600C7014408F700F801F901FA0105
:1014F0007708BE002D08F700F801F901FA01770816
:10150000BF002B08C900CA010130CC00CB0120006C
:10151000212033002B08C900CA01CC018030CB0048
:101520002000212033002C08CC002B08CB002A08F7
:10153000CA002908C9002630CE000B30CD00D001EA
:101540000530CF003208D2003108D1003608D6006D
:101550003508D5003408D4003308D30020006920B2
:101560000230F700F70BB22A000033002B08C90045
:101570000130CA000130CC00CB0120002120330013
:101580002B08C900CA01CC018030CB0020002120EB
:1015900008000B088B13230095171514000000009A
:1015A000891B8B17031CD62A2000022B13087F39B6
:1015B0003100D200230011083100D30023001208AB
:1015C0003100D40052083300AE00803120002127C2
:1015D0008831310053082300910031005408230062
:1015E00092000B088B139517151400000000891B3F
:1015F0008B173100D10BFE2A002B20002000022B7C
:1016000020002A2B2300130D140D7F393100D20046
:10161000230011083100D300230012083100D40048
:1016200052083300AE00803120002127883131007C
:101630005308230091003100540823009200910ABE
:101640000319920A03103100D10B282B2A2B2000FA
:101650002000C92A200008008318322B253085007D
:101660009B308400F701F801F901FA013100EB0128
:10167000EC01ED01EE016708660465046404031DD6
:10168000432B2000862B200020303100EF0020006B
:1016900003103100E00DE10DE20DE30DEB0DEC0D5B
:1016A000ED0DEE0D67086E020319582B2000672B15
:1016B00066086D0203195E2B2000672B65086C021B
:1016C0000319642B2000672B64086B022000031CA5
:1016D0007A2B31006408EB026508031C650FEC02ED
:1016E0006608031C660FED026708031C670FEE0215
:1016F00003142000F70DF80DF90DFA0D3100EF0B72
:10170000832B852B20002000482B200031006B0804
:10171000800001316C08800001316D0880000131CA
:101720006E0880003D312000080004083100D80018
:101730003B30DF009A30DE00CA30DD00DC010A30C9
:10174000DA002000831425308500813084003100C8
:101750005408E3005308E2005208E1005108E00099
:101760005F08E7005E08E6005D08E5005C08E4004D
:1017700020002C237808F708031DE12B31005A08BC
:10178000013A031DC52B2000E12B5808031DCA2B6D
:101790002000E42B0F395A02031DD02B2000D52B3B
:1017A000031CD42B2000ED2B20003100D81FDA2B96
:1017B0002000ED2B581FDE2B2000E42B20302000D2
:1017C000E52B3100D80120003030F70777083300CF
:1017D000AE008031200021278831831031005F085E
:1017E000E3005E08E2005D08E1005C08E000E7015C
:1017F000E601E5010A30E40020002C237A083100DC
:10180000DF007908DE007808DD007708DC00DA0BFD
:101810000B2C0D2C20002000A22B200008003100F2
:101820005508F8015402031C172C20001B2C5408E7
:10183000F70020002E2CF70108303100D6002000E0
:101840003100D40DF70D550877020318F700F80D95
:10185000D60B2C2C2E2C20002000202C2000080041
:10186000780831003A08D4006430D50020000F24F5
:1018700077083100BA00780830300319412C200075
:101880004D2CBB18452C20005A2CBB1D492C200088
:101890005A2C3B1A20302000522C3100BB113B1235
:1018A0003B142000F80778083300AE008031200098
:1018B0002127883131003A08D4000A30D5002000B1
:1018C0000F2477083100BA007808303003196A2CE9
:1018D0002000752CBB1D6E2C20007D2C3B18722C1B
:1018E00020007D2C3B1A20302000F80778083300B8
:1018F000AE00803120002127883130303100BA0716
:101900003A083300AE0080312000212788310800DA
:10191000933023009100003092008031200049274D
:10192000883121008F1022008F1421000F11220016
:101930000F152D0045083000EE002D004408300042
:10194000ED002D0043083000EC002D00420830006F
:10195000EB0020007721F808031DB92CA1302300EB
:101960009100003092008031200049278831872D76
:10197000C22CAE3023009100003092008031200054
:10198000492788312D0045083300AC002D0044085C
:101990003300AB002D0043083300AA002D0042089D
:1019A0003300A900B001AF01AE01AD012430B20097
:1019B000E430B100B601B501B4014030B3002000FD
:1019C000D421B9302300910000309200031023305D
:1019D0003100D1002000C922413084002F0061086D
:1019E0003100D4002F0060083100D3002F005F08C1
:1019F0003100D2002F005E083100D1002000952375
:101A00000D303300AE0080312000212788310A30AC
:101A10003300AE008031200021278831CE302300F2
:101A2000910000309200031023303100D1002000DB
:101A3000C922413084002F0066083100D4002F00F5
:101A400065083100D3002F0064083100D2002F0058
:101A500063083100D100200095230D303300AE0023
:101A600080312000212788310A303300AE008031D8
:101A7000200021278831E3302300910000309200BC
:101A8000031023303100D1002000C9222F0062084A
:101A90003100BA001B30BB00200030240D30330071
:101AA000AE0080312000212788310A303300AE009B
:101AB00080312000212788312F006B082D00B500D0
:101AC0002F006A082D00B4002F0069082D00B30014
:101AD0002F0068082D00B2002F006208F30066088E
:101AE0002D00B9002F0065082D00B8002F006408F4
:101AF0002D00B7002F0063082D00B600F73023003B
:101B00009100003092008031200049278831B8319F
:101B1000242D3108F7003208F8003308F9003408A2
:101B2000FA0008003100D21F972D2000B02D0F3091
:101B3000F700510EF7050A307702031CA12D200093
:101B4000A52D3030F7072000A92D31005208F707E6
:101B5000200077083300AE00803120002127883133
:101B60000F303100D1050A305102031CB92D20007D
:101B7000BC2D30302000C02D3100D213520820007F
:101B80003100D10751083300AE00803120002127F9
:101B90008831080033004308003A20000319D42D8F
:101BA000013A0319072E3A2E3300CC01CB01200055
:101BB00033004C084A020318DF2D2000062E2000B7
:101BC000031DEA2D330049084B02031CE92D2000B8
:101BD000062E2000330047084B07840048084C3D80
:101BE00085000008CF002400951240309400093091
:101BF00092002A30950033004F08E600200047206D
:101C00003300CB0A0319CC0A2000D82D3B2E330019
:101C1000CE01CD01200033004E084A020318122ED7
:101C20002000392E2000031D1D2E330049084D02CF
:101C3000031C1C2E2000392E2000330047084D07BE
:101C4000840048084E3D85000008CF00240095120E
:101C500040309400093092002A30950033004F083C
:101C6000E600200058203300CD0A0319CE0A2000D8
:101C70000B2E3B2E3B2E080033004308003A200079
:101C80000319462E013A03199E2EF62E3300CE017B
:101C90002000330049084E02031C502E20006B2EFA
:101CA000200033004E08470784000030483D85007F
:101CB0000008D400240095124030940009309200AE
:101CC0002A30950033005408E600200047203300F6
:101CD000CE0A2000492E3300D001CF01200033006E
:101CE00050084D020318762E20009D2E2000031D63
:101CF000812E33004C084F02031C802E20009D2EA5
:101D0000200033004A084F0784004B08503D8500EF
:101D10000008D4002400951240309400093092004D
:101D20002A30950033005408E60020004720330095
:101D3000CF0A0319D00A20006F2EF72E3300D101ED
:101D40002000330049085102031CA82E2000C32E96
:101D5000200033005108470784000030483D8500CB
:101D60000008D400240095124030940009309200FD
:101D70002A30950033005408E60020005820330034
:101D8000D10A2000A12E3300D301D201200033005C
:101D900053084D020318CE2E2000F52E2000031DFF
:101DA000D92E33004C085202031CD82E2000F52EE9
:101DB000200033004A08520784004B08533D850039
:101DC0000008D4002400951240309400093092009D
:101DD0002A30950033005408E600200058203300D4
:101DE000D20A0319D30A2000C72EF72EF72E0800B7
:101DF00005303300C7004508C900CA010130CC00D6
:101E0000CB012000212033004508C900CA01CC01C4
:101E10008030CB002000212033004608CC0045084C
:101E2000CB004408CA004308C9002630CE00173052
:101E3000CD00D0010130CF002630D2001830D100C3
:101E4000D601D501D4010130D30020006920330030
:101E50004508C9000130CA000130CC00CB01200088
:101E6000212033004508C900CA01CC018030CB00D5
:101E70002000212033004808F80020000800263008
:101E800085001330840000080319542F0530F80032
:101E9000F701F70B492FF80B482F2E30F700F70BFF
:101EA0004F2F522F800B462F080030002808840047
:101EB0002908850000310008AB000130AC0020008B
:101EC00030002A082C02031C672F2000742F2000EA
:101ED00030002C08AC0A280784000030293D85001A
:101EE0000008AB062000602F30002B08F80020000F
:101EF00008002F005708FA00560884007A08850069
:101F00000008D8005508850054088400F7015808D7
:101F1000F800200078080319912F77081A00F80BB1
:101F20008D2F2F005708FA00560884007A08850084
:101F300080012000B831732D0F302F00D800DA0156
:101F4000D901DB019031200074258831080033006D
:101F50002B08C9000130CA000130CC00CB012000A1
:101F6000212033002B08C900CA01CC018030CB00EE
:101F70002000212008001A30230091000330920035
:101F800080312000492788312D0045083300AC00FE
:101F90002D0044083300AB002D0043083300AA0095
:101FA0002D0042083300A9002000A7272D00450876
:101FB0003000A3002D0044083000A2002D0043088B
:101FC0003000A1002D0042083000A000A701A601AA
:101FD000A501A401903120001C2688312630230061
:101FE0009100033092008031200049278831A031D0
:021FF000832B41
:102000003300AA08031906282000BE282000063045
:102010003300B500200002303300B6002F08C400A2
:102020003008C500C601C7014408F700F801F901EE
:10203000FA017708B7002E08C4002F08C500300841
:10204000C600C7014408F700F801F901FA01770852
:10205000B8002D08F700F801F901FA017708B90076
:102060002B08C900CA010130CC00CB018831200007
:102070002120903133002B08C900CA01CC018030E7
:10208000CB00883120002120903133002C08C6007D
:102090002B08C5002A08C4002908C3002630C80040
:1020A0000530C700CA010130C90088312000CA25A7
:1020B000903133002B08C9000130CA000130CC0038
:1020C000CB01883120002120903133002B08C9003A
:1020D000CA01CC018030CB00883120002120903112
:1020E00033002B08C900CA010130CC00CB01883174
:1020F00020002120903133002B08C900CA01CC01F7
:102100008030CB00883120002120903133002C0812
:10211000C6002B08C5002A08C4002908C3002630C1
:10212000C8000630C7000430C9003208CB003108AF
:10213000CA003408CD003308CC00883120003C268A
:1021400090310230F700F70BA328000033002B0872
:10215000C9000130CA000130CC00CB018831200019
:102160002120903133002B08C900CA01CC018030F6
:10217000CB008831200021209031882933002A0BA0
:10218000C328C528200020008829200006303300FD
:10219000BA00200012303300BB003008C400C50173
:1021A000C601C7014408F700F801F901FA017708F0
:1021B000BC002F08C4003008C500C601C701440890
:1021C000F700F801F901FA017708BD002E08C400F4
:1021D0002F08C5003008C600C7014408F700F80101
:1021E000F901FA017708BE002D08F700F801F9019E
:1021F000FA017708BF002B08C900CA010130CC00E2
:10220000CB01883120002120903133002B08C900F8
:10221000CA01CC018030CB008831200021209031D0
:1022200033002C08C6002B08C5002A08C400290862
:10223000C3002630C8000A30C700CA010130C900F7
:1022400088312000CA25903133002B08C9000130A5
:10225000CA000130CC00CB01883120002120903110
:1022600033002B08C900CA01CC018030CB00883173
:1022700020002120903133002B08C900CA01013011
:10228000CC00CB01883120002120903133002B0875
:10229000C900CA01CC018030CB0088312000212048
:1022A000903133002C08C6002B08C5002A08C40052
:1022B0002908C3002630C8000B30C7000530C9000C
:1022C0003208CB003108CA003408CD003308CC00F6
:1022D000883120003C2690310230F700F70B6E2940
:1022E000000033002B08C9000130CA000130CC00C7
:1022F000CB01883120002120903133002B08C90008
:10230000CA01CC018030CB008831200021209031DF
:102310003300C001200033002C08C6002B08C50084
:102320002A08C4002908C30088312000F82690310B
:1023300078080139013C031DC129330040080A3CDB
:10234000031CA4292000AD292000C8303300C3009D
:10235000883120003F279031B4290A303300C30070
:10236000883120003F27903133004008643C031C33
:10237000BB292000BD292000C1293300C00A20004C
:102380008B2908008831892590317A083000E500D2
:102390007908E4007808E3007708E2006508EC00BB
:1023A000ED01EE01EF016C08DC006408EC0065084B
:1023B000ED00EE01EF016C08DD006308EC0064083D
:1023C000ED006508EE00EF016C08DE006208DF003A
:1023D0005A08E0005B08E1000F3023009100013053
:1023E000920080312000492790313000E601200022
:1023F00030006608053C0318FF2920001E2A200033
:102400003C30300066078400253085000318850ABB
:102410000008EB006B083100D1003730D200883162
:1024200020009225903120303300AE008031200012
:10243000212790313000E60A2000F8290D303300C2
:10244000AE0080312000212790310A303300AE00E9
:1024500080312000212790312D0032083000E70024
:1024600002302D0033073000E80000302D00343DED
:102470003000E90000302D00353D3000EA002D002D
:1024800045083000EE002D0044083000ED002D001E
:1024900043083000EC002D0042083000EB0088318A
:1024A000200077219031F808031D602A15302300A1
:1024B0009100013092008031200049279031F92AA3
:1024C0002D0045083300AC002D0044083300AB005C
:1024D0002D0043083300AA002D0042083300A90054
:1024E00030006A083300B000300069083300AF00E4
:1024F000300068083300AE00300067083300AD00DC
:102500002530B2003C30B100B4010630B3002000E9
:10251000002006302D00B2070030B33D0030B43D3E
:102520000030B53D063032073000EB0000302D00A2
:10253000333D3000EC0000302D00343D3000ED0024
:1025400000302D00353D3000EE00EE080319AA2AB8
:102550002000C12A20003000ED080319B12A200014
:10256000C12A20003000EC080319B82A2000C12A33
:10257000200030006B083B3C031CC02A2000F92AD5
:1025800020002430FA00163084007A088500000804
:102590003000EB002D0045083300AC002D0044084E
:1025A0003300AB002D0043083300AA002D00420881
:1025B0003300A90030006A083300B0003000690819
:1025C0003300AF00300068083300AE003000670809
:1025D0003300AD00B20130006B083300B100B4012C
:1025E0000630B300200000202D00B501B401B30176
:1025F000B201200008002F00DD01DE01DF01E00153
:10260000E101E201E301E401E501E601E701E8019E
:102610007F30230091000130920080312000492753
:1026200090318F30230091000130920080312000E2
:10263000492790312F00E90120002F005C08690232
:10264000031C242B2000432B20002F0069085A076D
:10265000840000305B3D850000083000A2002208A5
:102660003100D1003730D2008831200092259031DE
:1026700020303300AE0080312000212790312F0020
:10268000E90A20001D2B0D303300AE008031200000
:10269000212790310A303300AE00803120002127FD
:1026A00090312F005B083000A3002F005A08300043
:1026B000A2002F005C083000A40020003000A5011B
:1026C000A50120000130300024022502031C6A2BE2
:1026D0002000832B200030002508220784000030D2
:1026E000233D85000008AA3C0319782B20007F2B8E
:1026F0002000013030002507F8002000AA2B300010
:10270000A50A2000622B3000250822078400003033
:10271000233D85000008AA3C0319902B20009E2B26
:102720002000A4302300910001309200803120006D
:1027300049279031FF30F800AA2BAA2BAF30230095
:102740009100013092008031200049279031FF3004
:10275000F800AA2B78082F00EA006A08FF3C03194A
:10276000B32B2000B92B2000DD30F8000730F90032
:10277000722D2F006A085A07EB0000305B3DEC0019
:102780006B0884006C088500003100080F39ED00EB
:102790006D083000A20020003000A30120003000AE
:1027A0002308023C0318D62B2000F92B200003102D
:1027B0003000230DCC3E8400243085000318850AA8
:1027C000000822020319E62B2000F52B200003103D
:1027D0003000230D013ECC3E8400243085000318D8
:1027E000850A0008F8002000202C3000A30A2000F1
:1027F000CF2BB830230091000130920003101F301E
:102800003100D10088312000C922903130002208E7
:102810003100D1003730D20088312000922590312C
:102820000D303300AE0080312000212790310A3076
:102830003300AE008031200021279031FF30F800B6
:1028400078082F00EE006E08FF3C0319292C2000A9
:102850002F2C2000DD30F8000730F900722D2F00FA
:102860006A085C02EF006C083000A3002F006B08C0
:102870003000A2002F006F083000A40020000130BB
:1028800030002402220784000030233D8500000828
:10289000A50001302402A7002308A9002208A800EF
:1028A0002708AA0088312000552790317808300089
:1028B000A6002608250203195F2C2000642C2000A6
:1028C0000130F800BA2CBA2CCA3023009100013034
:1028D00092008031200049279031D33023009100AD
:1028E00001309200031013303100D10088312000F4
:1028F000C9229031300025083100D1003730D20094
:1029000088312000922590310D303300AE008031A7
:102910002000212790310A303300AE0080312000A2
:1029200021279031DF302300910001309200031005
:1029300013303100D10088312000C922903130009D
:1029400026083100D1003730D2008831200092258E
:1029500090310D303300AE008031200021279031BE
:102960000A303300AE008031200021279031003042
:10297000F800BA2CF808031DC22CDD30F80007302F
:10298000F900722D2F006B0884006C08850000315F
:102990000008F039F700770E3000A2000F30A205D2
:1029A0002208A3002000300023080C3C0319DA2C75
:1029B0002000DF2C20000130F800342D342DEB30C6
:1029C000230091000130920080312000492790318E
:1029D000FC302300910001309200031013303100CD
:1029E000D10088312000C922903130002308310005
:1029F000D1003730D20088312000922590310D303F
:102A00003300AE0080312000212790310A3033009E
:102A1000AE00803120002127903108302300910042
:102A200002309200031013303100D10088312000B1
:102A3000C92290310C303100D1003730D2008831BA
:102A40002000922590310D303300AE0080312000FF
:102A5000212790310A303300AE0080312000212739
:102A600090310030F800342DF808031D3C2DDD3086
:102A7000F8000730F900722D2F006D08DD000130DD
:102A80006B073000A20000302F006C3D3000A30027
:102A900002302F006F023000A400230885002208B6
:102AA00084002408F800031D572D2000602D2430D9
:102AB0008700F0308600200012001E00F80B5C2D0D
:102AC00002302F006F02DE005F1496302300910069
:102AD000013092008031200049279031DD30F8002C
:102AE0000730F900B831562DAA302F00DC00580805
:102AF0005038DD005A088500590884005B08F8004A
:102B0000031D842D20008D2D24308700EE3086009B
:102B1000200012001E00F80B892D02302F005B07E9
:102B2000EC00EC306C073000A2002430A300031846
:102B3000A30A01302F006C023000A4002430A90049
:102B4000ED30A8002408AA008831200055279031D4
:102B500030002308850022088400780880000130B6
:102B60002F006C07ED0024303000A300EC30A200F1
:102B70002F006D083000A40020003000A5012000C7
:102B8000300024082502031CC72D2000DC2D200066
:102B900030002508220784000030233D850000080E
:102BA000A70027082000111ED32D23009A00200023
:102BB0003000A50A2000C02D1430230091000230FF
:102BC000920080312000492790313000A60120007A
:102BD000300024082602031CEF2D20000D2E2000BB
:102BE00030002608220784000030233D85000008BD
:102BF000A70027083100D1003730D20088312000EB
:102C00009225903120303300AE0080312000212702
:102C100090313000A60A2000E82D0D303300AE00C0
:102C200080312000212790310A303300AE008031FE
:102C300020002127903108003000A1080319222E1E
:102C40002000E42E200006303000A8002000D830FC
:102C50003000A9002608B5002708B600B701B80162
:102C60003508F700F801F901FA017708AA002508EC
:102C7000B5002608B6002708B700B8013508F700E8
:102C8000F801F901FA017708AB002408F700F80110
:102C9000F901FA017708AC0022083300C900CA0123
:102CA0000130CC00CB018831200021209031300050
:102CB00022083300C900CA01CC018030CB00883122
:102CC000200021209031300023083300C60030005E
:102CD00022083300C500300021083300C400300052
:102CE00020083300C3002530C8000830C700CA01DF
:102CF0000130C90088312000CA25903130002208F7
:102D00003300C9000130CA000130CC00CB0188314A
:102D1000200021209031300022083300C900CA0170
:102D2000CC018030CB008831200021209031300050
:102D300022083300C900CA010130CC00CB01883120
:102D4000200021209031300022083300C900CA0140
:102D5000CC018030CB008831200021209031300020
:102D600023083300C600300022083300C5003000BD
:102D700021083300C400300020083300C300253090
:102D8000C8000930C700CA010430C90088312000DA
:102D9000CA259031300022083300C9000130CA0032
:102DA0000130CC00CB01883120002120903130004F
:102DB00022083300C900CA01CC018030CB00883121
:102DC000200021209031B92F3000210BE92EEB2E6D
:102DD00020002000B92F200006303000AD00200078
:102DE000DC303000AE002708B500B601B701B801ED
:102DF0003508F700F801F901FA017708AF00260855
:102E0000B5002708B600B701B8013508F700F8018A
:102E1000F901FA017708B0002508B5002608B600C8
:102E20002708B700B8013508F700F801F901FA01E1
:102E30007708B1002408F700F801F901FA017708D2
:102E4000B20022083300C900CA010130CC00CB0116
:102E50008831200021209031300022083300C90041
:102E6000CA01CC018030CB00883120002120903174
:102E7000300023083300C600300022083300C500AC
:102E8000300021083300C400300020083300C300A4
:102E90002530C8000D30C700CA010130C900883193
:102EA0002000CA259031300022083300C9000130CB
:102EB000CA000130CC00CB018831200021209031A4
:102EC000300022083300C900CA01CC018030CB0099
:102ED0008831200021209031300022083300C900C1
:102EE000CA010130CC00CB01883120002120903173
:102EF000300022083300C900CA01CC018030CB0069
:102F00008831200021209031300023083300C60092
:102F1000300022083300C500300021083300C4000F
:102F2000300020083300C3002530C8000E30C70031
:102F3000CA010530C90088312000CA25903130000F
:102F400022083300C9000130CA000130CC00CB0197
:102F50008831200021209031300022083300C90040
:102F6000CA01CC018030CB00883120002120903173
:102F7000B92F3000B3012000300023083300C60011
:102F8000300022083300C500300021083300C4009F
:102F9000300020083300C30088312000F82690312B
:102FA00078080139013C031DF92F300033080A3C31
:102FB000031CDC2F2000E52F2000C8303300C300A5
:102FC000883120003F279031EC2F0A303300C300B6
:102FD000883120003F27903130003308643C031CC7
:102FE000F32F2000F52F2000F92F3000B30A200026
:042FF000BC2F0800EA
:1030000031302300910003309200803120004927A5
:1030100098312D0045083300AC002D0044083300E2
:10302000AB002D0043083300AA002D0042083300F6
:10303000A90088312000A72798312D0045083000CD
:10304000A3002D0044083000A2002D0043083000EA
:10305000A1002D0042083000A000A701A601A50193
:10306000A401903120001C269831403023009100AB
:10307000033092008031200049279831A0318D2BF8
:103080004E30230091000330920080312000492708
:1030900098312D0045083300AC002D004408330062
:1030A000AB002D0043083300AA002D004208330076
:1030B000A90088312000A72798312D00450830004D
:1030C000A3002D0044083000A2002D00430830006A
:1030D000A1002D0042083000A000A701A601A50113
:1030E000A401903120001C2698315C30230091000F
:1030F000033092008031200049279831A031972B6E
:10310000693023009100033092008031200049276C
:1031100098312D0045083000A3002D0044083000F0
:10312000A2002D0043083000A1002D00420830000D
:10313000A000A701A601A501A401903120001C2632
:10314000983164303300C300883120003F27983124
:103150002F00E401E301E201E1010130E50002306A
:10316000E6000330E7000430E8002D004508330096
:10317000AC002D0044083300AB002D0043083300A1
:10318000AA002D0042083300A9002F006408330074
:10319000B0002F0063083300AF002F006208330037
:1031A000AE002F0061083300AD002430B200F530CE
:1031B000B100B4010430B3009031200000209831F8
:1031C000763023009100033092008031200049279F
:1031D00098312D0045083300AC002D004408330021
:1031E000AB002D0043083300AA002D004208330035
:1031F000A9002F0064083300B0002F0063083300DB
:10320000AF002F0062083300AE002F0061083300CA
:10321000AD002430B200F930B100B601B501B401FF
:103220000430B30088312000D4219831823023004B
:1032300091000330920003100B303100D10088312F
:103240002000C92298312F0069083100D1003730A1
:10325000D200883120009225983120303300AE0012
:1032600080312000212798312F006A083100D100D9
:103270003730D20088312000922598312030330039
:10328000AE0080312000212798312F006B083100DB
:10329000D1003730D200883120009225983120307B
:1032A0003300AE0080312000212798312F006C08B8
:1032B0003100D1003730D20088312000922598317A
:1032C0000D303300AE0080312000212798310A30C4
:1032D0003300AE00803120002127983105302F00C7
:1032E000E5000630E6000730E7000830E80004306B
:1032F00061073000A00000302F00623D3000A100C7
:1033000000302F00633D3000A20000302F00643DEC
:103310003000A3002D0045083300AC002D00440808
:103320003300AB002D0043083300AA002D004208F3
:103330003300A900300023083300B0003000220819
:103340003300AF00300021083300AE003000200809
:103350003300AD002430B200F530B100B4010430C8
:10336000B300903120000020983104302F00610715
:103370003000A00000302F00623D3000A10000307E
:103380002F00633D3000A20000302F00643D30006C
:10339000A3002D0045083300AC002D004408330085
:1033A000AB002D0043083300AA002D004208330073
:1033B000A900300023083300B00030002208330099
:1033C000AF00300021083300AE0030002008330089
:1033D000AD002430B200F930B100B601B501B4013E
:1033E0000430B30088312000D42198319330230079
:1033F00091000330920003100B303100D10088316E
:103400002000C92298312F0069083100D1003730DF
:10341000D200883120009225983120303300AE0050
:1034200080312000212798312F006A083100D10017
:103430003730D20088312000922598312030330077
:10344000AE0080312000212798312F006B08310019
:10345000D1003730D20088312000922598312030B9
:103460003300AE0080312000212798312F006C08F6
:103470003100D1003730D2008831200092259831B8
:103480000D303300AE0080312000212798310A3002
:103490003300AE008031200021279831A430230072
:1034A0009100033092008031200049279831A031EB
:1034B000A12BB03023009100033092008031200016
:1034C000492798312D0045083300AC002D004408F1
:1034D0003300AB002D0043083300AA002D00420842
:1034E0003300A90088312000A72798312F00E4017C
:1034F000E301E201E1010130E5000230E6000330C2
:10350000E7000430E800E901EA01EB01EC01ED011C
:10351000EE01EF013000A001A101A201A301A4016D
:10352000A501A601A701A801A901AA01AB01AC014F
:10353000AD01AE01AF01B001B101B201B301B401FF
:10354000B501B601B701B801B901BA01BB01BC01AF
:10355000BD01BE01BF01C001C101C201C301C4015F
:10356000C501C601C701C801C901CA01CB01CC010F
:10357000CD01CE01CF01D001D101D201D301D401BF
:10358000D501D601D701D801D901DA01DB01DC016F
:10359000DD01DE01DF01E001E101E201E301E4011F
:1035A000E501E601E701E801E901EA01EB01EC01CF
:1035B000ED01EE01EF013100A001A101A201A30183
:1035C000A401A501A601A701A801A901AA01AB01B7
:1035D000AC01AD01AE01AF01B001B101B201B30167
:1035E000B401B501B601B701B801B901BA01BB0117
:1035F000BC01BD01BE01BF01C001C101C201C301C7
:10360000C401C501C601C701C801C901CA01CB0176
:10361000CC01CD01CE01CF01D001D101D201D30126
:10362000D401D501D601D701D801D901DA01DB01D6
:10363000DC01DD01DE01DF01E001E101E201E30186
:10364000E401E501E601E701E801E901EA01EB0136
:10365000EC01ED01EE01EF013200A001A101A20198
:10366000A301A401A501A601A701A801A901AA011E
:10367000AB01AC01AD01AE01AF01B001B101B201CE
:10368000B301B401B501B601B701B801B901BA017E
:10369000BB01BC01BD01BE01BF01C001C101C2012E
:1036A000C301C401C501C601C701C801C901CA01DE
:1036B000CB01CC01CD01CE01CF01D001D101D2018E
:1036C000D301D401D501D601D701D801D901DA013E
:1036D000DB01DC01DD01DE01DF01E001E101E201EE
:1036E000E301E401E501E601E701E801E901EA019E
:1036F000EB01EC01ED01EE01EF013300A001A101AE
:10370000A201A301A4012D0045083300AC002D0047
:1037100044083300AB002D0043083300AA002D00FD
:1037200042083300A9002F0064083300B0002F00C6
:1037300063083300AF002F0062083300AE002F0093
:1037400061083300AD002430B200F530B100013023
:10375000B400B3019031200000209831C330230021
:103760009100033092008031200049279831A03128
:10377000AB2BD53023009100033092008031200024
:10378000492798312F00E101E201E301E401E5015D
:10379000E601E7015F088400600885000031000849
:1037A000E1005F08840060088500013100083000F6
:1037B000DD01DC01DB01DA005A08DD00DA01DB01A2
:1037C000DC012F005F0884006008850002310008DA
:1037D0003000E201E101E001DF006008FA005F086B
:1037E000F900F701F8017708DA047808DB047908B2
:1037F000DC047A08DD042F005F088400600885007F
:10380000033100083000E201E101E001DF0061085E
:10381000FA006008F9005F08F800F7017708DA0499
:103820007808DB047908DC047A08DD042F005F08DF
:1038300084006008850004310008F700F801F901F0
:10384000FA01770830005A042F00E40078083000AD
:103850005B042F00E500790830005C042F00E600CF
:103860007A0830005D042F00E7005F0884006008DC
:103870008500073100083000DB01DA005A08DB0060
:10388000DA012F005F088400600885000831000815
:10389000FA0130005A042F00E2007A0830005B047D
:1038A0002F00E300DF30230091000330920003106B
:1038B0000C303100D10088312000C92298312F000E
:1038C00061083100D1003730D200883120009225C4
:1038D00098310D303300AE0080312000212798311F
:1038E0000A303300AE008031200021279831E930C2
:1038F000230091000330920003100E303100D100FC
:1039000088312000C92298312F0067083100D1008A
:103910003730D20088312000922598312F00660878
:103920003100D1003730D200883120009225983103
:103930002F0065083100D1003730D20088312000D7
:10394000922598312F0064083100D1003730D20021
:1039500088312000922598310D303300AE0080313F
:103960002000212798310A303300AE00803120003A
:1039700021279831F4302300910003309200031086
:103980000E303100D10088312000C92298312F003B
:1039900063083100D1003730D200883120009225F1
:1039A00098312F0062083100D1003730D2008831C1
:1039B0002000922598310D303300AE008031200078
:1039C000212798310A303300AE00803120002127B2
:1039D00098312F0061083000DA00DB0190312000BF
:1039E000C2219831FF3023009100033092008031D2
:1039F0002000492798313000D80120002F00E3082B
:103A00000319042D20000E2D20002F006208300025
:103A10005802031C0D2D2000912D20003000580E5F
:103A2000F700F70DF70DC030F70577082F00640792
:103A30003000DA0000302F00653D3000DB00003040
:103A40002F00663D3000DC0000302F00673D300065
:103A5000DD002D0045083300AC002D004408330084
:103A6000AB002D0043083300AA002D0042083300AC
:103A7000A90030005D083300B00030005C0833005E
:103A8000AF0030005B083300AE0030005A0833004E
:103A9000AD002430B200F830B100B601B501B40178
:103AA0004030B30088312000D42198313000D90152
:103AB0002000300059083F3C0318602D20007F2D66
:103AC0002000F830300059078400243085000318A6
:103AD000850A0008DA005A083100D1003730D200D8
:103AE000883120009225983120303300AE0080319B
:103AF0002000212798313000D90A2000592D0D309F
:103B00003300AE0080312000212798310A30330085
:103B1000AE0080312000212798313000D80A2000E3
:103B2000FE2C0530230091000430920080312000EB
:103B300049279831A031B52B0E3023009100043075
:103B4000920080312000492798312D00450833002C
:103B5000AC002D0044083300AB002D0043083300B7
:103B6000AA002D0042083300A90088312000A727B1
:103B700098312F00E401E301E201E1012D00450845
:103B80003300AC002D0044083300AB002D00430887
:103B90003300AA002D0042083300A9002F0064085A
:103BA0003300B0002F0063083300AF002F0062081D
:103BB0003300AE002F0061083300AD002430B200A6
:103BC000F530B100B601B501B4010430B30088315D
:103BD0002000D42198311C30230091000430920041
:103BE00003100B303100D10088312000C9229831F8
:103BF0002F0065083100D1003730D2008831200015
:103C00009225983120303300AE00803120002127EA
:103C100098312F0066083100D1003730D20088314A
:103C200020009225983120303300AE0080312000F2
:103C3000212798312F0067083100D1003730D2009A
:103C4000883120009225983120303300AE00803139
:103C50002000212798312F0068083100D10037302B
:103C6000D20088312000922598310D303300AE000B
:103C700080312000212798310A303300AE00803196
:103C80002000212798312D3023009100043092002C
:103C90008031200049279831A031BF2B3A302300D2
:103CA00091000430920080312000492798312D0086
:103CB00045083300AC002D0044083300AB002D0054
:103CC00043083300AA002D0042083300A9008831C0
:103CD0002000A72798312D0049083300AC002D00A3
:103CE00048083300AB002D0047083300AA002D0020
:103CF00046083300A90088312000A72798312F00FB
:103D0000E401E301E201E101E801E7011030E6002E
:103D1000E5012D0045083300AC002D0044083300B8
:103D2000AB002D0043083300AA002D0042083300E9
:103D3000A9002F0064083300B0002F00630833008F
:103D4000AF002F0062083300AE002F00610833007F
:103D5000AD002430B200F930B100B601B501013038
:103D6000B400B30188312000D42198312D004908D6
:103D70003300AC002D0048083300AB002D0047088D
:103D80003300AA002D0046083300A9002F00680860
:103D90003300B0002F0067083300AF002F00660823
:103DA0003300AE002F0065083300AD002430B200B0
:103DB000F930B1000130B400B3019031200000208F
:103DC0009831463023009100043092008031200069
:103DD00049279831A031C92B863023009100043047
:103DE000920080312000492798313000A9012F002E
:103DF000EF01EE01ED01EC01EB013000AD01AC0192
:103E0000AB01AA012D0045083300AC002D00440889
:103E10003300AB002D0043083300AA002D004208F8
:103E20003300A900B001AF01AE01AD012430B200F2
:103E3000F130B100B4014030B300903120000020D7
:103E4000983194302300910004309200803120009A
:103E500049279831A031D32B2F006B08EF006A0857
:103E6000EE0020002F006F083000A1002F006E0828
:103E70003000A00020080139F700FA017708F800A7
:103E80002F0042137818421703106F0C3000A10066
:103E90002F006E0C3000A00020080139F700FA0155
:103EA0007708F8002F00C2137818C2176F0C300083
:103EB000A1002F006E0C3000A000A10CA00C3F3020
:103EC000A10520080139F700FA017708F8002F0052
:103ED0004310781843146F0C3000A1002F006E0CB3
:103EE0003000A000A10CA00CA10CA00C1F30A1055B
:103EF00020080139F700FA017708F8002F00C310F5
:103F00007818C31420002F00EE0120002F006E0847
:103F10000139F80042127818421603106E0C01396C
:103F2000F800C2127818C21620002F00ED01EC0133
:103F30006C08F8006D08F90020000800F701F8018E
:103F400031002D0803102E18F707F70CF80CAE18E7
:103F5000F707F70CF80C2E19F707F70CF80CAE1949
:103F6000F707F70CF80C2E1AF707F70CF80CAE1A37
:103F7000F707F70CF80C2E1BF707F70CF80CAE1B25
:103F8000F707F70CF80C200008002F003B083A0256
:103F9000031DCC2F2000CF2F20000030D02F013068
:103FA000F800080003302F00D8002030DA00093074
:103FB000D9000430DB009031200074259831A03105
:023FC000362C9D
:10400000CE302300910002309200803120004927F9
:10401000A03164302F00DF00D53023009100023042
:10402000920003100E303100D10088312000C922E7
:10403000A0312F005F083100BA001B30BB0088316F
:1040400020003024A0310D303300AE00803120003C
:104050002127A0310A303300AE0080312000212713
:10406000A03121000E1022000E142030F800210093
:104070001D08833978049D000F30F8001F08F039BF
:1040800078049F000D30F7002000F70B45282F0023
:10409000EB01EA01983120002C27A03179082C008F
:1040A000B3007808B2000C30F80021001D088339F5
:1040B00078049D000F30F8001F08F03978049F0045
:1040C0000D30F7002000F70B63282F00EB01EA0109
:1040D000983120002C27A03179082C00B5007808F1
:1040E000B4000030F80021001D08833978049D00D9
:1040F0000F30F8001F08F03978049F000D30F700EA
:104100002000F70B81282F00EB01EA0198312000F5
:104110002C27A03179082C00AF007808AE002F00C2
:10412000E501E40120002F00E5080319992820008B
:10413000602920002F005F086402031CA1282000D2
:10414000602920002F006408220099008530F700C4
:104150002000F70BA9280030F80021001D08833942
:1041600078049D000F30F8001F08F03978049F0094
:104170000D30F7002000F70BBB2803102F00640D53
:10418000E800650DE9000310680DF900690DFA00FB
:1041900079083A3EE80020307A3DE900EB01EA0177
:1041A000983120002C27A0312F006908850068086D
:1041B0008400780880000131790880003F310430A4
:1041C000F80021001D08833978049D000F30F800A5
:1041D0001F08F03978049F002F00E301E201E1019C
:1041E000E001E60120002F006608093C0318FA28C8
:1041F0002000162920000D30F700F70BFD282F00B6
:10420000EB01EA01983120002C27A0317908FA004F
:1042100078082F00E0077A08E13D0030E23D0030E9
:10422000E33D20002F00E60A2000F32883102F0032
:1042300063083100E3002F0062083100E2002F0024
:1042400061083100E1002F0060083100E000E70163
:10425000E601E5010A30E400883120002C23A0317A
:104260007A082F00E3007908E2007808E100770877
:10427000E0000D30F7002000F70B3C2903102F0061
:10428000640DE800650DE9000130E8070030E93D04
:104290000310680DF900690DFA0079083A3E8400B0
:1042A00020307A3D8500600880000131610880007F
:1042B0003F3120002F00E40A0319E50A200093286B
:1042C000DF30230091000230920080312000492726
:1042D000A0310030F80021001D08833978049D00CA
:1042E0000F30F8001F08F03978049F009D1420005B
:1042F00021009D1C7D29200078292C00B10121007E
:104300001C082C00B0002F005F08E80020005A3085
:104310002300910001309200803120004927A03114
:104320002F00E90120002F0068086902031C9A2968
:104330002000E42A20002F0069083100AD0003307E
:10434000AE00983120009E27A03192307807F80007
:104350002230FA000318FA0A78082F00EA007A08D7
:10436000EB000310690DFA01F9000310F90DFA0DC5
:1043700079083A3E840020307A3D85000008EC0040
:1043800001310008ED003F31ED0CEC0CED0CEC0CB4
:10439000ED0CEC0CED0CEC0C0F30ED056C08F7009F
:1043A000FA017708EC007A08ED006B0885006A08CE
:1043B00084006C08800069083100AD000330AE0055
:1043C000983120009E27A031923078078400223057
:1043D00085000318850A00082F00EA006A083100EA
:1043E000D1003730D200883120009225A031203012
:1043F0003300AE00803120002127A0312F00690852
:104400003100AD000330AE00983120009E27A0316E
:1044100001307807923EF8002230FA000318FA0AB9
:1044200078082F00EA007A08EB000310690DFA0102
:10443000F9000310F90DFA0D79083A3E8400203096
:104440007A3D85000008EC0001310008ED003F31A5
:104450000F30EC05ED01EC0DED0DEC0DED0DEC0D5F
:10446000ED0DEC0DED0DF030EC050310690D013E86
:10447000FA01F9000310F90DFA0D79083A3E8400AB
:1044800020307A3D85000008EE0001310008EF0081
:104490003F316F08EE00EF016E080F39F700FA01A7
:1044A00077086C04F7007A086D04FA007708EC00CE
:1044B0007A08ED006B0885006A0884006C088000AB
:1044C00069083100AD000330AE00983120009E270E
:1044D000A03101307807923E840022308500031815
:1044E000850A00082F00EA006A083100D100373041
:1044F000D200883120009225A03120303300AE0058
:10450000803120002127A0312F0069083100AD0043
:104510000330AE00983120009E27A031023078078A
:10452000923EF8002230FA000318FA0A78082F00A9
:10453000EA007A08EB000310690D013EFA01F90068
:104540000310F90DFA0D79083A3E840020307A3DC7
:1045500085000008EC0001310008ED003F316C08D7
:10456000F700FA017708EC007A08ED006B08850087
:104570006A0884006C08800069083100AD000330CF
:10458000AE00983120009E27A03102307807923E7D
:104590008400223085000318850A00082F00EA00F5
:1045A0006A083100D1003730D200883120009225CE
:1045B000A03120303300AE00803120002127A0310F
:1045C0002F00E90A200093290D303300AE0080311E
:1045D00020002127A0310A303300AE0080312000B6
:1045E0002127A03121000E1022000E10200008000B
:1045F0002F005A0884005B08850000310008DC00A9
:1046000001305A07F80000305B3DFA007808DD0001
:104610007A08DE009D302300910005309200803141
:1046200020004927A031C0302300910005309200BE
:1046300003100C303100D10088312000C922A03194
:104640002F005C083100D1003730D20088312000C3
:104650009225A031C730230091000530920003104D
:1046600004303100D10088312000C922A0312F0050
:104670005C08003A200003196E2B103A0319782BBE
:10468000113A0319792B033A03197A2B923A031939
:104690007B2B013A0319852B033A03198F2B013A1F
:1046A0000319992B073A0319A32B023A0319AD2BCF
:1046B000013A0319B72B0D3A0319C12B053A031917
:1046C000CB2BEE3A0319D52B033A0319D72B013A1A
:1046D0000319D92B033A0319DB2BDD2BCA30230036
:1046E000910005309200803120004927A031E62B4F
:1046F000E62BE62BE62B2F005B08E0005A08DF00D4
:1047000088312000BB2FA031E62B2F005B08E00092
:104710005A08DF00983120000028A031E62B2F0036
:104720005B08E0005A08DF00983120004028A031E3
:10473000E62B2F005B08E0005A08DF0098312000CC
:104740008028A031E62B2F005B08E0005A08DF002C
:1047500098312000592AA031E62B2F005B08E00099
:104760005A08DF0098312000B92BA031E62B2F002A
:104770005B08E0005A08DF00983120009C2DA03132
:10478000E62B2F005B08E0005A08DF00983120007C
:104790004E2EA031E62B2F005B08E0005A08DF0008
:1047A00098312000EC2EA031E62B0020E62B0020D3
:1047B000E62B0020E62B0020E62BD83023009100CA
:1047C00005309200803120004927A031E4302300D9
:1047D000910005309200803120004927A031A0319E
:1047E000152C1330230091000630920080312000F8
:1047F0004927A0311E3023009100063092008031FD
:1048000020004927A03188319C27A0310230A9001F
:1048100003302F005607D8000030573DD900590803
:10482000DB005808DA002000F82A9831C527A031AB
:10483000F80803191E2C0630A900202C0430A9000A
:10484000A831FF2E2B3023009100063092008031DA
:1048500020004927A0313530230091000630920016
:10486000803120004927A0319831D22FA03129086A
:10487000063C031D482C4430230091000630920072
:10488000803120004927A0310130F8004B2C4B2CFF
:104890000030F8004B2CA831092F203031004F1E7A
:1048A0003030D0004E08F700F71B582C2000612C48
:1048B000F709F70A7708CE002D30D000CF174F1434
:1048C0002000780831004E08D4006430D5008831CB
:1048D00020000F24A03177083100CE003030780757
:1048E000D1004E08D4000A30D500883120000F24B2
:1048F000A031303077073100D30030307807D20054
:104900005008F7002000303031005102031D8A2C7E
:1049100020008F2CCF14CF1B4F152000AC2C310062
:104920005008D1002030D00030305202031D9A2CA4
:1049300020009F2C4F14CF1BCF142000AC2C031948
:10494000A42C31004F142000031DAC2C3100510861
:10495000D2002030D100200031004F1DB12C2000AA
:10496000BB2CCF1CB52C2000C32C4F1CB92C200015
:10497000CB2C2000D32C310050083300AE00803106
:1049800020002127A031310051083300AE008031D2
:1049900020002127A031310052083300AE008031C1
:1049A00020002127A031310053083300AE008031B0
:1049B00020002127A03108002F003B083A020319EC
:1049C000E32C2000F32C20007230230091000130F2
:1049D0009200803120004927A0310030F8000030DB
:1049E000F900122D122D2F003A083100AC002000E2
:1049F00001302F003A070F39BA0031002C08AD0002
:104A00000930AE00983120009E27A03178083A3E48
:104A1000F8002430FA000318FA0A7808F8007A0837
:104A2000F900122DB0313E2C3100D301D401D50153
:104A3000D601D701D801D901DA01DB01D208031967
:104A4000232D2000372D200002303100D6004030C9
:104A5000D500D401D3010230DA005030D9000F3034
:104A6000D800FF30D7008030DB0020009F2D3100C0
:104A7000520B3C2D3E2D20002000532D20000230F3
:104A80003100D6005030D5001030D400D3010230B0
:104A9000DA005030D9001F30D800FF30D700813005
:104AA000DB0020009F2D31005208023C03195A2DD3
:104AB00020006F2D200002303100D6005030D5008C
:104AC0006030D400D3010230DA005130D9006F30A9
:104AD000D800FF30D7008330DB0020009F2D31004D
:104AE0005208033C0319762D20008B2D2000023044
:104AF0003100D6005130D5007030D400D3010230DF
:104B0000DA005130D9007F30D800FF30D700843030
:104B1000DB0020009F2DFF303100D600FF30D50094
:104B2000FF30D400FF30D300FF30DA00FF30D9006F
:104B3000FF30D800FF30D700FF30DB002000D3303B
:104B4000F8000830F900A83113283100D008031903
:104B5000AB2D20002B2E200003303100D80055084B
:104B6000E2005608E300E401E5016208F700F801FD
:104B7000F901FA017708D9005408E2005508E3006A
:104B80005608E400E5016208F700F801F901FA01AE
:104B90007708DA005308F700F801F901FA017708FD
:104BA000DB0051083300C900CA010130CC00CB0141
:104BB000883120002120A031310051083300C90084
:104BC000CA01CC018030CB00883120002120A031E7
:104BD000310052083300CC00310051083300CB00C3
:104BE000310050083300CA0031004F083300C900BB
:104BF0002530CE008830CD00D0010430CF002530E4
:104C0000D2008730D100D601D501D4010130D300C4
:104C1000883120006920A0310230F700F70B0E2EFA
:104C20000000310051083300C9000130CA000130D2
:104C3000CC00CB01883120002120A0313100510867
:104C40003300C900CA01CC018030CB00883120007C
:104C50002120A031BD2E3100500B302E322E2000ED
:104C60002000BD2E200013303100DC005608E20089
:104C7000E301E401E5016208F700F801F901FA0136
:104C80007708DD005508E2005608E300E401E5017D
:104C90006208F700F801F901FA017708DE0054080C
:104CA000E2005508E3005608E400E5016208F70059
:104CB000F801F901FA017708DF005308F700F8015D
:104CC000F901FA017708E00051083300C900CA0170
:104CD0000130CC00CB01883120002120A0313100EF
:104CE00051083300C900CA01CC018030CB008831A3
:104CF00020002120A031310052083300CC003100C7
:104D000051083300CB00310050083300CA00310095
:104D10004F083300C9002530CE008C30CD00D001C3
:104D20000530CF002530D2008730D100D601D50123
:104D3000D4010130D300883120006920A031023035
:104D4000F700F70BA12E0000310051083300C90015
:104D50000130CA000130CC00CB0188312000212075
:104D6000A031310051083300C900CA01CC018030A4
:104D7000CB00883120002120A03131005708F800F5
:104D80002000A831E42A653023009100053092000C
:104D9000803120004927A03131002F08B7002E08AC
:104DA000B6002D08B5002C08B400200031003708EB
:104DB00033020318DD2E2000212F2000031DFC2EBE
:104DC0003100360832020318E72E2000212F200080
:104DD000031DFC2E3100350831020318F12E20008E
:104DE000212F2000031DFC2E310030083402031C4B
:104DF000FB2E2000212F20002D0049083100C70084
:104E00002D0048083100C6002D0047083100C500BC
:104E10002D0046083100C4003708CB003608CA0010
:104E20003508C9003408C800A8312000F523A03196
:104E300010303100B5070030B63D0030B73D2000DE
:104E4000D62EB0310C2D3100B8012D08F039B90043
:104E5000BA01BB0130082C07C40031082D3DC50044
:104E600032082E3DC60033082F3DC700FF30C4076F
:104E70000F30C53D0030C63D0030C73DBC01450880
:104E8000F039BD00BE01BF013B08C3003A08C200B3
:104E90003908C1003808C0002000310043083F0233
:104EA0000318542F2000BE2F2000031D732F310044
:104EB00042083E0203185E2F2000BE2F2000031D73
:104EC000732F310041083D020318682F2000BE2FC8
:104ED0002000031D732F31003C084002031C722F79
:104EE0002000BE2F200031004308370203187A2F1C
:104EF0002000BE2F2000031D992F310042083602EA
:104F00000318842F2000BE2F2000031D992F31008D
:104F10004108350203188E2F2000BE2F2000031DEC
:104F2000992F310034084002031C982F2000BE2F17
:104F300020002D0049083100C7002D00480831002D
:104F4000C6002D0047083100C5002D00460831007D
:104F5000C4004308CB004208CA004108C900400809
:104F6000C800A8312000F523A03110303100C1075E
:104F70000030C23D0030C33D20004D2FB0314F2DD9
:104F800052302300910006309200803120004927E2
:104F9000A0315F3023009100063092008031200064
:104FA0004927A03188319C27A0312F005608840062
:104FB00057088500033180080319E02F2000F22FE5
:104FC00020006C30230091000630920080312000D8
:104FD0004927A0310530A900B031FD2BA0310630A2
:104FE000A900FB2F7330230091000630920080311E
:0A4FF00020004927A031A831192F35
:1050000031002F08FA002E08C9007A08CA002C08BF
:1050100084002D08850000310008CB004B08D20029
:10502000A0312000142DA8317908FA0078088400F6
:105030007A0885000930F80031004A0887004908DD
:105040008600200012001E00F80B222831003108D3
:10505000FA003008C9007A08CA002E0884002F0818
:10506000850000310008F70001310008F800013127
:105070000008F90001310008FA003D317A08CE003D
:105080007908CD007808CC007708CB004A08850065
:10509000490884004B08800001314C088000013130
:1050A0004D08800001314E0880003D313308FA0080
:1050B0003208C9007A08CA002E0884002F0885002B
:1050C00004310008F70001310008F8000131000840
:1050D000F90001310008FA003D317A08CE00790864
:1050E000CD007808CC007708CB004A088500490835
:1050F00084004B08800001314C08800001314D08CC
:10510000800001314E0880003D313508FA00340836
:10511000C9007A08CA002C0884002D0885000131D6
:105120000008F70001310008F80001310008F9001B
:1051300001310008FA003D317A08CE007908CD002F
:105140007808CC007708CB004A088500490884001D
:105150004B08800001314C08800001314D0880006F
:1051600001314E0880003D313708FA003608C90089
:105170007A08CA002C0884002D0885000531000833
:10518000F70001310008F80001310008F900013191
:105190000008FA003D317A08CE007908CD00780881
:1051A000CC007708CB004A088500490884004B08EA
:1051B000800001314C08800001314D088000013130
:1051C0004E0880003D313108FA00300884007A082A
:1051D00085000008C90001310008CA00013100083B
:1051E000CB0001310008CC003D31E23023009100BA
:1051F00004309200031025303100D10088312000A6
:10520000C922A83131004C08D1003730D200883192
:1052100020009225A83131004B08D1003730D20050
:10522000883120009225A83131004A08D10037305A
:10523000D200883120009225A83131004908D100E0
:105240003730D200883120009225A8310D3033004C
:10525000AE00803120002127A8310A303300AE0093
:10526000803120002127A83131003308FA003208AC
:1052700084007A0885000008C90001310008CA00CE
:1052800001310008CB0001310008CC003D31F8307D
:105290002300910004309200031025303100D1002A
:1052A00088312000C922A83131004C08D1003730A4
:1052B000D200883120009225A83131004B08D1005E
:1052C0003730D200883120009225A83131004A08B9
:1052D000D1003730D200883120009225A83131002A
:1052E0004908D1003730D200883120009225A831FA
:1052F0000D303300AE00803120002127A8310A3064
:105300003300AE00803120002127A831310035085C
:10531000FA00340884007A0885000008C9000131C9
:105320000008CA0001310008CB0001310008CC00A0
:105330003D310E30230091000530920003102530DE
:105340003100D10088312000C922A83131004C0839
:10535000D1003730D200883120009225A8313100A9
:105360004B08D1003730D200883120009225A83177
:1053700031004A08D1003730D20088312000922510
:10538000A83131004908D1003730D20088312000DF
:105390009225A8310D303300AE0080312000212746
:1053A000A8310A303300AE00803120002127A83117
:1053B00031003708FA00360884007A0885000008B2
:1053C000C90001310008CA0001310008CB000131D9
:1053D0000008CC003D3124302300910005309200BC
:1053E000031025303100D10088312000C922A831B6
:1053F0004130840031004C08D4004B08D3004A08E7
:10540000D2004908D100883120009523A8313830D6
:105410002300910005309200031004303100D100C8
:1054200088312000C922A83131003108FA00300843
:1054300084007A0885000008C90001310008CA000C
:1054400001310008CB0001310008CC003D312D00B6
:1054500049083300AC002D0048083300AB002D0094
:1054600047083300AA002D0046083300A900310088
:105470004C083300B00031004B083300AF0031005E
:105480004A083300AE00310049083300AD00253032
:10549000B2006C30B100B601B501B4010430B30004
:1054A00088312000D421A83131003B08FA003A08A5
:1054B00084007A088500CE01CD01CC013F08CB00E5
:1054C0004B08CE00CB01CC01CD01D301D201D101DB
:1054D0003E08D0005108FA005008F900F701F80121
:1054E0007708CB047808CC047908CD047A08CE0478
:1054F000D301D201D1013D08D0005208FA00510871
:10550000F9005008F800F7017708CB047808CC04BC
:105510007908CD047A08CE043C08F700F801F901B7
:10552000FA0177084B04F70078084C04F800790872
:105530004D04F9007A084E04FA0077088000013122
:105540007808800001317908800001317A088000F4
:105550003D313908FA003808C9007A08CA00310814
:10556000FA00300884007A0885000008CB00013179
:105570000008CC0001310008CD0001310008CE0048
:105580003D310430CB070030CC3D0030CD3D003004
:10559000CE3D2D0049083100D2002D0048083100D1
:1055A000D1002D0047083100D0002D004608310001
:1055B000CF004E08D6004D08D5004C08D4004B084B
:1055C000D300A0312000A52DA83131004A08850064
:1055D00049088400780880003B30230091000530A2
:1055E0009200803120004927A83131003B08FA00A1
:1055F0003A0884007A0885000008C90001310008D3
:10560000CA0001310008CB0001310008CC003D3157
:105610003108FA00300884007A0885000008CD00BF
:1056200001310008CE0001310008CF00013100082F
:10563000D0003D314430230091000530920003102A
:105640000C303100D10088312000C922A83141300E
:10565000840031004C08D4004B08D3004A08D20023
:105660004908D100883120009523A8314B30230010
:10567000910005309200031408303100D1008831C8
:105680002000C922A83131005008D1003730D200A3
:10569000883120009225A83131004F08D1003730E1
:1056A000D200883120009225A83131004E08D10067
:1056B0003730D200883120009225A83131004D08C2
:1056C000D1003730D200883120009225A83129300E
:1056D0003300AE00803120002127A8310D30330087
:1056E000AE00803120002127A8310A303300AE00FF
:1056F000803120002127A83131003908FA0038080C
:1057000084007A0885000008C9003108FA003008D2
:1057100084007A0885000008CA0001310008CB0027
:1057200001310008CC0001310008CD003D310430CA
:10573000CA070030CB3D0030CC3D0030CD3D543069
:10574000230091000530920003100C303100D1008D
:1057500088312000C922A83131004908CE00183014
:10576000CF00A03120004D24A8315B3023009100F0
:1057700005309200031009303100D100883120003B
:10578000C922A83131004D08D1003730D20088310C
:1057900020009225A83131004C08D1003730D200CA
:1057A000883120009225A83131004B08D1003730D4
:1057B000D200883120009225A83131004A08D1005A
:1057C0003730D200883120009225A8316230230082
:1057D000910005309200031005303100D10088316E
:1057E0002000C922A831B0316A2C3100C508031944
:1057F000FB2B2000BD2C200006303100CC00200007
:1058000020303100CD004A08DD004B08DE00DF010A
:10581000E0015D08F700F801F901FA017708CE0010
:105820004908DD004A08DE004B08DF00E0015D08A2
:10583000F700F801F901FA017708CF004808F700EE
:10584000F801F901FA017708D00046083300C900D1
:10585000CA010130CC00CB01883120002120A831C1
:10586000310046083300C900CA01CC018030CB00AA
:10587000883120002120A831310047083300C600BC
:10588000310046083300C500310045083300C4002C
:10589000310044083300C3002530C8007C30C70005
:1058A000CA010130C90088312000CA25A831310061
:1058B00046083300C9000130CA000130CC00CB01DA
:1058C000883120002120A831310046083300C9006A
:1058D000CA01CC018030CB00883120002120A831C2
:1058E000310046083300C900CA010130CC00CB01A9
:1058F000883120002120A831310046083300C9003A
:10590000CA01CC018030CB00883120002120A83191
:10591000310047083300C600310046083300C50097
:10592000310045083300C400310044083300C3008F
:105930002530C8007D30C700CA010430C900883155
:105940002000CA25A831310046083300C9000130C3
:10595000CA000130CC00CB01883120002120A831C1
:10596000310046083300C900CA01CC018030CB00A9
:10597000883120002120A831922D3100450BC22C06
:10598000C42C20002000922D200006303100D100D0
:10599000200021303100D2004B08DD00DE01DF01A4
:1059A000E0015D08F700F801F901FA017708D3007A
:1059B0004A08DD004B08DE00DF01E0015D08F7006A
:1059C000F801F901FA017708D4004908DD004A0816
:1059D000DE004B08DF00E0015D08F700F801F90187
:1059E000FA017708D5004808F700F801F901FA0133
:1059F0007708D60046083300C900CA010130CC0040
:105A0000CB01883120002120A83131004608330025
:105A1000C900CA01CC018030CB0088312000212090
:105A2000A831310047083300C60031004608330072
:105A3000C500310045083300C4003100440833007C
:105A4000C3002530C8008130C700CA010130C90039
:105A500088312000CA25A831310046083300C9002A
:105A60000130CA000130CC00CB0188312000212058
:105A7000A831310046083300C900CA01CC0180308A
:105A8000CB00883120002120A831310046083300A6
:105A9000C900CA010130CC00CB018831200021208F
:105AA000A831310046083300C900CA01CC0180305A
:105AB000CB00883120002120A83131004708330075
:105AC000C600310046083300C500310045083300E8
:105AD000C400310044083300C3002530C8008230C0
:105AE000C700CA010530C90088312000CA25A83185
:105AF000310046083300C9000130CA000130CC0033
:105B0000CB01883120002120A83131004608330024
:105B1000C900CA01CC018030CB008831200021208F
:105B2000A831922D3100D701200031004708330001
:105B3000C600310046083300C50031004508330077
