:0600000088315B2D0000B9
:0800080083018031200077081C
:10001000A0007808A1007908A2007A08A3002300B4
:1000200011082000A400230012082000A5002300CE
:1000300013082000A600230014082000A7008B1E30
:1000400023280B194328850191308400801E2A281B
:10005000911A45282008F7002108F8002208F90025
:100060002308FA002408230091002000250823001B
:100070009200200026082300930020002708230078
:100080009400090020008031A02A8031EC2A0B0066
:1000900000340934553470346C3469346E346B3444
:1000A000203463346F346D346D346E346434003412
:1000B00000340034003400340034003400340034A0
:1000C0000034003400340034003400340034003490
:1000D00000340034013400345334743461347434E3
:1000E00075347334203463346834653463346B346A
:1000F0000034003400340034003400340034003460
:10010000003400340034003400340034003400344F
:100110000034003400340034023401344934733480
:10012000203453344D3446342034613476346134D1
:1001300069346C34613462346C3465340034533A5D
:1001400061397410ED30EB325F39E531E534F63268
:10015000DF31EF36ED306E320D0589163E100000AE
:1001600045376410ED30EB325F39E531693BE52FFF
:10017000E337ED366137E4060A00F334673761365A
:10018000A0326E32A03B693A68105323C4060A00BD
:10019000E437EE137410E6346E32A02946220D05C2
:1001A000000089163E104937F630EC3464104639A9
:1001B000E136651049222039E531E534F632641D17
:1001C000A012D8060A0089163E104329431065394B
:1001D000F237F2100D05000189042D1F2039E53199
:1001E000E534F63264104329431DA012D8060A00F4
:1001F00089042010A0316F36EC32633AA021D2215D
:10020000201DA012D8060A0089163E104937F63084
:10021000EC346410E432F634E332A0244410F232B9
:10022000E332693B65320D05000189042D1F203939
:10023000E531E534F632641D20102010A012D806F6
:100240000A0089042010A0267910E432F634E33243
:10025000A024441DA012D8060A0054396137F33493
:100260007410E337ED366137E4068A042D1F200051
:100270000D05DF2FDF2FDF2FDF2FDF2FDF2FDF2F0A
:10028000DF2FDF2FDF2FDF2FDF2FDF2FDF2FDF2FFE
:100290000D05DF2FDF2FDF2FDF2F533A6139741069
:1002A000E337F03C5F32613AE12FDF2FDF2FDF2FA2
:1002B000DF068A060A00D3377539E332A03064328C
:1002C000F232F3393A100918F812301C4C2C0D0593
:1002D0000001C432733A6937613AE9376E1061320E
:1002E0006439E539731DA004303C25183826D8063A
:1002F0000A00C430F430A039693D651DA00409101E
:10030000A012301C4C2C0D050001C337F03C69379E
:1003100067170001DF2FDF2FDF2FDF2FDF226E3285
:10032000A0316F38F92FE430F430DF2FDF2FDF2FCB
:10033000DF2FDF068A2FDF2FDF2FDF2FDF2FDF2FCB
:10034000DF2FDF2FDF2FDF2FDF2FDF2FDF2FDF2F3D
:10035000DF2FDF068A060A00D3264610E430F43089
:100360002036E9397410E939A0326D38F43C0D05B6
:1003700000000D055434E9392010ED34F339E93724
:100380006E10E939A032F832E33AF432E4068A0416
:100390002D1F2018F812E4060A00DB2B4129CE2E6F
:1003A00020106F3B65396636EF3BA032F832E33AF6
:1003B000F432E42FED34F339E9376E10EC34733A4C
:1003C00000010D05DF2FDF2FDF2FDF2FDF2FDF2FC6
:1003D000DF2FDF2FDF2FDF2FDF2FDF2FDF2FDF2FAD
:1003E000DF2F0D05DF2FDF2FDF29F430723AA03227
:1003F000F832E33AF432DF36E939F3346F37DF2F7E
:10040000DF2FDF068A060A00C337ED366137641036
:1004100049223A10252C0D050D05000189042D1FD8
:10042000A0246E3B61366932A0214D22A024C41065
:100430000D0500010D05DF2FDF2FDF2F453764107D
:10044000653CE531753AE52FED34F339E937EE2FA8
:10045000DF2FDF2FDF068A2FDF2FDF2FDF2FDF2FAA
:10046000DF2FDF2FDF2FDF2FDF2FDF2FDF2FDF2F1C
:10047000DF2FDF2FDF2F0D050000533A6139741095
:10048000653CE1367036E52F30180D050001282A4D
:10049000E8347310ED34F339E9376E10E3306E1041
:1004A000653CE531753A6510ED30EE3C203AE936B1
:1004B0006510E139A03CEF3AA03B6137F4140D051B
:1004C0000001653CE531753A693767006F39E43200
:1004D0007210C337F03CA0396D335F32613AE106E8
:1004E0000A0045376410653CE1367036E52F301858
:1004F0000D050000533A61397410653CE1367036E1
:10050000E52FB0180D050001653CE531753A6937F6
:10051000670045376410653CE1367036E52FB0184A
:100520000D050000D3264610E430F4302036E939BA
:100530007410E93920337536EC10A1100D05000058
:10054000643095000130A9070318AA0A0319AB0A01
:100550000319AC0AAC08031DB72AAB08031DB72A60
:10056000AA08031DB72A2908633C0318E32AAC0133
:10057000AB01AA01A9010130AD070318AE0A0319A6
:10058000AF0A0319B00AB008031DD82A2F08003C8F
:100590000318E32AFF3A031DD82A2E08503C0318FB
:1005A000E32AFF3A031DD82A2D087F3C0318E32ACB
:1005B0008030AD025130AE3B0130AF3B0030B03B3C
:1005C000B10A0319B20A0B1180312A28111EE62A3A
:1005D00023009A00200008005408033C0319F42A61
:1005E0005408053C031DFC2A911EF42A2300190817
:1005F000AA302000E622142B53080F3C031C0F2BBB
:100600005308D30A133E8400203085000318850A5E
:10061000911E082B230019088000132B2000911E27
:100620000F2B230019082000911280312A28533AF9
:1006300061397410F332743A6937E7060A004537B6
:100640006410F332743A6937E7060A000D05533A2D
:1006500061397410653CE531753AE52FE337ED36C5
:100660006137E4060A0089163E105538EC34EE3541
:10067000A031EF36ED306E320D050001091020106B
:1006800054396137F336693AA020E335EE37EC325E
:100690006732E5060A0089163E10533A613AF53989
:1006A000A031E832E3350D05000189042D1FA02695
:1006B0007910733A613AF539A034731025320D057B
:1006C00000010910201054396137F336693AA02629
:1006D000C929A026C32AA029F430F43AF3060A0057
:1006E000E634EE3473346532A0346E10733A613AF6
:1006F000F539DF31E832E3350D05000189163E108A
:10070000E939A0294D23A030F63069366131EC3249
:100710000D0500010910201054396137F336693A8C
:10072000A020E335EE37EC326732E5060A00890493
:100730002D1FA0306C36EF3BE4060A0089042D1F04
:1007400020326537F932E4060A000D050D05000177
:10075000DF2FDF2FDF2FDF2FDF2FDF29F430723A7B
:10076000A036E134EE2FDF2FDF2FDF2FDF2FDF0664
:100770008A060A000D050D05BD1EBD1EBD1E0D0518
:100780000D05C634EE34733465322038F237E33267
:10079000F339AE068A2BE1347410E6377210C227A3
:1007A000D3292028C921203A75396E106F3366107D
:1007B000ED32000145376410ED3069370D0500005A
:1007C00021008C1122008C110830F800E72B00006A
:1007D000F817FA2BF8133400C00C220003188C15FC
:1007E000031C8C117817FA2B7813F80BEB2BF82BD2
:1007F00000008C1584308400840BFC2B0000F81B57
:10080000EA2B781BF42B200008000B088B13230025
:100810009517151400000000891B8B1713087F39EA
:100820000319512C3400BD00230011083400BE0010
:10083000230012083400BF003D08C0002000E02360
:1008400034003E082300910034003F08230092004A
:100850000B088B139517151400000000891B8B17CC
:10086000130D140D7F390319512C3400BD002300E2
:1008700011083400BE00230012083400BF003D08F8
:10088000C0002000E02334003E0823009100340023
:100890003F0823009200910A0319920A2000052CB8
:1008A000230020000800173023009100033092003D
:1008B0002000052421001508C0390738950091163D
:1008C0008B16C0308B041F30230091000330920040
:1008D000200005248831152E3400BD1B812C0F30DB
:1008E000F7003C0EF7050A30770203187A2C3030F7
:1008F000F7077C2C3D08F7077708C0002000E023AD
:1009000034000F30BC050A303C020318892C30300B
:100910008B2CBD133D08BC073C08C0002000E02321
:100920000800F701F8013400390803103A18F707F6
:10093000F70CF80CBA18F707F70CF80C3A19F70788
:10094000F70CF80CBA19F707F70CF80C3A1AF70776
:10095000F70CF80CBA1AF707F70CF80C3A1BF70764
:10096000F70CF80CBA1BF707F70CF80C200008007E
:100970000B088B1323009517151400000000891B2A
:100980008B170318EB2C13087F393400BD002300AC
:1009900011083400BE00230012083400BF003D08D7
:1009A000C0002000E02334003E0823009100340002
:1009B0003F08230092000B088B13951715140000B5
:1009C0000000891B8B173400BC0BE72CE92C23009B
:1009D000EB2C0E2D2300130D140D7F393400BD00B8
:1009E000230011083400BE00230012083400BF00A9
:1009F0003D08C0002000E02334003E0823009100A1
:100A000034003F0823009200910A0319920A031050
:100A10003400BC0B0C2D0E2D2000B82C200008003B
:100A200034003D0884003E088500003FC0000130CE
:100A3000C1003F0841020318272D4108C10A3D07A4
:100A4000840000303E3D85000008C006192D400896
:100A5000F800200008003300DC01DD01DE01DF01C9
:100A6000E001E101E201E301E401E501E601E70162
:100A7000E801E901EA01EB01EC01ED01EE01EF0112
:100A80003400A001A101A201A301A401A501A601B6
:100A9000A701A801A901AA01AB01AC01AD01AE01FA
:100AA0009F30230091000030920020000524340084
:100AB000AF0133005B0834002F020318762D2F0896
:100AC00033005907840000305A3D85000008340087
:100AD000B700BC003730BD0020006C24203034004B
:100AE000C0002000E0233400AF0A592D0D30C000B3
:100AF0002000E0230A303400C0002000E02333004F
:100B00005A083400B800330059083400B7003300E5
:100B10005B083400B900BA01BA01013039023A0267
:100B20000318A22D3A08370784000030383D8500AD
:100B30000008AA3C031DA02D01303A07F800C22D81
:100B4000BA0A8D2D3A08370784000030383D8500F9
:100B50000008AA3C031DB82DBD30230091000030D1
:100B6000920020000524FF30F8003400C22DC22D71
:100B7000C830230091000030920020000524FF308F
:100B8000F80034007808B0003008FF3C031DCD2D7C
:100B9000DC30F8000930F900332F300833005907F2
:100BA000F80000305A3DFA0078083400B1007A08A5
:100BB000B2003108840032088500003100080F3986
:100BC000B3003308B700B8013808023C031C042EF8
:100BD0003808B9002230BA00200091247808472054
:100BE000F80034003702031D022E3808B900223005
:100BF000BA0020009124013078074720F800F8005F
:100C0000222E3400B80AE42DD130230091000030A8
:100C1000920003101F303400BC002000B8243400C0
:100C20003708BC003730BD0020006C240D30340084
:100C3000C0002000E0230A303400C0002000E02380
:100C4000FF30F80078083400B4003408FF3C031D7E
:100C50002E2EDC30F8000930F900332F3008330035
:100C60005B023400B5003208B8003108B70035081F
:100C7000B90001303902370784000030383D850063
:100C80000008BA0001303902BC003808BE0037083D
:100C9000BD003C08BF002000102578083400BB00D0
:100CA0003B083A02031D582E0130F8009A2E9A2E66
:100CB000E330230091000030920020000524EC3046
:100CC0002300910000309200031013303400BC0068
:100CD0002000B82434003A08BC003730BD002000A2
:100CE0006C240D303400C0002000E0230A303400B2
:100CF000C0002000E023F830230091000030920073
:100D0000031013303400BC002000B82434003B082A
:100D1000BC003730BD0020006C240D303400C00012
:100D20002000E0230A303400C0002000E02300301F
:100D3000F8003400F808031DA22EDC30F80009305A
:100D4000F900332F31088400320885000031000893
:100D5000F039F700770EB7000F30B7053708B80045
:100D600038080B3C031DB82E0130F800FA2EFA2E7D
:100D7000043023009100013092002000052415303A
:100D80002300910001309200031013303400BC00A6
:100D90002000B82434003808BC003730BD002000E3
:100DA0006C240D303400C0002000E0230A303400F1
:100DB000C0002000E0232130230091000130920088
:100DC000031013303400BC002000B8240B30340072
:100DD000BC003730BD0020006C240D303400C00052
:100DE0002000E0230A303400C0002000E02300305F
:100DF000F8003400F808031D022FDC30F800093039
:100E0000F900332F33083300DC00013034003107A0
:100E1000F8000030323DFA007808B7007A08B800D0
:100E200002303502B90038088500370884003908D7
:100E3000F8000319232F263087002D30860012007A
:100E40001E00F80B1F2F02303502AD002E14B030FB
:100E5000230091000030920020000524DC30F800CF
:100E60000930F9003400883120002A2E330056085A
:100E7000FA00550884007A0885000008D800540854
:100E8000850053088400F7015808F8007808031912
:100E90004D2F77081A00F80B492F55088400560883
:100EA0008500800188312000462EAA303300DA0008
:100EB00056084038DB005808850057088400590858
:100EC000F80003196B2F263087002C3086001200A3
:100ED0001E00F80B672F02305907EA002A306A0714
:100EE000F8002630FA000318FA0A7808ED007A08AC
:100EF000EE0001306A02EF0026303400BE002B30D5
:100F0000BD0033006F083400BF00200010253300FF
:100F10006E0885006D0884007808800001306A073B
:100F2000EB002630EE002A30ED006B08EF003400B5
:100F3000A00133006F08340020020318AF2F2008EF
:100F400033006D07840000306E3D850000083400DA
:100F5000A20022082000E6223400A00A992F2D309A
:100F60002300910001309200200005243400A101EB
:100F700033006F08340021020318D52F21083300F5
:100F80006D07840000306E3D850000083400A2002B
:100F9000BC003730BD0020006C2420303400C0007D
:100FA0002000E0233400A10AB82F0D30C00020003B
:100FB000E0230A303400C0002000E02308003300A2
:100FC0006508F80164020318E82F6408F700F42F9D
:100FD000F7010830E600E40DF70D65087702031805
:100FE000F700F80DE60BEB2F20000800560855021D
:0E0FF0000319FC2F0030FD2F0130F80008001F
:10100000203033005F1E3030E0005E08F700DE1F46
:101010001128F709F70A7708DE002D30E000DF1706
:101020005F145E08E4006430E50080312000DF27B3
:10103000883177083300DE0030307807E1005E0841
:10104000E4000A30E50080312000DF2788313030AD
:1010500077073300E30030307807E2006008F700DC
:101060003030610203193828DF14DF1B5F154C286C
:101070006008E1002030E0003030620203194428AB
:101080005F14DF1BDF144C28031D5F14031D4C2865
:101090006108E2002030E1005F195328DF185B2867
:1010A0005F1863286B2860083400C000803120007E
:1010B000E0238831330061083400C0008031200013
:1010C000E0238831330062083400C0008031200002
:1010D000E0238831330063083400C00080312000F1
:1010E000E02388310800263085003D308400000868
:1010F000031988280530F800F701F70B7D28F80B55
:101100007C282E30F700F70B83288628800B7A285E
:101110000800263023009100033092008031200027
:1011200005248831330053088400540885000031B9
:101130000008003A20000319A428013A0319462B9D
:10114000033A0319982B572D3330230091000330B5
:10115000920080312000052488313E302300910028
:101160000330920080312000052488310F30330095
:10117000D600D801D701D901803120005527883108
:101180000330D400013033005307D6000030543D03
:10119000D7005708D9005608D800580884005908C5
:1011A0008500003FDA0001305807F8000030593D53
:1011B000FA007808DB007A08DC00DD0170085D02C7
:1011C00003181329BD305D078400253085000318FE
:1011D000850A00085A02031D1129B9302300910025
:1011E00001309200031023303400BC008031200015
:1011F000B824883133005A08DE001830DF002000A0
:1012000000200D303400C00080312000E023883100
:101210000A303400C00080312000E02388313A2BAE
:101220003300DD0ADE287008403C031922297008CB
:10123000F00ABD3E8400253085000318850A5A084F
:1012400080002C29CD3023009100013092008031A4
:101250002000052488313300E13023009100013063
:101260009200803120000524883104302300910051
:101270000230920003100C303400BC00803120009A
:10128000B824883133005A083400BC003730BD0020
:10129000803120006C2488310B3023009100023013
:1012A0009200031004303400BC0080312000B824C8
:1012B000883133005A08003A200003196329013AA3
:1012C0000319A42A282B33005C08DF005B08DE002A
:1012D0003D3023009100023092008031200005242F
:1012E00088317008F003BD3E840025308500031866
:1012F000850A80014730230091000230920080313E
:1013000020000524883161302300910002309200D2
:10131000803120000524883104303300EC00FA309D
:10132000ED00200073203300EC0B8F292E303400A9
:10133000C00080312000E023883104303300EC000D
:10134000FA30ED00200073203300EC0BA0292E3082
:101350003400C00080312000E023883104303300A5
:10136000EC00FA30ED00200073203300EC0BB129C3
:101370002E303400C00080312000E023883104305A
:101380003300EC00FA30ED00200073203300EC0B4A
:10139000C2292E303400C00080312000E023883183
:1013A00004303300EC00FA30ED00200073203300ED
:1013B000EC0BD3292E303400C00080312000E02314
:1013C00088310D303400C00080312000E0238831A6
:1013D0000A303400C00080312000E02388316630BC
:1013E00023009100023092008031200005248831D2
:1013F0003300E301E2015030E100E001E701103089
:10140000E6003D30E500E401EB01EA01E90180304E
:10141000E8006308EF006208EE006108ED00600874
:10142000EC0067083400A300330066083400A20013
:10143000330065083400A100330064083400A000C4
:1014400033006B083400A70033006A083400A6009C
:10145000330069083400A500330068083400A40094
:101460000130200056070F393400A800200055082D
:1014700034002802031D472A9230230091000230D5
:10148000920080312000052488319A2A34002000FF
:1014900056083400B9000C30BA0080312000912485
:1014A0008831373078078400203085000318850A9A
:1014B00033006C0880006D08813F6E08823F6F0822
:1014C000833F200056083400B9000C30BA00803148
:1014D00020009124883104307807373E8400203082
:1014E00085000318850A3400200880002108813F08
:1014F0002208823F2308833F200056083400B900A9
:101500000C30BA00803120009124883108307807EF
:10151000373E8400203085000318850A34002408F3
:1015200080002508813F2608823F2708833F28083E
:101530002000D600713023009100023092008031EB
:10154000200005248831312B33005C08DF005B0864
:10155000DE007A30230091000230920080312000BA
:1015600005248831843023009100023092008031BC
:1015700020000524883104303300E000FA30ED000B
:10158000200073203300E00BBE2A2E303400C00050
:1015900080312000E023883104303300E000FA304D
:1015A000ED00200073203300E00BCF2A2E303400F2
:1015B000C00080312000E023883104303300E00097
:1015C000FA30ED00200073203300E00BE02A2E30CB
:1015D0003400C00080312000E02388310430330023
:1015E000E000FA30ED00200073203300E00BF12A18
:1015F0002E303400C00080312000E02388310430D8
:101600003300E000FA30ED00200073203300E00BDF
:10161000022B2E303400C00080312000E0238831BE
:101620000D303400C00080312000E02388310A30C2
:101630003400C00080312000E0238831893023004D
:101640009100023092008031200005248831312B36
:101650000E302300910002309200803120000524DA
:1016600088311A302300910002309200803120002E
:10167000052488318031F6278831F808031D432B73
:101680000430D400452B0630D400572D4B302300B6
:1016900091000330920080312000052488315530BC
:1016A0002300910003309200031012303400BC007C
:1016B00080312000B824883154083300DE0018300F
:1016C000DF00200000200D303400C00080312000F9
:1016D000E02388310A303400C00080312000E0234C
:1016E0008831613023009100033092008031200066
:1016F0000524883101303300D6002030D800343042
:10170000D7000130D9008031200055278831540896
:10171000063C031D972B703023009100033092008C
:1017200080312000052488310130F800592D572DD3
:101730007E30230091000330920080312000052488
:1017400088318A30230091000330920080312000DC
:10175000052488310F303300D600D801D701D901D4
:101760008031200055278831330053088400540805
:10177000850001318008031D4E2D97302300910014
:101780000330920080312000052488310530D400D8
:101790003830230091000130920080312000052470
:1017A00088318031F6278831F808031D412D56080D
:1017B0005502031DE92BAC3023009100013092004B
:1017C00080312000052488310030F800F900042C15
:1017D000042C55083300E2000130200055070F3972
:1017E000D500330062083400B9000C30BA008031F3
:1017F0002000912488317808373EF8002030FA0024
:101800000318FA0A7A08F900790885007808840034
:101810000C30F80026308700860012001E00F80BFE
:101820000D2C5B3023009100013092000310133027
:101830003400BC0080312000B824883133005908BE
:101840003400BC003730BD00803120006C2488316A
:10185000330058083400BC003730BD008031200010
:101860006C248831330057083400BC003730BD0089
:10187000803120006C248831330056083400BC00CD
:101880003730BD00803120006C2488310D303400A9
:10189000C00080312000E02388310A303400C000CD
:1018A00080312000E023883169302300910001302D
:1018B0009200031018303400BC0080312000B8249E
:1018C000883133005D083400BC003730BD00803102
:1018D00020006C24883133005C083400BC003730B1
:1018E000BD00803120006C24883133005B08340057
:1018F000BC003730BD00803120006C2488313300BB
:101900005A083400BC003730BD00803120006C2400
:1019100088310D303400C00080312000E023883150
:101920000A303400C00080312000E0238831793053
:10193000230091000130920003100F303400BC00EE
:1019400080312000B8248831330061083400BC00A5
:101950003730BD00803120006C24883133006008AE
:101960003400BC003730BD00803120006C24883149
:1019700033005F083400BC003730BD0080312000E8
:101980006C24883133005E083400BC003730BD0061
:10199000803120006C2488310D303400C00080314B
:1019A0002000E02388310A303400C000803120005C
:1019B000E02388318530230091000130920080318E
:1019C00020000524883104303300E200FA30ED00B5
:1019D000200073203300E20BE62C2E303400C000D0
:1019E00080312000E023883104303300E200FA30F7
:1019F000ED00200073203300E20BF72C2E30340072
:101A0000C00080312000E023883104303300E20040
:101A1000FA30ED00200073203300E20B082D2E3049
:101A20003400C00080312000E023883104303300CE
:101A3000E200FA30ED00200073203300E20B192D94
:101A40002E303400C00080312000E02388310D307A
:101A50003400C00080312000E02388310A30340097
:101A6000C00080312000E023883104303300E200E0
:101A7000FA30ED00200073203300E20B382D2000F7
:101A8000D12B8A3023009100013092008031200058
:101A9000052488310630D400572D33009E302300B2
:101AA00091000330920080312000052488310030FD
:101AB000F80088314F2E23009F15A0309B00013085
:101AC0009C00A6309E0090309D0021008C112200C9
:101AD0008C152400951240309400093092002A3071
:101AE000950022009D129D111D1221008E120E16CE
:101AF0008E112000AC01AB01AA01A901B001AF0118
:101B0000AE01AD01B201B101D3010230D400D50163
:101B1000D6012300A801A7013100C401C301C201FD
:101B2000C101C601C501C801C701CA01C901CC0173
:101B3000CB01F00123008C018D018E018F019001FA
:101B4000220092019101C12D2034603413340034FD
:101B5000C034603437340034FF346034F934003436
:101B6000FF34C0340034FF34C0340034FF34C03498
:101B700000347C34C0340034803465347D34003427
:101B800000340D308500A430840085171200F70062
:101B9000003A0319DB2D1200F800F81BD32D3F3952
:101BA000870012008600781B1200781F12001E00AA
:101BB000F70BD52DC62DA5302300910003309200E0
:101BC00080312000052488313300AD012D08023C0E
:101BD000031C0A2EAE012E081E3C031CF92D5F309B
:101BE0003400C00080312000E02388313300AE0A89
:101BF000EB2D0D303400C00080312000E02388310F
:101C00000A303400C00080312000E02388313300E6
:101C1000AD0AE62DA83023009100033092008031F8
:101C20002000052488318031532C883133002F1057
:101C30002F18612E2000D3080319542E20303300B2
:101C4000DA001330D900200053083300DB00803164
:101C500020002B2D88317908FA00780884007A0852
:101C600085002330F80026308700860112001E0010
:101C7000F80B362E20303300D4001330D300203040
:101C8000D6003330D50080312000362F8831330024
:101C9000521C532E2630D400D30120008928330053
:101CA0002F1078182F14200033002F18612E0230C7
:101CB000D300C830ED00200073203300D30B592E21
:101CC000182EBA302300910003309200803120009A
:101CD000052488312E303400C00080312000E023FC
:101CE000883104303300D300FA30ED002000732037
:101CF0003300D30B742E20006A2EDA3023009100BB
:0E1D00000330920080312000052488316300FA
:020000040001F9
:04000E00823FFF1E10
:00000001FF
;PIC16F1789
;CRC=4EB8  CREATED="15-4-25 23:42"
