:06000000B8312B2C0000BA
:0800080083018031200077081C
:10001000A0007808A1007908A2007A08A3002300B4
:1000200011082000A400230012082000A5002300CE
:1000300013082000A600230014082000A700850153
:1000400091308400001C2628111846288501913023
:100050008400801E2D28911A48282008F7002108C6
:10006000F8002208F9002308FA0024082300910070
:10007000200025082300920020002608230093007A
:1000800020002708230094000900200080314A281E
:1000900080316A2896018030970096010000013077
:1000A000B1070318B20A0319B30A0319B40A1110ED
:1000B00080312D28D434ED3272104937693AE93055
:1000C000EC34FA320D0500008921EF367036653ABE
:1000D000E5060A006D28281C802859081F3C031CCF
:1000E00080285908D90A1F39193E8400203085001C
:1000F0000318850A911E7A28230019088000200021
:10010000911280312D28D520522AA024EE34F434C7
:100110006136693DE5060A008921EF367036653A99
:10012000E5060A00CD24D329C9274E104626C12949
:1001300048104937693AE930EC34FA320D050001CC
:100140000923EC307334A0347310EE377410E337A6
:100150006E37E531F432E4060A0089294D23201078
:10016000D0244326CF23A02AF332A021EF3A6E3ABF
:1001700065392010201020103A10303C2518382600
:10018000D8060A0089294D232010D0244326CF23E6
:100190002026EF377010C3377537F43272102010F5
:1001A00020103A10303C2518322C0D050001892909
:1001B0004D232010CD22C1292010A02AF332A021E6
:1001C000EF3A6E3A65392010201020103A10303C7A
:1001D00025183826D8060A0089294D232010CD225B
:1001E000C12920102026EF377010C3377537F4323D
:1001F0007210201020103A10303C2518322C0D05BA
:1002000000018926C9294610D0244326CF23A02ADD
:10021000F332A021EF3A6E3A6539201020102010F9
:100220003A10303C25183826D8060A008926C929F4
:100230004610D0244326CF23A02AEE316F38F9325E
:100240006410C3377537F43272103A10303C2518F9
:100250003826D8060A008926C9294610D024432604
:10026000CF232026EF377010C3377537F432721062
:10027000201020103A10303C2518322C0D050001BA
:100280008926C9294610D0244326CF23A02BF23437
:10029000F432A021EF3A6E3A6539201020103A105E
:1002A000303C2518322C0D0500018926C92946103D
:1002B000CD22C1292010A02AF332A021EF3A6E3AB4
:1002C00065392010201020103A10303C25183826AF
:1002D000D8060A008926C9294610CD22C129201036
:1002E000A02AEE316F38F9326410C3377537F43213
:1002F00072103A10303C25183826D8060A00892694
:10030000C9294610CD22C12920102026EF377010B0
:10031000C3377537F4327210201020103A10303C79
:100320002518322C0D0500018921EF367036653A0B
:10033000E5060A00CD34F339E9376E104636E13967
:100340006810E93920376F3AA0316F37EE32633ADF
:1003500065320D0500005B28C921CC27C72E201D62
:100360002000CD34F339E9376E104636E139681094
:10037000E93920376F3AA0316F37EE32633A653290
:100380000D0500004122371A3918A024EE34F43448
:100390006136693DE5060A008921EF367036653A17
:1003A000E5060A00892BD224D422201DA012641055
:1003B000A812301A4C2CA9060A008929C528201039
:1003C000201DA0126410A812301A4C2CA9060A0095
:1003D000892044225210201DA0126410A812301A45
:1003E0004C2CA9060A0009284D10201020103A10A4
:1003F0002532201425183426D8140D05000189292A
:10040000C820C42757103A10253220142518342646
:10041000D8140D050001892BC520CB17542949108C
:100420003A102532201425183426D8140D05000161
:1004300009294127C72220103A10253220142518F7
:100440003426D8140D05000189214F224927471071
:100450003A102532201425183426D8140D05000131
:10046000892D4122371A39185D10C634EE306C10D0
:10047000C337ED36613764103A1025183426D80694
:100480000A000D05533A61397410ED30EB325F39D3
:10049000E531E534F632DF31EF36ED306E320D0501
:1004A0000001892DC227D3295D103E1F3E10000197
:1004B00045376410ED30EB325F39E531693BE52FAC
:1004C000E337ED366137E4068A060A00F33467370E
:1004D0006136A0326E32A03B693A68105323C406DD
:1004E0000A00E437EE137410E6346E32A029462277
:1004F0000D05000089163E104937F630EC346410C3
:100500004639E136651049222039E531E534F632C5
:10051000641DA012D8060A0089163E104329431014
:100520006539F237F2100D05000189042D1F2039BD
:10053000E531E534F63264104329431DA012D80694
:100540000A0089042010A0316F36EC32633AA021F2
:10055000D221201DA012D8060A0089163E10493764
:10056000F630EC346410E432F634E332A024441064
:10057000F232E332693B65320D05000189042D1F1B
:100580002039E531E534F632641D20102010A01228
:10059000D8060A0089042010A0267910E432F63427
:1005A000E332A024441DA012D8060A00892DC227D8
:1005B000D3295D103C1E3C10000189163E104639BF
:1005C000E136651049223A10252C0D0500018916E7
:1005D0003E10C3376E3A65377410F334FA323A106E
:1005E00025320D050000533A61397410D3264610A8
:1005F000F53969376710F232F132733AA039E530D4
:10060000F13A6537E3320D0500014539F237F21052
:100610002029E531E534F634EE33A031EF36ED3004
:100620006E32A034EE316F37F334733A653774109D
:10063000F7347434203AE8322032E539E933EE06F3
:100640000A00D3264610F5396510F232F13AE53941
:1006500074106136EC37F732E4060A00D3264610F0
:10066000F5396510F232F13AE5397410E432EE3CB6
:1006700065320D050001D23274397910F232F13A47
:10068000E5397410F4372021CF295310D024C30644
:100690000A004539F237F2102029E531E534F63405
:1006A000EE33A031EF36ED306E32A034EE316F37DD
:1006B000F334733A65377410F7347434203AE832FF
:1006C0002032E539E933EE060A0045376410D326B7
:1006D0004610F53969376710F232F132733AA039B2
:1006E000E530F13A6537E3320D050000C927A02453
:1006F000EE34F4346136693DE5060A008921EF36AF
:100700007036653AE5060A00412243104937693AD6
:10071000E930EC34FA320D0500018921EF367036EC
:10072000653AE5060A00533A61397410D32BC522A5
:10073000D0060A008929F7326538A039F4327010E2
:100740003A10A53A0D05000145274410D32BC522C8
:10075000D0060A00533A61397410C324C7292032E5
:10076000613A6110E3376E3B6539F3346F370D053D
:100770008000D3264610E430F4302036E939741076
:10078000E93920337536EC10A1100D050000D32691
:100790004610E430F4302036E9397410E939A032DB
:1007A0006D38F43C0D050000533A61397410CD27C3
:1007B000C4222022D526CD2C0D05000189264F22EA
:1007C0004510201020103A102518322C0D0500017C
:1007D00009286139E136311020103A10303C2518D3
:1007E0003826D8060A0009286139E136321020106F
:1007F0003A10303C25183426D8060A0045376410D4
:10080000CD27C4222022D526CD2C0D050000533A39
:1008100061397410CD27C422A026C520D32AD22244
:100820000D050000533A61397410CD27C422A0266B
:10083000C520D32AD222202B6F36F430E7320D05A3
:100840000000533A61397410D32BC522D0060A0038
:100850008929F7326538A039F43270103A10A53A78
:100860000D05800145274410D32BC522D0060A0070
:10087000F4326D385F3A6F383A10252C0D050001BF
:10088000F4326D385F316F3A3A10252C0D050000B7
:1008900070325F3B6136F5323A10252C0D050000B1
:1008A000E334E7395F3B6136F5323A10252C0D050C
:1008B0000000E33A72396537F42FF630EC3A651DE3
:1008C000A012D8060A00F6376C3AE133E52FF6306D
:1008D000EC3A651DA012D8060A00533A613974102B
:1008E000CD27C422202AC5295410492B0D0500010B
:1008F0008929F7326538A039F43270103A10A53AD8
:100900000D050001533A613974104636E13968101B
:100910004539E13965104136EC060A004537641067
:100920004636E13968104539E13965104136EC0643
:100930000A00533A613974104636E1396810453976
:10094000E13965103110D332633A6F390D0500017A
:100950008929E531F437721041326439E539731D64
:100960002018F812301C4C2C0D050001453764107E
:100970004636E13968104539E13965103110D33216
:10098000633A6F390D050000533A613974104636E9
:10099000E1396810C337F03CA018A029E531F437DD
:1009A000F2060A0089297531F332633A6F39A020C3
:1009B0006432F232F3393A10303C25183826D80622
:1009C0000A00453764104636E1396810C337F03CF9
:1009D000A018A029E531F437F2060A00533A61392C
:1009E00074104636E13968105739693A6510C432D7
:1009F000ED370D05000189264F22451020102010EB
:100A00003A102518322C0D05000189206432F2328B
:100A1000F33920103A10303C25183826D8060A0041
:100A20000928E131EB327427F5363A10303C2518AD
:100A30003426D8060A005739693A6510C430F430B4
:100A40000D050001453764104636E1396810573905
:100A5000693A6510C432ED370D050000533A61392B
:100A600074104636E13968105739693A6510B43563
:100A7000C23CF432A0297531F332633A6F390D0567
:100A80000001453764104636E13968105739693A34
:100A90006510B435C23CF432A0297531F332633AA3
:100AA0006F390D050000533A613974104636E1394B
:100AB0006810D23261320D05000189264F2245109F
:100AC000201020103A102518322C0D050001892025
:100AD0006432F232F33920103A10303C25183826AF
:100AE000D8060A000928E131EB327427F5363A10AE
:100AF000303C25183426D8060A00D2224122202272
:100B0000412AC1060A00CD34F339E9376E10463662
:100B1000E1396810E93920376F3AA0316F37EE328A
:100B2000633A65320D050001453764104636E139F8
:100B30006810D23261320D050000533A61397410E9
:100B40004636E1396810D2326132A0206432F23286
:100B5000F3390D050001D23261322022613A611D64
:100B6000A012301958102518322CA0123019581024
:100B70002518322C0D050001453764104636E13941
:100B80006810D2326132A0206432F232F3390D059E
:100B90000000533A613974104636E1396810D326A3
:100BA0004610C337F03C0D0500014537641046364A
:100BB000E1396810D3264610C337F03C0D0500001C
:100BC000533A613974104636E1396810D32646101D
:100BD000D23261320D050001D23261322022613AF7
:100BE000611D20000D05453764104636E139681057
:100BF000D3264610D23261320D050000533A6139D6
:100C000074104636E1396810D32646105739693AD0
:100C1000E5060A00453764104636E1396810D326E8
:100C200046105739693AE5060A00533A613974109B
:100C30004636E139681041326439E5397310D232F1
:100C4000F332F4060A00453764104636E13968107D
:100C500041326439E5397310D232F332F4060A00B6
:100C60000D05DF2FDF2FDF2FDF2FDF2FDF2FDF2F10
:100C7000DF2FDF2FDF2F0D050001DF2FDF29F430FD
:100C8000723AA0316F38F92FE430F430DF2F0D05C0
:100C90000001533A61397410DB12641074345D1032
:100CA000E430F430A0316F38F9068A060A000D05E9
:100CB000DF2FDF226E32A0316F38F92FE430F430AD
:100CC000DF2FDF2F0D050001DF2FDF2FDF2FDF2FBD
:100CD000DF2FDF2FDF2FDF2FDF2FDF2F0D050D059C
:100CE00000004937A0396D33A036E939F3346F3746
:100CF0002032613A6110733A613974102010613208
:100D00006439E539731DA0124C2C0D0500014937DB
:100D1000A0396D33A036E939F3346F372032613AA8
:100D20006110653764102010201061326439E53994
:100D3000731DA0124C2C0D0500014937A026C929AE
:100D400020234D105739693A6510F3377539E3326E
:100D50002032613A611061326439E539731DA012A5
:100D60004C2C0D0500014937A026C92920234D1020
:100D70005739693A6510E430F430A039693D65109F
:100D80002010201020102010201DA012EC3A0D057C
:100D90000D050002D334FA32A030F2326110F23283
:100DA00061320D050001F5396532DF39693D6510A5
:100DB0003D1025367510A839F2312018F812301C74
:100DC0004C2CA9060A00EC376F38A031EF3A6E3A86
:100DD0003D1025322010A839F2312018F812301CAD
:100DE0004C2CA9068A060A0057396138203AF23499
:100DF000E733653965323A10D232F332743A6937E3
:100E00006710E430F430DF3BF234F432DF30643228
:100E10007210F437A039F430723A0D0500005538DD
:100E2000E430F432A039693D65106139E5300D05D3
:100E30000001F5396532DF39693D65103D10253611
:100E4000E4060A00EC376F38DF31EF3A6E3AA01E45
:100E5000A012F5068A060A000D05DF2FDF2FDF2F0F
:100E6000DF2FDF2FDF2FDF2FDF2FDF2FDF2FDF2F12
:100E7000DF2FDF2FDF2FDF2F0D05DF2FDF2FDF2904
:100E8000F430723AA032F832E33AF432DF36E9391C
:100E9000F3346F37DF2FDF2FDF068A060A00C337F0
:100EA000ED366137641049223A10252C0D050D05E9
:100EB000000189042D1FA0246E3B61366932A021F8
:100EC0004D22A024C4100D0500010D05DF2FDF2FDA
:100ED000DF2F45376410653CE531753AE52FED3479
:100EE000F339E937EE2FDF2FDF2FDF068A2FDF2FD1
:100EF000DF2FDF2FDF2FDF2FDF2FDF2FDF2FDF2F82
:100F0000DF2FDF2FDF2FDF2FDF2FDF2F0D0500007B
:100F1000533A61397410653CE531753AE52FE33792
:100F2000ED366137E4060A0089163E105538EC3478
:100F3000EE35A031EF36ED306E320D0500010910AF
:100F4000201054396137F336693AA020E335EE3783
:100F5000EC326732E5060A0089163E10533A613AD0
:100F6000F539A031E832E3350D05000109102010F4
:100F700054396137F336693AA026C929A026C32A15
:100F8000A029F430F43AF3060A00E634EE34733460
:100F90006532A0346E10733A613AF539DF31E832C8
:100FA000E3350D05000089163E10D3264610613B3F
:100FB000E134EC30623665106334E531EB060A004B
:100FC0000910201054396137F336693AA020E3350F
:100FD000EE37EC326732E5060A0089042D1FA03097
:100FE0006C36EF3BE4060A0089042D1F203265377A
:060FF000F932E4060A00DC
:101000000D050D050D05BD1EBD1EBD1EBD1EBD1E63
:10101000BD1EBD1EBD1EBD1EBD1EBD1EBD1EBD1EF8
:10102000BD1EBD1EBD1EBD1EBD1EBD1EBD1EBD1EE8
:10103000BD1EBD1EBD1EBD1EBD1EBD1EBD1EBD1ED8
:10104000BD1E0D0500015434E939A0347310CD27BD
:10105000CD24CA24A021C9235310D02443104221F7
:101060004D10E6377210CD24D31B5F21C2263117F5
:101070000D050001CC30733AA03A7032613A653206
:10108000A0376E103218B21A2F18B617B11A2C10DA
:10109000E23CA024EE37F532AE068A060A00DF2FC6
:1010A000DF2FC324C7292028C921A029F430723A90
:1010B000A027F032F230F4346F37DF2FDF2FDF0656
:1010C0008A060A00F730693A69376710E637721006
:1010D000C227D3292028C921A031EF36ED306E3246
:1010E00000010D05F730693A69376710E63772106D
:1010F000C227D3292028C921A031EF36ED306E3226
:1011000000010D050D05BD1EBD1EBD1E0D050D0505
:10111000C634EE34733465322038F237E332F339B3
:10112000AE068A2BE1347410E6377210C227D32939
:101130002028C921203A75396E106F336610ED32C0
:10114000000145376410ED3069370D0500002100BE
:101150000D1222000D120830F800AE280000F8171A
:10116000C128F8132F00C30C220003180D16031C0E
:101170000D127817C1287813F80BB228BF28000089
:101180000D1684308400840BC3280000F81BB1289E
:10119000781BBB28200008000B088B132300951731
:1011A000151400000000891B8B1713087F390319E1
:1011B00018292F00C000230011082F00C1002300B0
:1011C00012082F00C2004008C3002000A7202F00F3
:1011D0004108230091002F004208230092000B08D1
:1011E0008B139517151400000000891B8B17130D26
:1011F000140D7F39031918292F00C000230011088E
:101200002F00C100230012082F00C2004008C300B5
:101210002000A7202F004108230091002F00420842
:1012200023009200910A0319920A2000CC2823007F
:101230002000080076302300910003309200200047
:10124000CC20210010102200101021000C122200CE
:101250000C127E3023009100033092002000CC203D
:10126000B831E02C8430230091000330920020003C
:10127000CC207830210099001E109E101E110030E5
:1012800023008C0090008D00EB308F0021001E1297
:101290009E161E179E131D149030220098003230A7
:1012A00099008D3023009100033092002000CC2063
:1012B000B831E32C833023009100003092002000ED
:1012C000CC2021009116C0308B048C30230091007B
:1012D000003092002000CC20B831E62C5A30230098
:1012E0009100003092002000CC2011108F30980027
:1012F0009901960180309700960100002100111499
:10130000C0308B0464302300910000309200200034
:10131000CC20B831E92CC23023009100013092007A
:101320002000CC20280063166414E410E316631335
:10133000E3130130F600FB00FC01FD00FE01E201B9
:10134000CC3023009100013092002000CC20B83135
:10135000EC2C2F005D080739F7005D0CF800F80C45
:10136000F80C1F30F80578085F0784000030603DF6
:101370008500F801F80AF70ABE29F80DF70BBD2918
:10138000DE080319C62978088004C929F8097808F5
:101390008005200008002400110830002C082400DB
:1013A0009100140C031CD1291108F700200008003B
:1013B0002400110830002C0824009100140C031C98
:1013C000DE291108F700200008002F005D08003A10
:1013D00020000319EF29013A03195F2AD02A2F00B0
:1013E000EC01EB016C086402031C172A031DFC29A5
:1013F00063086B020318172A61086B0784006208F0
:101400006C3D850000083000A80024009512403093
:101410009400093092002A30950030002808AC0072
:101420002000CB212F00EB0A0319EC0AF22930002F
:10143000A301A201A101A00123082F006A02031C3D
:101440005E2A031D3B2A300022082F006902031C7C
:101450005E2A031D3B2A300021082F006802031C6E
:101460005E2A031D3B2A670830002002031C3A2A2B
:101470002F005E2A2F0065083000200784002F000F
:1014800066083000213D850024009512403094000C
:10149000093092002A30950001303000AC00200065
:1014A000CB217708800001303000A0070318A10A83
:1014B0000319A20A0319A30A1C2A2F00D12A2F00FC
:1014C000EE01ED016E086402031C872A031D6C2ADD
:1014D00063086D020318872A61086D07840062089B
:1014E0006E3D850000083000A800240095124030B1
:1014F0009400093092002A30950030002808AC0092
:101500002000D8212F00ED0A0319EE0A622A3000CC
:10151000A701A601A501A40127082F006A02031C48
:10152000CE2A031DAB2A300026082F006902031CB7
:10153000CE2A031DAB2A300025082F006802031CA9
:10154000CE2A031DAB2A670830002402031CAA2AF6
:101550002F00CE2A2F0065083000240784002F00BA
:1015600066083000253D8500240095124030940027
:10157000093092002A30950002303000AC00200083
:10158000D8217708800001303000A4070318A50A8D
:101590000319A60A0319A70A8C2A2F00D12A2000B2
:1015A0002F00200008009F302F00C6004008DD00FB
:1015B000DE010130E000DF012000A9212F004008FA
:1015C000DD00DE01E0018030DF002000A9212F00D6
:1015D0004108E0004008DF003F08DE003E08DD0073
:1015E0002430E200D630E100E4010130E300243091
:1015F000E600D230E500EA01E901E8010430E70045
:101600002000E5212F004008DD000130DE00E00071
:10161000DF012000A9212F004008DD00DE01E001EC
:101620008030DF002000A9212F004208203C031D4C
:101630001D2B0130F8001F2B1F2B0030F80020005D
:1016400008002E00C008031D982B0330CD00DA01DE
:10165000DB01F801F901FA014508CE00DB01F801D0
:10166000F901FA014408CF00F801F901FA01430831
:10167000D00041082F00DD00DE010130E000DF0175
:101680002000A9212E0041082F00DD00DE01E0012D
:101690008030DF002000A9212E0042082F00E0004A
:1016A0002E0041082F00DF002E0040082F00DE0032
:1016B0002E003F082F00DD002430E2008D30E100D5
:1016C000E4010430E3002E0048082F00E6002E005D
:1016D00047082F00E5002E004C082F00EA002E00DE
:1016E0004B082F00E9002E004A082F00E8002E00CA
:1016F00049082F00E7002000E5210230F700F70B32
:101700007F2B00002E0041082F00DD000130DE009D
:10171000E000DF012000A9212E0041082F00DD009C
:10172000DE01E0018030DF002000A921132C2E0013
:10173000400B142C1330D100D901DA01DB01F80180
:10174000F901FA014608D200DA01DB01F801F901DA
:10175000FA014508D300DB01F801F901FA01440858
:10176000D400F801F901FA014308D50041082F001F
:10177000DD00DE010130E000DF012000A9212E00A4
:1017800041082F00DD00DE01E0018030DF00200095
:10179000A9212E0042082F00E0002E0041082F0052
:1017A000DF002E0040082F00DE002E003F082F0033
:1017B000DD002430E2009130E100E4010530E30077
:1017C0002E0048082F00E6002E0047082F00E500F5
:1017D0002E004C082F00EA002E004B082F00E900D5
:1017E0002E004A082F00E8002E0049082F00E700CD
:1017F0002000E5210230F700F70BFC2B00002E0043
:1018000041082F00DD000130DE00E000DF01200094
:10181000A9212E0041082F00DD00DE01E00180300B
:10182000DF002000A9212E00200008000B088B13E8
:1018300023009517151400000000891B8B1703184F
:101840004A2C13087F392C00E100230011082C00DA
:10185000E200230012082C00E30061082F00C300FF
:101860002000A7202C006208230091002C006308B0
:10187000230092000B088B1395171514000000002D
:10188000891B8B172C00DE0B462C482C23004A2C7E
:101890006E2C2300130D140D7F392C00E100230062
:1018A00011082C00E200230012082C00E30061085C
:1018B0002F00C3002000A7202C0062082300910005
:1018C0002C00630823009200910A0319920A031066
:1018D0002C00DE0B6C2C6E2C2000162C2000080037
:1018E0002E00CF1B862C0F30F7004E0EF7050A3066
:1018F000770203187E2C3030F707802C4F08F7074B
:1019000077082F00C3002000A7202E000F30CE053F
:101910000A304E0203188E2C3030902CCF134F0813
:10192000CE074E082F00C3002000A72008009230E9
:1019300023009100003092002000CC2021008F1164
:1019400022008F1521008F1022008F1428005D08BF
:101950002F00C10028005C082F00C00028005B0891
:101960002F00BF0028005A082F00BE002000D322FD
:10197000F808031DC32CA030230091000030920012
:101980002000CC20062F28005D082E00C200280071
:101990005C082E00C10028005B082E00C000280053
:1019A0005A082E00BF00C601C501C401C30123307F
:1019B000C800B730C700CC01CB01CA014030C90014
:1019C000200021232C00D9010030D90459042B0018
:1019D0006A042800C200C301C401C5012B006B08C2
:1019E000F1002C00D9010030D90459042B006F04F8
:1019F0002800C600C701C801C9012C002008F20058
:101A0000D9010030D904590424042800CA00CB01AC
:101A1000CC01CD012C002508F300D9010030D904F8
:101A2000590429042800CE00CF01D001D1012C0097
:101A3000D8010030D80458042D04F400D901003036
:101A4000D904590431042800D200D301D401D501AE
:101A50002C003208F500D9010030D90459043604AD
:101A60002800D600D701D801D901AD30230091005C
:101A700000309200031022302C00DE0020001624DB
:101A8000280045082E00CE003730CF0020007024FB
:101A9000280044082E00CE003730CF0020007024EC
:101AA000280043082E00CE003730CF0020007024DD
:101AB000280042082E00CE003730CF0020007024CE
:101AC0000D302F00C3002000A7200A302F00C300D4
:101AD0002000A720C23023009100003092000310A4
:101AE00022302C00DE002000162471082E00CE00CB
:101AF0003730CF00200070240D302F00C3002000AD
:101B0000A7200A302F00C3002000A720D7302300D1
:101B1000910000309200031022302C00DE002000E3
:101B20001624280049082E00CE003730CF002000B0
:101B30007024280048082E00CE003730CF00200047
:101B40007024280047082E00CE003730CF00200038
:101B50007024280046082E00CE003730CF00200029
:101B600070240D302F00C3002000A7200A302F0062
:101B7000C3002000A720EC30230091000030920029
:101B8000031022302C00DE002000162472082E00E4
:101B9000CE003730CF00200070240D302F00C3005E
:101BA0002000A7200A302F00C3002000A72001300A
:101BB0002300910001309200031022302C00DE003F
:101BC0002000162428004D082E00CE003730CF000C
:101BD0002000702428004C082E00CE003730CF00A3
:101BE0002000702428004B082E00CE003730CF0094
:101BF0002000702428004A082E00CE003730CF0085
:101C0000200070240D302F00C3002000A7200A30D0
:101C10002F00C3002000A7201630230091000130C0
:101C20009200031022302C00DE0020001624280031
:101C300051082E00CE003730CF002000702428003D
:101C400050082E00CE003730CF002000702428002E
:101C50004F082E00CE003730CF002000702428001F
:101C60004E082E00CE003730CF00200070240D30FB
:101C70002F00C3002000A7200A302F00C30020003F
:101C8000A7202B3023009100013092000310223056
:101C90002C00DE002000162473082E00CE00373002
:101CA000CF00200070240D302F00C3002000A7209B
:101CB0000A302F00C3002000A720403023009100ED
:101CC00001309200031022302C00DE002000162488
:101CD00074082E00CE003730CF00200070240D3065
:101CE0002F00C3002000A7200A302F00C3002000CF
:101CF000A7205530230091000130920003102230BC
:101D00002C00DE0020001624280055082E00CE00EE
:101D10003730CF0020007024280054082E00CE0059
:101D20003730CF0020007024280053082E00CE004A
:101D30003730CF0020007024280052082E00CE003B
:101D40003730CF00200070240D302F00C30020005A
:101D5000A7200A302F00C3002000A7206A302300EC
:101D6000910001309200031022302C00DE00200090
:101D70001624280059082E00CE003730CF0020004E
:101D80007024280058082E00CE003730CF002000E5
:101D90007024280057082E00CE003730CF002000D6
:101DA0007024280056082E00CE003730CF002000C7
:101DB00070240D302F00C3002000A7200A302F0010
:101DC000C3002000A7207F30230091000130920043
:101DD000031022302C00DE002000162475082E008F
:101DE000CE003730CF00200070240D302F00C3000C
:101DF0002000A7200A302F00C3002000A720943025
:101E000023009100013092002000CC2008002F0018
:101E10005708003A20000319112F013A03193A2FED
:101E2000642F2F00E001DF0160085E02031C392FE0
:101E3000031D1E2F5D085F020318392F5B085F0723
:101E400084005C08603D85000008E30024009512D2
:101E500040309400093092002A3095002F0063082A
:101E60003000AC002000CB212F00DF0A0319E00A6C
:101E7000142F652F2F00E201E10162085E02031CAE
:101E8000622F031D472F5D0861020318622F5B0854
:101E9000610784005C08623D85000008E3002400BF
:101EA000951240309400093092002A3095002F009E
:101EB00063083000AC002000D8212F00E10A03198C
:101EC000E20A3D2F652F20002F002000080005307A
:101ED0002F00DB005908DD00DE010130E000DF01EA
:101EE0002000A9212F005908DD00DE01E00180302B
:101EF000DF002000A9212F005A08E0005908DF0068
:101F00005808DE005708DD002430E200EB30E10025
:101F1000E4010130E3002430E600EC30E500EA01A2
:101F2000E901E8010130E7002000E5212F00590810
:101F3000DD000130DE00E000DF012000A9212F00DC
:101F40005908DD00DE01E0018030DF002000A9211A
:101F50002F005C08F8002000080024308500E730DE
:101F6000840000080319C22F0530F800F701F70BB1
:101F7000B72FF80BB62F2E30F700F70BBD2FC02F61
:101F8000800BB42F08002B003D0884003E0885001C
:101F9000003FC0000130C1003F0841020318DA2FA2
:101FA0004108C10A3D07840000303E3D850000081D
:101FB000C006CC2F4008F800200008000F302B008E
:101FC000A000A201A101A301903120007626883152
:101FD00008002C006508F80164020318F22F640859
:101FE000F700FE2FF7010830E600E40DF70D650855
:101FF00077020318F700F80DE60BF52F2000080014
:102000002F005708003A200003190A28013A031943
:102010005528A1282F00E2015D08620203182B2831
:1020200062085B07840000305C3D85000008E80022
:102030002400951240309400093092002A30950017
:102040002F0068083000AC0088312000CB2190318F
:102050002F00E20A0C28E401E30164086102031C7A
:102060005428031D372860086302031854285E08AB
:10207000630784005F08643D85000008E8002400D1
:10208000951240309400093092002A3095002F00BC
:1020900068083000AC0088312000CB2190312F003F
:1020A000E30A0319E40A2D28A3282F00E5015D089F
:1020B00065020318762865085B07840000305C3DE4
:1020C00085000008E8002400951240309400093093
:1020D00092002A3095002F0068083000AC0088314B
:1020E0002000D82190312F00E50A5728E701E601AA
:1020F00067086102031C9F28031D8228600866028E
:1021000003189F285E08660784005F08673D850006
:102110000008E80024009512403094000930920035
:102120002A3095002F0068083000AC00883120006C
:10213000D82190312F00E60A0319E70A7828A3284E
:1021400020002F00A328200008002F00BF08031D37
:1021500054290630CA000230CB004408D800450894
:10216000D900DA01DB01F801F901FA015808CC00C5
:102170004308D8004408D9004508DA00DB01F8011B
:10218000F901FA015808CD00F801F901FA014208F5
:10219000CE004008DD00DE010130E000DF018831C3
:1021A0002000A92190312F004008DD00DE01E00170
:1021B0008030DF0088312000A92190312F004108B4
:1021C000DA004008D9003F08D8003E08D700243084
:1021D000DC00DA30DB00DE010130DD008831200078
:1021E000072790312F004008DD000130DE00E000BD
:1021F000DF0188312000A92190312F004008DD0047
:10220000DE01E0018030DF0088312000A92190311B
:102210002F004008DD00DE010130E000DF018831E1
:102220002000A92190312F004008DD00DE01E001EF
:102230008030DF0088312000A92190312F00410833
:10224000DA004008D9003F08D8003E08D700243003
:10225000DC00DB30DB000430DD004708DF0046082F
:10226000DE004908E1004808E000200000200230BC
:10227000F700F70B392900002F004008DD0001307E
:10228000DE00E000DF0188312000A92190312F001D
:102290004008DD00DE01E0018030DF0088312000F1
:1022A000A9219031092A2F003F0B0A2A0630CF00BE
:1022B0001230D0004508D800D901DA01DB01F8015D
:1022C000F901FA015808D1004408D8004508D9009E
:1022D000DA01DB01F801F901FA015808D2004308DC
:1022E000D8004408D9004508DA00DB01F801F901FB
:1022F000FA015808D300F801F901FA014208D400A4
:102300004008DD00DE010130E000DF0188312000FF
:10231000A92190312F004008DD00DE01E00180306E
:10232000DF0088312000A92190312F004108DA0018
:102330004008D9003F08D8003E08D7002430DC0010
:10234000DF30DB00DE010130DD00883120000727AF
:1023500090312F004008DD000130DE00E000DF0199
:1023600088312000A92190312F004008DD00DE01D6
:10237000E0018030DF0088312000A92190312F005A
:102380004008DD00DE010130E000DF01883120007F
:10239000A92190312F004008DD00DE01E0018030EE
:1023A000DF0088312000A92190312F004108DA0098
:1023B0004008D9003F08D8003E08D7002430DC0090
:1023C000E030DB000530DD004708DF004608DE00B6
:1023D0004908E1004808E000200000200230F70032
:1023E000F70BF02900002F004008DD000130DE006F
:1023F000E000DF0188312000A92190312F00400842
:10240000DD00DE01E0018030DF0088312000A921FD
:1024100090312F00D5014108DA004008D9003F086B
:10242000D8003E08D700883120006727903178080F
:102430000139013C031D392A2F0055080A3C0318B5
:10244000292AC830D70088312000AD2790312F2AA3
:102450002F000A30D70088312000AD2790312F009F
:102460005508643C0318372A2000392A2F00D50A62
:102470000B2A200008002F00BF08031DD62A0630B3
:10248000C6002030C700D501D601F801F901FA01D4
:102490004408C800D601F801F901FA014308C9004F
:1024A000F801F901FA014208CA004008DD00DE0126
:1024B0000130E000DF0188312000A92190312F0098
:1024C0004008DD00DE01E0018030DF0088312000BF
:1024D000A92190312F004108DA004008D9003F08B7
:1024E000D8003E08D7002430DC00D630DB00DE0107
:1024F0000130DD0088312000072790312F0040088F
:10250000DD000130DE00E000DF0188312000A9217C
:1025100090312F004008DD00DE01E0018030DF0057
:1025200088312000A92190312F004008DD00DE0114
:102530000130E000DF0188312000A92190312F0017
:102540004008DD00DE01E0018030DF00883120003E
:10255000A92190312F004108DA004008D9003F0836
:10256000D8003E08D7002430DC00D730DB00DE0185
:102570000430DD0088312000072790312F0040080B
:10258000DD000130DE00E000DF0188312000A921FC
:1025900090312F004008DD00DE01E0018030DF00D7
:1025A00088312000A9219031752B2F003F0B762B0D
:1025B0000630CB002130CC00D401D501D601F80182
:1025C000F901FA014508CD00D501D601F801F9015C
:1025D000FA014408CE00D601F801F901FA014308D6
:1025E000CF00F801F901FA014208D0004008DD00EF
:1025F000DE010130E000DF0188312000A9219031A7
:102600002F004008DD00DE01E0018030DF0088316E
:102610002000A92190312F004108DA004008D9009C
:102620003F08D8003E08D7002430DC00DB30DB0058
:10263000DE010130DD0088312000072790312F00B6
:102640004008DD000130DE00E000DF0188312000BD
:10265000A92190312F004008DD00DE01E00180302B
:10266000DF0088312000A92190312F004008DD00D3
:10267000DE010130E000DF0188312000A921903126
:102680002F004008DD00DE01E0018030DF008831EE
:102690002000A92190312F004108DA004008D9001C
:1026A0003F08D8003E08D7002430DC00DC30DB00D7
:1026B000DE010530DD0088312000072790312F0032
:1026C0004008DD000130DE00E000DF01883120003D
:1026D000A92190312F004008DD00DE01E0018030AB
:1026E000DF0088312000A92190312F00D10141085D
:1026F000DA004008D9003F08D8003E08D7008831EA
:1027000020006727903178080139013C031DA52B73
:102710002F0051080A3C0318952BC830D700883188
:102720002000AD2790319B2B2F000A30D700883135
:102730002000AD2790312F005108643C0318A32BD3
:102740002000A52B2F00D10A772B2000080031088C
:10275000F7003208F8003308F9003408FA007A0864
:102760002E00C7007908C6007808C5007708C400A5
:10277000CF01D001D1014708BE00D001D1014608E8
:10278000BF00D1014508C0004408C1003C08C20098
:102790003D08C300AB302300910001309200883126
:1027A0002000CC2090312E00C8014808053C031CB5
:1027B000F32B7E3048078400243085000318850AF7
:1027C0000008CD00CE003730CF00883120007024C3
:1027D000903120302F00C30088312000A720903195
:1027E0002E00C80AD52B0D302F00C30088312000E1
:1027F000A72090310A302F00C30088312000A72085
:10280000903128004A082E00C90028004B082E00ED
:10281000CA00023028004C072E00CB0000302800F0
:102820004D3D2E00CC0028005D082F00C10028007F
:102830005C082F00C00028005B082F00BF002800A4
:102840005A082F00BE0088312000D3229031F808AA
:10285000031D342CB13023009100013092008831E7
:102860002000CC209031522E28005D082F00C1009E
:1028700028005C082F00C00028005B082F00BF0064
:1028800028005A082F00BE002E004C082F00C5005B
:102890002E004B082F00C4002E004A082F00C30052
:1028A0002E0049082F00C2002430C7007E30C60029
:1028B000C9010630C8002000A52006302800CA073C
:1028C0000030CB3DCC3DCD3D0630CE070030CF3D76
:1028D000D03DD13D0630F40774073F3C0318AC2CC3
:1028E0004A082E00C90028004B082E00CA000230FA
:1028F00028004C072E00CB00003028004D3D2E0054
:10290000CC0028005D082F00C10028005C082F00C3
:10291000C00028005B082F00BF0028005A082F00C5
:10292000BE002E004C082F00C5002E004B082F00C3
:10293000C4002E004A082F00C3002E0049082F00B3
:10294000C2002230C7009E30C600C9010630C80050
:102950002000A520F40128002E00CD01CE01CF01DA
:10296000D001D101D201D301D401D501D601D701C3
:10297000D801D901DA01DB01DC01DD01DE01DF0173
:10298000E001E101E201E301E401E501E601E70123
:10299000E801E901EA01EB01EC01ED01EE01EF01D3
:1029A0002F00A001A101A201A301A401A501A6017C
:1029B000A701A801A901AA01AB01AC01AD01AE01BB
:1029C000AF01B001B101B201B301B401B501B6016B
:1029D000B701B801B901BA01BB01BC012800450823
:1029E0002F00BF00C001C101C2013F082E00CD0071
:1029F000280044082F00BF00280045082F00C00011
:102A0000C101C2013F082E00CE00280043082F005C
:102A1000BF00280044082F00C000280045082F00F0
:102A2000C100C2013F082E00CF00280042082E003E
:102A3000D0007108D100280049082F00BF00C00154
:102A4000C101C2013F082E00D200280048082F0013
:102A5000BF00280049082F00C000C101C2013F0883
:102A60002E00D300280047082F00BF002800480888
:102A70002F00C000280049082F00C100C2013F08F4
:102A80002E00D400280046082E00D5007208D6007B
:102A900028004D082F00BF00C001C101C2013F083E
:102AA0002E00D70028004C082F00BF0028004D083A
:102AB0002F00C000C101C2013F082E00D80028002D
:102AC0004B082F00BF0028004C082F00C000280032
:102AD0004D082F00C100C2013F082E00D900280078
:102AE0004A082E00DA007308DB00280051082F0086
:102AF000BF00C001C101C2013F082E00DC00280058
:102B000050082F00BF00280051082F00C000C1014D
:102B1000C2013F082E00DD0028004F082F00BF0033
:102B2000280050082F00C000280051082F00C100C5
:102B3000C2013F082E00DE0028004E082E00DF00F4
:102B40000030E000E100E2007408E30028005508CE
:102B50002F00BF00C001C101C2013F082E00E400E8
:102B6000280054082F00BF00280055082F00C0007F
:102B7000C101C2013F082E00E500280053082F00C4
:102B8000BF00280054082F00C000280055082F005F
:102B9000C100C2013F082E00E600280052082E00A6
:102BA000E7007508E800280059082F00BF00C001A1
:102BB000C101C2013F082E00E900280058082F007B
:102BC000BF00280059082F00C000C101C2013F0802
:102BD0002E00EA00280057082F00BF0028005808E0
:102BE0002F00C000280059082F00C100C2013F0873
:102BF0002E00EB00280056082E00EC0028005D088F
:102C00002F00C10028005C082F00C00028005B08CE
:102C10002F00BF0028005A082F00BE008831200076
:102C2000D3229031F808031D1F2E9A302300910003
:102C30000130920088312000CC209031522E2800A3
:102C40005D082F00C10028005C082F00C00028008C
:102C50005B082F00BF0028005A082F00BE00C501E6
:102C6000C401C301C20120003B2228005D082F00DF
:102C7000C10028005C082F00C00028005B082F005E
:102C8000BF0028005A082F00BE00C501C401C301BF
:102C9000C2012430C7008D30C600C9014030C800D1
:102CA0002000A52008002A006E08FA006D088400A4
:102CB0007A08850000082B00A0002A006C08850017
:102CC0006B088400F7012B002008F800780803192E
:102CD0006D2E77081A00F80B692E2A006D08840003
:102CE0006E0885008001B83120003C2DAA302B00F1
:102CF000A40020085038A50022088500210884007F
:102D00002308F80003198C2E2330870076308600C4
:102D100012001E00F80B882E02302307B400743016
:102D20003407F8002330FA000318FA0A7808B700CD
:102D30007A08B80001303402B9002330BE00753083
:102D4000BD003908BF0088312000C32790312B0017
:102D5000380885003708840078088000013034077F
:102D6000B5002330B8007430B7003508B900BA0197
:102D700039083A020318CD2E3A083707840000308C
:102D8000383D85000008BC003C082000111EC62EFE
:102D900023009A002B00BA0AB82ED63023009100E7
:102DA0000230920088312000CC2090312B00BB01F2
:102DB00039083B020318F62E3B0837078400003021
:102DC000383D85000008BC002E00CE003730CF0013
:102DD000883120007024903120302F00C3008831CA
:102DE0002000A72090312B00BB0AD82E0D302F00D9
:102DF000C30088312000A72090310A302F00C30083
:102E000088312000A7209031080078082C004C0859
:102E1000E4006430E50088312000E927903177082C
:102E20002C00CC0078083030031D1D2FCD1C292F1D
:102E3000CD19292F4D1A2030202FCD114D124D14B0
:102E4000F80778082F00C30088312000A7209031B0
:102E50002C004C08E4000A30E50088312000E92706
:102E6000903177082C00CC0078083030031D3E2FBD
:102E7000CD19472F4D1C472F4D1A2030F8077808E1
:102E80002F00C30088312000A72090312C00303063
:102E9000CC074C082F00C30088312000A7209031B8
:102EA000080021000F1122000F11240011082B002F
:102EB000380824009100140C031C5B2F1108F80043
:102EC00011082B00370824009100140C031C652FF7
:102ED0001108F70021000F1122000F152000080033
:102EE0002400951240309400FF3092003A30950053
:102EF0002B002B08B8002A08B70020005127240017
:102F0000951240309400FF3092003A3095002B002B
:102F1000B8010330B7002000512778082B00AD001E
:102F20007708AC002C08F7002D080F39FA002C08A0
:102F3000F8007A08F9002000080082302300910090
:102F40000430920088312000CC2090312B002508DD
:102F5000840026088500003FA70027082E00BC003B
:102F6000BD012000A7232B00AB01AA01A901A801E4
:102F7000AB08031DE72F2A08F43C031CE72F031DB1
:102F8000C52F2908233C031CE72F28005D082B00D0
:102F9000B10028005C082B00B00028005B082B0063
:102FA000AF0028005A082B00AE002B08B5002A08F5
:102FB000B4002908B3002808B20098312000122478
:102FC000903101302B00AA070030AB3DB82F270805
:102FD0002E00BC000230BD002000A7238E3023004D
:102FE00091000430920088312000CC209031A8312B
:022FF000ED2DC5
:103000002B00A401A501A601A701A801A901AA01FD
:10301000AB01AC01AD01AE01AF0141302300910025
:103020000230920088312000CC20983151302300AA
:1030300091000230920088312000CC2098312B0082
:10304000B0012308300203183F283008210784000C
:103050000030223D85000008B7002E00CE0037303A
:10306000CF00883120007024983120302F00C30019
:1030700088312000A72098312B00B00A21280D307C
:103080002F00C30088312000A72098310A302F007C
:10309000C30088312000A72098312B002208B800F7
:1030A0002108B7002308B900BA01BA01013039027A
:1030B0003A0203186B283A08370784000030383D7D
:1030C00085000008AA3C031D692801303A07F80072
:1030D0009028BA0A56283A08370784000030383D4D
:1030E00085000008AA3C031D832866302300910058
:1030F0000230920088312000CC209831FF30F80057
:103100002B0090289028713023009100023092000B
:1031100088312000CC209831FF30F8002B00902817
:103120007808B1003108FF3C031D9B28A430F8004B
:103130000530F900272A31082107B2000030223D6E
:10314000B3003208840033088500003100080F39CD
:10315000B4003408B700B8013808023C031CCA2880
:103160000310380DC53E8400223085000318850AFF
:1031700000083702031DC8280310380D013EC53E64
:103180008400223085000318850A0008F800F22820
:10319000B80AAC287A302300910002309200031064
:1031A0001F302C00DE0088312000162498312B00BF
:1031B00037082E00CE003730CF0088312000702431
:1031C00098310D302F00C30088312000A72098319E
:1031D0000A302F00C30088312000A7209831FF302B
:1031E000F8002B007808B5003508FF3C031DFD28CA
:1031F000A430F8000530F900272A31082302B60070
:103200003308B8003208B7003608B9000130390277
:10321000370784000030383D85000008BA000130CF
:103220003902BC003808BE003708BD003C08BF00AA
:1032300088312000C327983178082B00BB003B0859
:103240003A02031D27290130F8007E297E298C309F
:10325000230091000230920088312000CC20983168
:1032600095302300910002309200031013302C009F
:10327000DE0088312000162498312B003A082E00F9
:10328000CE003730CF0088312000702498310D30C7
:103290002F00C30088312000A72098310A302F006A
:1032A000C30088312000A7209831A130230091006D
:1032B00002309200031013302C00DE008831200011
:1032C000162498312B003B082E00CE003730CF005B
:1032D00088312000702498310D302F00C3008831D0
:1032E0002000A72098310A302F00C3008831200029
:1032F000A72098310030F8002B007E29F808031D24
:103300008629A430F8000530F900272A3208840005
:103310003308850000310008F039F700770EB70058
:103320000F30B7053708B80038080C3C031D9C293E
:103330000130F800F229F229AD302300910002306B
:10334000920088312000CC209831BE3023009100BB
:1033500002309200031013302C00DE008831200070
:10336000162498312B0038082E00CE003730CF00BD
:1033700088312000702498310D302F00C30088312F
:103380002000A72098310A302F00C3008831200088
:10339000A7209831CA302300910002309200031018
:1033A00013302C00DE0088312000162498310C30B8
:1033B0002E00CE003730CF008831200070249831A5
:1033C0000D302F00C30088312000A72098310A302B
:1033D0002F00C30088312000A72098310030F8006A
:1033E0002B00F229F808031DFA29A430F800053053
:1033F000F900272A3408A40001303207B700003052
:10340000333DB80002303602B9003808850037086D
:1034100084003908F8000319152A23308700773013
:10342000860012001E00F80B112A02303602A50099
:103430002614583023009100023092008831200079
:10344000CC209831A430F8000530F9002B00B831B9
:1034500020001F2DD43023009100033092008831CA
:103460002000CC2098312B002508840026088500F8
:10347000003FA700250884002608850001310008C8
:10348000B101B001AF01AE00B100AE01AF01B001BA
:10349000250884002608850002310008B601B50120
:1034A000B401B3003408FA003308F900F701F80159
:1034B0007708AE047808AF043308B0043408B104C8
:1034C000250884002608850003310008B601B501EF
:1034D000B401B3003508FA003408F9003308F800E5
:1034E000F7017708AE043308AF043408B004350898
:1034F000B1042508840026088500043FF700F80180
:10350000F901FA0177082E04A80078082F04A90011
:1035100079083004AA007A083104AB002508840039
:103520002608850005310008AF01AE00AF00AE01EE
:103530002508840026088500063FFA012E04AC0009
:103540007A082F04AD00DE30230091000330920092
:1035500003100C302C00DE00883120001624983136
:103560002B0027082E00CE003730CF0088312000F6
:10357000702498310D302F00C30088312000A7201F
:1035800098310A302F00C30088312000A7209831DD
:10359000E830230091000330920003100E302C001D
:1035A000DE0088312000162498312B002B082E00D5
:1035B000CE003730CF0088312000702498312B00A6
:1035C0002A082E00CE003730CF008831200070242A
:1035D00098312B0029082E00CE003730CF008831DB
:1035E0002000702498312B0028082E00CE003730A0
:1035F000CF0088312000702498310D302F00C30097
:1036000088312000A72098310A302F00C30088316C
:103610002000A7209831F33023009100033092005E
:1036200003100E302C00DE00883120001624983163
:103630002B002D082E00CE003730CF00883120001F
:10364000702498312B002C082E00CE003730CF008C
:1036500088312000702498310D302F00C30088314C
:103660002000A72098310A302F00C30088312000A5
:10367000A72098312B0027082E00BC000130BD0088
:1036800090312000A72398312B0027082E00BC0082
:103690000230BD0090312000A7239831FE30230076
:1036A00091000330920088312000CC209831A8315D
:1036B000ED2D64302B00A5006D3023009100043007
:1036C000920088312000CC2098317830230091007E
:1036D0000430920003100E302C00DE0088312000F0
:1036E000162498312B0025082C00CC001B30CD006F
:1036F00090312000052798310D302F00C30088310C
:103700002000A72098310A302F00C3008831200004
:10371000A720983121008C1222008C162100101055
:103720002200101421000C1222000C12903098007C
:103730002B00A901A801A908031D0F2C25082802A8
:1037400003180F2C28082200990064302F00D7009E
:1037500088312000AD27983183302B00AB0030300A
:10376000AA00903120007027983179082B00A7001B
:103770007808A60027082E00CE003730CF00883109
:103780002000702498312B0026082E00CE00373000
:10379000CF0088312000702498312C302F00C300D6
:1037A00088312000A720983120302F00C3008831B5
:1037B0002000A7209831AF302B00AB003030AA009A
:1037C000903120007027983179082B00A7007808E5
:1037D000A60027082E00CE003730CF008831200009
:1037E000702498312B0026082E00CE003730CF00F1
:1037F00088312000702498310D302F00C3008831AB
:103800002000A72098310A302F00C3008831200003
:10381000A72098312B00A80A0319A90A9B2BA831CD
:103820002000ED2D2B00AF08031DC32C0630B60081
:10383000D830B700C601C701F801F901FA01340810
:10384000B800C701F801F901FA013308B900F8011D
:10385000F901FA013208BA0030082F00DD00DE015C
:103860000130E000DF0188312000A92198312B00D0
:1038700030082F00DD00DE01E0018030DF008831FC
:103880002000A92198312B0031082F00DA002B00ED
:1038900030082F00D9002B002F082F00D8002B0054
:1038A0002E082F00D7002330DC008630DB00DE013D
:1038B0000130DD0088312000072798312B003008C7
:1038C0002F00DD000130DE00E000DF018831200044
:1038D000A92198312B0030082F00DD00DE01E00126
:1038E0008030DF0088312000A92198312B0030087A
:1038F0002F00DD00DE010130E000DF018831200013
:10390000A92198312B0030082F00DD00DE01E001F5
:103910008030DF0088312000A92198312B00310848
:103920002F00DA002B0030082F00D9002B002F08C1
:103930002F00D8002B002E082F00D7002330DC00EA
:103940008730DB00DE010430DD00883120000727EE
:1039500098312B0030082F00DD000130DE00E00040
:10396000DF0188312000A92198312B0030082F0079
:10397000DD00DE01E0018030DF0088312000A92178
:103980009831782D2B002F0B792D0630BB00DC30C1
:10399000BC00C501C601C701F801F901FA013508EB
:1039A000BD00C601C701F801F901FA013408BE00E3
:1039B000C701F801F901FA013308BF00F801F90164
:1039C000FA013208C00030082F00DD00DE010130AE
:1039D000E000DF0188312000A92198312B00300858
:1039E0002F00DD00DE01E0018030DF0088312000A3
:1039F000A92198312B0031082F00DA002B00300864
:103A00002F00D9002B002F082F00D8002B002E08E4
:103A10002F00D7002330DC008B30DB00DE010130CB
:103A2000DD0088312000072798312B0030082F0057
:103A3000DD000130DE00E000DF0188312000A92137
:103A400098312B0030082F00DD00DE01E0018030CE
:103A5000DF0088312000A92198312B0030082F0089
:103A6000DD00DE010130E000DF0188312000A92106
:103A700098312B0030082F00DD00DE01E00180309E
:103A8000DF0088312000A92198312B0031082F0058
:103A9000DA002B0030082F00D9002B002F082F0050
:103AA000D8002B002E082F00D7002330DC008C30EC
:103AB000DB00DE010530DD0088312000072798316A
:103AC0002B0030082F00DD000130DE00E000DF01B8
:103AD00088312000A92198312B0030082F00DD000B
:103AE000DE01E0018030DF0088312000A92198311B
:103AF0002B00C10131082F00DA002B0030082F0005
:103B0000D9002B002F082F00D8002B002E082F00E3
:103B1000D700883120006727983178080139013CA7
:103B2000031DB12D2B0041080A3C0318A02DC830FD
:103B30002F00D70088312000AD279831A72D2B000A
:103B40000A302F00D70088312000AD2798312B0094
:103B50004108643C0318AF2D2000B12D2B00C10A91
:103B60007A2D200008009930230091000430920043
:103B700088312000CC2098312B00250884002608AD
:103B8000850000310008A70025088400260885006C
:103B900001310008B101B001AF01AE00B100AE01CA
:103BA000AF01B00125088400260885000231000815
:103BB000B601B501B401B3003408FA003308F900C6
:103BC000F701F8017708AE047808AF043308B004B1
:103BD0003408B10425088400260885000331000854
:103BE000B601B501B401B3003508FA003408F90094
:103BF0003308F800F7017708AE043308AF0434083F
:103C0000B0043508B1042508840026088500043F67
:103C1000F700F801F901FA0177082E04A8007808E6
:103C20002F04A90079083004AA007A083104AB00F7
:103C3000A8302300910004309200031013302C00B0
:103C4000DE0088312000162498312B002B082E002E
:103C5000CE003730CF0088312000702498312B00FF
:103C60002A082E00CE003730CF0088312000702483
:103C700098312B0029082E00CE003730CF00883134
:103C80002000702498312B0028082E00CE003730F9
:103C9000CF0088312000702498310D302F00C300F0
:103CA00088312000A72098310A302F00C3008831C6
:103CB0002000A72098312B0027082E00BC000130DF
:103CC000BD0090312000A723983128005D082B000B
:103CD000B10028005C082B00B00028005B082B0016
:103CE000AF0028005A082B00AE002B08B5002A08A8
:103CF000B4002908B3002808B200200012242B00C9
:103D000027082E00BC000230BD0090312000A72300
:103D10009831B630230091000430920088312000A1
:103D2000CC209831A831ED2DC4302300910004300F
:103D3000920088312000CC2098312B002508840087
:103D40002608850000310008A70025088400260801
:103D5000850001310008B101B001AF01AE00B10032
:103D6000AE01AF01B00125088400260885000231AC
:103D70000008B601B501B401B3003408FA003308F5
:103D8000F900F701F8017708AE047808AF043308AA
:103D9000B0043408B10425088400260885000331E6
:103DA0000008B601B501B401B3003508FA003408C3
:103DB000F9003308F800F7017708AE043308AF04C0
:103DC0003408B0043508B1042508840026088500AD
:103DD000043FF700F801F901FA0177082E04A80062
:103DE00078082F04A90079083004AA007A08310461
:103DF000AB00D23023009100043092000310163043
:103E00002C00DE0088312000162498312B002B086E
:103E10002E00CE003730CF0088312000702498313A
:103E20002B002A082E00CE003730CF00883120002A
:103E3000702498312B0029082E00CE003730CF0097
:103E400088312000702498312B0028082E00CE00E5
:103E50003730CF0088312000702498310D302F008A
:103E6000C30088312000A72098310A302F00C300FA
:103E700088312000A72098312B0027082E00BC0095
:103E80000130BD0090312000A723983128005D0843
:103E90002F00C10028005C082F00C00028005B082C
:103EA0002F00BF0028005A082F00BE00C501C40122
:103EB000C301C201903120003B2298312B0027081A
:103EC0002E00BC000230BD0090312000A7239831A5
:103ED000E130230091000430920088312000CC2092
:103EE0009831A831ED2D2E0041082F00DD00013062
:103EF000DE00E000DF0188312000A92198312E008A
:103F000041082F00DD00DE01E0018030DF00883154
:103F10002000A9219831080020302C005C1E303090
:103F2000E0005B08F700DB1F9D2FF709F70A770811
:103F3000DB002D30E000DC175C145B08E40064302B
:103F4000E50088312000E927983177082C00DB0054
:103F500030307807E1005B08E4000A30E500883182
:103F60002000E9279831303077072C00E30030300B
:103F70007807E2006008F700303061020319C42FAF
:103F8000DC14DC1B5C15D82F6008E1002030E00059
:103F9000303062020319D02F5C14DC1BDC14D82FE4
:103FA000031D5C14031DD82F6108E2002030E100DE
:103FB0005C19DF2FDC18E72F5C18EF2FF72F600854
:103FC0002F00C30088312000A72098312C00610801
:103FD0002F00C30088312000A72098312C006208F0
:103FE0002F00C30088312000A72098312C006308DF
:0E3FF0002F00C30088312000A7209831080060
:10400000EE30230091000430920088312000CC2053
:10401000A0312B0025088400260885000031000807
:104020002C00AE002E00BC000130BD0090312000FD
:10403000A723A0312B00A701A801A901AA01AB0168
:10404000AC01AD012508840026088500003FA700CB
:104050002508840026088500013100082C00B101E4
:10406000B001AF01AE00B100AE01AF01B0012B0055
:104070002508840026088500023100082C00B601BE
:10408000B501B401B3003408FA003308F900F701B0
:10409000F8017708AE047808AF043308B004340898
:1040A000B1042B0025088400260885000331000890
:1040B0002C00B601B501B401B3003508FA0034088C
:1040C000F9003308F800F7017708AE043308AF04AD
:1040D0003408B0043508B1042B00250884002608F4
:1040E0008500043FF700F801F901FA0177082C0078
:1040F0002E042B00A80078082C002F042B00A90008
:1041000079082C0030042B00AA007A082C00310416
:104110002B00AB0025088400260885000731000825
:104120002C00AF01AE00AF00AE012B0025088400CB
:1041300026088500083FFA012C002E042B00AC0055
:104140007A082C002F042B00AD00FB3023009100D7
:104150000430920003100C302C00DE008831200067
:104160001624A0312B0027082E00CE003730CF00B8
:10417000883120007024A0310D302F00C300883119
:104180002000A720A0310A302F00C3008831200072
:10419000A720A031053023009100053092000310C4
:1041A0000E302C00DE00883120001624A0312B00B8
:1041B0002B082E00CE003730CF008831200070242D
:1041C000A0312B002A082E00CE003730CF008831D6
:1041D00020007024A0312B0029082E00CE0037309B
:1041E000CF00883120007024A0312B0028082E0039
:1041F000CE003730CF00883120007024A0310D3040
:104200002F00C30088312000A720A0310A302F00E2
:10421000C30088312000A720A03110302300910076
:104220000530920003100E302C00DE008831200093
:104230001624A0312B002D082E00CE003730CF00E1
:10424000883120007024A0312B002C082E00CE00D5
:104250003730CF00883120007024A0310D302F007E
:10426000C30088312000A720A0310A302F00C300EE
:1042700088312000A720A0312B0027082E00BC0089
:10428000BD0190312000A723A0311B3023009100F5
:104290000530920088312000CC20A0312B00EF01A6
:1042A000EE016F082D02031CF229031D5B292C0867
:1042B0006E020318F2296E0D2C00A0002B006F0D6A
:1042C0002C00A100A00DA10DA00DA10DA00DA10D10
:1042D000A00DA10DA00DA10DC030A005A2012208C6
:1042E0003F3C031C9E297E3022078400233085003A
:1042F0000318850A22082007B0000030213DB100D4
:10430000FA01300880007E302207840023308500C7
:104310000318850A0008AE002E00CE003730CF000B
:10432000883120007024A03120302F00C300883154
:104330002000A720A0312C00A20A6F292B006E0DAF
:10434000F9006F0DFA00F90DFA0DF90DFA0DF90DDE
:10435000FA0DF90DFA0DF90DFA0DC030F9057908CD
:1043600028072C00A3007A082B00293D2C00A4006C
:1043700000302B002A3D2C00A50000302B002B3DE7
:104380002C00A60028005D082F00C10028005C0852
:104390002F00C00028005B082F00BF0028005A082B
:1043A0002F00BE002C0026082F00C5002C00250879
:1043B0002F00C4002C0024082F00C3002C00230869
:1043C0002F00C2002330C7007E30C600C901403034
:1043D000C80090312000A520A0312B00EE0A03195F
:1043E000EF0A512927082E00BC000230BD00903191
:1043F0002000A723A0310D302F00C30088312000FA
:10440000A720A0310A302F00C30088312000A72048
:10441000A031223023009100053092008831200025
:10442000CC20A031A831ED2D2E3023009100053095
:10443000920088312000CC20A0312B002508840078
:1044400026088500003100082E00BB00BC000130AA
:10445000BD0090312000A723A03128005D082E0068
:10446000C20028005C082E00C10028005B082E0056
:10447000C00028005A082E00BF0098312000732782
:10448000A0312B00AA01A901A801A7010130AB00AE
:104490000230AC000330AD000430AE00AF01B0011B
:1044A000B101B201B301B401B501B601B701B80160
:1044B000B901BA01BB01BC01BD01BE01BF01C00110
:1044C000C101C201C301C401C501C601C701C801C0
:1044D000C901CA01CB01CC01CD01CE01CF01D00170
:1044E000D101D201D301D401D501D601D701D80120
:1044F000D901DA01DB01DC01DD01DE01DF01E001D0
:10450000E101E201E301E401E501E601E701E8017F
:10451000E901EA01EB01EC01ED01EE01EF012C00F4
:10452000A001A101A201A301A401A501A601A70167
:10453000A801A901AA01AB01AC01AD01AE01AF0117
:10454000B001B101B201B301B401B501B601B701C7
:10455000B801B901BA01BB01BC01BD01BE01BF0177
:10456000C001C101C201C301C401C501C601C70127
:10457000C801C901CA01CB01CC01CD01CE01CF01D7
:10458000D001D101D201D301D401D501D601D70187
:10459000D801D901DA01DB01DC01DD01DE01DF0137
:1045A000E001E101E201E301E401E501E601E701E7
:1045B000E801E901EA01EB01EC01ED01EE01EF0197
:1045C0002D00A001A101A201A301A401A501A60142
:1045D000A701A801A901AA01AB01AC01AD01AE017F
:1045E000AF01B001B101B201B301B401B501B6012F
:1045F000B701B801B901BA01BB01BC01BD01BE01DF
:10460000BF01C001C101C201C301C401C501C6018E
:10461000C701C801C901CA01CB01CC01CD01CE013E
:10462000CF01D001D101D201D301D401D501D601EE
:10463000D701D801D901DA01DB01DC01DD01DE019E
:10464000DF01E001E101E201E301E401E501E6014E
:10465000E701E801E901EA01EB01EC01ED01EE01FE
:10466000EF012E00A001A101A201A301A401A50157
:10467000A601A701A801A901AA01AB01AC01AD01E6
:10468000AE01AF01B001B101B201B301B401B50196
:10469000B601B701B801B901BA0128005D082F00C1
:1046A000C10028005C082F00C00028005B082F0014
:1046B000BF0028005A082F00BE002B002A082F0038
:1046C000C5002B0029082F00C4002B0028082F004C
:1046D000C3002B0027082F00C2002330C7007B3007
:1046E000C6000130C900C80190312000A520A031CA
:1046F0002B002508840026088500003100082E00C4
:10470000BB00BC000230BD0090312000A723A031C7
:104710004130230091000530920088312000CC20E8
:10472000A031A831ED2D53302300910005309200C7
:1047300088312000CC20A0312B00250884002608D9
:104740008500003100082C00AE002E00BC000130B6
:10475000BD0090312000A723A0312B00A701A801A4
:10476000A901AA01AB01AC01AD012508840026080E
:104770008500003FA7002508840026088500013138
:1047800000082C00B101B001AF01AE00B100AE01D4
:10479000AF01B0012B0025088400260885000231F6
:1047A00000082C00B601B501B401B3003408FA00CA
:1047B0003308F900F701F8017708AE047808AF0470
:1047C0003308B0043408B1042B00250884002608FF
:1047D0008500033100082C00B601B501B401B30017
:1047E0003508FA003408F9003308F800F7017708B3
:1047F000AE043308AF043408B0043508B1042B000C
:104800002508840026088500043FF700F801F90117
:10481000FA0177082C002E042B00AA0078082C003F
:104820002F042B00AB0079082C0030042B00AC00C7
:104830007A082C0031042B00AD00250884002608DE
:104840008500073100082C00AF01AE00AF00AE01BB
:104850002B002508840026088500083FFA012C005B
:104860002E042B00A8007A082C002F042B00A9008E
:104870005D30230091000530920003100C302C00B5
:10488000DE00883120001624A0312B0027082E00DE
:10489000CE003730CF00883120007024A0310D3099
:1048A0002F00C30088312000A720A0310A302F003C
:1048B000C30088312000A720A03167302300910079
:1048C0000530920003100E302C00DE0088312000ED
:1048D0001624A0312B002D082E00CE003730CF003B
:1048E000883120007024A0312B002C082E00CE002F
:1048F0003730CF00883120007024A0312B002B08E6
:104900002E00CE003730CF00883120007024A03137
:104910002B002A082E00CE003730CF00883120002F
:104920007024A0310D302F00C30088312000A72053
:10493000A0310A302F00C30088312000A720A03109
:104940007230230091000530920003100E302C00CD
:10495000DE00883120001624A0312B0029082E000B
:10496000CE003730CF00883120007024A0312B00DA
:1049700028082E00CE003730CF0088312000702468
:10498000A0310D302F00C30088312000A720A031B6
:104990000A302F00C30088312000A720A0312B004F
:1049A00027082E00BC00BD0190312000A723A031B4
:1049B0002B00AE01AF01B001B101B201B301B401EE
:1049C000B501B601B701B801B901BA01BB01BC011B
:1049D000BD01BE01BF01C001C101C201C301C401CB
:1049E000C501C601C701C801C901CA01CB01CC017B
:1049F000CD01CE01CF01D001D101D201D301D4012B
:104A0000D501D601D701D801D901DA01DB01DC01DA
:104A1000DD01DE01DF01E001E101E201E301E4018A
:104A2000E501E601E701E801E901EA01EB01EC013A
:104A3000ED017D3023009100053092008831200087
:104A4000CC20A03128005D082F00C10028005C08A0
:104A50002F00C00028005B082F00BF0028005A0864
:104A60002F00BE0088312000D322A031F808031D9A
:104A7000432D8330230091000530920088312000BF
:104A8000CC20A0310A2E2C00A701A601A501A4016B
:104A9000A708031DF72DA608031DF72D25082B00D9
:104AA00029020318552D2C00F72D031D5D2D280814
:104AB0002C0024020318F72D2B002C00240DF700E6
:104AC000250DF800260DF900270DFA00F70DF80D59
:104AD000F90DFA0DF70DF80DF90DFA0DF70DF80DAA
:104AE000F90DFA0DF70DF80DF90DFA0DF70DF80D9A
:104AF000F90DFA0DC030F70577082B002A072C00B6
:104B0000A00078082B002B3D2C00A10079082B0079
:104B10002C3D2C00A2007A082B002D3D2C00A30078
:104B200028005D082E00C20028005C082E00C1008D
:104B300028005B082E00C00028005A082E00BF0085
:104B40002C0023082E00C6002C0022082E00C500D1
:104B50002C0021082E00C4002C0020082E00C300C9
:104B60002330C8007E30C700CC01CB01CA014030E1
:104B7000C900883120002123A0312B00EE016E08EE
:104B80003F3C031CDF2D7E306E0784002330850000
:104B90000318850A00082C00AE002E00CE00373026
:104BA000CF00883120007024A03120302F00C300B6
:104BB00088312000A720A0312B00EE0ABF2D0D3038
:104BC0002F00C30088312000A720A0310A302F0019
:104BD000C30088312000A720A03101302C00A40799
:104BE0000318A50A0319A60A0319A70A482D2B00C2
:104BF00027082E00BC000230BD0090312000A72302
:104C0000A0319430230091000530920088312000BB
:104C1000CC20A031A831ED2D9D302300910005302E
:104C2000920088312000CC20A03128005D082E00A1
:104C3000C20028005C082E00C10028005B082E007E
:104C4000C00028005A082E00BF00983120007327AA
:104C5000A0312B00AA01A901A801A70128005D0825
:104C60002E00C20028005C082E00C10028005B084E
:104C70002E00C00028005A082E00BF002B002A0872
:104C80002E00C6002B0029082E00C5002B00280886
:104C90002E00C4002B0027082E00C3002330C800BC
:104CA0007B30C700CC01CB01CA010430C900883178
:104CB00020002123A031AB30230091000530920069
:104CC00003100B302C00DE00883120001624A031A8
:104CD0002B002B082E00CE003730CF00883120006B
:104CE0007024A03120302F00C30088312000A7207D
:104CF000A0312B002C082E00CE003730CF00883199
:104D000020007024A03120302F00C3008831200003
:104D1000A720A0312B002D082E00CE003730CF0069
:104D2000883120007024A03120302F00C30088314A
:104D30002000A720A0312B002E082E00CE003730F7
:104D4000CF00883120007024A0310D302F00C30027
:104D500088312000A720A0310A302F00C3008831FD
:104D60002000A720A031BC30230091000530920024
:104D700088312000CC20A031A831ED2DC93023008E
:104D800091000530920088312000CC20A03128000D
:104D90005D082E00C20028005C082E00C10028001B
:104DA0005B082E00C00028005A082E00BF00983172
:104DB00020007327A031280061082E00C2002800BF
:104DC00060082E00C10028005F082E00C0002800E7
:104DD0005E082E00BF00983120007327A0312B0001
:104DE000AA01A901A801A701AE01AD011030AC00D4
:104DF000AB0128005D082E00C20028005C082E00D0
:104E0000C10028005B082E00C00028005A082E00B0
:104E1000BF002B002A082E00C6002B0029082E00F8
:104E2000C5002B0028082E00C4002B0027082E00E8
:104E3000C3002330C8007F30C700CC01CB01013054
:104E4000CA00C901883120002123A031280061084F
:104E50002F00C100280060082F00C00028005F0854
:104E60002F00BF0028005E082F00BE002B002E0878
:104E70002F00C5002B002D082F00C4002B002C088C
:104E80002F00C3002B002B082F00C2002330C700C7
:104E90007F30C6000130C900C80190312000A52034
:104EA000A031D530230091000530920088312000D8
:104EB000CC20A031A831ED2D153023009100063013
:104EC000920088312000CC20A0312B0025088400DE
:104ED0002608850000310008E7002E00BC000130E4
:104EE000BD0090312000A723A0312B00A701A8010D
:104EF000A901AA01AB01AC01AD01AE01AF01B00146
:104F0000B101B201B301B401B501B601B701B801F5
:104F1000B901BA01BB01BC01BD01BE01BF01C001A5
:104F2000C101C201C301C401C501C601C701C80155
:104F3000C901CA01CB01CC01CD01CE01CF01D00105
:104F4000D101D201D301D401D501D601D701D801B5
:104F5000D901DA01DB01DC01DD01DE01DF01E00165
:104F6000E101E201E301E401E501E60128005D0859
:104F70002F00C10028005C082F00C00028005B083B
:104F80002F00BF0028005A082F00BE00C501C40131
:104F9000C301C2012330C7007730C600C9014030C9
:104FA000C80090312000A520A03188319724A0317D
:104FB0002B00250884002608850000310008E70042
:104FC0002E00BC000230BD0090312000A723A0318C
:104FD0002330230091000630920088312000CC203D
:104FE000A031A831ED2D2A005C085B020319FA2FCD
:0C4FF0000030FB2F0130F800200008000A
:10500000280063166414E410E3166313E3132B0003
:105010003008B70037080139F8002800E412781882
:10502000E41603102B00370C0139F8002800641235
:10503000781864162B00370CF700F70C3F30F70593
:1050400077080139F8002800E4117818E4152B00DE
:10505000370CF700F70CF70C1F30F705770801390C
:10506000F800280064117818641503302B00B7008D
:1050700037080139F8002800E4137818E417031002
:105080002B00370C0139F8002800641378186417D6
:105090002B003008B700B901B8017B080139003096
:1050A000B804D2302300910001309200031009307F
:1050B0002C00DE00883120001624A8317B082C004B
:1050C000DB001830DC00983120008C27A83120301C
:1050D0002F00C30088312000A720A83128302F00DE
:1050E000C30088312000A720A8312B0039082E00EA
:1050F000CE003730CF00883120007024A8312B003B
:1051000038082E00CE003730CF00883120007024C0
:10511000A83129302F00C30088312000A720A831F2
:105120000D302F00C30088312000A720A8310A309D
:105130002F00C30088312000A720A8317C08013946
:1051400000302B00B804DD302300910001309200C4
:10515000031009302C00DE00883120001624A8310D
:105160007C082C00DB001830DC00983120008C27F4
:10517000A83120302F00C30088312000A720A8319B
:1051800028302F00C30088312000A720A8312B0031
:1051900039082E00CE003730CF008831200070242F
:1051A000A8312B0038082E00CE003730CF008831D0
:1051B00020007024A83129302F00C300883120003E
:1051C000A720A8310D302F00C30088312000A72070
:1051D000A8310A302F00C30088312000A720A83151
:1051E0002B0037080F39F700F70EF70DF70DC03019
:1051F000F7057708B804E8302300910001309200E9
:10520000031009302C00DE00883120001624A8315C
:105210002B0037082C00DB001830DC009831200010
:105220008C27A83120302F00C30088312000A72010
:10523000A83128302F00C30088312000A720A831D2
:105240002B0039082E00CE003730CF0088312000E7
:105250007024A8312B0038082E00CE003730CF0044
:10526000883120007024A83129302F00C3008831F4
:105270002000A720A8310D302F00C3008831200066
:10528000A720A8310A302F00C30088312000A720B2
:10529000A83130302B00B804F330230091000130E6
:1052A000920003100A302C00DE0088312000162402
:1052B000A83103302C00DB001830DC0098312000CE
:1052C0008C27A83120302F00C30088312000A72070
:1052D000A83128302F00C30088312000A720A83132
:1052E0002B0039082E00CE003730CF008831200047
:1052F0007024A8312B0038082E00CE003730CF00A4
:10530000883120007024A83129302F00C300883153
:105310002000A720A8310D302F00C30088312000C5
:10532000A720A8310A302F00C30088312000A72011
:10533000A831280062080139F700F70DF70DF70DC5
:10534000F830F70577082B00B804FF3023009100F0
:105350000130920003100A302C00DE00883120005A
:105360001624A831280062082C00DB001830DC006D
:10537000983120008C27A83120302F00C3008831BD
:105380002000A720A83128302F00C300883120003A
:10539000A720A8312B0039082E00CE003730CF00CF
:1053A000883120007024A8312B0038082E00CE0050
:1053B0003730CF00883120007024A83129302F00E9
:1053C000C30088312000A720A8310D302F00C30072
:1053D00088312000A720A8310A302F00C30088316F
:1053E0002000A720A8317E080139F700F70DF70D3E
:1053F000FC30F70577082B00B8040B302300910030
:105400000230920003100C302C00DE0088312000A6
:105410001624A8317E082C00DB001830DC009831FF
:1054200020008C27A83120302F00C30088312000B5
:10543000A720A83128302F00C30088312000A720E2
:10544000A8312B0039082E00CE003730CF0088312C
:1054500020007024A8312B0038082E00CE003730F1
:10546000CF00883120007024A83129302F00C300DC
:1054700088312000A720A8310D302F00C3008831CB
:105480002000A720A8310A302F00C3008831200057
:10549000A720A8317D080139F7000310F70D770820
:1054A0002B00B80418302300910002309200031042
:1054B0000A302C00DE00883120001624A8317D0837
:1054C0002C00DB001830DC00983120008C27A8313C
:1054D00020302F00C30088312000A720A8312830B9
:1054E0002F00C30088312000A720A8312B003908E5
:1054F0002E00CE003730CF00883120007024A83134
:105500002B0038082E00CE003730CF008831200025
:105510007024A83129302F00C30088312000A72033
:10552000A8310D302F00C30088312000A720A831FA
:105530000A302F00C30088312000A720A831760848
:1055400001392B00B804243023009100023092006E
:1055500003100A302C00DE00883120001624A83108
:1055600076082C00DB001830DC00983120008C27F6
:10557000A83120302F00C30088312000A720A83197
:1055800028302F00C30088312000A720A8312B002D
:1055900039082E00CE003730CF008831200070242B
:1055A000A8312B0038082E00CE003730CF008831CC
:1055B00020007024A83129302F00C300883120003A
:1055C000A720A8310D302F00C30088312000A7206C
:1055D000A8310A302F00C30088312000A720A8314D
:1055E0002B00B80DB90DB80DB90DB80DB90DB80D2A
:1055F000B90DF030B8053030230091000230920030
:1056000003101A302C00DE00883120001624A83147
:105610002B0039082E00CE003730CF008831200013
:105620007024A8312B0038082E00CE003730CF0070
:10563000883120007024A8310D302F00C30088313C
:105640002000A720A8310A302F00C3008831200095
:10565000A720A8312B003808F8003908F90079088C
:10566000B2007808B10021000F1122000F112400B0
:10567000951240309400FF3092003A3095002B0094
:105680003208B8003108B700903120005127A83106
:1056900021000F1122000F150D30F700F70B4E2BD4
:1056A00021000F1122000F112400951240309400A8
:1056B000FF3092003A3095002B00B8010330B7005C
:1056C000903120005127A83178082B00B4007708CA
:1056D000B30021000F1122000F152B003308B50075
:1056E00034080F39B6003508F8003608F9002000F4
:1056F000080083187F2B243085001A308400F701BE
:10570000F801F901FA012D00AA01AB01AC01AD01CC
:1057100027082604250424040319BE2B2030AE00DC
:105720000310A00DA10DA20DA30DAA0DAB0DAC0D84
:10573000AD0D27082D02031DA72B26082C02031DE3
:10574000A72B25082B02031DA72B24082A02031CC4
:10575000B82B2408AA022508031C250FAB02260833
:10576000031C260FAC022708031C270FAD020314ED
:10577000F70DF80DF90DFA0DAE0B902B2A088000ED
:105780002B08813F2C08823F2D08833F2000080012
:105790002130230091000430920088312000CC2079
:1057A000A83164302B00A50028302300910004307C
:1057B000920003100E302C00DE00883120001624E9
:1057C000A8312B0025082C00CC001B30CD009031D7
:1057D00020000527A8310D302F00C300883120009C
:1057E000A720A8310A302F00C30088312000A7204D
:1057F000A83121001010220010142030F8002100E0
:105800001D08833978049D000F30F8001F08F03917
:1058100078049F000D30F700F70B0C2C2B00B00123
:105820002000002079082800BB007808BA000C305E
:10583000F80021001D08833978049D000F30F8001E
:105840001F08F03978049F000D30F700F70B262C65
:105850002B00B0012000002079082800BD00780846
:10586000BC000030F80021001D08833978049D0039
:105870000F30F8001F08F03978049F000D30F70052
:10588000F70B402C2B00AB01AA01AB08031DEC2C3D
:1058900025082A020318EC2C2A08220099008530DA
:1058A000F700F70B512C0030F80021001D08833958
:1058B00078049D000F30F8001F08F03978049F002D
:1058C0000D30F700F70B622C03102B002A0DAE00F1
:1058D0002B0DAF0003102E0DF9002F0DFA007908E3
:1058E0003A3EF8002030FA3D7808AE007A08AF0062
:1058F000B001200000202B002F0885002E08840016
:10590000780880007908813F0430F80021001D08E4
:10591000833978049D000F30F8001F08F0397804AF
:105920009F002B00A901A801A701A601AC012C082A
:10593000093C031CAC2C0D30F700F70B9D2CB0017B
:105940002000002078082B00A6077908A73D00302A
:10595000A83DA93DAC0A972C831029082D00A3006F
:105960002B0028082D00A2002B0027082D00A100E5
:105970002B0026082D00A000A701A601A5010A30D2
:10598000A400200079237A082B00A9007908A80038
:105990007808A7007708A6000D30F700F70BCE2C8B
:1059A00003102A0DAE002B0DAF000130AE07003002
:1059B000AF3D03102E0DF9002F0DFA0079083A3E85
:1059C000840020307A3D8500260880002708813F2A
:1059D000AA0A0319AB0A452C323023009100043087
:1059E000920088312000CC20A8310030F80021003E
:1059F0001D08833978049D000F30F8001F08F03926
:105A000078049F00101022001010200008002B00C6
:105A10002208840023088500003FA4002C302300C6
:105A200091000730920088312000CC20A8314F30FF
:105A3000230091000730920003100C302C00DE0090
:105A4000883120001624A8312B0024082E00CE0017
:105A50003730CF00883120007024A8315630230021
:105A6000910007309200031004302C00DE008831D2
:105A700020001624A8312B002408003A2000031926
:105A8000722D103A03197C2D113A0319802D033A17
:105A90000319812D923A0319822D013A03198C2D95
:105AA000033A0319962D013A0319A02D073A031959
:105AB000AA2D023A0319B42D013A0319BE2D0D3A4D
:105AC0000319C82D053A0319D22DEE3A0319DC2D1E
:105AD000033A0319DE2D013A0319E02D033A0319A5
:105AE000E22DE42D2B002308A6002208A500983102
