:06000000B031E22D00000A
:0800080083018031200077081C
:10001000A0007808A1007908A2007A08A3002300B4
:1000200011082000A400230012082000A5002300CE
:1000300013082000A600230014082000A700850153
:1000400091308400001C2628111846288501913023
:100050008400801E2D28911A48282008F7002108C6
:10006000F8002208F9002308FA0024082300910070
:10007000200025082300920020002608230093007A
:1000800020002708230094000900200080314A281E
:1000900080316A2896018030970096010000013077
:1000A000B1070318B20A0319B30A0319B40A1110ED
:1000B00080312D28D434ED3272104937693AE93055
:1000C000EC34FA320D0500008921EF367036653ABE
:1000D000E5060A006D28281C802859081F3C031CCF
:1000E00080285908D90A1F39193E8400203085001C
:1000F0000318850A911E7A28230019088000200021
:10010000911280312D28D520522AA024EE34F434C7
:100110006136693DE5060A008921EF367036653A99
:10012000E5060A00CD24D329C9274E104626C12949
:1001300048104937693AE930EC34FA320D050001CC
:100140000923EC307334A0347310EE377410E337A6
:100150006E37E531F432E4060A000923EC307334DB
:10016000A0347310E3376E37E531F432E4060A0049
:1001700089294D232028C921CC274710D53965105E
:10018000C3377537F432721DA012EC3A0D0500002A
:1001900089294D232028C921CC274710CC376F3817
:1001A000A021EF3A6E3A65393A10A53A0D050005DF
:1001B00089294D23A026C5205310D5396510C33792
:1001C0007537F432721DA012EC3A0D050001892931
:1001D0004D23A026C5205310CC376F38A021EF3A0D
:1001E0006E3A65393A10A53A0D0500018926C929EC
:1001F0004610D0244326CF23A02AF332A021EF3A81
:100200006E3A65393A102536F5060A008926C9295D
:100210004610D0244326CF232026EF377010C33753
:100220007537F432721DA012F5060A008926C92915
:100230004610D0244326CF23A02AEE316F38F9325E
:100240006410C3377537F432721DA012EC3A0D05F5
:1002500000018926C9294610CD22C129A02AF332DE
:10026000A021EF3A6E3A65393A102536F5060A00B4
:100270008926C9294610CD22C1292026EF377010C2
:10028000C3377537F432721DA012F5060A008926AD
:10029000C9294610CD22C129A02AEE316F38F93282
:1002A0006410C3377537F432721DA012EC3A0D0595
:1002B0000001C3376D38EC32F4320D0500005538BB
:1002C000E430F432A026C929461041326439E539B8
:1002D00073104139E5300D0500005B28C921CC279A
:1002E000C72E201D2000CD34F339E9376E10463675
:1002F000E1396810E93920376F3AA0316F37EE32B3
:10030000633A65320D050000C927A024EE34F434A9
:100310006136693DE5060A008921EF367036653A97
:10032000E5060A00412243104937693AE930EC34C6
:10033000FA320D0500018921EF367036653AE5067F
:100340000A00533A61397410D32BC522D0060A0033
:100350008929F7326538A039F43270103A10A53A7D
:100360000D05000145274410D32BC522D0060A00F5
:10037000CC37E7336532A021C9235310E430F43081
:100380000D058000D3264610E430F4302036E939DC
:100390007410E93920337536EC10A1100D050000FA
:1003A000D3264610E430F4302036E9397410E939A8
:1003B000A0326D38F43C0D0500000D05533A61394B
:1003C0007410ED30EB325F39E531E534F632DF3170
:1003D000EF36ED306E320D050001892DC227D3298D
:1003E0005D103E1F3E10000145376410ED30EB32CA
:1003F0005F39E531693BE52FE337ED366137E406D8
:100400008A060A00F33467376136A0326E32A03BA9
:10041000693A68105323C4060A00E437EE137410D7
:10042000E6346E32A02946220D05000089163E10E2
:100430004937F630EC3464104639E136651049220C
:100440002039E531E534F632641DA012D8060A00E1
:1004500089163E10432943106539F237F2100D0515
:10046000000189042D1F2039E531E534F63264108E
:100470004329431DA012D8060A0089042010A03188
:100480006F36EC32633AA021D221201DA012D8068B
:100490000A0089163E104937F630EC346410E43215
:1004A000F634E332A0244410F232E332693B653281
:1004B0000D05000189042D1F2039E531E534F632A0
:1004C000641D20102010A012D8060A0089042010F4
:1004D000A0267910E432F634E332A024441DA012A1
:1004E000D8060A00892DC227D3295D103C1E3C1076
:1004F000000189163E104639E136651049223A104E
:10050000252C0D05000189163E10C3376E3A65375C
:100510007410F334FA323A1025320D050010533AB4
:1005200061397410D3264610F53969376710F232F5
:10053000F132733AA039E530F13A6537E3320D050F
:1005400000014539F237F2102029E531E534F6345F
:10055000EE33A031EF36ED306E32A034EE316F372E
:10056000F334733A65377410F7347434203AE83250
:100570002032E539E933EE060A00D3264610F53974
:100580006510F232F13AE53974106136EC37F73222
:10059000E4060A00D3264610F5396510F232F13A26
:1005A000E5397410E432EE3C65320D050001D232BB
:1005B00074397910F232F13AE5397410F4372021A8
:1005C000CF295310D024C3060A004539F237F21060
:1005D0002029E531E534F634EE33A031EF36ED3045
:1005E0006E32A034EE316F37F334733A65377410DE
:1005F000F7347434203AE8322032E539E933EE0634
:100600000A0045376410D3264610F539693767105C
:10061000F232F132733AA039E530F13A6537E3321C
:100620000D050000533A61397410CD27C4222022F1
:10063000D526CD2C0D05000189264F22451020100E
:1006400020103A102518322C0D05000109286139B7
:10065000E136311020103A10303C25183826D806E3
:100660000A0009286139E136321020103A10303C76
:1006700025183426D8060A0045376410CD27C42231
:100680002022D526CD2C0D050000533A6139741077
:10069000CD27C422A026C520D32AD2220D050000D2
:1006A000533A61397410CD27C422A026C520D32A1D
:1006B000D222202B6F36F430E7320D050000533A7A
:1006C00061397410D32BC522D0060A008929F7326C
:1006D0006538A039F43270103A10A53A0D050001C2
:1006E00045274410D32BC522D0060A00F4326D38BA
:1006F0005F3A6F383A10252C0D050001F4326D3841
:100700005F316F3A3A10252C0D05000070325F3BC7
:100710006136F5323A10252C0D050000E334E73937
:100720005F3B6136F5323A10252C0D050000E33AA7
:1007300072396537F42FF630EC3A651DA012D806F1
:100740000A00F6376C3AE133E52FF630EC3A651DD6
:10075000A012D8060A00533A613974104636E139BE
:1007600068104539E13965104136EC060A00453715
:1007700064104636E13968104539E1396510413673
:10078000EC060A00533A613974104636E1396810B4
:100790004539E13965103110D332633A6F390D05AF
:1007A00000018929E531F437721041326439E539A5
:1007B000731D2018F812301C4C2C0D050001453714
:1007C00064104636E13968104539E1396510311059
:1007D000D332633A6F390D050000533A6139741012
:1007E0004636E1396810C337F03CA018A029E5313E
:1007F000F437F2060A0089297531F332633A6F390A
:10080000A0206432F232F3393A10303C25183826F1
:10081000D8060A00453764104636E1396810C337F8
:10082000F03CA018A029E531F437F2060A00533A4B
:10083000613974104636E13968105739693A6510E4
:10084000C432ED370D05000189264F2245102010D6
:1008500020103A102518322C0D0500018920643231
:10086000F232F33920103A10303C25183826D806D9
:100870000A000928E131EB327427F5363A10303C92
:1008800025183426D8060A005739693A6510C4304D
:10089000F4300D050001453764104636E139681023
:1008A0005739693A6510C432ED370D050000533AE7
:1008B000613974104636E13968105739693A651064
:1008C000B435C23CF432A0297531F332633A6F3942
:1008D0000D050001453764104636E1396810573977
:1008E000693A6510B435C23CF432A0297531F3324F
:1008F000633A6F390D050000533A6139741046367A
:10090000E1396810D23261320D05000189264F228B
:100910004510201020103A102518322C0D0500012A
:1009200089206432F232F33920103A10303C251815
:100930003826D8060A000928E131EB327427F5364B
:100940003A10303C25183426D8060A00D22241221B
:100950002022412AC1060A00CD34F339E9376E104E
:100960004636E1396810E93920376F3AA0316F37E0
:10097000EE32633A65320D050001453764104636A4
:10098000E1396810D23261320D050000533A613905
:1009900074104636E1396810D2326132A0206432D8
:1009A000F232F3390D050001D23261322022613A70
:1009B000611DA012301958102518322CA0123019C0
:1009C00058102518322C0D050001453764104636A5
:1009D000E1396810D2326132A0206432F232F33948
:1009E0000D050000533A613974104636E13968103C
:1009F000D3264610C337F03C0D050001453764107F
:100A00004636E1396810D3264610C337F03C0D0551
:100A10000000533A613974104636E1396810D32624
:100A20004610D23261320D050001D23261322022ED
:100A3000613A611D20000D05453764104636E139E5
:100A40006810D3264610D23261320D050000533AA9
:100A5000613974104636E1396810D326461057398B
:100A6000693AE5060A00453764104636E1396810F0
:100A7000D32646105739693AE5060A00533A6139D8
:100A800074104636E139681041326439E539731023
:100A9000D232F332F4060A00453764104636E139A3
:100AA000681041326439E5397310D232F332F406FA
:100AB0000A000D05DF2FDF2FDF2FDF2FDF2FDF2FC6
:100AC000DF2FDF2FDF2FDF2F0D050001DF2FDF29C5
:100AD000F430723AA0316F38F92FE430F430DF2F60
:100AE0000D050001533A61397410DB12641074343F
:100AF0005D10E430F430A0316F38F9068A060A0040
:100B00000D05DF2FDF226E32A0316F38F92FE43070
:100B1000F430DF2FDF2F0D050001DF2FDF2FDF2F58
:100B2000DF2FDF2FDF2FDF2FDF2FDF2FDF2F0D0551
:100B30000D0500004937A0396D33A036E939F3348B
:100B40006F372032613A6110733A613974102010A6
:100B500061326439E539731DA0124C2C0D0500017A
:100B60004937A0396D33A036E939F3346F37203275
:100B7000613A6110653764102010201061326439C9
:100B8000E539731DA0124C2C0D0500014937A02634
:100B9000C92920234D105739693A6510F337753943
:100BA000E3322032613A611061326439E539731DF4
:100BB000A0124C2C0D0500014937A026C92920237D
:100BC0004D105739693A6510E430F430A039693D69
:100BD00065102010201020102010201DA012EC3ACB
:100BE0000D050D050001D334FA32A030F232611048
:100BF000F23261320D050001F5396532DF39693DA8
:100C000065103D1025367510A839F2312018F812FC
:100C1000301C4C2CA9060A00EC376F38A031EF3A93
:100C20006E3A3D1025322010A839F2312018F81202
:100C3000301C4C2CA9068A060A0057396138203A24
:100C4000F234E733653965323A10D232F332743A0E
:100C500069376710E430F430DF3BF234F432DF30D0
:100C600064327210F437A039F430723A0D05000086
:100C70005538E430F432A039693D65106139E5300A
:100C80000D050001F5396532DF39693D65103D100C
:100C90002536E4060A00EC376F38DF31EF3A6E3A5A
:100CA000A01EA012F5068A060A000D05DF2FDF2F11
:100CB000DF2FDF2FDF2FDF2FDF2FDF2FDF2FDF2FC4
:100CC000DF2FDF2FDF2FDF2FDF2F0D05DF2FDF2FB0
:100CD000DF29F430723AA032F832E33AF432DF36E8
:100CE000E939F3346F37DF2FDF2FDF068A060A007A
:100CF000C337ED366137641049223A10252C0D05B3
:100D00000D05000189042D1FA0246E3B6136693258
:100D1000A0214D22A024C4100D0500010D05DF2FD8
:100D2000DF2FDF2F45376410653CE531753AE52F3D
:100D3000ED34F339E937EE2FDF2FDF2FDF068A2F6F
:100D4000DF2FDF2FDF2FDF2FDF2FDF2FDF2FDF2F33
:100D5000DF2FDF2FDF2FDF2FDF2FDF2FDF2F0D051F
:100D60000000533A61397410653CE531753AE52F5E
:100D7000E337ED366137E4060A0089163E10553830
:100D8000EC34EE35A031EF36ED306E320D0500015A
:100D90000910201054396137F336693AA020E33541
:100DA000EE37EC326732E5060A0089163E10533AF8
:100DB000613AF539A031E832E3350D05000109103B
:100DC000201054396137F336693AA026C929A02684
:100DD000C32AA029F430F43AF3060A00E634EE34CC
:100DE00073346532A0346E10733A613AF539DF31ED
:100DF000E832E3350D05000089163E10D326461073
:100E0000613BE134EC30623665106334E531EB066A
:100E10000A000910201054396137F336693AA020CE
:100E2000E335EE37EC326732E5060A0089042D1F00
:100E3000A0306C36EF3BE4060A0089042D1F2032F7
:100E40006537F932E4060A000D050D050D05BD1ED6
:100E5000BD1EBD1EBD1EBD1EBD1EBD1EBD1EBD1EBA
:100E6000BD1EBD1EBD1EBD1EBD1EBD1EBD1EBD1EAA
:100E7000BD1EBD1EBD1EBD1EBD1EBD1EBD1EBD1E9A
:100E8000BD1EBD1EBD1EBD1EBD1E0D050001543480
:100E9000E939A0347310CD27CD24CA24A021C92359
:100EA0005310D024431042214D10E6377210CD2448
:100EB000D31B5F21C22631170D050001CC30733AD8
:100EC000A03A7032613A6532A0376E103218B21A09
:100ED0002F18B617B11A2C10E23CA024EE37F532C9
:100EE000AE068A060A00DF2FDF2FC324C729202879
:100EF000C921A029F430723AA027F032F230F4343C
:100F00006F37DF2FDF2FDF068A060A00F730693AD6
:100F100069376710E6377210C227D3292028C92104
:100F2000A031EF36ED306E3200010D05F730693A31
:100F300069376710E6377210C227D3292028C921E4
:100F4000A031EF36ED306E3200010D050D05BD1EEE
:100F5000BD1EBD1E0D050D05C634EE34733465325D
:100F60002038F237E332F339AE068A2BE1347410BD
:100F7000E6377210C227D3292028C921203A7539B3
:100F80006E106F336610ED32000145376410ED309E
:100F900069370D05000021000D1222000D120830E6
:100FA000F800D22F0000F817E52FF8133300AB0C30
:100FB000220003180D16031C0D127817E52F781365
:100FC000F80BD62FE32F00000D1684308400840B1D
:100FD000E72F0000F81BD52F781BDF2F200008001B
:100FE0002F004210C3154311C2104211C211B0317B
:040FF00020009D2E12
:101000000B088B1323009517151400000000891B93
:101010008B1713087F39031950283300A8002300C9
:1010200011083300A900230012083300AA00280881
:10103000AB0080312000CB27883133002908230002
:10104000910033002A08230092000B088B13951798
:10105000151400000000891B8B17130D140D7F3928
:10106000031950283300A800230011083300A900F9
:10107000230012083300AA002808AB0080312000AA
:10108000CB278831330029082300910033002A0838
:1010900023009200910A0319920A200000282300DD
:1010A00020000800843023009100013092002000CD
:1010B000002021000E1022000E1021008E112200AF
:1010C0008E118C302300910001309200200000200E
:1010D000B031912E92302300910001309200200017
:1010E00000207830210099001E109E101E11003043
:1010F00023008C0090008D00EB308F0021001E1229
:101100009E161E179E131D14983022009800323030
:1011100099009B30230091000130920020000020B4
:10112000B031942E833023009100003092002000D3
:10113000002021009116C0308B048C3023009100D8
:101140000030920020000020B031972E5A3023004A
:101150009100003092002000002011108F30980084
:10116000990196018030970096010000210011142A
:10117000C0308B04643023009100003092002000C6
:101180000020B0319A2E330049080739F700490C86
:10119000F800F80CF80C1F30F80578084B078400AD
:1011A00000304C3D8500F801F80AF70AD828F80D00
:1011B000F70BD728CA080319E02878088004E32829
:1011C000F809780880052000080024001108330081
:1011D000660824009100140C031CEB281108F7008A
:1011E0002000080024001108330066082400910044
:1011F000140C031CF8281108F70020000800330025
:101200004908003A200003190929013A03196A29FB
:10121000CC293300D801D70158085002031C3029CB
:10122000031D16294F085702031830294D08570788
:1012300084004E08583D85000008E4002400951203
:1012400040309400093092002A3095003300640841
:10125000E6002000E5203300D70A0319D80A0C293C
:10126000DC01DB01DA01D9015C085602031C6929A3
:10127000031D4A295B085502031C6929031D4A29DD
:101280005A085402031C6929031D4A2953085902AC
:101290000318692951085907840052085A3D8500EE
:1012A0002400951240309400093092002A309500B5
:1012B00001303300E6002000E5207708800001308F
:1012C0003300D9070318DA0A0319DB0A0319DC0A09
:1012D0003429CD293300DE01DD015E085002031CF4
:1012E0009129031D77294F085D02031891294D08A4
:1012F0005D0784004E085E3D85000008E400240080
:10130000951240309400093092002A309500330045
:101310006408E6002000F2203300DD0A0319DE0A2B
:101320006D29E201E101E001DF0162085602031CC0
:10133000CA29031DAB2961085502031CCA29031DD4
:10134000AB2960085402031CCA29031DAB295308AA
:101350005F020318CA2951085F0784005208603DE4
:1013600085002400951240309400093092002A3004
:10137000950002303300E6002000F220770880005C
:1013800001303300DF070318E00A0319E10A0319EB
:10139000E20A9529CD2920003300200008009F3063
:1013A0003100BC0036083300C900CA010130CC004E
:1013B000CB012000C320310036083300C900CA0128
:1013C000CC018030CB002000C3203100370833002F
:1013D000CC00310036083300CB0031003508330033
:1013E000CA00310034083300C9002530CE006C300B
:1013F000CD00D0010130CF002530D2006830D100BF
:10140000D601D501D4010430D3002000FF203100E3
:1014100036083300C9000130CA00CC00CB012000DF
:10142000C320310036083300C900CA01CC01803026
:10143000CB002000C32031003808203C031D242AA3
:101440000130F800262A262A0030F8002000080083
:101450003300A808031D882A0330B500C101C2016A
:10146000F801F901FA012D08B600C201F801F901ED
:10147000FA012C08B700F801F901FA012B08B800AD
:101480002908C900CA010130CC00CB012000C320CB
:1014900033002908C900CA01CC018030CB002000EC
:1014A000C32033002A08CC002908CB002808CA0032
:1014B0002708C9002630CE000530CD00D001043009
:1014C000CF003008D2002F08D1003408D6003308EE
:1014D000D5003208D4003108D3002000FF200230AC
:1014E000F700F70B712A000033002908C90001300A
:1014F000CA00CC00CB012000C32033002908C9005A
:10150000CA01CC018030CB002000C320EC2A33007C
:10151000280BED2A1330B900C001C101C201F80146
:10152000F901FA012E08BA00C101C201F801F9015E
:10153000FA012D08BB00C201F801F901FA012C08DB
:10154000BC00F801F901FA012B08BD002908C90007
:10155000CA010130CC00CB012000C3203300290890
:10156000C900CA01CC018030CB002000C320330069
:101570002A08CC002908CB002808CA002708C9007F
:101580002630CE000930CD00D0010530CF00300824
:10159000D2002F08D1003408D6003308D500320815
:1015A000D4003108D3002000FF200230F700F70BF1
:1015B000D72A000033002908C9000130CA00CC0036
:1015C000CB012000C32033002908C900CA01CC0187
:1015D0008030CB002000C3203300200008000B081F
:1015E0008B1323009517151400000000891B8B171F
:1015F0000318252B13087F393100D200230011086E
:101600003100D300230012083100D4005208330007
:10161000AB0080312000CB278831310053082300F4
:10162000910031005408230092000B088B1395178A
:10163000151400000000891B8B173100D10B212BE2
:10164000232B2300252B4B2B2300130D140D7F3947
:101650003100D200230011083100D300230012080A
:101660003100D40052083300AB0080312000CB277A
:1016700088313100530823009100310054082300C1
:101680009200910A0319920A03103100D10B492BE1
:101690004B2B2000EF2A200008008318532B253005
:1016A00085009B308400F701F801F901FA0131004F
:1016B000EB01EC01ED01EE016708660465046404CA
:1016C0000319922B2030EF000310E00DE10DE20D25
:1016D000E30DEB0DEC0DED0DEE0D67086E02031D35
:1016E0007B2B66086D02031D7B2B65086C02031DB6
:1016F0007B2B64086B02031C8C2B6408EB026508CF
:10170000031C650FEC026608031C660FED026708F8
:10171000031C670FEE020314F70DF80DF90DFA0D17
:10172000EF0B642B6B0880006C08813F6D08823FD3
:101730006E08833F2000080004083100D8003B30C9
:10174000DF009A30DE00CA30DD00DC010A30DA004A
:10175000831425308500813084005408E300530849
:10176000E2005208E1005108E0005F08E7005E086F
:10177000E6005D08E5005C08E40020004D237808E1
:10178000F708031DDA2B31005A08013A031DCA2B52
:101790002000DA2B58080319DC2B0F395A020319E1
:1017A000D32B0318E62BD81BE62B581BDC2B203041
:1017B000DD2B20003100D8013030F70777083300E7
:1017C000AB0080312000CB278831310083105F08C7
:1017D000E3005E08E2005D08E1005C08E000E7016C
:1017E000E601E5010A30E40020004D237A083100CB
:1017F000DF007908DE007808DD007708DC00DA0B0E
:10180000A82B2000080031005508F80154020318E5
:101810000C2C5408F700182CF7010830D600D40D12
:10182000F70D550877020318F700F80DD60B0F2CAB
:1018300020000800780831003A08D4006430D50050
:101840002000032477083100BA0078083030031DE7
:10185000302CBB1C3C2CBB193C2C3B1A2030332CAD
:10186000BB113B123B14F80778083300AB00803102
:101870002000CB27883131003A08D4000A30D50047
:101880002000032477083100BA0078083030031DA7
:101890004F2CBB19582C3B1C582C3B1A2030F807F6
:1018A00078083300AB0080312000CB27883131002D
:1018B0003030BA073A083300AB0080312000CB2724
:1018C00088310800923023009100003092002000FF
:1018D000002021008F1022008F1421000F11220000
:1018E0000F152D0045083100B7002D0044083100C8
:1018F000B6002D0043083100B5002D00420831002C
:10190000B4002000CF21F808031D8F2CA030230045
:1019100091000030920020000020A02E962CAD30C7
:101920002300910000309200200000202D00450887
:101930003300AA002D0044083300A9002D004308FD
:101940003300A8002D0042083300A700AE01AD010E
:10195000AC01AB012530B0002430AF00B401B301BD
:10196000B2014030B1002000282200303000440491
:101970003100B5000030B50435042D00AA00AB01DC
:10198000AC01AD0130004808F100003049043100DD
:10199000B5000030B50435042D00AE00AF01B00134
:1019A000B10130004D08F20000304E043100B500A6
:1019B0000030B50435042D00B200B301B401B50107
:1019C00030005208F300003053043100B5000030FD
:1019D000B50435042D00B600B701B801B9010030D7
:1019E000300057043100B5000030B50435042D0037
:1019F000BA00BB01BC01BD0130005B08F50000303E
:101A00005C043100B5000030B50435042D00BE0083
:101A1000BF01C001C101B830230091000030920025
:101A2000031019303100D1002000EF224130840032
:101A30002D002D083100D4002D002C083100D300DA
:101A40002D002B083100D2002D002A083100D100D2
:101A500020009C230D303300AB0080312000CB27C9
:101A600088310A303300AB0080312000CB27883129
:101A7000C830230091000030920003101A3031006A
:101A8000D1002000EF2271083100BA001B30BB00EA
:101A900020001A240D303300AB0080312000CB270A
:101AA00088310A303300AB0080312000CB278831E9
:101AB000D83023009100003092000310173031001D
:101AC000D1002000EF22413084002D003108310088
:101AD000D4002D0030083100D3002D002F08310034
:101AE000D2002D002E083100D10020009C230D30A3
:101AF0003300AB0080312000CB2788310A3033001F
:101B0000AB0080312000CB278831E73023009100E3
:101B100000309200031018303100D1002000EF2275
:101B200072083100BA001B30BB0020001A240D30AF
:101B30003300AB0080312000CB2788310A303300DE
:101B4000AB0080312000CB278831F6302300910094
:101B50000030920003101A303100D1002000EF2233
:101B6000413084002D0035083100D4002D003408A8
:101B70003100D3002D0033083100D2002D0032088F
:101B80003100D10020009C230D303300AB008031A8
:101B90002000CB2788310A303300AB008031200091
:101BA000CB278831063023009100013092000310CA
:101BB0001B303100D1002000EF2273083100BA0041
:101BC0001B30BB0020001A240D303300AB008031E5
:101BD0002000CB2788310A303300AB008031200051
:101BE000CB2788311630230091000130920003107A
:101BF0001F303100D1002000EF22413084002D0041
:101C000039083100D4002D0038083100D3002D00F0
:101C100037083100D2002D0036083100D1002000F5
:101C20009C230D303300AB0080312000CB2788315E
:101C30000A303300AB0080312000CB2788312930B7
:101C40002300910001309200031018303100D100C0
:101C50002000EF22413084002D003D083100D400E7
:101C60002D003C083100D3002D003B083100D2008C
:101C70002D003A083100D10020009C230D303300A4
:101C8000AB0080312000CB2788310A303300AB0015
:101C900080312000CB27883138302300910001307B
:101CA0009200031019303100D1002000EF22750896
:101CB0003100BA001B30BB0020001A240D30330065
:101CC000AB0080312000CB2788310A303300AB00D5
:101CD00080312000CB27883147302300910001302C
:101CE000920003101D303100D1002000EF2241305E
:101CF00084002D0041083100D4002D00400831003F
:101D0000D3002D003F083100D2002D003E083100E5
:101D1000D10020009C230D303300AB008031200027
:101D2000CB2788310A303300AB0080312000CB272D
:101D300088315930230091000130920020000020AA
:101D4000B031A02E3100D21BBA2E0F30F700510E49
:101D5000F7050A3077020318B02E3030F707B22E9D
:101D60005208F70777083300AB0080312000CB27FB
:101D7000883131000F30D1050A3051020318C22ECC
:101D80003030C42ED2135208D10751083300AB00B3
:101D900080312000CB278831080033004308003A07
:101DA00020000319D72E013A0319FF2E282F3300E4
:101DB000CC01CB014C084A02031CFE2E031DE42E6D
:101DC00049084B020318FE2E47084B0784004808B9
:101DD0004C3D85000008CF0024009512403094004F
:101DE000093092002A30950033004F08E6002000A9
:101DF000E5203300CB0A0319CC0ADA2E292F330051
:101E0000CE01CD014E084A02031C262F031D0C2FC4
:101E100049084D020318262F47084D07840048083B
:101E20004E3D85000008CF002400951240309400FC
:101E3000093092002A30950033004F08E600200058
:101E4000F2203300CD0A0319CE0A022F292F2000D9
:101E500033002000080033004308003A2000031933
:101E6000352F013A03197A2FC02F3300CE014908CC
:101E70004E020318532F4E08470784000030483D98
:101E800085000008D40024009512403094000930E9
:101E900092002A30950033005408E6002000E52027
:101EA0003300CE0A372FD001CF0150084D02031C5A
:101EB000792F031D5F2F4C084F020318792F4A0812
:101EC0004F0784004B08503D85000008D4002400D3
:101ED000951240309400093092002A30950033006A
:101EE0005408E6002000E5203300CF0A0319D00A89
:101EF000552FC12F3300D101490851020318982FE3
:101F00005108470784000030483D85000008D40090
:101F10002400951240309400093092002A30950038
:101F200033005408E6002000F2203300D10A7C2F51
:101F3000D301D20153084D02031CBE2F031DA42F51
:101F40004C0852020318BE2F4A08520784004B085F
:101F5000533D85000008D4002400951240309400C1
:101F6000093092002A30950033005408E600200022
:101F7000F2203300D20A0319D30A9A2FC12F20006E
:101F8000330020000800263085001330840000084C
:101F90000319D82F0530F800F701F70BCD2FF80BF8
:101FA000CC2F2E30F700F70BD32FD62F800BCA2F54
:101FB000080030002808840029088500003FAB0095
:101FC0000130AC002A082C020318F02F2C08AC0AB0
:101FD000280784000030293D85000008AB06E22F69
:101FE0002B08F800200008000F302F00D800DA017D
:0E1FF000D901DB0190312000682588310800FE
:1020000005303300C7004508C900CA010130CC00C3
:10201000CB0188312000C320903133004508C9002E
:10202000CA01CC018030CB0088312000C320903120
:1020300033004608CC004508CB004408CA004308DA
:10204000C9002630CE001730CD00D0010130CF00BE
:102050002630D2001830D100D601D501D40101308C
:10206000D30088312000FF20903133004508C9009B
:102070000130CA00CC00CB0188312000C320903150
:1020800033004508C900CA01CC018030CB0088313B
:102090002000C320903133004808F80020000800D9
:1020A0003300A808031D00290630B3000230B40035
:1020B0002D08C4002E08C500C601C701F801F901AA
:1020C000FA014408B5002C08C4002D08C5002E08EC
:1020D000C600C701F801F901FA014408B600F80189
:1020E000F901FA012B08B7002908C900CA0101301B
:1020F000CC00CB0188312000C32090313300290867
:10210000C900CA01CC018030CB0088312000C32037
:10211000903133002A08C6002908C5002808C400E9
:102120002708C3002630C8000330C700CA010130A9
:10213000C90088312000CD26903133002908C9001C
:102140000130CA00CC00CB0188312000C32090317F
:1021500033002908C900CA01CC018030CB00883186
:102160002000C320903133002908C900CA01013082
:10217000CC00CB0188312000C320903133002908E6
:10218000C900CA01CC018030CB0088312000C320B7
:10219000903133002A08C6002908C5002808C40069
:1021A0002708C3002630C8000430C700C900300823
:1021B000CB002F08CA003208CD003108CC0088318E
:1021C00020002B2790310230F700F70BE5280000A4
:1021D00033002908C9000130CA00CC00CB01883186
:1021E0002000C320903133002908C900CA01CC0166
:1021F0008030CB0088312000C3209031B7293300D4
:10220000280BB8290630B8001230B9002E08C400D7
:10221000C501C601C701F801F901FA014408BA0075
:102220002D08C4002E08C500C601C701F801F90138
:10223000FA014408BB002C08C4002D08C5002E0874
:10224000C600C701F801F901FA014408BC00F80111
:10225000F901FA012B08BD002908C900CA010130A3
:10226000CC00CB0188312000C320903133002908F5
:10227000C900CA01CC018030CB0088312000C320C6
:10228000903133002A08C6002908C5002808C40078
:102290002708C3002630C8000830C700CA01013033
:1022A000C90088312000CD26903133002908C900AB
:1022B0000130CA00CC00CB0188312000C32090310E
:1022C00033002908C900CA01CC018030CB00883115
:1022D0002000C320903133002908C900CA01013011
:1022E000CC00CB0188312000C32090313300290875
:1022F000C900CA01CC018030CB0088312000C32046
:10230000903133002A08C6002908C5002808C400F7
:102310002708C3002630C8000930C7000530C900AF
:102320003008CB002F08CA003208CD003108CC009D
:10233000883120002B2790310230F700F70B9E29BF
:10234000000033002908C9000130CA00CC00CB01CD
:1023500088312000C320903133002908C900CA0108
:10236000CC018030CB0088312000C3209031330075
:10237000BE012A08C6002908C5002808C40027088D
:10238000C3002000002078080139013C031DE52925
:1023900033003E080A3C0318D529C830C3008831F1
:1023A0002000C3279031DB2933000A30C300883175
:1023B0002000C327903133003E08643C0318E32912
:1023C0002000E5293300BE0AB929200008003108A1
:1023D000F7003208F8003308F9003408FA007A08E8
:1023E0003100A3007908A2007808A1007708A000B6
:1023F000AC01AD01AE0123083000E7003100AD01B2
:10240000AE0122083000E8003100AE0121083000A2
:10241000E900310020083000EA006508EB0066089A
:10242000EC006D30230091000130920088312000D3
:10243000002090313000ED016D08053C031C3B2A63
:1024400047306D078400253085000318850A000891
:102450003100AA00D1003730D20088312000A226F6
:10246000903120303300AB0080312000CB279031F9
:102470003000ED0A1C2A0D303300AB008031200003
:10248000CB2790310A303300AB0080312000CB27BE
:1024900090312D0032083100A40002302D003307A6
:1024A0003100A50000302D00343D3100A600003081
:1024B0002D00353D3100A7002D0045083100B70043
:1024C0002D0044083100B6002D0043083100B5004E
:1024D0002D0042083100B40088312000CF21903116
:1024E000F808031D7D2A733023009100013092000B
:1024F0008831200000209031052B2D004508330045
:10250000AA002D0044083300A9002D004308330021
:10251000A8002D0042083300A7003100270833002F
:10252000AE00310026083300AD003100250833002D
:10253000AC00310024083300AB002530B000473038
:10254000AF00B2010630B1002000502006302D004F
:10255000B2070030B33DB43DB53D0630320731001F
:10256000AA0000302D00333D3100AB0000302D00BB
:10257000343D3100AC0000302D00353D3100AD0060
:10258000AD08031DCD2AAC08031DCD2AAB08031DE1
:10259000CD2A2A083B3C0318052B2430FA001630BC
:1025A00084007A0885000008AA002D004508330041
:1025B000AA002D0044083300A9002D004308330071
:1025C000A8002D0042083300A7003100270833007F
:1025D000AE00310026083300AD003100250833007D
:1025E000AC00310024083300AB00B00131002A08F0
:1025F0003300AF00B2010630B100200050202D00A2
:10260000B501B401B301B2013100200008002F0070
:10261000DD01DE01DF01E001E101E201E301E401AE
:10262000E501E601E701E801DD302300910001301A
:1026300092008831200000209031ED30230091007D
:102640000130920088312000002090312F00E901F4
:102650005C0869020318472B69085A078400003098
:102660005B3D850000083000A2003100D10037300A
:10267000D20088312000A226903120303300AB00F8
:1026800080312000CB2790312F00E90A282B0D3014
:102690003300AB0080312000CB2790310A3033006B
:1026A000AB0080312000CB2790312F005B08300039
:1026B000A3002F005A083000A2002F005C08300051
:1026C000A400A501A5010130240225020318782BDE
:1026D0002508220784000030233D85000008AA3C1D
:1026E000031D762B01302507F8009C2BA50A632BD0
:1026F0002508220784000030233D85000008AA3CFD
:10270000031D902B0230230091000230920088318B
:10271000200000209031FF30F80030009C2B9C2BD3
:102720000D302300910002309200883120000020FB
:102730009031FF30F800300078082F00EA006A0876
:10274000FF3C031DA82BDD30F8000730F900462DB3
:102750006A085A07EB0000305B3DEC006B08840010
:102760006C088500003100080F39ED006D0830005D
:10277000A200A3012308023C031CD82B0310230D45
:10278000CC3E8400243085000318850A000822020C
:10279000031DD62B0310230D013ECC3E84002430B4
:1027A00085000318850A0008F800002CA30ABA2B3C
:1027B0001630230091000230920003101F303100C8
:1027C000D10088312000EF22903130002208310002
:1027D000D1003730D20088312000A22690310D3050
:1027E0003300AB0080312000CB2790310A3033001A
:1027F000AB0080312000CB279031FF30F800300053
:1028000078082F00EE006E08FF3C031D0C2CDD3015
:10281000F8000730F900462D6A085C02EF006C08EA
:102820003000A3002F006B083000A2002F006F08BB
:102830003000A40001302402220784000030233D30
:1028400085000008A50001302402A7002308A90084
:102850002208A8002708AA0088312000D927903133
:1028600078083000A60026082502031D3B2C013005
:10287000F800912C912C2830230091000230920016
:102880008831200000209031313023009100023047
:102890009200031013303100D10088312000EF2264
:1028A0009031300025083100D1003730D200883116
:1028B0002000A22690310D303300AB008031200083
:1028C000CB2790310A303300AB0080312000CB277A
:1028D00090313D30230091000230920003101330FC
:1028E0003100D10088312000EF22903130002608DD
:1028F0003100D1003730D20088312000A22690313B
:102900000D303300AB0080312000CB2790310A30EE
:102910003300AB0080312000CB2790310030F8002D
:102920003000F808031D9B2CDD30F8000730F9005B
:102930002F00462D30002F006B0884006C088500A6
:1029400000310008F039F700770E3000A2000F3098
:10295000A2052208A30023080C3C031DB32C013060
:10296000F800082D082D4930230091000230920014
:1029700088312000002090315A302300910002302D
:102980009200031013303100D10088312000EF2273
:102990009031300023083100D1003730D200883127
:1029A0002000A22690310D303300AB008031200092
:1029B000CB2790310A303300AB0080312000CB2789
:1029C00090316630230091000230920003101330E2
:1029D0003100D10088312000EF2290310C303100DD
:1029E000D1003730D20088312000A22690310D303E
:1029F0003300AB0080312000CB2790310A30330008
:102A0000AB0080312000CB2790310030F80030003F
:102A1000F808031D122DDD30F8000730F9002F00F3
:102A2000462D30002F006D08DD0001306B073000AF
:102A3000A20000302F006C3D3000A30002302F00B8
:102A40006F023000A40023088500220884002408B7
:102A5000F8000319332D24308700F030860012006F
:102A60001E00F80B2F2D02302F006F02DE005F14C6
:102A7000F4302300910001309200883120000020C2
:102A80009031DD30F8000730F9002F00B031200020
:102A9000D02E2F005708FA00560884007A088500C7
:102AA0000008D8005508850054088400F70158082C
:102AB000F80078080319602D77081A00F80B5C2DD0
:102AC00056088400570885008001B0312000ED2EA3
:102AD000AA302F00DC0058085038DD005A08850065
:102AE000590884005B08F80003197E2D2430870004
:102AF000EE30860012001E00F80B7A2D02305B07C4
:102B0000EC00EC306C07F8002430FA000318FA0AE5
:102B100078083000A2007A08A30001302F006C0270
:102B20003000A4002430A900ED30A8002408AA0039
:102B300088312000D92790313000230885002208F1
:102B400084007808800001302F006C07ED002430ED
:102B50003000A300EC30A2002F006D083000A4006C
:102B6000A501240825020318C62D25082207840084
:102B70000030233D85000008A70027082000111E13
:102B8000BF2D23009A003000A50AB12D723023001A
:102B900091000230920088312000002090313000F6
:102BA000A601240826020318EF2D26082207840018
:102BB0000030233D85000008A7003100D1003730E8
:102BC000D20088312000A226903120303300AB00A3
:102BD00080312000CB2790313000A60AD12D0D3056
:102BE0003300AB0080312000CB2790310A30330016
:102BF000AB0080312000CB27903108001230230039
:102C000091000330920088312000002090312F0085
:102C10005D0884005E088500003FDF005D088400D9
:102C20005E088500013100083000A601A501A4015D
:102C3000A300A600A301A401A5012F005D08840044
:102C40005E088500023100083000AB01AA01A9012D
:102C5000A8002908FA002808F900F701F801770808
:102C6000A3047808A4042808A5042908A6042F00B2
:102C70005D0884005E088500033100083000AB0168
:102C8000AA01A901A8002A08FA002908F9002808C1
:102C9000F800F7017708A3042808A4042908A5046C
:102CA0002A08A6042F005D0884005E088500043F02
:102CB000F700F801F901FA017708300023042F002A
:102CC000E0007808300024042F00E100790830008B
:102CD00025042F00E2007A08300026042F00E300CC
:102CE0005D0884005E088500053100083000A401FD
:102CF000A300A400A3012F005D0884005E088500E6
:102D0000063FFA01300023042F00E4007A08300067
:102D100024042F00E5001C302300910003309200B2
:102D200003100C303100D10088312000EF229031A7
:102D30002F005F083100D1003730D20088312000E9
:102D4000A22690310D303300AB0080312000CB271C
:102D500090310A303300AB0080312000CB27903116
:102D60002630230091000330920003100E30310012
:102D7000D10088312000EF2290312F00630831000C
:102D8000D1003730D20088312000A22690312F00A8
:102D900062083100D1003730D20088312000A226ED
:102DA00090312F0061083100D1003730D2008831D6
:102DB0002000A22690312F0060083100D10037306A
:102DC000D20088312000A22690310D303300AB00B4
:102DD00080312000CB2790310A303300AB008031A6
:102DE0002000CB2790313130230091000330920036
:102DF00003100E303100D10088312000EF229031D5
:102E00002F0065083100D1003730D2008831200012
:102E1000A22690312F0064083100D1003730D20053
:102E200088312000A22690310D303300AB00803174
:102E30002000CB2790310A303300AB0080312000D6
:102E4000CB2790312F005F083000E500E60120001D
:102E5000E7213C30230091000330920088312000AC
:102E600000209031A831EB28AB30230091000330D3
:102E7000920088312000002090312F005D088400EE
:102E80005E088500003FDF005F083000E500E601D6
:102E90002000E7212F00E301E201E101E001E30866
:102EA000031D7E2F6208F43C031C7E2F031D5C2F44
:102EB0006108233C031C7E2F2D0045082F00E800ED
:102EC0002D0044082F00E7002D0043082F00E600E6
:102ED0002D0042082F00E5006308EC006208EB00BB
:102EE0006108EA006008E900983120000020903174
:102EF00001302F00E2070030E33D4F2FB7302300B1
:102F00009100033092008831200000209031A831D8
:102F1000EB2833002908C9000130CA00CC00CB01DE
:102F200088312000C320903133002908C900CA012C
:102F3000CC018030CB0088312000C32090310800C4
:102F40002F006908ED006808EC006C080139F700F3
:102F5000FA0142137718421703106D0CEF006C0C46
:102F6000EE000139F700FA01C2137718C2176D0C91
:102F7000EF006C0CEE00EF0CEE0C3F30EF056E082E
:102F80000139F700FA014310771843146D0CEF0074
:102F90006C0CEE00EF0CEE0CEF0CEE0C1F30EF059E
:102FA0006E080139F700FA01C3107718C314EC0159
:102FB0006C080139F80042127818421603106C0CA4
:102FC0000139F800C2127818C216EB01EA016A084A
:102FD000F8006B08F900200008002F003B083A02B7
:102FE0000319F42F0030F52F0130F80020000800FD
:103000002F00E608031DC7280630ED00D830EE007B
:103010006B083000AB002F006C083000AC00AD0135
:10302000AE01F801F901FA012B082F00EF006A0840
:103030003000AB002F006B083000AC002F006C0894
:103040003000AD00AE01F801F901FA012B08A00033
:103050002F00F801F901FA0169083000A1002F00E2
:1030600067083300C900CA010130CC00CB018831A8
:103070002000C32098312F0067083300C900CA011F
:10308000CC018030CB0088312000C32098312F0044
:1030900068083300C6002F0067083300C5002F0002
:1030A00066083300C4002F0065083300C3002430D5
:1030B000C800FD30C700CA010130C90088312000B6
:1030C000CD2698312F0067083300C9000130CA00AF
:1030D000CC00CB0188312000C32098312F00670835
:1030E0003300C900CA01CC018030CB0088312000F8
:1030F000C32098312F0067083300C900CA0101308E
:10310000CC00CB0188312000C32098312F00670804
:103110003300C900CA01CC018030CB0088312000C7
:10312000C32098312F0068083300C6002F006708BD
:103130003300C5002F0066083300C4002F00650867
:103140003300C3002430C800FE30C700CA01043079
:10315000C90088312000CD2698312F006708330040
:10316000C9000130CA00CC00CB0188312000C32047
:1031700098312F0067083300C900CA01CC018030A4
:10318000CB0088312000C320983199292F00660B8D
:103190009A2906303000A200DC30A3002F006C0812
:1031A0003000AB00AC01AD01AE01F801F901FA014C
:1031B0002B08A4002F006B083000AB002F006C0818
:1031C0003000AC00AD01AE01F801F901FA012B08A5
:1031D000A5002F006A083000AB002F006B083000FC
:1031E000AC002F006C083000AD00AE01F801F90111
:1031F000FA012B08A6002F00F801F901FA0169086D
:103200003000A7002F0067083300C900CA01013051
:10321000CC00CB0188312000C32098312F006708F3
:103220003300C900CA01CC018030CB0088312000B6
:10323000C32098312F0068083300C6002F006708AC
:103240003300C5002F0066083300C4002F00650856
:103250003300C3002530C8000230C700CA01013066
:10326000C90088312000CD2698312F00670833002F
:10327000C9000130CA00CC00CB0188312000C32036
:1032800098312F0067083300C900CA01CC01803093
:10329000CB0088312000C32098312F00670833000D
:1032A000C900CA010130CC00CB0188312000C32005
:1032B00098312F0067083300C900CA01CC01803063
:1032C000CB0088312000C32098312F0068083300DC
:1032D000C6002F0067083300C5002F0066083300C2
:1032E000C4002F0065083300C3002530C800033038
:1032F000C700CA010530C90088312000CD269831A9
:103300002F0067083300C9000130CA00CC00CB0190
:1033100088312000C32098312F0067083300C9008E
:10332000CA01CC018030CB0088312000C320983105
:1033300099292F003000A8012F0068083300C6002B
:103340002F0067083300C5002F0066083300C40053
:103350002F0065083300C300903120000020983111
:1033600078080139013C031DD429300028080A3CA3
:103370000318C329C8303300C30088312000C32795
:103380009831CA2930000A303300C3008831200048
:10339000C327983130002808643C0318D229200044
:1033A000D4293000A80A9C2920000800C23023003C
:1033B00091000330920088312000002098312F00C6
:1033C0005D0884005E08850000310008DF005D08AC
:1033D00084005E08850001310008E801E701E6018C
:1033E000E500E800E501E601E7015D0884005E080C
:1033F000850002310008ED01EC01EB01EA006B08E9
:10340000FA006A08F900F701F8017708E50478087E
:10341000E6046A08E7046B08E8045D0884005E08B7
:10342000850003310008ED01EC01EB01EA006C08B6
:10343000FA006B08F9006A08F800F7017708E5045C
:103440006A08E6046B08E7046C08E8045D08840079
:103450005E088500043FF700F801F901FA017708DA
:103460006504E00078086604E10079086704E2007A
:103470007A086804E300D130230091000330920001
:10348000031013303100D10088312000EF22983131
:103490002F0063083100D1003730D200883120007E
:1034A000A22698312F0062083100D1003730D200B7
:1034B00088312000A22698312F0061083100D10008
:1034C0003730D20088312000A22698312F006008C2
:1034D0003100D1003730D20088312000A226983147
:1034E0000D303300AB0080312000CB2798310A30FB
:1034F0003300AB0080312000CB2798312F005F08CC
:103500003000E500E60190312000E72198312D00E0
:1035100045082F00E8002D0044082F00E7002D008B
:1035200043082F00E6002D0042082F00E500630845
:10353000EC006208EB006108EA006008E900200086
:103540000020DF30230091000330920088312000FA
:1035500000209831A831EB283100C508031D5D2BF0
:103560000630CC002030CD00DF01E001F801F90188
:10357000FA014A08CE00E001F801F901FA01490810
:10358000CF00F801F901FA014808D00046083300DD
:10359000C900CA010130CC00CB0188312000C32012
:1035A0009831310046083300C900CA01CC0180308F
:1035B000CB0088312000C320983131004708330008
:1035C000C600310046083300C5003100450833000D
:1035D000C400310044083300C3002530C8007C30EB
:1035E000C700CA010130C90088312000CD269831BA
:1035F000310046083300C9000130CA00CC00CB01BD
:1036000088312000C3209831310046083300C900BA
:10361000CA01CC018030CB0088312000C320983112
:10362000310046083300C900CA010130CC00CB018B
:1036300088312000C3209831310046083300C9008A
:10364000CA01CC018030CB0088312000C3209831E2
:10365000310047083300C600310046083300C5007A
:10366000310045083300C400310044083300C30072
:103670002530C8007D30C700CA010430C900883138
:103680002000CD269831310046083300C9000130B2
:10369000CA00CC00CB0188312000C3209831310012
:1036A00046083300C900CA01CC018030CB00883104
:1036B0002000C3209831122C3100450B132C06300A
:1036C000D1002130D200DE01DF01E001F801F90173
:1036D000FA014B08D300DF01E001F801F901FA011A
:1036E0004A08D400E001F801F901FA014908D500BF
:1036F000F801F901FA014808D60046083300C9006C
:10370000CA010130CC00CB0188312000C3209831A0
:10371000310046083300C900CA01CC018030CB001B
:1037200088312000C3209831310047083300C6009B
:10373000310046083300C500310045083300C4009D
:10374000310044083300C3002530C8008130C70071
:10375000CA010130C90088312000CD2698313100DE
:1037600046083300C9000130CA00CC00CB018831C3
:103770002000C3209831310046083300C900CA0137
:10378000CC018030CB0088312000C320983131003B
:1037900046083300C900CA010130CC00CB01883192
:1037A0002000C3209831310046083300C900CA0107
:1037B000CC018030CB0088312000C320983131000B
:1037C00047083300C600310046083300C500310009
:1037D00045083300C400310044083300C3002530DD
:1037E000C8008230C700CA010530C90088312000F6
:1037F000CD269831310046083300C9000130CA0097
:10380000CC00CB0188312000C3209831310046081C
:103810003300C900CA01CC018030CB0088312000C0
:10382000C32098313100D70147083300C60031006A
:1038300046083300C500310045083300C40031009C
:1038400044083300C30090312000002098317808EC
:103850000139013C031D4B2C310057080A3C031869
:103860003A2CC8303300C30088312000C327983178
:10387000412C31000A303300C30088312000C327B7
:10388000983131005708643C0318492C20004B2C18
:103890003100D70A142C20000800ED3023009100DD
:1038A0000330920088312000002098312F005D08FD
:1038B00084005E08850000310008DF005D08840098
:1038C0005E08850001310008E801E701E601E50036
:1038D000E800E501E601E7015D0884005E08850077
:1038E00002310008ED01EC01EB01EA006B08FA007F
:1038F0006A08F900F701F8017708E5047808E6049A
:103900006A08E7046B08E8045D0884005E08850027
:1039100003310008ED01EC01EB01EA006C08FA004C
:103920006B08F9006A08F800F7017708E5046A08EF
:10393000E6046B08E7046C08E8045D0884005E0890
:103940008500043FF700F801F901FA0177086504E2
:10395000E00078086604E10079086704E2007A086C
:103960006804E300FB302300910003309200031051
:1039700016303100D10088312000EF2298312F001D
:1039800063083100D1003730D20088312000A226F0
:1039900098312F0062083100D1003730D2008831D1
:1039A0002000A22698312F0061083100D100373065
:1039B000D20088312000A22698312F006008310003
:1039C000D1003730D20088312000A22698310D3046
:1039D0003300AB0080312000CB2798310A30330010
:1039E000AB0080312000CB2798312F005F083000DA
:1039F000E500E60190312000E72198312D004508CF
:103A00003100C7002D0044083100C6002D004308D6
:103A10003100C5002D0042083100C400CB01CA01AD
:103A2000C901C8012000AC220A30230091000430F3
:103A300092008831200000209831A831EB281730FF
:103A4000230091000430920088312000002098313A
:103A50002F00DF01E001E101E201E301E401E50102
:103A60005D0884005E088500003FDF005D0884007B
:103A70005E088500013100083000E801E701E60139
:103A8000E500E800E501E601E7012F005D0884009C
:103A90005E088500023100083000ED01EC01EB0109
:103AA000EA006B08FA006A08F900F701F8017708E4
:103AB000E5047808E6046A08E7046B08E8042F00C8
:103AC0005D0884005E088500033100083000ED01C8
:103AD000EC01EB01EA006C08FA006B08F9006A08D7
:103AE000F800F7017708E5046A08E6046B08E704C4
:103AF0006C08E8042F005D0884005E088500043F20
:103B0000F700F801F901FA017708300065042F0089
:103B1000E0007808300066042F00E10079083000EA
:103B200067042F00E2007A08300068042F00E300E9
:103B30005D0884005E088500073100083000E6015A
:103B4000E500E600E5012F005D0884005E088500C1
:103B5000083FFA01300065042F00E4007A083000C5
:103B600066042F00E5002430230091000430920009
:103B700003100C303100D10088312000EF22983141
:103B80002F005F083100D1003730D200883120008B
:103B9000A22698310D303300AB0080312000CB27B6
:103BA00098310A303300AB0080312000CB279831A8
:103BB0002E30230091000430920003100E303100AB
:103BC000D10088312000EF2298312F0063083100A6
:103BD000D1003730D20088312000A22698312F0042
:103BE00062083100D1003730D20088312000A2268F
:103BF00098312F0061083100D1003730D200883170
:103C00002000A22698312F0060083100D100373003
:103C1000D20088312000A22698310D303300AB004D
:103C200080312000CB2798310A303300AB0080313F
:103C30002000CB27983139302300910004309200C6
:103C400003100E303100D10088312000EF2298316E
:103C50002F0065083100D1003730D20088312000B4
:103C6000A22698312F0064083100D1003730D200ED
:103C700088312000A22698310D303300AB0080310E
:103C80002000CB2798310A303300AB008031200070
:103C9000CB2798312F005F083000E500E601903116
:103CA0002000E72198314430230091000430920035
:103CB00088312000002098313000D701D601570804
:103CC0002F006502031C042F031D6E2E64083000B4
:103CD0005602031C6D2E2F00042F2F003000560DAE
:103CE000D800570DD900D80DD90DD80DD90DD80D44
:103CF000D90DD80DD90DD80DD90DC030D805DA01A0
:103D00005A083F3C031CAF2EF6305A07840024307B
:103D100085000318850A5A085807E7000030593D06
:103D2000E800FA0167088000F6305A078400243062
:103D300085000318850A0008E5003100D1003730FE
:103D4000D20088312000A226983120303300AB0009
:103D500080312000CB2798313000DA0A802E560DB2
:103D6000F900570DFA00F90DFA0DF90DFA0DF90DDC
:103D7000FA0DF90DFA0DF90DFA0DC030F9057908B3
:103D80002F0060073000DB007A082F00613D300013
:103D9000DC0000302F00623D3000DD0000302F00DD
:103DA000633D3000DE002D0045083300AA002D00E1
:103DB00044083300A9002D0043083300A8002D005B
:103DC00042083300A70030005E083300AE00300028
:103DD0005D083300AD0030005C083300AC003000FB
:103DE0005B083300AB002430B000F630AF00B20106
:103DF0004030B10090312000502098313000D60A78
:103E00000319D70A5F2E2F000D303300AB0080312D
:103E10002000CB2798310A303300AB0080312000DE
:103E2000CB2798314B302300910004309200883129
:103E3000200000209831A831EB28C63023009100E3
:103E40000430920088312000002098312D00450870
:103E50003300AA002D0044083300A9002D004308B8
:103E60003300A8002D0042083300A7009031200045
:103E7000892798312F00E201E101E001DF012D00E7
:103E800045083300AA002D0044083300A9002D0086
:103E900043083300A8002D0042083300A7002F007C
:103EA00062083300AE002F0061083300AD002F0020
:103EB00060083300AC002F005F083300AB002430F3
:103EC000B000F330AF00B401B301B2010430B1006F
:103ED0008831200028229831D4302300910004300A
:103EE000920003100B303100D10088312000EF2206
:103EF00098312F0063083100D1003730D20088316B
:103F00002000A226983120303300AB008031200001
:103F1000CB2798312F0064083100D1003730D20010
:103F200088312000A226983120303300AB00803148
:103F30002000CB2798312F0065083100D1003730A1
:103F4000D20088312000A226983120303300AB0007
:103F500080312000CB2798312F0066083100D10036
:103F60003730D20088312000A22698310D3033003E
:103F7000AB0080312000CB2798310A303300AB00F2
:103F800080312000CB279831E530230091000430A8
:103F900092008831200000209831A831EB28F701E9
:103FA000F80131002D0803102E18F707F70CF80C54
:103FB000AE18F707F70CF80C2E19F707F70CF80CEA
:103FC000AE19F707F70CF80C2E1AF707F70CF80CD8
:103FD000AE1AF707F70CF80C2E1BF707F70CF80CC6
:0C3FE000AE1BF707F70CF80C20000800DF
:1040000057302300910004309200883120000020B6
:10401000A0312D0045083300AA002D0044083300CC
:10402000A9002D0043083300A8002D0042083300EA
:10403000A700903120008927A0312F00E201E10183
:10404000E001DF010130E3000230E4000330E5006D
:104050000430E600E701E801E901EA01EB01EC01C7
:10406000ED01EE01EF013000A001A101A201A301C9
:10407000A401A501A601A701A801A901AA01AB01FC
:10408000AC01AD01AE01AF01B001B101B201B301AC
:10409000B401B501B601B701B801B901BA01BB015C
:1040A000BC01BD01BE01BF01C001C101C201C3010C
:1040B000C401C501C601C701C801C901CA01CB01BC
:1040C000CC01CD01CE01CF01D001D101D201D3016C
:1040D000D401D501D601D701D801D901DA01DB011C
:1040E000DC01DD01DE01DF01E001E101E201E301CC
:1040F000E401E501E601E701E801E901EA01EB017C
:10410000EC01ED01EE01EF013100A001A101A201DE
:10411000A301A401A501A601A701A801A901AA0163
:10412000AB01AC01AD01AE01AF01B001B101B20113
:10413000B301B401B501B601B701B801B901BA01C3
:10414000BB01BC01BD01BE01BF01C001C101C20173
:10415000C301C401C501C601C701C801C901CA0123
:10416000CB01CC01CD01CE01CF01D001D101D201D3
:10417000D301D401D501D601D701D801D901DA0183
:10418000DB01DC01DD01DE01DF01E001E101E20133
:10419000E301E401E501E601E701E801E901EA01E3
:1041A000EB01EC01ED01EE01EF013200A001A101F4
:1041B000A201A301A401A501A601A701A801A901CB
:1041C000AA01AB01AC01AD01AE01AF01B001B1017B
:1041D000B201B301B401B501B601B701B801B9012B
:1041E000BA01BB01BC01BD01BE01BF01C001C101DB
:1041F000C201C301C401C501C601C701C801C9018B
:10420000CA01CB01CC01CD01CE01CF01D001D1013A
:10421000D201D301D401D501D601D701D801D901EA
:10422000DA01DB01DC01DD01DE01DF01E001E1019A
:10423000E201E301E401E501E601E701E801E9014A
:10424000EA01EB01EC01ED01EE01EF013300A00109
:10425000A101A2012D0045083300AA002D00440849
:104260003300A9002D0043083300A8002D004208A8
:104270003300A7002F0062083300AE002F00610852
:104280003300AD002F0060083300AC002F005F0842
:104290003300AB002430B000F330AF000130B20087
:1042A000B101903120005020A0316A3023009100EC
:1042B00004309200883120000020A031A831EB2882
:1042C0007C302300910004309200883120000020CF
:1042D000A0312F00DF01E001E101E201E301E4018F
:1042E000E5015D0884005E088500003FDF005D0891
:1042F00084005E088500013100083000DD01DC012A
:10430000DB01DA00DD00DA01DB01DC012F005D08F2
:1043100084005E088500023100083000E201E101FE
:10432000E001DF006008FA005F08F900F701F8011A
:104330007708DA047808DB045F08DC046008DD0431
:104340002F005D0884005E088500033100083000FE
:10435000E201E101E001DF006108FA006008F90014
:104360005F08F800F7017708DA045F08DB046008EB
:10437000DC046108DD042F005D0884005E08850010
:10438000043FF700F801F901FA01770830005A04F8
:104390002F00E200780830005B042F00E30079086A
:1043A00030005C042F00E4007A0830005D042F0028
:1043B000E5005D0884005E088500073100083000D4
:1043C000DB01DA00DB00DA012F005D0884005E0803
:1043D0008500083FFA0130005A042F00E0007A08F7
:1043E00030005B042F00E100863023009100043090
:1043F000920003100C303100D10088312000EF22F0
:10440000A0312F005F083100D1003730D200883151
:104410002000A226A0310D303300AB0080312000F7
:10442000CB27A0310A303300AB0080312000CB27EE
:10443000A0319030230091000430920003100E3020
:104440003100D10088312000EF22A0312F00650813
:104450003100D1003730D20088312000A226A031AF
:104460002F0064083100D1003730D200883120009D
:10447000A226A0312F0063083100D1003730D200CE
:1044800088312000A226A0312F0062083100D1001F
:104490003730D20088312000A226A0310D30330001
:1044A000AB0080312000CB27A0310A303300AB00B5
:1044B00080312000CB27A0319B30230091000430B5
:1044C000920003100E303100D10088312000EF221D
:1044D000A0312F0061083100D1003730D20088317F
:1044E0002000A226A0312F0060083100D100373013
:1044F000D20088312000A226A0310D303300AB005D
:1045000080312000CB27A0310A303300AB0080314E
:104510002000CB27A0312F005F083000E500E60126
:1045200090312000E721A031A63023009100043013
:104530009200883120000020A0312D004508310074
:10454000B7002D0044083100B6002D0043083100AB
:10455000B5002D0042083100B40088312000CF2181
:10456000A031F808031DBE2AAC30230091000430AE
:104570009200883120000020A0314D2B3000D60160
:104580002F00E108031DCA2A6008300056020318F4
:10459000442B2F003000560EF700F70DF70DC030FA
:1045A000F70577082F0062073000DA0000302F008F
:1045B000633D3000DB0000302F00643D3000DC0044
:1045C00000302F00653D3000DD002D004508330030
:1045D000AA002D0044083300A9002D004308330031
:1045E000A8002D0042083300A70030005D0833000A
:1045F000AE0030005C083300AD0030005B083300D3
:10460000AC0030005A083300AB002430B000F63064
:10461000AF00B401B301B2014030B10088312000D5
:104620002822A0313000D70157083F3C031C332B10
:10463000F63057078400243085000318850A0008E7
:10464000DA003100D1003730D20088312000A226B4
:10465000A03120303300AB0080312000CB27A031C7
:104660003000D70A142B0D303300AB00803120000E
:10467000CB27A0310A303300AB0080312000CB279C
:10468000A0313000D60AC02ABD302300910004308A
:104690009200883120000020A031A831EB28F230B0
:1046A0002300910004309200883120000020A031C6
:1046B0002D0045083300AA002D0044083300A9004E
:1046C0002D0043083300A8002D0042083300A70046
:1046D000903120008927A0312D0049083300AA001D
:1046E0002D0048083300A9002D0047083300A8001A
:1046F0002D0046083300A700903120008927A03103
:104700002F00E201E101E001DF01E601E5011030E7
:10471000E400E3012D0045083300AA002D00440801
:104720003300A9002D0043083300A8002D004208E3
:104730003300A7002F0062083300AE002F0061088D
:104740003300AD002F0060083300AC002F005F087D
:104750003300AB002430B000F730AF00B401B30138
:104760000130B200B101883120002822A0312D0093
:1047700049083300AA002D0048083300A9002D0085
:1047800047083300A8002D0046083300A7002F007B
:1047900066083300AE002F0065083300AD002F001F
:1047A00064083300AC002F0063083300AB002430F2
:1047B000B000F730AF000130B200B10190312000FD
:1047C0005020A031FE302300910004309200883147
:1047D00020000020A031A831EB283E3023009100BA
:1047E00005309200883120000020A0312F00DF0129
:1047F000E001E101E201E301E401E501E601E70195
:10480000E801E901EA01EB01EC01ED01EE01EF0144
:104810003000A001A101A201A301A401A501A601EC
:10482000A701A801A901AA01AB01AC01AD01AE012C
:10483000AF01B001B101B201B301B401B501B601DC
:10484000B701B801B901BA01BB01BC01BD01BE018C
:10485000BF01C001C101C201C301C401C501C6013C
:10486000C701C801C901CA01CB01CC01CD01CE01EC
:104870002D0045083300AA002D0044083300A9008C
:104880002D0043083300A8002D0042083300A70084
:10489000AE01AD01AC01AB012430B000EF30AF0090
:1048A000B2014030B100903120005020A0314C3096
:1048B0002300910005309200883120000020A031B3
:1048C000A831EB285F30230091000330920088313B
:1048D00020000020A03164302F00DD00663023006E
:1048E00091000330920003100E303100D100883166
:1048F0002000EF22A0312F005D083100BA001B30EC
:10490000BB00883120001A24A0310D303300AB00E9
:1049100080312000CB27A0310A303300AB0080313A
:104920002000CB27A03121000E1022000E142030D1
:10493000F80021001D08833978049D000F30F8002D
:104940001F08F03978049F000D30F700F70BA62CF4
:104950002F00E901E80190312000A027A03179085B
:104960002C00B3007808B2000C30F80021001D08BC
:10497000833978049D000F30F8001F08F03978045F
:104980009F000D30F700F70BC32C2F00E901E80161
:1049900090312000A027A03179082C00B5007808BC
:1049A000B4000030F80021001D08833978049D0010
:1049B0000F30F8001F08F03978049F000D30F70021
:1049C000F70BE02C2F00E901E80190312000A0272F
:1049D000A03179082C00AF007808AE002F00E30169
:1049E000E201E308031D9D2D5D08620203189D2D61
:1049F0006208220099008530F700F70BFD2C00308B
:104A0000F80021001D08833978049D000F30F8005C
:104A10001F08F03978049F000D30F700F70B0E2DBA
:104A200003102F00620DE600630DE7000310660D12
:104A3000F900670DFA0079083A3EE60020307A3D29
:104A4000E700E901E80190312000A027A0312F0004
:104A50006708850066088400780880007908813F2F
:104A60000430F80021001D08833978049D000F30C0
:104A7000F8001F08F03978049F002F00E101E001E1
:104A8000DF01DE01E4016408093C031C5B2D0D30ED
:104A9000F700F70B492DE901E80190312000A0272C
:104AA000A03178082F00DE077908DF3D0030E03DB7
:104AB000E13DE40A432D831061083100E3002F003B
:104AC00060083100E2002F005F083100E1002F0094
:104AD0005E083100E000E701E601E5010A30E4008C
:104AE000883120004D23A0317A082F00E100790899
:104AF000E0007808DF007708DE000D30F700F70BE4
:104B00007F2D0310620DE600630DE7000130E6071C
:104B10000030E73D0310660DF900670DFA007908D3
:104B20003A3E840020307A3D85005E0880005F08B0
:104B3000813FE20A0319E30AF12C7030230091004F
:104B400003309200883120000020A0310030F800AE
:104B500021001D08833978049D000F30F8001F08DC
:104B6000F03978049F009D149D18B42D2C00B101DC
:104B700021001C082C00B0002F005D08E600B830B2
:104B80002300910001309200883120000020A031E4
:104B90002F00E7016608670203180E2F670831002F
:104BA000AD000330AE0098312000CF27A031923005
:104BB0007807F8002230FA000318FA0A78082F0064
:104BC000EA007A08EB000310670DFA01F900031000
:104BD000F90DFA0D79083A3E840020307A3D8500BF
:104BE0000008EC0001310008ED003F31ED0CEC0C49
:104BF000ED0CEC0CED0CEC0CED0CEC0C0F30ED05B1
:104C00006C08F700FA017A08ED006B0885006A0865
:104C100084006C08800067083100AD000330AE00EE
:104C200098312000CF27A0319230780784002230BD
:104C300085000318850A00082F00EA003100D10022
:104C40003730D20088312000A226A0312030330036
:104C5000AB0080312000CB27A0312F006708310046
:104C6000AD000330AE0098312000CF27A0310130D5
:104C70007807923EF8002230FA000318FA0A780802
:104C80002F00EA007A08EB000310670DFA01F90023
:104C90000310F90DFA0D79083A3E840020307A3D70
:104CA00085000008EC0001310008ED003F310F30B5
:104CB000EC05ED01EC0DED0DEC0DED0DEC0DED0D3C
:104CC000EC0DED0DF030EC050310670D013EFA011F
:104CD000F9000310F90DFA0D79083A3E84002030EE
:104CE0007A3D85000008EE0001310008EF003F31F9
:104CF0006F08EE00EF016E080F39F700FA01770830
:104D00006C04F7007A086D04FA007708EC007A0862
:104D1000ED006B0885006A0884006C088000670855
:104D20003100AD000330AE0098312000CF27A03114
:104D300001307807923E8400223085000318850AEE
:104D400000082F00EA003100D1003730D20088314E
:104D50002000A226A03120303300AB00803120009B
:104D6000CB27A0312F0067083100AD000330AE0023
:104D700098312000CF27A03102307807923EF8000A
:104D80002230FA000318FA0A78082F00EA007A089D
:104D9000EB000310670D013EFA01F9000310F90D55
:104DA000FA0D79083A3E840020307A3D85000008EB
:104DB000EC0001310008ED003F316C08F700FA010A
:104DC0007A08ED006B0885006A0884006C08800092
:104DD00067083100AD000330AE0098312000CF27C6
:104DE000A03102307807923E8400223085000318FB
:104DF000850A00082F00EA003100D1003730D200C8
:104E000088312000A226A03120303300AB00803151
:104E10002000CB27A0312F00E70ACA2D0D30330028
:104E2000AB0080312000CB27A0310A303300AB002B
:104E300080312000CB27A03121000E1022000E105F
:104E400020000800BD302300910006309200883118
:104E500020000020A031C8302300910006309200CD
:104E6000883120000020A0318831F427A0310230A1
:104E7000A90003302F005607D8000030573DD90055
:104E8000DB005808DA00A83120000028A03190315A
:104E9000ED27A031F8080319502F0630A900522F32
:104EA0000430A900B031DE2D03302F00D8002030AF
:104EB000DA000930D9000430DB0090312000682589
:104EC000A031A031762FD53023009100063092001A
:104ED000883120000020A031DF302300910006300F
:104EE0009200883120000020A031542F2908063C70
:104EF000031D872FEE302300910006309200883189
:104F000020000020A0310130F800892F892F0030C7
:104F1000F800B031CF2D203031004F1E3030D0009E
:104F20004E08F700CE1F9C2FF709F70A7708CE002E
:104F30002D30D000CF174F144E08D4006430D50068
:104F4000883120000324A03177083100CE003030B2
:104F50007807D1004E08D4000A30D50088312000EF
:104F60000324A031303077073100D3003030780788
:104F7000D2005008F700303051020319C32FCF146C
:104F8000CF1B4F15D72F5008D1002030D000303024
:104F900052020319CF2F4F14CF1BCF14D72F031D4D
:104FA0004F14031DD72F5108D2002030D1004F19C4
:104FB000DE2FCF18E62F4F18EE2FF62F50083300B4
:104FC000AB0080312000CB27A031310051083300E5
:104FD000AB0080312000CB27A031310052083300D4
:104FE000AB0080312000CB27A031310053083300C3
:0C4FF000AB0080312000CB27A03108006E
:105000002F005A0884005B088500003FDC00553003
:105010002300910006309200883120000020A83142
:105020007830230091000630920003100C303100DC
:10503000D10088312000EF22A8312F005C08310018
:10504000D1003730D20088312000A226A8317F302D
:105050002300910006309200031004303100D1008B
:1050600088312000EF22A8312F005C08003A200090
:1050700003196B28103A03197528113A0319762879
:10508000033A03197728923A03197828013A031949
:105090008228033A03198C28013A03199628073A03
:1050A0000319A028023A0319AA28013A0319B428BF
:1050B0000D3A0319BE28053A0319C828EE3A031918
:1050C000D228033A0319D628013A0319DA28033AF9
:1050D0000319DE28E2282F005B08DE005A08DD00F5
:1050E00090312000FE2DA831EB28EB28EB28EB288F
:1050F0002F005B08DE005A08DD0090312000342FBD
:10510000A831EB282F005B08DE005A08DD0098313B
:105110002000D629A831EB282F005B08DE005A08B2
:10512000DD00983120004D2CA831EB282F005B08C2
:10513000DE005A08DD00983120001F2DA831EB2831
:105140002F005B08DE005A08DD00A0312000002897
:10515000A831EB282F005B08DE005A08DD00A031E3
:1051600020006029A831EB282F005B08DE005A08D8
:10517000DD00983120001D2FA831EB282F005B089F
:10518000DE005A08DD00A03120004F2BA831EB28AB
:105190002F005B08DE005A08DD00A0312000ED2B57
:1051A000A831EB28A0316224A831EB28A031622479
:1051B000A831EB28A0316224A831EB28A031622469
:1051C000A831EB288230230091000630920088310C
:1051D00020000020A8318E3023009100063092007C
:1051E000883120000020A831A031462F2F003B0835
:1051F0003A02031D0A29D0302300910001309200A9
:10520000883120000020A8310030F800F90024295E
:1052100024292F003A083100AC0001302F003A0752
:105220000F39BA0031002C08AD000930AE009831BA
:105230002000CF27A83178083A3EF8002430FA0041
:105240000318FA0A7A08F900B031F62B3100D301BD
:10525000D401D501D601D701D801D901DA01DB018A
:10526000D208031D44290230D6004030D500D401B5
:10527000D3010230DA005030D9000F30D800FF30AF
:10528000D7008030DB008E29520B58290230D6001F
:105290005030D5001030D400D3010230DA00503045
:1052A000D9001F30D800FF30D7008130DB008E29B5
:1052B0005208023C031D6E290230D6005030D50042
:1052C0006030D400D3010230DA005130D9006F30A1
:1052D000D800FF30D7008330DB008E295208033C12
:1052E000031D84290230D6005130D5007030D4001F
:1052F000D3010230DA005130D9007F30D800FF30BE
:10530000D7008430DB008E29FF30D600D500D400D2
:10531000D300DA00D900D800D700DB00D330F80082
:105320000830F900A8312000942A3100D008031D6C
:10533000072A0330D800E401E501F801F901FA0178
:105340005508D900E501F801F901FA015408DA001D
:10535000F801F901FA015308DB0051083300C900D4
:10536000CA010130CC00CB0188312000C320A83114
:10537000310051083300C900CA01CC018030CB0094
:1053800088312000C320A831310052083300CC00FE
:10539000310051083300CB00310050083300CA00FF
:1053A00031004F083300C9002530CE008830CD00D1
:1053B000D0010430CF002530D2008730D100D60193
:1053C000D501D4010130D30088312000FF20A8315D
:1053D0000230F700F70BEA290000310051083300D2
:1053E000C9000130CA00CC00CB0188312000C320A5
:1053F000A831310051083300C900CA01CC01803006
:10540000CB0088312000C320A8317D2A3100500B09
:105410007E2A1330DC00E301E401E501F801F90123
:10542000FA015608DD00E401E501F801F901FA018D
:105430005508DE00E501F801F901FA015408DF0022
:10544000F801F901FA015308E00051083300C900DE
:10545000CA010130CC00CB0188312000C320A83123
:10546000310051083300C900CA01CC018030CB00A3
:1054700088312000C320A831310052083300CC000D
:10548000310051083300CB00310050083300CA000E
:1054900031004F083300C9002530CE008C30CD00DC
:1054A000D0010530CF002530D2008730D100D601A1
:1054B000D501D4010130D30088312000FF20A8316C
:1054C0000230F700F70B622A000031005108330068
:1054D000C9000130CA00CC00CB0188312000C320B4
:1054E000A831310051083300C900CA01CC01803015
:1054F000CB0088312000C320A83131005708F800C4
:10550000A83120002A2D31002F08FA002E08C900EA
:105510007A08CA002C0884002D0885000031000894
:10552000CB00D200200026297908FA0078088400F0
:105530007A0885000930F80031004A0887004908D8
:10554000860012001E00F80BA12A3108FA007A0822
:10555000CA002E0884002F08850000310008F700DB
:1055600001310008F80001310008F900013100089C
:10557000FA003D317A08CE007908CD007808CC00D9
:105580007708CB004A088500300884004B0880006B
:105590004C08813F4D08823F4E08833F2E0884000F
:1055A0002F08850004310008F70001310008F800D9
:1055B00001310008F90001310008FA003D317A0894
:1055C000CE007908CD007808CC007708CB003308EE
:1055D0008500320884004B0880004C08813F4D084C
:1055E000823F4E08833F2C0884002D08850001313E
:1055F0000008F70001310008F80001310008F90047
:1056000001310008FA003D317A08CE007908CD005A
:105610007808CC007708CB00350885003408840072
:105620004B0880004C08813F4D08823F4E08833F65
:105630002C0884002D08850005310008F700013191
:105640000008F80001310008F90001310008FA00F3
:105650003D317A08CE007908CD007808CC00770873
:10566000CB0037088500360884004B0880004C08C2
:10567000813F4D08823F4E08833F3108FA003008D1
:105680008400310885000008C90001310008CA0003
:1056900001310008CB0001310008CC003D319A30C7
:1056A0002300910005309200031025303100D10015
:1056B00088312000EF22A83131004C08D10037306A
:1056C000D20088312000A226A83131004B08D10039
:1056D0003730D20088312000A226A83131004A0894
:1056E000D1003730D20088312000A226A831310005
:1056F0004908D1003730D20088312000A226A831D5
:105700000D303300AB0080312000CB27A8310A30A8
:105710003300AB0080312000CB27A83131003308A3
:10572000FA0032088400330885000008C9000131FE
:105730000008CA0001310008CB0001310008CC008C
:105740003D31B03023009100053092000310253028
:105750003100D10088312000EF22A83131004C08FF
:10576000D1003730D20088312000A226A831310084
:105770004B08D1003730D20088312000A226A83152
:1057800031004A08D1003730D20088312000A226EB
:10579000A83131004908D1003730D20088312000CB
:1057A000A226A8310D303300AB0080312000CB277A
:1057B000A8310A303300AB0080312000CB27A8315C
:1057C00031003508FA0034088400350885000008E7
:1057D000C90001310008CA0001310008CB000131C5
:1057E0000008CC003D31C630230091000530920006
:1057F000031025303100D10088312000EF22A8317C
:1058000031004C08D1003730D20088312000A22668
:10581000A83131004B08D1003730D2008831200048
:10582000A226A83131004A08D1003730D200883191
:105830002000A226A83131004908D1003730D2001B
:1058400088312000A226A8310D303300AB00803112
:105850002000CB27A8310A303300AB008031200074
:10586000CB27A83131003708FA0036088400370802
:1058700085000008C90001310008CA000131000894
:10588000CB0001310008CC003D31DC302300910019
:1058900005309200031025303100D10088312000FE
:1058A000EF22A8314130840031004C08D4004B086D
:1058B000D3004A08D2004908D100883120009C2337
:1058C000A831F0302300910005309200031004301D
:1058D0003100D10088312000EF22A8313100310899
:1058E000FA0030088400310885000008C900013141
:1058F0000008CA0001310008CB0001310008CC00CB
:105900003D312D0049083300AA002D00480833001E
:10591000A9002D0047083300A8002D0046083300D9
:10592000A70031004C083300AE0031004B083300B3
:10593000AD0031004A083300AC00310049083300A3
:10594000AB002530B0006C30AF00B401B301B20140
:105950000430B100883120002822A83131003A08F3
:1059600084003B088500CE01CD01CC013F08CB006F
:10597000CE00CB01CC01CD01D301D201D101510820
:10598000FA00F701F8017708CB047808CC043E0848
:10599000CD045108CE04D301D201D1015208FA003E
:1059A0005108F9003D08F800F7017708CB043D08DD
:1059B000CC045108CD045208CE04F801F901FA01D3
:1059C0003C084B04F70078084C04F80079084D04B3
:1059D000F9007A084E04FA00770880007808813FC1
:1059E0007908823F7A08833F3808C9003908CA001D
:1059F0003108FA0030088400310885000008CB0027
:105A000001310008CC0001310008CD00013100084F
:105A1000CE003D310430CB070030CC3DCD3DCE3DF6
:105A20002D0049083100D2002D0048083100D10076
:105A30002D0047083100D0002D0046083100CF006E
:105A40004E08D6004D08D5004C08D4004B08D300B2
:105A50002000952931004A0885004908840078080B
:105A60008000F3302300910005309200883120003F
:105A70000020A83131003A0884003B088500000866
:105A8000C90001310008CA0001310008CB00013112
:105A90000008CC003D313108FA003008840031089C
:105AA00085000008CD0001310008CE00013100085A
:105AB000CF0001310008D0003D31FC3023009100BF
:105AC0000530920003100C303100D10088312000E5
:105AD000EF22A8314130840031004C08D4004B083B
:105AE000D3004A08D2004908D100883120009C2305
:105AF000A8310330230091000630920003140830CF
:105B00003100D10088312000EF22A8313100500847
