:06000000B83100280000E9
:0800080083018031200077081C
:10001000A0007808A1007908A2007A08A3002300B4
:1000200011082000A400230012082000A5002300CE
:1000300013082000A600230014082000A700850153
:1000400091308400001C2628111846288501913023
:100050008400801E2D28911A48282008F7002108C6
:10006000F8002208F9002308FA0024082300910070
:10007000200025082300920020002608230093007A
:1000800020002708230094000900200080314A281E
:1000900080316A2896018030970096010000013077
:1000A000B1070318B20A0319B30A0319B40A1110ED
:1000B00080312D28D434ED3272104937693AE93055
:1000C000EC34FA320D0500008921EF367036653ABE
:1000D000E5060A006D28281C802859081F3C031CCF
:1000E00080285908D90A1F39193E8400203085001C
:1000F0000318850A911E7A28230019088000200021
:10010000911280312D28D520522AA024EE34F434C7
:100110006136693DE5060A008921EF367036653A99
:10012000E5060A00CD24D329C9274E104626C12949
:1001300048104937693AE930EC34FA320D050001CC
:100140000923EC307334A0347310EE377410E337A6
:100150006E37E531F432E4060A0089294D23201078
:10016000D0244326CF23A02AF332A021EF3A6E3ABF
:1001700065392010201020103A10303C2518382600
:10018000D8060A0089294D232010D0244326CF23E6
:100190002026EF377010C3377537F43272102010F5
:1001A00020103A10303C2518322C0D050001892909
:1001B0004D232010CD22C1292010A02AF332A021E6
:1001C000EF3A6E3A65392010201020103A10303C7A
:1001D00025183826D8060A0089294D232010CD225B
:1001E000C12920102026EF377010C3377537F4323D
:1001F0007210201020103A10303C2518322C0D05BA
:1002000000018926C9294610D0244326CF23A02ADD
:10021000F332A021EF3A6E3A6539201020102010F9
:100220003A10303C25183826D8060A008926C929F4
:100230004610D0244326CF23A02AEE316F38F9325E
:100240006410C3377537F43272103A10303C2518F9
:100250003826D8060A008926C9294610D024432604
:10026000CF232026EF377010C3377537F432721062
:10027000201020103A10303C2518322C0D050001BA
:100280008926C9294610D0244326CF23A02BF23437
:10029000F432A021EF3A6E3A6539201020103A105E
:1002A000303C2518322C0D0500018926C92946103D
:1002B000CD22C1292010A02AF332A021EF3A6E3AB4
:1002C00065392010201020103A10303C25183826AF
:1002D000D8060A008926C9294610CD22C129201036
:1002E000A02AEE316F38F9326410C3377537F43213
:1002F00072103A10303C25183826D8060A00892694
:10030000C9294610CD22C12920102026EF377010B0
:10031000C3377537F4327210201020103A10303C79
:100320002518322C0D0500018921EF367036653A0B
:10033000E5060A00CD34F339E9376E104636E13967
:100340006810E93920376F3AA0316F37EE32633ADF
:1003500065320D0500005B28C921CC27C72E201D62
:100360002000CD34F339E9376E104636E139681094
:10037000E93920376F3AA0316F37EE32633A653290
:100380000D0500000D05533A61397410ED30EB3264
:100390005F39E531E534F632DF31EF36ED306E327C
:1003A0000D050001892DC227D3295D103E1F3E1087
:1003B000000145376410ED30EB325F39E531693BC0
:1003C000E52FE337ED366137E4068A060A00F33499
:1003D00067376136A0326E32A03B693A681053230A
:1003E000C4060A00E437EE137410E6346E32A02916
:1003F00046220D05000089163E104937F630EC34D0
:1004000064104639E136651049222039E531E5347A
:10041000F632641DA012D8060A0089163E10432940
:1004200043106539F237F2100D05000189042D1FC4
:100430002039E531E534F63264104329431DA0121A
:10044000D8060A0089042010A0316F36EC32633AD6
:10045000A021D221201DA012D8060A0089163E1024
:100460004937F630EC346410E432F634E332A02439
:100470004410F232E332693B65320D050001890414
:100480002D1F2039E531E534F632641D201020108F
:10049000A012D8060A0089042010A0267910E432A0
:1004A000F634E332A024441DA012D8060A00892D98
:1004B000C227D3295D103C1E3C10000189163E1056
:1004C0004639E136651049223A10252C0D05000108
:1004D00089163E10C3376E3A65377410F334FA321A
:1004E0003A1025320D050001533A61397410D326B4
:1004F0004610F53969376710F232F132733AA03994
:10050000E530F13A6537E3320D0500014539F23740
:10051000F2102029E531E534F634EE33A031EF3620
:10052000ED306E32A034EE316F37F334733A653705
:100530007410F7347434203AE8322032E539E93364
:10054000EE060A00D3264610F5396510F232F13A6C
:10055000E53974106136EC37F732E4060A00D32629
:100560004610F5396510F232F13AE5397410E4328B
:10057000EE3C65320D050001D23274397910F23249
:10058000F13AE5397410F4372021CF295310D024E3
:10059000C3060A004539F237F2102029E531E53467
:1005A000F634EE33A031EF36ED306E32A034EE315A
:1005B0006F37F334733A65377410F7347434203A74
:1005C000E8322032E539E933EE060A004537641097
:1005D000D3264610F53969376710F232F132733A93
:1005E000A039E530F13A6537E3320D050000C9273F
:1005F000A024EE34F4346136693DE5060A00892111
:10060000EF367036653AE5060A0041224310493755
:10061000693AE930EC34FA320D0500018921EF36F0
:100620007036653AE5060A00533A61397410D32BE7
:10063000C522D0060A008929F7326538A039F4327C
:1006400070103A10A53A0D05000145274410D32B30
:10065000C522D0060A00533A61397410C324C72951
:100660002032613A6110E3376E3B6539F3346F37FE
:100670000D058000D3264610E430F4302036E939E9
:100680007410E93920337536EC10A1100D05000007
:10069000D3264610E430F4302036E9397410E939B5
:1006A000A0326D38F43C0D050000533A61397410E6
:1006B000CD27C4222022D526CD2C0D050001892668
:1006C0004F224510201020103A102518322C0D050D
:1006D000000109286139E136311020103A10303C10
:1006E00025183826D8060A0009286139E136321063
:1006F00020103A10303C25183426D8060A00453719
:100700006410CD27C4222022D526CD2C0D05000053
:10071000533A61397410CD27C422A026C520D32AAC
:10072000D2220D050000533A61397410CD27C4223E
:10073000A026C520D32AD222202B6F36F430E732F0
:100740000D050000533A61397410D32BC522D00631
:100750000A008929F7326538A039F43270103A104E
:10076000A53A0D05800145274410D32BC522D0069C
:100770000A00F4326D385F3A6F383A10252C0D05B7
:100780000001F4326D385F316F3A3A10252C0D05B7
:10079000000070325F3B6136F5323A10252C0D05B2
:1007A0000000E334E7395F3B6136F5323A10252C1F
:1007B0000D050000E33A72396537F42FF630EC3A54
:1007C000651DA012D8060A00F6376C3AE133E52F12
:1007D000F630EC3A651DA012D8060A00533A61398A
:1007E00074104636E13968104539E13965104136F3
:1007F000EC060A00453764104636E1396810453981
:10080000E13965104136EC060A00533A613974103B
:100810004636E13968104539E13965103110D33277
:10082000633A6F390D0500018929E531F4377210FB
:1008300041326439E539731D2018F812301C4C2CF4
:100840000D050001453764104636E1396810453919
:10085000E13965103110D332633A6F390D0500006C
:10086000533A613974104636E1396810C337F03CA9
:10087000A018A029E531F437F2060A00892975315C
:10088000F332633A6F39A0206432F232F3393A100E
:10089000303C25183826D8060A00453764104636FD
:1008A000E1396810C337F03CA018A029E531F437CE
:1008B000F2060A00533A613974104636E13968107D
:1008C0005739693A6510C432ED370D0500018926A4
:1008D0004F224510201020103A102518322C0D05FB
:1008E000000189206432F232F33920103A10303C92
:1008F00025183826D8060A000928E131EB3274277A
:10090000F5363A10303C25183426D8060A005739F7
:10091000693A6510C430F4300D05000145376410A4
:100920004636E13968105739693A6510C432ED37F7
:100930000D050000533A613974104636E1396810EC
:100940005739693A6510B435C23CF432A029753183
:10095000F332633A6F390D050001453764104636AE
:10096000E13968105739693A6510B435C23CF43240
:10097000A0297531F332633A6F390D050000533AFF
:10098000613974104636E1396810D23261320D0592
:10099000000189264F224510201020103A102518FA
:1009A000322C0D05000189206432F232F339201017
:1009B0003A10303C25183826D8060A000928E131BB
:1009C000EB327427F5363A10303C25183426D80619
:1009D0000A00D22241222022412AC1060A00CD3437
:1009E000F339E9376E104636E1396810E9392037B6
:1009F0006F3AA0316F37EE32633A65320D05000170
:100A0000453764104636E1396810D23261320D053F
:100A10000000533A613974104636E1396810D23219
:100A20006132A0206432F232F3390D050001D23276
:100A300061322022613A611DA01230195810251828
:100A4000322CA012301958102518322C0D05000137
:100A5000453764104636E1396810D2326132A02041
:100A60006432F232F3390D050000533A61397410E3
:100A70004636E1396810D3264610C337F03C0D05E1
:100A80000001453764104636E1396810D326461018
:100A9000C337F03C0D050000533A613974104636F7
:100AA000E1396810D3264610D23261320D050001BB
:100AB000D23261322022613A611D20000D05453796
:100AC00064104636E1396810D3264610D2326132BE
:100AD0000D050000533A613974104636E13968104B
:100AE000D32646105739693AE5060A00453764109F
:100AF0004636E1396810D32646105739693AE5067B
:100B00000A00533A613974104636E13968104132AF
:100B10006439E5397310D232F332F4060A004537EE
:100B200064104636E139681041326439E539731092
:100B3000D232F332F4060A000D05DF2FDF2FDF2F4C
:100B4000DF2FDF2FDF2FDF2FDF2FDF2FDF2F0D0531
:100B50000001DF2FDF29F430723AA0316F38F92F0E
:100B6000E430F430DF2F0D050001533A6139741081
:100B7000DB12641074345D10E430F430A0316F384F
:100B8000F9068A060A000D05DF2FDF226E32A0313A
:100B90006F38F92FE430F430DF2FDF2F0D0500011F
:100BA000DF2FDF2FDF2FDF2FDF2FDF2FDF2FDF2FD5
:100BB000DF2FDF2F0D050D0500004937A0396D33FC
:100BC000A036E939F3346F372032613A6110733A55
:100BD00061397410201061326439E539731DA01237
:100BE0004C2C0D0500014937A0396D33A036E93989
:100BF000F3346F372032613A61106537641020108A
:100C0000201061326439E539731DA0124C2C0D059A
:100C100000014937A026C92920234D105739693AC8
:100C20006510F3377539E3322032613A6110613271
:100C30006439E539731DA0124C2C0D0500014937AC
:100C4000A026C92920234D105739693A6510E43090
:100C5000F430A039693D65102010201020102010BC
:100C6000201DA012EC3A0D050D050002D334FA3216
:100C7000A030F2326110F23261320D050001F53917
:100C80006532DF39693D65103D1025367510A8398C
:100C9000F2312018F812301C4C2CA9060A00EC374F
:100CA0006F38A031EF3A6E3A3D1025322010A83946
:100CB000F2312018F812301C4C2CA9068A060A00C2
:100CC00057396138203AF234E733653965323A10E2
:100CD000D232F332743A69376710E430F430DF3BD4
:100CE000F234F432DF3064327210F437A039F43069
:100CF000723A0D0500005538E430F432A039693DF0
:100D000065106139E5300D050001F5396532DF39CF
:100D1000693D65103D102536E4060A00EC376F3852
:100D2000DF31EF3A6E3AA01EA012F5068A060A00DD
:100D30000D05DF2FDF2FDF2FDF2FDF2FDF2FDF2F3F
:100D4000DF2FDF2FDF2FDF2FDF2FDF2FDF2FDF2F33
:100D50000D05DF2FDF2FDF29F430723AA032F83291
:100D6000E33AF432DF36E939F3346F37DF2FDF2F20
:100D7000DF068A060A00C337ED3661376410492260
:100D80003A10252C0D050D05000189042D1FA02406
:100D90006E3B61366932A0214D22A024C4100D059E
:100DA00000010D05DF2FDF2FDF2F45376410653C75
:100DB000E531753AE52FED34F339E937EE2FDF2FC2
:100DC000DF2FDF068A2FDF2FDF2FDF2FDF2FDF2F31
:100DD000DF2FDF2FDF2FDF2FDF2FDF2FDF2FDF2FA3
:100DE000DF2FDF2F0D050000533A61397410653C89
:100DF000E531753AE52FE337ED366137E4060A0051
:100E000089163E105538EC34EE35A031EF36ED3012
:100E10006E320D0500010910201054396137F33688
:100E2000693AA020E335EE37EC326732E5060A0076
:100E300089163E10533A613AF539A031E832E3356C
:100E40000D0500010910201054396137F336693A55
:100E5000A026C929A026C32AA029F430F43AF30613
:100E60000A00E634EE3473346532A0346E10733AFF
:100E7000613AF539DF31E832E3350D0500008916B6
:100E80003E10D3264610613BE134EC3062366510EB
:100E90006334E531EB060A0009102010543961373C
:100EA000F336693AA020E335EE37EC326732E506D7
:100EB0000A0089042D1FA0306C36EF3BE4060A00BF
:100EC00089042D1F20326537F932E4060A000D052A
:100ED0000D050D05BD1EBD1EBD1EBD1EBD1EBD1ECC
:100EE000BD1EBD1EBD1EBD1EBD1EBD1EBD1EBD1E2A
:100EF000BD1EBD1EBD1EBD1EBD1EBD1EBD1EBD1E1A
:100F0000BD1EBD1EBD1EBD1EBD1EBD1EBD1EBD1E09
:100F10000D0500015434E939A0347310CD27CD24D8
:100F2000CA24A021C9235310D024431042214D10BC
:100F3000E6377210CD24D31B5F21C22631170D0571
:100F40000001CC30733AA03A7032613A6532A03772
:100F50006E103218B21A2F18B617B11A2C10E23CC4
:100F6000A024EE37F532AE068A060A00DF2FDF2F07
:100F7000C324C7292028C921A029F430723AA02708
:100F8000F032F230F4346F37DF2FDF2FDF068A06BE
:100F90000A00F730693A69376710E6377210C227DE
:100FA000D3292028C921A031EF36ED306E3200015F
:100FB0000D05F730693A69376710E6377210C227B6
:100FC000D3292028C921A031EF36ED306E3200013F
:100FD00045376410ED3069370D05000028006210B8
:100FE000E3156311E2106211E211B8312000BE284E
:101000000D050D05BD1EBD1EBD1E0D050D05C6340D
:10101000EE34733465322038F237E332F339AE06FA
:101020008A2BE1347410E6377210C227D3292028A6
:10103000C921203A75396E106F336610ED32000108
:1010400021000D1222000D120830F80027280000A0
:10105000F8173A28F8132E00C30C220003180D16B7
:10106000031C0D1278173A287813F80B2B28382810
:1010700000000D1684308400840B3C280000F81B0F
:101080002A28781B3428200008000B088B13230023
:101090009517151400000000891B8B1713087F3962
:1010A000031991282E00C000230011082E00C10052
:1010B000230012082E00C2004008C3002000202098
:1010C0002E004108230091002E00420823009200C8
:1010D0000B088B139517151400000000891B8B1744
:1010E000130D140D7F39031991282E00C000230021
:1010F00011082E00C100230012082E00C200400873
:10110000C300200020202E004108230091002E0063
:10111000420823009200910A0319920A20004528F0
:10112000230020000800F7302300910002309200D5
:101130002000452021000E1022000E1021008E11EB
:1011400022008E11FF302300910002309200200017
:101150004520B831B22805302300910003309200B9
:10116000200045207830210099001E109E101E118D
:10117000003023008C0090008D00EB308F002100A8
:101180001E129E161E179E131D14983022009800E2
:10119000323099000E30230091000330920020007D
:1011A0004520B831B52883302300910000309200EB
:1011B0002000452021009116C0308B048C30230084
:1011C00091000030920020004520B831B8285A30F4
:1011D00023009100003092002000452011108F3034
:1011E0009800990196018030970096010000210037
:1011F0001114C0308B046430230091000030920041
:1012000020004520B831BB282E005D080739F700C3
:101210005D0CF800F80CF80C1F30F80578085F0733
:1012200084000030603D8500F801F80AF70A1929AA
:10123000F80DF70B1829DE08031921297808800416
:101240002429F809780880052000080024001108E6
:101250002F002C0824009100140C031C2C291108C9
:10126000F70020000800240011082F002C0824009B
:101270009100140C031C39291108F7002000080004
:101280002E005D08003A200003194A29013A03198B
:10129000BA292B2A2E00EC01EB016C086402031C16
:1012A0007229031D572963086B020318722961080C
:1012B0006B07840062086C3D850000082F00A800C1
:1012C0002400951240309400093092002A30950095
:1012D0002F002808AC00200026212E00EB0A03195D
:1012E000EC0A4D292F00A301A201A101A0012308AE
:1012F0002E006A02031CB929031D96292F0022081B
:101300002E006902031CB929031D96292F0021080C
:101310002E006802031CB929031D962967082F00B7
:101320002002031C95292E00B9292E0065082F00E4
:10133000200784002E0066082F00213D8500240030
:10134000951240309400093092002A309500013007
:101350002F00AC00200026217708800001302F00EC
:10136000A0070318A10A0319A20A0319A30A7729DF
:101370002E002C2A2E00EE01ED016E086402031CE3
:10138000E229031DC72963086D020318E2296108D9
:101390006D07840062086E3D850000082F00A800DC
:1013A0002400951240309400093092002A309500B4
:1013B0002F002808AC00200033212E00ED0A03196D
:1013C000EE0ABD292F00A701A601A501A401270847
:1013D0002E006A02031C292A031D062A2F00260854
:1013E0002E006902031C292A031D062A2F00250846
:1013F0002E006802031C292A031D062A67082F00F5
:101400002402031C052A2E00292A2E0065082F001D
:10141000240784002E0066082F00253D8500240047
:10142000951240309400093092002A309500023025
:101430002F00AC00200033217708800001302F00FE
:10144000A4070318A50A0319A60A0319A70AE7297E
:101450002E002C2A20002E00200008009F302D0096
:10146000BC0036082E00DD00DE010130E000DF01A7
:10147000200004212D0036082E00DD00DE01E001F1
:101480008030DF00200004212D0037082E00E0000E
:101490002D0036082E00DF002D0035082E00DE005E
:1014A0002D0034082E00DD002430E2002C30E10055
:1014B000E4010130E3002430E6002830E500EA01D1
:1014C000E901E8010430E700200040212D00360842
:1014D0002E00DD000130DE00E000DF0120000421ED
:1014E0002D0036082E00DD00DE01E0018030DF0037
:1014F000200004212D003808203C031D832A0130E0
:10150000F800852A852A0030F800200008002E0007
:10151000C008031DE72A0330CD00DA01DB01F80122
:10152000F901FA014508CE00DB01F801F901FA01E1
:101530004408CF00F801F901FA014308D00041083E
:10154000DD00DE010130E000DF01200004212E007B
:101550004108DD00DE01E0018030DF0020000421D1
:101560002E004208E0004108DF004008DE003F088E
:10157000DD002430E2008D30E100E4010430E300BE
:101580004808E6004708E5004C08EA004B08E90077
:101590004A08E8004908E700200040210230F7002F
:1015A000F70BD02A00002E004108DD000130DE00DC
:1015B000E000DF01200004212E004108DD00DE01F3
:1015C000E0018030DF00200004214B2B2E00400B77
:1015D0004C2B1330D100D901DA01DB01F801F901FC
:1015E000FA014608D200DA01DB01F801F901FA013B
:1015F0004508D300DB01F801F901FA014408D400E1
:10160000F801F901FA014308D5004108DD00DE01C7
:101610000130E000DF01200004212E004108DD0040
:10162000DE01E0018030DF00200004212E004208AE
:10163000E0004108DF004008DE003F08DD00243004
:10164000E2009130E100E4010530E3004808E600E3
:101650004708E5004C08EA004B08E9004A08E800A2
:101660004908E700200040210230F700F70B362B35
:1016700000002E004108DD000130DE00E000DF0147
:10168000200004212E004108DD00DE01E001803051
:10169000DF00200004212E00200008000B088B131F
:1016A00023009517151400000000891B8B170318E1
:1016B000822B13087F392C00ED00230011082C0029
:1016C000EE00230012082C00EF006D082E00C3006E
:1016D000200020202C006E08230091002C006F08B1
:1016E000230092000B088B139517151400000000BF
:1016F000891B8B172C00EB0B7E2B802B2300822B5E
:10170000A62B2300130D140D7F392C00ED002300B0
:1017100011082C00EE00230012082C00EF006D08C9
:101720002E00C300200020202C006E082300910012
:101730002C006F0823009200910A0319920A0310EB
:101740002C00EB0BA42BA62B20004E2B2000080016
:101750002C00EC1BBE2B0F30F7006B0EF7050A3088
:1017600077020318B62B3030F707B82B6C08F70751
:1017700077082E00C300200020202C000F30EB053E
:101780000A306B020318C62B3030C82BEC136C08E0
:10179000EB076B082E00C3002000202008009230C9
:1017A00023009100003092002000452021008F107E
:1017B00022008F1421000F1122000F1528005D0850
:1017C0002D00B70028005C082D00B60028005B083B
:1017D0002D00B50028005A082D00B40020002E224C
:1017E000F808031DFB2BA03023009100003092006D
:1017F000200045203E2E28005D082E00C200280053
:101800005C082E00C10028005B082E00C0002800E4
:101810005A082E00BF00C601C501C401C301233010
:10182000C800B730C700CC01CB01CA014030C900A5
:10183000200087222C00D9010030D90459042B0044
:101840006A042800C200C301C401C5012B006B0853
:10185000F1002C00D9010030D90459042B006F0489
:101860002800C600C701C801C9012C002008F200E9
:10187000D9010030D904590424042800CA00CB013E
:10188000CC01CD012C002508F300D9010030D9048A
:10189000590429042800CE00CF01D001D1012C0029
:1018A000D8010030D80458042D04F400D9010030C8
:1018B000D904590431042800D200D301D401D50140
:1018C0002C003208F500D9010030D904590436043F
:1018D0002800D600D701D801D901AD3023009100EE
:1018E00000309200031022302C00EB0020004E2329
:1018F000280045082C00EB003730EC002000A8231E
:10190000280044082C00EB003730EC002000A8230E
:10191000280043082C00EB003730EC002000A823FF
:10192000280042082C00EB003730EC002000A823F0
:101930000D302E00C300200020200A302E00C300EE
:1019400020002020C23023009100003092000310BC
:1019500022302C00EB0020004E2371082C00EB00FD
:101960003730EC002000A8230D302E00C3002000EB
:1019700020200A302E00C30020002020D730230072
:10198000910000309200031022302C00EB00200068
:101990004E23280049082C00EB003730EC002000D3
:1019A000A823280048082C00EB003730EC0020006A
:1019B000A823280047082C00EB003730EC0020005B
:1019C000A823280046082C00EB003730EC0020004C
:1019D000A8230D302E00C300200020200A302E0046
:1019E000C30020002020EC30230091000030920042
:1019F000031022302C00EB0020004E2372082C0034
:101A0000EB003730EC002000A8230D302E00C3007F
:101A1000200020200A302E00C300200020200130AA
:101A20002300910001309200031022302C00EB00C3
:101A300020004E2328004D082C00EB003730EC002E
:101A40002000A82328004C082C00EB003730EC00C5
:101A50002000A82328004B082C00EB003730EC00B6
:101A60002000A82328004A082C00EB003730EC00A7
:101A70002000A8230D302E00C300200020200A30B3
:101A80002E00C300200020201630230091000130DA
:101A90009200031022302C00EB0020004E2328007F
:101AA00051082C00EB003730EC002000A823280060
:101AB00050082C00EB003730EC002000A823280051
:101AC0004F082C00EB003730EC002000A823280042
:101AD0004E082C00EB003730EC002000A8230D301E
:101AE0002E00C300200020200A302E00C30020005A
:101AF00020202B302300910001309200031022306F
:101B00002C00EB0020004E2373082C00EB00373034
:101B1000EC002000A8230D302E00C3002000202060
:101B20000A302E00C3002000202040302300910006
:101B300001309200031022302C00EB0020004E23D5
:101B400074082C00EB003730EC002000A8230D3087
:101B50002E00C300200020200A302E00C3002000E9
:101B600020205530230091000130920003102230D4
:101B70002C00EB0020004E23280055082C00EB0021
:101B80003730EC002000A823280054082C00EB007C
:101B90003730EC002000A823280053082C00EB006D
:101BA0003730EC002000A823280052082C00EB005E
:101BB0003730EC002000A8230D302E00C300200099
:101BC00020200A302E00C300200020206A3023008D
:101BD000910001309200031022302C00EB00200015
:101BE0004E23280059082C00EB003730EC00200071
:101BF000A823280058082C00EB003730EC00200008
:101C0000A823280057082C00EB003730EC002000F8
:101C1000A823280056082C00EB003730EC002000E9
:101C2000A8230D302E00C300200020200A302E00F3
:101C3000C300200020207F3023009100013092005B
:101C4000031022302C00EB0020004E2375082C00DE
:101C5000EB003730EC002000A8230D302E00C3002D
:101C6000200020200A302E00C300200020209430C5
:101C700023009100013092002000452008002E0032
:101C80005708003A20000319492E013A0319722E11
:101C90009C2E2E00E001DF0160085E02031C712E05
:101CA000031D562E5D085F020318712E5B085F0747
:101CB00084005C08603D85000008E3002400951264
:101CC00040309400093092002A3095002E006308BD
:101CD0002F00AC00200026212E00DF0A0319E00AA5
:101CE0004C2E9D2E2E00E201E10162085E02031CD3
:101CF0009A2E031D7F2E5D08610203189A2E5B0841
:101D0000610784005C08623D85000008E300240050
:101D1000951240309400093092002A3095002E0030
:101D200063082F00AC00200033212E00E10A0319C4
:101D3000E20A752E9D2E20002E00200008002E00A5
:101D40005708003A20000319A92E013A0319F02E72
:101D5000382F2E00E2015D0862020318C82E6208C7
:101D60005B07840000305C3D85000008E80024002B
:101D7000951240309400093092002A3095002E00D0
:101D800068082F00AC00200026212E00E20AAB2EAE
:101D9000E401E30164086102031CEF2E031DD42E4D
:101DA000600863020318EF2E5E08630784005F0873
:101DB000643D85000008E80024009512403094003E
:101DC000093092002A3095002E0068082F00AC00E0
:101DD000200026212E00E30A0319E40ACA2E392F17
:101DE0002E00E5015D08650203180F2F65085B07EB
:101DF000840000305C3D85000008E8002400951256
:101E000040309400093092002A3095002E00680876
:101E10002F00AC00200033212E00E50AF22EE7014E
:101E2000E60167086102031C362F031D1B2F6008A3
:101E300066020318362F5E08660784005F08673D58
:101E400085000008E8002400951240309400093015
:101E500092002A3095002E0068082F00AC00200068
:101E600033212E00E60A0319E70A112F392F20002B
:101E70002E002000080005302E00DB005908DD0090
:101E8000DE010130E000DF01200004212E005908AE
:101E9000DD00DE01E0018030DF00200004212E00A3
:101EA0005A08E0005908DF005808DE005708DD0036
:101EB0002430E2009B30E100E4010130E3002430F3
:101EC000E6009C30E500EA01E901E8010130E700A5
:101ED000200040212E005908DD000130DE00E00026
:101EE000DF01200004212E005908DD00DE01E001A1
:101EF0008030DF00200004212E005C08F800200064
:101F00000800243085009730840000080319962FBC
:101F10000530F800F701F70B8B2FF80B8A2F2E30C6
:101F2000F700F70B912F942F800B882F08002B00C0
:101F30004008840041088500003FC3000130C40010
:101F4000420844020318AE2F4408C40A4007840024
:101F50000030413D85000008C306A02F4308F8006B
:101F6000200008002A006F08FA006E0884007A0832
:101F7000850000082B00A0002A006D0885006C0871
:101F80008400F7012B002008F80078080319CC2FF3
:101F900077081A00F80BC82F2A006E0884006F0813
:101FA00085008001B83120000E290F302B00A000E1
:101FB000A201A101A30190312000E725883108008A
:101FC0002E004108DD000130DE00E000DF012000CE
:101FD00004212E004108DD00DE01E0018030DF0039
:101FE0002000042108002A005E085D020319FA2F70
:0C1FF0000030FB2F0130F800200008003A
:102000002E00C008031DB1280630CB000230CC00E2
:102010004508D8004608D900DA01DB01F801F901CA
:10202000FA015808CD004408D8004508D9004608F0
:10203000DA00DB01F801F901FA015808CE00F801D5
:10204000F901FA014308CF004108DD00DE0101304B
:10205000E000DF0188312000042190312E0041088A
:10206000DD00DE01E0018030DF0088312000042146
:1020700090312E004208DA004108D9004008D8000B
:102080003F08D7002430DC008B30DB00DE0101305C
:10209000DD00883120003F2690312E004108DD0010
:1020A0000130DE00E000DF018831200004219031A2
:1020B0002E004108DD00DE01E0018030DF008831C4
:1020C0002000042190312E004108DD00DE010130A6
:1020D000E000DF0188312000042190312E0041080A
:1020E000DD00DE01E0018030DF00883120000421C6
:1020F00090312E004208DA004108D9004008D8008B
:102100003F08D7002430DC008C30DB000430DD00D9
:102110004808DF004708DE004A08E1004908E000FF
:10212000883120009F2690310230F700F70B962867
:1021300000002E004108DD000130DE00E000DF017C
:1021400088312000042190312E004108DD00DE019D
:10215000E0018030DF0088312000042190316829BF
:102160002E00400B69290630D0001230D1004608FD
:10217000D800D901DA01DB01F801F901FA015808A8
:10218000D2004508D8004608D900DA01DB01F80181
:10219000F901FA015808D3004408D8004508D900CD
:1021A0004608DA00DB01F801F901FA015808D40009
:1021B000F801F901FA014308D5004108DD00DE010C
:1021C0000130E000DF0188312000042190312E0031
:1021D0004108DD00DE01E0018030DF0088312000B1
:1021E000042190312E004208DA004108D90040084D
:1021F000D8003F08D7002430DC009030DB00DE013F
:102200000130DD00883120003F2690312E0041084A
:10221000DD000130DE00E000DF0188312000042114
:1022200090312E004108DD00DE01E0018030DF004A
:1022300088312000042190312E004108DD00DE01AC
:102240000130E000DF0188312000042190312E00B0
:102250004108DD00DE01E0018030DF008831200030
:10226000042190312E004208DA004108D9004008CC
:10227000D8003F08D7002430DC009130DB00053067
:10228000DD004808DF004708DE004A08E100490891
:10229000E000883120009F2690310230F700F70BD4
:1022A0004F2900002E004108DD000130DE00E00073
:1022B000DF0188312000042190312E004108DD002B
:1022C000DE01E0018030DF00883120000421903100
:1022D0002E00D6014208DA004108D9004008D80093
:1022E0003F08D700883120003B279031780801391A
:1022F000013C031D98292E0056080A3C0318882922
:10230000C830D70088312000812790318E292E00D7
:102310000A30D70088312000812790312E005608DE
:10232000643C03189629200098292E00D60A6A29B1
:10233000200008002D00B508031D4B2A0630BC0004
:102340002030BD00CB01CC01F801F901FA013A08B7
:10235000BE00CC01F801F901FA013908BF00F8010B
:10236000F901FA013808C00036082E00DD00DE0150
:102370000130E000DF0188312000042190312D0080
:1023800036082E00DD00DE01E0018030DF008831FC
:102390002000042190312D0037082E00DA002D0096
:1023A00036082E00D9002D0035082E00D8002D004B
:1023B00034082E00D7002430DC002C30DB00DE0196
:1023C0000130DD00883120003F2690312D00360895
:1023D0002E00DD000130DE00E000DF01883120004A
:1023E000042190312D0036082E00DD00DE01E001D1
:1023F0008030DF0088312000042190312D00360824
:102400002E00DD00DE010130E000DF018831200018
:10241000042190312D0036082E00DD00DE01E001A0
:102420008030DF0088312000042190312D003708F2
:102430002E00DA002D0036082E00D9002D003508B8
:102440002E00D8002D0034082E00D7002430DC00E8
:102450002D30DB00DE010430DD00883120003F2616
:1024600090312D0036082E00DD000130DE00E00046
:10247000DF0188312000042190312D0036082E0024
:10248000DD00DE01E0018030DF0088312000042122
:102490009031002B2D00350B012B0630C10021306F
:1024A000C200CA01CB01CC01F801F901FA013B08D5
:1024B000C300CB01CC01F801F901FA013A08C400CC
:1024C000CC01F801F901FA013908C500F801F90158
:1024D000FA013808C60036082E00DD00DE010130A2
:1024E000E000DF0188312000042190312D00360802
:1024F0002E00DD00DE01E0018030DF0088312000A9
:10250000042190312D0037082E00DA002D00360806
:102510002E00D9002D0035082E00D8002D003408DB
:102520002E00D7002430DC003130DB00DE0101302A
:10253000DD00883120003F2690312D0036082E0026
:10254000DD000130DE00E000DF01883120000421E1
:1025500090312D0036082E00DD00DE01E0018030D4
:10256000DF0088312000042190312D0036082E0034
:10257000DD00DE010130E000DF01883120000421B0
:1025800090312D0036082E00DD00DE01E0018030A4
:10259000DF0088312000042190312D0037082E0003
:1025A000DA002D0036082E00D9002D0035082E0047
:1025B000D8002D0034082E00D7002430DC00323043
:1025C000DB00DE010530DD00883120003F26903140
:1025D0002D0036082E00DD000130DE00E000DF01B6
:1025E00088312000042190312D0036082E00DD00B6
:1025F000DE01E0018030DF008831200004219031CD
:102600002D00C70137082E00DA002D0036082E00F5
:10261000D9002D0035082E00D8002D0034082E00DA
:10262000D700883120003B27903178080139013CE0
:10263000031D392B2D0047080A3C0318282BC830EE
:102640002E00D70088312000812790312F2B2D00BC
:102650000A302E00D70088312000812790312D00CC
:102660004708643C0318372B2000392B2D00C70A7C
:10267000022B200008003108F7003208F800330868
:10268000F9003408FA007A082C00BA007908B90079
:102690007808B8007708B700C501C601C7013A0835
:1026A000B100C601C7013908B200C7013808B3003C
:1026B0003708B4002F08B5003008B600AB3023004F
:1026C00091000130920088312000452090312C008B
:1026D000BB013B08053C031C872BD1303B07840022
:1026E000233085000318850A0008C300EB0037304B
:1026F000EC0088312000A823903120302E00C30048
:1027000088312000202090312C00BB0A692B0D302D
:102710002E00C30088312000202090310A302E0086
:10272000C300883120002020903128004A082C0066
:10273000BC0028004B082C00BD00023028004C07CC
:102740002C00BE00003028004D3D2C00BF002800AA
:102750005D082D00B70028005C082D00B600280099
:102760005B082D00B50028005A082D00B400883100
:1027700020002E229031F808031DC82BB130230011
:102780009100013092008831200045209031E62DE3
:1027900028005D082E00C20028005C082E00C10041
:1027A00028005B082E00C00028005A082E00BF0039
:1027B0002C003F082E00C6002C003E082E00C5004D
:1027C0002C003D082E00C4002C003C082E00C30045
:1027D0002330C800D130C700CA010630C90020002C
:1027E000002006302800CA070030CB3DCC3DCD3D4F
:1027F0000630CE070030CF3DD03DD13D0630F40746
:1028000074073F3C0318402C4A082C00BC002800E9
:102810004B082C00BD00023028004C072C00BE00E5
:10282000003028004D3D2C00BF0028005D082E0020
:10283000C20028005C082E00C10028005B082E00A2
:10284000C00028005A082E00BF002C003F082E00B0
:10285000C6002C003E082E00C5002C003D082E00AE
:10286000C4002C003C082E00C3002230C8009E305B
:10287000C700CA010630C90020000020F40128006A
:102880002C00C301C401C501C601C701C801C901AB
:10289000CA01CB01CC01CD01CE01CF01D001D101C4
:1028A000D201D301D401D501D601D701D801D90174
:1028B000DA01DB01DC01DD01DE01DF01E001E10124
:1028C000E201E301E401E501E601E701E801E901D4
:1028D000EA01EB01EC01ED01EE01EF012D00A00199
:1028E000A101A201A301A401A501A601A701A801BC
:1028F000A901AA01AB01AC01AD01AE01AF01B0016C
:10290000B101B201280045082D00B500B601B7019C
:10291000B80135082C00C300280044082D00B5007C
:10292000280045082D00B600B701B80135082C0075
:10293000C400280043082D00B500280044082D00DD
:10294000B600280045082D00B700B80135082C0056
:10295000C500280042082C00C6007108C7002800E6
:1029600049082D00B500B601B701B80135082C00A3
:10297000C800280048082D00B500280049082D008F
:10298000B600B701B80135082C00C9002800470877
:102990002D00B500280048082D00B6002800490881
:1029A0002D00B700B80135082C00CA0028004608E1
:1029B0002C00CB007208CC0028004D082D00B5007B
:1029C000B601B701B80135082C00CD0028004C082D
:1029D0002D00B50028004D082D00B600B701B80144
:1029E00035082C00CE0028004B082D00B50028002B
:1029F0004C082D00B60028004D082D00B700B80186
:102A000035082C00CF0028004A082C00D00073089D
:102A1000D100280051082D00B500B601B701B8015A
:102A200035082C00D200280050082D00B5002800E1
:102A300051082D00B600B701B80135082C00D300AD
:102A400028004F082D00B500280050082D00B600C2
:102A5000280051082D00B700B80135082C00D4001B
:102A600028004E082C00D5000030D600D700D80032
:102A70007408D900280055082D00B500B601B7012B
:102A8000B80135082C00DA00280054082D00B500E4
:102A9000280055082D00B600B701B80135082C00F4
:102AA000DB00280053082D00B500280054082D0035
:102AB000B600280055082D00B700B80135082C00D5
:102AC000DC00280052082C00DD007508DE0028001C
:102AD00059082D00B500B601B701B80135082C0022
:102AE000DF00280058082D00B500280059082D00E7
:102AF000B600B701B80135082C00E00028005708DF
:102B00002D00B500280058082D00B60028005908EF
:102B10002D00B700B80135082C00E1002800560848
:102B20002C00E20028005D082D00B70028005C089A
:102B30002D00B60028005B082D00B50028005A08BB
:102B40002D00B400883120002E229031F808031D9A
:102B5000B32D9A302300910001309200883120007B
:102B600045209031E62D28005D082D00B700280093
:102B70005C082D00B60028005B082D00B500280079
:102B80005A082D00B400BB01BA01B901B8012000F8
:102B90009A2128005D082E00C20028005C082E0043
:102BA000C10028005B082E00C00028005A082E0033
:102BB000BF00C601C501C401C3012330C800E33012
:102BC000C700CA014030C900200000200800AA3018
:102BD0002B00A40020085038A500220885002108F9
:102BE00084002308F8000319FD2D23308700763078
:102BF000860012001E00F80BF92D02302307B400E6
:102C000074303407B7002330B8000318B80A013015
:102C10003402B9002330C1007530C0003908C20049
:102C200088312000972790312B003808850037081D
:102C300084007808800001303407B5002330B800E4
:102C40007430B7003508B900BA0139083A020318E0
:102C50003A2E3A08370784000030383D85000008D6
:102C6000BC003C082000111E332E23009A002B00CC
:102C7000BA0A252E57302300910002309200883185
:102C80002000452090312B00BB0139083B0203187E
:102C9000632E3B08370784000030383D850000086C
:102CA000BC002C00EB003730EC0088312000A8235A
:102CB000903120302E00C300883120002020903138
:102CC0002B00BB0A452E0D302E00C300883120009A
:102CD000202090310A302E00C300883120002020AF
:102CE0009031080055302300910003309200883164
:102CF0002000452090312B002508840026088500FF
:102D0000003FA7002508840026088500013100083F
:102D1000B101B001AF01AE00B100AE01AF01B00131
:102D2000250884002608850002310008B601B50197
:102D3000B401B3003408FA003308F900F701F801D0
:102D40007708AE047808AF043308B0043408B1043F
:102D5000250884002608850003310008B601B50166
:102D6000B401B3003508FA003408F9003308F8005C
:102D7000F7017708AE043308AF043408B00435080F
:102D8000B1042508840026088500043FF700F801F7
:102D9000F901FA0177082E04A80078082F04A90089
:102DA00079083004AA007A083104AB0025088400B1
:102DB0002608850005310008AF01AE00AF00AE0166
:102DC0002508840026088500063FFA012E04AC0081
:102DD0007A082F04AD005F30230091000330920089
:102DE00003100C302C00EB00883120004E23903172
:102DF0002B0027082C00EB003730EC008831200036
:102E0000A82390310D302E00C300883120002020EF
:102E100090310A302E00C3008831200020209031EC
:102E20006930230091000330920003100E302C0013
:102E3000EB00883120004E2390312B002B082C0012
:102E4000EB003730EC0088312000A82390312B00B4
:102E50002A082C00EB003730EC0088312000A82332
:102E600090312B0029082C00EB003730EC00883122
:102E70002000A82390312B0028082C00EB003730CD
:102E8000EC0088312000A82390310D302E00C300C3
:102E900088312000202090310A302E00C300883174
:102EA00020002020903174302300910003309200E4
:102EB00003100E302C00EB00883120004E2390319F
:102EC0002B002D082C00EB003730EC00883120005F
:102ED000A82390312B002C082C00EB003730EC009D
:102EE00088312000A82390310D302E00C300883196
:102EF0002000202090310A302E00C30088312000AD
:102F0000202090312B0027082C00AF00B0012000BA
:102F10003B237F3023009100033092008831200052
:102F200045209031A831EB28EE302300910003308A
:102F3000920088312000452090312B002508840024
:102F400026088500003FA70027082C00AF00B0012D
:102F500020003B232B00AB01AA01A901A801AB086B
:102F6000031DDE2F2A08F43C031CDE2F031DBC2F9B
:102F70002908233C031CDE2F28005D082B00B1002C
:102F800028005C082B00B00028005B082B00AF0075
:102F900028005A082B00AE002B08B5002A08B40000
:102FA0002908B3002808B200983120002A22903165
:102FB00001302B00AA070030AB3DAF2FFA302300C1
:102FC0009100033092008831200045209031A831D3
:102FD000EB282D002108F80120020318F22F200809
:102FE000F700FE2FF7010830A200A00DF70D210811
:102FF00077020318F700F80DA20BF52F2000080048
:103000002B00A501A601A701A801A901AA01AB01F6
:10301000AC01AD01AE01AF01B001C230230091009F
:10302000013092008831200045209831D2302300B1
:1030300091000130920088312000452098312B000A
:10304000B1012408310203183F2831082207840007
:103050000030233D85000008BA002C00EB0037301B
:10306000EC0088312000A823983120302E00C300C6
:1030700088312000202098312B00B10A21280D3002
:103080002E00C30088312000202098310A302E0005
:10309000C30088312000202098312B002308BB007A
:1030A0002208BA002408BC00BD01BD0101303C0269
:1030B0003D0203186B283D083A07840000303B3D71
:1030C00085000008AA3C031D692801303D07F8006F
:1030D0009028BD0A56283D083A07840000303B3D41
:1030E00085000008AA3C031D8328E73023009100D7
:1030F000013092008831200045209831FF30F800DF
:103100002B0090289028F23023009100013092008B
:103110008831200045209831FF30F8002B0090289E
:103120007808B2003208FF3C031D9B28A530F80048
:103130000530F900272A32082207B3000030233D6A
:10314000B4003308840034088500003100080F39CA
:10315000B5003508BA00BB013B08023C031CCA2875
:1031600003103B0DC73E8400223085000318850AFA
:1031700000083A02031DC82803103B0D013EC73E5C
:103180008400223085000318850A0008F800F22820
:10319000BB0AAC28FB3023009100013092000310E1
:1031A0001F302C00EB00883120004E2398312B007B
:1031B0003A082C00EB003730EC0088312000A823BF
:1031C00098310D302E00C300883120002020983126
:1031D0000A302E00C3008831200020209831FF30B3
:1031E000F8002B007808B6003608FF3C031DFD28C8
:1031F000A530F8000530F900272A32082402B7006C
:103200003408BB003308BA003708BC0001303C0268
:103210003A07840000303B3D85000008BD000130C6
:103220003C02BF003B08C1003A08C0003F08C20092
:10323000883120009727983178082B00BE003E087F
:103240003D02031D27290130F8007E297E290D301B
:1032500023009100023092008831200045209831EF
:1032600016302300910002309200031013302C001E
:10327000EB00883120004E2398312B003D082C00B4
:10328000EB003730EC0088312000A82398310D3056
:103290002E00C30088312000202098310A302E00F3
:1032A000C300883120002020983122302300910073
:1032B00002309200031013302C00EB008831200004
:1032C0004E2398312B003E082C00EB003730EC00E9
:1032D00088312000A82398310D302E00C30088319A
:1032E0002000202098310A302E00C30088312000B1
:1032F000202098310030F8002B007E29F808031DAB
:103300008629A530F8000530F900272A3308840003
:103310003408850000310008F039F700770EBA0054
:103320000F30BA053A08BB003B080C3C031D9C2932
:103330000130F800F229F2292E30230091000230EA
:10334000920088312000452098313F3023009100C1
:1033500002309200031013302C00EB008831200063
:103360004E2398312B003B082C00EB003730EC004B
:1033700088312000A82398310D302E00C3008831F9
:103380002000202098310A302E00C3008831200010
:10339000202098314B30230091000230920003101E
:1033A00013302C00EB00883120004E2398310C3074
:1033B0002C00EB003730EC0088312000A823983136
:1033C0000D302E00C30088312000202098310A30B3
:1033D0002E00C30088312000202098310030F800F2
:1033E0002B00F229F808031DFA29A530F800053052
:1033F000F900272A3508A50001303307BA0000304C
:10340000343DBB0002303702BC003B0885003A085F
:1034100084003C08F8000319152A2330870078300F
:10342000860012001E00F80B112A02303702A60097
:103430002714D930230091000130920088312000F8
:1034400045209831A530F8000530F9002B00B8313F
:103450002000F1282B00AF08031DE52A0630B60036
:10346000D830B7003408C4003508C500C601C7010C
:10347000F801F901FA014408B8003308C40034081F
:10348000C5003508C600C701F801F901FA01440872
:10349000B900F801F901FA013208BA0030082E002B
:1034A000DD00DE010130E000DF0188312000042171
:1034B00098312B0030082E00DD00DE01E001803065
:1034C000DF0088312000042198312B0031082E00C4
:1034D000DA002B0030082E00D9002B002F082E0018
:1034E000D8002B002E082E00D7002330DC008630B9
:1034F000DB00DE010130DD00883120003F269831FD
:103500002B0030082E00DD000130DE00E000DF017E
:1035100088312000042198312B0030082E00DD0076
:10352000DE01E0018030DF00883120000421983185
:103530002B0030082E00DD00DE010130E000DF014D
:1035400088312000042198312B0030082E00DD0046
:10355000DE01E0018030DF00883120000421983155
:103560002B0031082E00DA002B0030082E00D90085
:103570002B002F082E00D8002B002E082E00D7007D
:103580002330DC008730DB00DE010430DD008831D1
:1035900020003F2698312B0030082E00DD0001303E
:1035A000DE00E000DF0188312000042198312B008B
:1035B00030082E00DD00DE01E0018030DF008831C0
:1035C000200004219831A62B2B002F0BA72B0630AF
:1035D000BB00DC30BC003508C400C501C601C70112
:1035E000F801F901FA014408BD003408C4003508A7
:1035F000C500C601C701F801F901FA014408BE007F
:103600003308C4003408C5003508C600C701F801F6
:10361000F901FA014408BF00F801F901FA01320882
:10362000C00030082E00DD00DE010130E000DF01C7
:1036300088312000042198312B0030082E00DD0055
:10364000DE01E0018030DF00883120000421983164
:103650002B0031082E00DA002B0030082E00D90094
:103660002B002F082E00D8002B002E082E00D7008C
:103670002330DC008B30DB00DE010130DD008831DF
:1036800020003F2698312B0030082E00DD0001304D
:10369000DE00E000DF0188312000042198312B009A
:1036A00030082E00DD00DE01E0018030DF008831CF
:1036B0002000042198312B0030082E00DD00DE01AF
:1036C0000130E000DF0188312000042198312B0017
:1036D00030082E00DD00DE01E0018030DF0088319F
:1036E0002000042198312B0031082E00DA002B0035
:1036F00030082E00D9002B002F082E00D8002B00F8
:103700002E082E00D7002330DC008C30DB00DE01D9
:103710000530DD00883120003F2698312B0030082D
:103720002E00DD000130DE00E000DF0188312000E6
:10373000042198312B0030082E00DD00DE01E0016D
:103740008030DF0088312000042198312B00C10136
:1037500031082E00DA002B0030082E00D9002B0093
:103760002F082E00D8002B002E082E00D7008831FD
:1037700020003B27983178080139013C031DDF2BDD
:103780002B0041080A3C0318CE2BC8302E00D7006E
:103790008831200081279831D52B2B000A302E004C
:1037A000D70088312000812798312B004108643CE4
:1037B0000318DD2B2000DF2B2B00C10AA82B2000D3
:1037C0000800053023009100043092008831200069
:1037D000452098312B0025088400260885000031FB
:1037E0000008A7002508840026088500013100088C
:1037F000B101B001AF01AE00B100AE01AF01B00147
:10380000250884002608850002310008B601B501AC
:10381000B401B3003408FA003308F900F701F801E5
:103820007708AE047808AF043308B0043408B10454
:10383000250884002608850003310008B601B5017B
:10384000B401B3003508FA003408F9003308F80071
:10385000F7017708AE043308AF043408B004350824
:10386000B1042508840026088500043FF700F8010C
:10387000F901FA0177082E04A80078082F04A9009E
:1038800079083004AA007A083104AB001430230010
:10389000910004309200031013302C00EB008831AB
:1038A00020004E2398312B002B082C00EB003730E2
:1038B000EC0088312000A82398312B002A082C0026
:1038C000EB003730EC0088312000A82398312B0022
:1038D00029082C00EB003730EC0088312000A823A9
:1038E00098312B0028082C00EB003730EC00883191
:1038F0002000A82398310D302E00C300883120000D
:10390000202098310A302E00C3008831200020206A
:1039100098312B0027082C00AF00B0019031200017
:103920003B23983128005D082B00B10028005C087B
:103930002B00B00028005B082B00AF0028005A08BD
:103940002B00AE002B08B5002A08B4002908B300EC
:103950002808B20020002A222230230091000430DF
:1039600092008831200045209831A831EB28303072
:1039700023009100043092008831200045209831C6
:103980002B00250884002608850000310008A700C8
:10399000250884002608850001310008B101B00126
:1039A000AF01AE00B100AE01AF01B0012508840047
:1039B0002608850002310008B601B501B401B30044
:1039C0003408FA003308F900F701F8017708AE046B
:1039D0007808AF043308B0043408B1042508840023
:1039E0002608850003310008B601B501B401B30013
:1039F0003508FA003408F9003308F800F7017708B1
:103A0000AE043308AF043408B0043508B104250807
:103A1000840026088500043FF700F801F901FA0147
:103A200077082E04A80078082F04A900790830042C
:103A3000AA007A083104AB003E3023009100043024
:103A40009200031016302C00EB00883120004E232A
:103A500098312B002B082C00EB003730EC0088311C
:103A60002000A82398312B002A082C00EB003730C7
:103A7000EC0088312000A82398312B0029082C0065
:103A8000EB003730EC0088312000A82398312B0060
:103A900028082C00EB003730EC0088312000A823E8
:103AA00098310D302E00C30088312000202098313D
:103AB0000A302E00C30088312000202098312B00CE
:103AC00027082C00AF00B001903120003B23983133
:103AD00028005D082D00B70028005C082D00B60006
:103AE00028005B082D00B50028005A082D00B400FE
:103AF000BB01BA01B901B801903120009A21983177
:103B00004D30230091000430920088312000452080
:103B10009831A831EB285A302300910004309200EC
:103B200088312000452098312B00A701A801A90168
:103B3000AA01AB01AC01AD0125088400260885006F
:103B4000003FA700250884002608850001310008F1
:103B50002C00B101B001AF01AE00B100AE01AF0168
:103B6000B0012B00250884002608850002310008DA
:103B70002C00B601B501B401B3003408FA003308D3
:103B8000F900F701F8017708AE047808AF043308AC
:103B9000B0043408B1042B002508840026088500F1
:103BA000033100082C00B601B501B401B30035089B
:103BB000FA003408F9003308F800F7017708AE047A
:103BC0003308AF043408B0043508B1042B002508CD
:103BD000840026088500043FF700F801F901FA0186
:103BE00077082C002E042B00A80078082C002F0446
:103BF0002B00A90079082C0030042B00AA007A08B9
:103C00002C0031042B00AB00250884002608850019
:103C1000073100082C00AF01AE00AF00AE012B0051
:103C20002508840026088500083FFA012C002E0490
:103C30002B00AC007A082C002F042B00AD0067305D
:103C4000230091000430920003100C302C00EB0094
:103C5000883120004E2398312B0027082C00EB00E0
:103C60003730EC0088312000A82398310D302E0029
:103C7000C30088312000202098310A302E00C30074
:103C800088312000202098317130230091000430C9
:103C9000920003100E302C00EB00883120004E23E0
:103CA00098312B002B082C00EB003730EC008831CA
:103CB0002000A82398312B002A082C00EB00373075
:103CC000EC0088312000A82398312B0029082C0013
:103CD000EB003730EC0088312000A82398312B000E
:103CE00028082C00EB003730EC0088312000A82396
:103CF00098310D302E00C3008831200020209831EB
:103D00000A302E00C30088312000202098317C30FA
:103D1000230091000430920003100E302C00EB00C1
:103D2000883120004E2398312B002D082C00EB0009
:103D30003730EC0088312000A82398312B002C0864
:103D40002C00EB003730EC0088312000A82398319C
:103D50000D302E00C30088312000202098310A3019
:103D60002E00C30088312000202098312B00270826
:103D70002C00AF00B001903120003B2398318730F8
:103D800023009100043092008831200045209831B2
:103D90002B00EF01EE016F082D02031C6B2F031D9A
:103DA000D52E2C086E0203186B2F6E0D2C00A00070
:103DB0002B006F0D2C00A100A00DA10DA00DA10DD9
:103DC000A00DA10DA00DA10DA00DA10DC030A0054D
:103DD000A20122083F3C031C172F7E3022078400DB
:103DE000233085000318850A22082007B000003020
:103DF000213DB100FA01300880007E3022078400A6
:103E0000233085000318850A0008AE00EB00373028
:103E1000EC0088312000A823983120302E00C30008
:103E200088312000202098312C00A20AE92E2B0096
:103E30006E0DF9006F0DFA00F90DFA0DF90DFA0D7E
:103E4000F90DFA0DF90DFA0DF90DFA0DC030F9055D
:103E5000790828072C00A3007A082B00293D2C00A4
:103E6000A40000302B002A3D2C00A50000302B00C0
:103E70002B3D2C00A60028005D082E00C200280063
:103E80005C082E00C10028005B082E00C00028003E
:103E90005A082E00BF002C0026082E00C6002C0059
:103EA00025082E00C5002C0024082E00C4002C007C
:103EB00023082E00C3002330C8007E30C700CA018B
:103EC0004030C90090312000002098312B00EE0ACC
:103ED0000319EF0ACB2E0D302E00C30088312000CD
:103EE000202098310A302E00C30088312000202085
:103EF00098318E30230091000430920088312000E8
:103F000045209831A831EB2878082C0055082D0061
:103F1000A0006430A10090312000E9279831770893
:103F20002C00D50078083030031D9D2FD61CA92FFA
:103F3000D619A92F561A2030A02FD6115612561472
:103F4000F80778082E00C30088312000202098311F
:103F50002C0055082D00A0000A30A100903120004F
:103F6000E927983177082C00D50078083030031DF8
:103F7000BF2FD619C82F561CC82F561A2030F80745
:103F800078082E00C30088312000202098312C00B2
:103F90003030D50755082E00C3008831200020207E
:103FA0009831080003302B00A0002030A200093017
:103FB000A1000430A30090312000E7259831A03102
:023FC000C52F0B
:104000009A3023009100043092008831200045202E
:10401000A03128005D082E00C20028005C082E0098
:10402000C10028005B082E00C00028005A082E009E
:10403000BF0088312000E027A0312B00AA01A90190
:10404000A801A7010130AB000230AC000330AD0085
:104050000430AE00AF01B001B101B201B301B4014F
:10406000B501B601B701B801B901BA01BB01BC0184
:10407000BD01BE01BF01C001C101C201C301C40134
:10408000C501C601C701C801C901CA01CB01CC01E4
:10409000CD01CE01CF01D001D101D201D301D40194
:1040A000D501D601D701D801D901DA01DB01DC0144
:1040B000DD01DE01DF01E001E101E201E301E401F4
:1040C000E501E601E701E801E901EA01EB01EC01A4
:1040D000ED01EE01EF012C00A001A101A201A3015D
:1040E000A401A501A601A701A801A901AA01AB018C
:1040F000AC01AD01AE01AF01B001B101B201B3013C
:10410000B401B501B601B701B801B901BA01BB01EB
:10411000BC01BD01BE01BF01C001C101C201C3019B
:10412000C401C501C601C701C801C901CA01CB014B
:10413000CC01CD01CE01CF01D001D101D201D301FB
:10414000D401D501D601D701D801D901DA01DB01AB
:10415000DC01DD01DE01DF01E001E101E201E3015B
:10416000E401E501E601E701E801E901EA01EB010B
:10417000EC01ED01EE01EF012D00A001A101A20172
:10418000A301A401A501A601A701A801A901AA01F3
:10419000AB01AC01AD01AE01AF01B001B101B201A3
:1041A000B301B401B501B601B701B801B901BA0153
:1041B000BB01BC01BD01BE01BF01C001C101C20103
:1041C000C301C401C501C601C701C801C901CA01B3
:1041D000CB01CC01CD01CE01CF01D001D101D20163
:1041E000D301D401D501D601D701D801D901DA0113
:1041F000DB01DC01DD01DE01DF01E001E101E201C3
:10420000E301E401E501E601E701E801E901EA0172
:10421000EB01EC01ED01EE01EF012E00A001A10187
:10422000A201A301A401A501A601A701A801A9015A
:10423000AA01AB01AC01AD01AE01AF01B001B1010A
:10424000B201B301B401B501B601B701B801B901BA
:10425000BA0128005D082E00C20028005C082E006C
:10426000C10028005B082E00C00028005A082E005C
:10427000BF002B002A082E00C6002B0029082E00A4
:10428000C5002B0028082E00C4002B0027082E0094
:10429000C3002330C8007B30C7000130CA00C90109
:1042A000903120000020A031AD3023009100043077
:1042B0009200883120004520A031A831EB28BF3082
:1042C0002300910004309200883120004520A03165
:1042D0002B00A701A801A901AA01AB01AC01AD0106
:1042E0002508840026088500003FA70025088400D3
:1042F00026088500013100082C00B101B001AF0192
:10430000AE00B100AE01AF01B0012B002508840062
:1043100026088500023100082C00B601B501B40161
:10432000B3003408FA003308F900F701F801770800
:10433000AE047808AF043308B0043408B1042B008D
:104340002508840026088500033100082C00B601EA
:10435000B501B401B3003508FA003408F900330898
:10436000F800F7017708AE043308AF043408B0044E
:104370003508B1042B002508840026088500043F79
:10438000F700F801F901FA0177082C002E042B0040
:10439000AA0078082C002F042B00AB0079082C0011
:1043A00030042B00AC007A082C0031042B00AD0047
:1043B0002508840026088500073100082C00AF017D
:1043C000AE00AF00AE012B00250884002608850052
:1043D000083FFA012C002E042B00A8007A082C00BC
:1043E0002F042B00A900C930230091000430920053
:1043F00003100C302C00EB00883120004E23A0313C
:104400002B0027082C00EB003730EC00883120000F
:10441000A823A0310D302E00C300883120002020B9
:10442000A0310A302E00C300883120002020A031A6
:10443000D330230091000430920003100E302C0082
:10444000EB00883120004E23A0312B002D082C00DA
:10445000EB003730EC0088312000A823A0312B007E
:104460002C082C00EB003730EC0088312000A8230A
:10447000A0312B002B082C00EB003730EC008831EA
:104480002000A823A0312B002A082C00EB00373095
:10449000EC0088312000A823A0310D302E00C3008D
:1044A000883120002020A0310A302E00C30088313E
:1044B00020002020A031DE30230091000430920043
:1044C00003100E302C00EB00883120004E23A03169
:1044D0002B0029082C00EB003730EC00883120003D
:1044E000A823A0312B0028082C00EB003730EC006B
:1044F00088312000A823A0310D302E00C300883160
:1045000020002020A0310A302E00C3008831200076
:104510002020A0312B0027082C00AF00B0019031E3
:1045200020003B23A0312B00AE01AF01B001B1014F
:10453000B201B301B401B501B601B701B801B901C7
:10454000BA01BB01BC01BD01BE01BF01C001C10177
:10455000C201C301C401C501C601C701C801C90127
:10456000CA01CB01CC01CD01CE01CF01D001D101D7
:10457000D201D301D401D501D601D701D801D90187
:10458000DA01DB01DC01DD01DE01DF01E001E10137
:10459000E201E301E401E501E601E701E801E901E7
:1045A000EA01EB01EC01ED01E93023009100043058
:1045B0009200883120004520A03128005D082D00A0
:1045C000B70028005C082D00B60028005B082D000D
:1045D000B50028005A082D00B400883120002E2292
:1045E000A031F808031DFE2AEF30230091000430AB
:1045F0009200883120004520A031BA2B2C00A70161
:10460000A601A501A401A708031DB12BA608031D3F
:10461000B12B25082B0029020318102B2C00B12BDD
:10462000031D182B28082C0024020318B12B2B0083
:104630002C00240DF700250DF800260DF900270D9C
:10464000FA00F70DF80DF90DFA0DF70DF80DF90D4B
:10465000FA0DF70DF80DF90DFA0DF70DF80DF90D2E
:10466000FA0DF70DF80DF90DFA0DC030F7057708C2
:104670002B002A072C00A00078082B002B3D2C00D3
:10468000A10079082B002C3D2C00A2007A082B00F9
:104690002D3D2C00A30028005D082E00C20028003C
:1046A0005C082E00C10028005B082E00C000280016
:1046B0005A082E00BF002C0023082E00C6002C0034
:1046C00022082E00C5002C0021082E00C4002C005A
:1046D00020082E00C3002330C8007E30C700CC0164
:1046E000CB01CA014030C900883120008722A031A7
:1046F0002B00EE016E083F3C031C992B7E306E07A9
:104700008400233085000318850A00082C00AE00C1
:10471000EB003730EC0088312000A823A031203096
:104720002E00C300883120002020A0312B00EE0A8B
:104730007A2B0D302E00C300883120002020A031BC
:104740000A302E00C300883120002020A031013023
:104750002C00A4070318A50A0319A60A0319A70A1F
:10476000032B003023009100053092008831200097
:104770004520A031A831EB280930230091000530F5
:104780009200883120004520A03128005D082E00CD
:10479000C20028005C082E00C10028005B082E0023
:1047A000C00028005A082E00BF0088312000E027F2
:1047B000A0312B00AA01A901A801A70128005D08CA
:1047C0002E00C20028005C082E00C10028005B08F3
:1047D0002E00C00028005A082E00BF002B002A0817
:1047E0002E00C6002B0029082E00C5002B0028082B
:1047F0002E00C4002B0027082E00C3002330C80061
:104800007B30C700CC01CB01CA010430C90088311C
:1048100020008722A031173023009100053092003C
:1048200003100B302C00EB00883120004E23A03108
:104830002B002B082C00EB003730EC0088312000D7
:10484000A823A03120302E00C30088312000202072
:10485000A0312B002C082C00EB003730EC00883105
:104860002000A823A03120302E00C3008831200072
:104870002020A0312B002D082C00EB003730EC005D
:1048800088312000A823A03120302E00C3008831B9
:1048900020002020A0312B002E082C00EB00373008
:1048A000EC0088312000A823A0310D302E00C30079
:1048B000883120002020A0310A302E00C30088312A
:1048C00020002020A03128302300910005309200E4
:1048D000883120004520A031A831EB283530230055
:1048E000910005309200883120004520A031280039
:1048F0005D082E00C20028005C082E00C1002800C0
:104900005B082E00C00028005A082E00BF00883126
:104910002000E027A031280061082E00C2002800F6
:1049200060082E00C10028005F082E00C00028008B
:104930005E082E00BF0088312000E027A0312B0048
:10494000AA01A901A801A701AE01AD011030AC0078
:10495000AB0128005D082E00C20028005C082E0074
:10496000C10028005B082E00C00028005A082E0055
:10497000BF002B002A082E00C6002B0029082E009D
:10498000C5002B0028082E00C4002B0027082E008D
:10499000C3002330C8007F30C700CC01CB010130F9
:1049A000CA00C901883120008722A031280061088F
:1049B0002E00C200280060082E00C10028005F08F9
:1049C0002E00C00028005E082E00BF002B002E081D
:1049D0002E00C6002B002D082E00C5002B002C0831
:1049E0002E00C4002B002B082E00C3002330C8006B
:1049F0007F30C7000130CA00C9019031200000207B
:104A0000A031413023009100053092008831200010
:104A10004520A031A831EB288130230091000530DA
:104A20009200883120004520A0312B00A701A80169
:104A3000A901AA01AB01AC01AD01AE01AF01B0010A
:104A4000B101B201B301B401B501B601B701B801BA
:104A5000B901BA01BB01BC01BD01BE01BF01C0016A
:104A6000C101C201C301C401C501C601C701C8011A
:104A7000C901CA01CB01CC01CD01CE01CF01D001CA
:104A8000D101D201D301D401D501D601D701D8017A
:104A9000D901DA01DB01DC01DD01DE01DF01E0012A
:104AA000E101E201E301E401E501E60128005D081E
:104AB0002E00C20028005C082E00C10028005B0800
:104AC0002E00C00028005A082E00BF00C601C501F4
:104AD000C401C3012330C8007730C700CA01403089
:104AE000C900903120000020A0318831CF23A031AF
:104AF0002B00250884002608850000310008E70007
:104B00002C00AF00B001903120003B23A0318F304A
:104B10002300910005309200883120004520A0310B
:104B2000A831EB282B003108B5003008B400340858
:104B30000139F700FA012800621377186217031091
:104B40002B00350CB700340CB6000139F700FA0120
:104B50002800E2137718E2172B00350CB700340C4D
:104B6000B600B70CB60C3F30B70536080139F70070
:104B7000FA0128006310771863142B00350CB70076
:104B8000340CB600B70CB60CB70CB60C1F30B7051A
:104B900036080139F700FA012800E3107718E3140A
:104BA0002B00B40134080139F8002800621278188B
:104BB000621603102B00340C0139F8002800E212B1
:104BC0007818E2162B00B301B2013208F80033085E
:104BD000F900200008008318F02D2430850084009F
:104BE000F701F801F901FA012D00B401B501B60190
:104BF000B7012F082E042D042C0403192F2E20306A
:104C0000B8000310A80DA90DAA0DAB0DB40DB50D7C
:104C1000B60DB70D2F083702031D182E2E083602C9
:104C2000031D182E2D083502031D182E2C083402E2
:104C3000031C292E2C08B4022D08031C2D0FB502CD
:104C40002E08031C2E0FB6022F08031C2F0FB702CD
:104C50000314F70DF80DF90DFA0DB80B012E3408F9
:104C600080003508813F3608823F3708833F2000A7
:104C70000800A23023009100033092008831200008
:104C80004520A03164302B00A500A93023009100FD
:104C90000330920003100E302C00EB00883120000E
:104CA0004E23A0312B0025082C00D5001B30D60048
:104CB000983120008427A0310D302E00C3008831A8
:104CC00020002020A0310A302E00C30088312000AF
:104CD0002020A03121000E1022000E142030F800F8
:104CE00021001D08833978049D000F30F8001F084B
:104CF000F03978049F000D30F700F70B7D2E2B0064
:104D0000B101B0012000922579082800BB00780885
:104D1000BA000C30F80021001D08833978049D008A
:104D20000F30F8001F08F03978049F000D30F700AD
:104D3000F70B982E2B00B101B001200092257908C5
:104D40002800BD007808BC000030F80021001D08D4
:104D5000833978049D000F30F8001F08F03978047B
:104D60009F000D30F700F70BB32E2B00AB01AA010B
:104D7000AB08031D612F25082A020318612F2A089A
:104D8000220099008530F700F70BC42E0030F800A0
:104D900021001D08833978049D000F30F8001F089A
:104DA000F03978049F000D30F700F70BD52E031073
:104DB0002B002A0DAE002B0DAF0003102E0DF900B5
:104DC0002F0DFA0079083A3EF8002030FA3D7808B5
:104DD000AE007A08AF00B101B001200092252B008F
:104DE0002F0885002E088400780880007908813F0C
:104DF0000430F80021001D08833978049D000F302D
:104E0000F8001F08F03978049F002B00A901A801C1
:104E1000A701A601AC012C08093C031C212F0D3071
:104E2000F700F70B112FB101B0012000922578088F
:104E30002B00A6077908A73D0030A83DA93DAC0A84
:104E40000B2F831029082D00AB002B0028082D0004
:104E5000AA002B0027082D00A9002B0026082D00F2
:104E6000A800AF01AE01AD010A30AC002000EB2577
:104E70007A082B00A9007908A8007808A70077080D
:104E8000A6000D30F700F70B432F03102A0DAE00DC
:104E90002B0DAF000130AE070030AF3D03102E0DDB
:104EA000F9002F0DFA0079083A3E840020307A3D4F
:104EB0008500260880002708813FAA0A0319AB0A4B
:104EC000B82EB330230091000330920088312000C7
:104ED0004520A0310030F80021001D0883397804F6
:104EE0009D000F30F8001F08F03978049F000E1065
:104EF00022000E102000080000302300910007302F
:104F00009200883120004520A0310B302300910011
:104F100007309200883120004520A0318831D52704
:104F2000A0310230A90003302A006E072B00A00038
:104F300000302A006F3D2B00A100A3002008A20032
:104F4000A83120000028A0318831F327A031F808CB
:104F50000319AD2F0630A900AF2F0430A900B031DE
:104F6000E92E18302300910007309200883120008C
:104F70004520A03122302300910007309200883173
:104F800020004520A0319831D22FA0312908063CBD
:104F9000031DD72F31302300910007309200883154
:104FA00020004520A0310130F800D92FD92F003042
:064FB000F800B031D82E1C
:105000002B002208840023088500003FA40098306C
:105010002300910006309200883120004520A831FD
:10502000BB30230091000630920003100C302C009E
:10503000EB00883120004E23A8312B0024082C00DF
:10504000EB003730EC0088312000A823A831C230B3
:105050002300910006309200031004302C00EB0076
:10506000883120004E23A8312B002408003A20006C
:1050700003196B28103A03197528113A0319762879
:10508000033A03197728923A03197828013A031949
:105090008228033A03198C28013A03199628073A03
:1050A0000319A028023A0319AA28013A0319B428BF
:1050B0000D3A0319BE28053A0319C828EE3A031918
:1050C000D228033A0319D628013A0319DA28033AF9
:1050D0000319DE28E2282B002308A6002208A500D9
:1050E00090312000722EA831EB28EB28EB28EB281A
:1050F0002B002308A6002208A50090312000942F41
:10510000A831EB282B002308A6002208A50098311F
:105110002000E12BA831EB282B002308A600220851
:10512000A50098312000B72CA831EB282B002308CC
:10513000A6002208A500983120008B2DA831EB286D
:105140002B002308A6002208A500A031200000287B
:10515000A831EB282B002308A6002208A500A031C7
:1051600020005F29A831EB282B002308A600220885
:10517000A500A0312000BC2BA831EB282B00230870
:10518000A6002208A500A03120006E2CA831EB2833
:105190002B002308A6002208A500A03120000C2D1A
:1051A000A831EB28A0313926A831EB28A0313926C7
:1051B000A831EB28A0313926A831EB28A0313926B7
:1051C000A831EB28C53023009100063092008831C9
:1051D00020004520A831D1302300910006309200F4
:1051E000883120004520A831A031A32F20302C0089
:1051F000691E3030EC006808F700E81F0729F7093E
:10520000F70A7708E8002D30EC00E9176914680800
:105210002D00A0006430A10090312000E927A831C2
:1052200077082C00E80030307807ED0068082D0082
:10523000A0000A30A10090312000E927A8313030C9
:1052400077072C00EF0030307807EE006C08F7008D
:1052500030306D0203193029E914E91B691544291E
:105260006C08ED002030EC0030306E0203193C2950
:105270006914E91BE9144429031D6914031D442919
:105280006D08EE002030ED0069194B29E91853290B
:1052900069185B2963296C082E00C300883120003F
:1052A0002020A8312C006D082E00C300883120007A
:1052B0002020A8312C006E082E00C3008831200069
:1052C0002020A8312C006F082E00C3008831200058
:1052D0002020A83108002A005E085D02031D7F29F6
:1052E000483023009100033092008831200045208F
:1052F000A8310030F800F900BA29BA292A005D085F
:105300002C00C40001302A005D070F39DD002C009D
:105310004408C5000930C600F701F801450803102C
:105320004618F707F70CF80CC618F707F70CF80C37
:105330004619F707F70CF80CC619F707F70CF80C25
:10534000461AF707F70CF80CC61AF707F70CF80C13
:10535000461BF707F70CF80CC61BF707F70CF80C01
:105360007808CD3EF8002230FA000318FA0A7A08CD
:10537000F9002000B0318C2D2C00ED01EE01EF0181
:105380002D00A001A101A201A301A401A5012C00EF
:10539000EC08031DE02902302D00A00040302C0055
:1053A000EF00EE01ED0102302D00A4005030A3000B
:1053B0000F30A200FF30A1008030A500392A2C0058
:1053C0006C0BF82902302D00A00050302C00EF00AB
:1053D0001030EE00ED0102302D00A4005030A3008B
:1053E0001F30A200FF30A1008130A500392A2C0017
:1053F0006C08023C031D122A02302D00A000503020
:105400002C00EF006030EE00ED0102302D00A40012
:105410005130A3006F30A200FF30A1008330A500FF
:10542000392A2C006C08033C031D2C2A02302D0065
:10543000A00051302C00EF007030EE00ED01023082
:105440002D00A4005130A3007F30A200FF30A10046
:105450008430A500392A2C00FF302D00A0002C003C
:10546000EF00EE00ED002D00A400A300A200A100BB
:10547000A5006D30F8000630F900A8312000B62BE9
:1054800004082D00A0003B30A7009A30A600CA30C7
:10549000A500A4010A30A2008314243085000B303B
:1054A00084002C006E082D00AB002C006D082D0030
:1054B000AA002C006C082D00A9002C006B082D0000
:1054C000A8002708AF002608AE002508AD00240874
:1054D000AC00A0312000EB25A8317808F708031DA7
:1054E000882A2D002208013A031D782A2000882AE4
:1054F000200803198A2A0F3922020319812A031866
:10550000942AA01B942A201B8A2A20308B2A200050
:105510002D00A0013030F70777082E00C300883136
:1055200020002020A8312D0083102708AB0026087A
:10553000AA002508A9002408A800AF01AE01AD010A
:105540000A30AC00A0312000EB25A8317A082D00EC
:10555000A7007908A6007808A5007708A400A20B88
:105560004C2A200008002C00EA08031D272B0330DA
:105570002D00A400B201B301F801F901FA012208DB
:10558000A500B301F801F901FA012108A600F8010C
:10559000F901FA012008A7002C006B082E00DD009D
:1055A000DE010130E000DF01883120000421A83154
:1055B0002C006B082E00DD00DE01E0018030DF00F2
:1055C000883120000421A8312C006C082E00E00056
:1055D0002C006B082E00DF002C006A082E00DE0075
:1055E0002C0069082E00DD002430E2001430E100B8
:1055F000E4010430E3002430E6000D30E500EA0168
:10560000E901E8010130E700883120004021A8319C
:105610000230F700F70B0A2B00002C006B082E005D
:10562000DD000130DE00E000DF01883120000421D0
:10563000A8312C006B082E00DD00DE01E001803077
:10564000DF00883120000421A8319F2B2C006A0B39
:10565000A02B13302D00A800B101B201B301F80155
:10566000F901FA012308A900B201B301F801F90117
:10567000FA012208AA00B301F801F901FA01210890
:10568000AB00F801F901FA012008AC002C006B080E
:105690002E00DD00DE010130E000DF018831200056
:1056A0000421A8312C006B082E00DD00DE01E00192
:1056B0008030DF00883120000421A8312C006C08E4
:1056C0002E00E0002C006B082E00DF002C006A0882
:1056D0002E00DE002C0069082E00DD002430E200E0
:1056E0001830E100E4010530E3002430E6000D301D
:1056F000E500EA01E901E8010130E7008831200016
:105700004021A8310230F700F70B842B00002C0059
:105710006B082E00DD000130DE00E000DF01883183
:1057200020000421A8312C006B082E00DD00DE01D2
:10573000E0018030DF00883120000421A8312C00F6
:105740006D08F800A8312000512E2C004708FA00FF
:105750004608E3007A08E400440884004508850010
:1057600000310008E500EC002000BC297908FA00AF
:10577000780884007A0885000930F8002C00640855
:1057800087006308860012001E00F80BC32B49082F
:10579000FA007A08E40046088400470885000031D2
:1057A0000008F70001310008F80001310008F90095
:1057B00001310008FA003D317A08E8007908E70075
:1057C0007808E6007708E50064088500480884004A
:1057D000650880006608813F6708823F6808833F4C
:1057E000460884004708850004310008F7000131AD
:1057F0000008F80001310008F90001310008FA0042
:105800003D317A08E8007908E7007808E600770873
:10581000E5004B0885004A0884006508800066089A
:10582000813F6708823F6808833F44088400450839
:10583000850001310008F70001310008F80001314E
:105840000008F90001310008FA003D317A08E8004B
:105850007908E7007808E6007708E5004D0885003C
:105860004C088400650880006608813F6708823F15
:105870006808833F44088400450885000531000816
:10588000F70001310008F80001310008F90001318A
:105890000008FA003D317A08E8007908E700780846
:1058A000E6007708E5004F0885004E08840065088B
:1058B00080006608813F6708823F6808833F490887
:1058C000FA0048088400490885000008E300013117
:1058D0000008E40001310008E50001310008E6009D
:1058E0003D31DD302300910005309200031025305A
:1058F0002C00EB00883120004E23A8312C006608D4
:10590000EB003730EC0088312000A823A8312C00B0
:105910006508EB003730EC0088312000A823A8315F
:105920002C006408EB003730EC0088312000A823FD
:10593000A8312C006308EB003730EC0088312000E0
:10594000A823A8310D302E00C3008831200020206C
:10595000A8310A302E00C300883120002020A83151
:105960002C004B08FA004A0884004B088500000808
:10597000E30001310008E40001310008E5000131D5
:105980000008E6003D31F33023009100053092001D
:10599000031025302C00EB00883120004E23A83165
:1059A0002C006608EB003730EC0088312000A8237B
:1059B000A8312C006508EB003730EC00883120005E
:1059C000A823A8312C006408EB003730EC008831A4
:1059D0002000A823A8312C006308EB003730EC002E
:1059E00088312000A823A8310D302E00C300883153
:1059F00020002020A8310A302E00C300883120006A
:105A00002020A8312C004D08FA004C0884004D08D5
:105A100085000008E30001310008E40001310008BE
:105A2000E50001310008E6003D3109302300910016
:105A300006309200031025302C00EB008831200046
:105A40004E23A8312C006608EB003730EC0088317B
:105A50002000A823A8312C006508EB003730EC00AB
:105A600088312000A823A8312C006408EB003730CF
:105A7000EC0088312000A823A8312C006308EB003B
:105A80003730EC0088312000A823A8310D302E00DB
:105A9000C300883120002020A8310A302E00C30026
:105AA000883120002020A8312C004F08FA004E0831
:105AB00084004F0885000008E30001310008E4007D
:105AC00001310008E50001310008E6003D311F30DA
:105AD0002300910006309200031025302C00EB00CB
:105AE000883120004E23A831413084002C00660804
:105AF000EE006508ED006408EC006308EB00200090
:105B0000402233302300910006309200031004300D
:105B10002C00EB00883120004E23A8312C004908CE
:105B2000FA0048088400490885000008E3000131B4
:105B30000008E40001310008E50001310008E6003A
:105B40003D31280061082E00C200280060082E00A8
:105B5000C10028005F082E00C00028005E082E004B
:105B6000BF002C0066082E00C6002C0065082E0021
