:06000000B031962900005A
:0800080083018031200077081C
:10001000A0007808A1007908A2007A08A3002300B4
:1000200011082000A400230012082000A5002300CE
:1000300013082000A600230014082000A700850153
:1000400091308400001C2628111846288501913023
:100050008400801E2D28911A48282008F7002108C6
:10006000F8002208F9002308FA0024082300910070
:10007000200025082300920020002608230093007A
:1000800020002708230094000900200080314A281E
:1000900080316B2896018030970012309600000066
:1000A0000130B1070318B20A0319B30A0319B40ADD
:1000B000111080312D28D434ED3272104937693A4D
:1000C000E930EC34FA320D0500008921EF36703644
:1000D000653AE5060A006E28281C812859081F3C4D
:1000E000031C81285908D90A1F39193E8400203081
:1000F00085000318850A911E7B28230019088000BB
:100100002000911280312D28D520522AA024EE34CF
:10011000F4346136693DE5060A008921EF36703610
:10012000653AE5060A00CD24D329C9274E10462694
:10013000C12948104937693AE930EC34FA320D05E3
:1001400000010923EC307334A0347310EE377410BF
:10015000E3376E37E531F432E4060A0089294D238E
:100160002010D0244326CF23A02AF332A021EF3A37
:100170006E3A65392010201020103A10303C2518B6
:100180003826D8060A0089294D232010D02443267A
:10019000CF232026EF377010C3377537F432721033
:1001A000201020103A10303C2518322C0D0500018B
:1001B00089294D232010CD22C1292010A02AF332F5
:1001C000A021EF3A6E3A65392010201020103A1025
:1001D000303C25183826D8060A0089294D232010DE
:1001E000CD22C12920102026EF377010C337753774
:1001F000F4327210201020103A10303C2518322CA6
:100200000D0500018926C9294610D0244326CF2395
:10021000A02AF332A021EF3A6E3A6539201020105F
:1002200020103A10303C25183826D8060A008926B6
:10023000C9294610D0244326CF23A02AEE316F3897
:10024000F9326410C3377537F43272103A10303C0B
:1002500025183826D8060A008926C9294610D02430
:100260004326CF232026EF377010C3377537F4327B
:100270007210201020103A10303C2518322C0D0539
:1002800000018926C9294610D0244326CF23A02B5C
:10029000F234F432A021EF3A6E3A65392010201082
:1002A0003A10303C2518322C0D0500018926C92949
:1002B0004610CD22C1292010A02AF332A021EF3A06
:1002C0006E3A65392010201020103A10303C251865
:1002D0003826D8060A008926C9294610CD22C12908
:1002E0002010A02AEE316F38F9326410C337753709
:1002F000F43272103A10303C25183826D8060A001D
:100300008926C9294610CD22C12920102026EF3781
:100310007010C3377537F4327210201020103A1065
:10032000303C2518322C0D0500018921EF3670363E
:10033000653AE5060A00CD34F339E9376E104636E2
:10034000E1396810E93920376F3AA0316F37EE3262
:10035000633A65320D0500015739693A6510CD24BD
:100360005323A0206432F232F339A020F23261101C
:10037000C3376D38EC32F4320D0500005B28C9211B
:10038000CC27C72E201D2000CD34F339E9376E105D
:100390004636E1396810E93920376F3AA0316F37B6
:1003A000EE32633A65320D0500004122371A3918E2
:1003B000A024EE34F4346136693DE5060A00892153
:1003C000EF367036653AE5060A00892BD224D4222E
:1003D000201DA0126410A812301A4C2CA9060A0085
:1003E0008929C5282010201DA0126410A812301AD7
:1003F0004C2CA9060A00892044225210201DA0126C
:100400006410A812301A4C2CA9060A0009284D10B5
:10041000201020103A102532201425183426D81424
:100420000D0500018929C820C42757103A1025322C
:10043000201425183426D8140D050001892BC52059
:10044000CB17542949103A10253220142518342688
:10045000D8140D05000109294127C72220103A10A0
:100460002532201425183426D8140D0500018921C1
:100470004F22492747103A102532201425183426D8
:10048000D8140D050001892D4122371A39185D1045
:10049000C634EE306C10C337ED36613764103A1055
:1004A00025183426D8060A000D05533A6139741010
:1004B000ED30EB325F39E531E534F632DF31EF36DE
:1004C000ED306E320D050001892DC227D3295D1054
:1004D0003E1F3E10000145376410ED30EB325F39AE
:1004E000E531693BE52FE337ED366137E4068A06EF
:1004F0000A00F33467376136A0326E32A03B693AA6
:1005000068105323C4060A00E437EE137410E6346F
:100510006E32A02946220D05000089163E1049378B
:10052000F630EC3464104639E13665104922203942
:10053000E531E534F632641DA012D8060A008916AA
:100540003E10432943106539F237F2100D050001C2
:1005500089042D1F2039E531E534F6326410432932
:10056000431DA012D8060A0089042010A0316F365E
:10057000EC32633AA021D221201DA012D8060A0035
:1005800089163E104937F630EC346410E432F63404
:10059000E332A0244410F232E332693B65320D05A8
:1005A000000189042D1F2039E531E534F632641D40
:1005B00020102010A012D8060A0089042010A026BE
:1005C0007910E432F634E332A024441DA012D80698
:1005D0000A00892DC227D3295D103C1E3C10000162
:1005E00089163E104639E136651049223A10252C0D
:1005F0000D05000189163E10C3376E3A6537741039
:10060000F334FA323A1025320D050000533A6139BD
:100610007410D3264610F53969376710F232F1327B
:10062000733AA039E530F13A6537E3320D05000140
:100630004539F237F2102029E531E534F634EE334E
:10064000A031EF36ED306E32A034EE316F37F33437
:10065000733A65377410F7347434203AE832203234
:10066000E539E933EE060A00D3264610F539651060
:10067000F232F13AE53974106136EC37F732E406BC
:100680000A00D3264610F5396510F232F13AE53901
:100690007410E432EE3C65320D050001D23274393B
:1006A0007910F232F13AE5397410F4372021CF296C
:1006B0005310D024C3060A004539F237F21020291E
:1006C000E531E534F634EE33A031EF36ED306E32FD
:1006D000A034EE316F37F334733A65377410F73462
:1006E0007434203AE8322032E539E933EE060A0064
:1006F00045376410D3264610F53969376710F23252
:10070000F132733AA039E530F13A6537E3320D053D
:100710000000C927A024EE34F4346136693DE506B3
:100720000A008921EF367036653AE5060A00412253
:1007300043104937693AE930EC34FA320D050001CB
:100740008921EF367036653AE5060A00533A613979
:100750007410D32BC522D0060A008929F7326538D8
:10076000A039F43270103A10A53A0D050001452762
:100770004410D32BC522D0060A00533A61397410B5
:10078000C324C7292032613A6110E3376E3B6539D3
:10079000F3346F370D05000145376410C324C729B2
:1007A0002032613A6110E3376E3B6539F3346F37BD
:1007B0000D050000D3264610E430F4302036E93928
:1007C0007410E93920337536EC10A1100D05800046
:1007D000D3264610E430F4302036E9397410E93974
:1007E000A0326D38F43C0D050000533A61397410A5
:1007F000CD27C4222022D526CD2C0D050001892627
:100800004F224510201020103A102518322C0D05CB
:10081000000109286139E136311020103A10303CCE
:1008200025183826D8060A0009286139E136321021
:1008300020103A10303C25183426D8060A004537D7
:100840006410CD27C4222022D526CD2C0D05000012
:10085000533A61397410CD27C422A026C520D32A6B
:10086000D2220D050000533A61397410CD27C422FD
:10087000A026C520D32AD222202B6F36F430E732AF
:100880000D050000533A61397410D32BC522D006F0
:100890000A008929F7326538A039F43270103A100D
:1008A000A53A0D05800145274410D32BC522D0065B
:1008B0000A00F4326D385F3A6F383A10252C0D0576
:1008C0000001F4326D385F316F3A3A10252C0D0576
:1008D000000070325F3B6136F5323A10252C0D0571
:1008E0000000E334E7395F3B6136F5323A10252CDE
:1008F0000D050000E33A72396537F42FF630EC3A13
:10090000651DA012D8060A00F6376C3AE133E52FD0
:10091000F630EC3A651DA012D8060A00533A613948
:100920007410CD27C422202AC5295410492B0D0547
:1009300000018929F7326538A039F43270103A1075
:10094000A53A0D05000145376410CD27C422202AA1
:10095000C5295410492B0D05000141326410D326DE
:100960004610F13AE5060A00533A613974104636EA
:10097000E13968104539E13965104136EC060A0065
:10098000453764104636E13968104539E13965105C
:100990004136EC060A00533A613974104636E139A3
:1009A00068104539E13965103110D332633A6F3937
:1009B0000D0500018929E531F4377210413264399F
:1009C000E539731D2018F812301C4C2C0D05000160
:1009D000453764104636E13968104539E13965100C
:1009E0003110D332633A6F390D050000533A613943
:1009F00074104636E1396810C337F03CA018A029BE
:100A0000E531F437F2060A0089297531F332633A89
:100A10006F39A0206432F232F3393A10303C251895
:100A20003826D8060A00453764104636E139681082
:100A3000C337F03CA018A029E531F437F2060A00CC
:100A4000533A613974104636E13968105739693ABA
:100A50006510C432ED370D05000189264F2245107F
:100A6000201020103A102518322C0D050001892085
:100A70006432F232F33920103A10303C251838260F
:100A8000D8060A000928E131EB327427F5363A100E
:100A9000303C25183426D8060A005739693A6510C3
:100AA000C430F4300D050001453764104636E13995
:100AB00068105739693A6510C432ED370D050000EA
:100AC000533A613974104636E13968105739693A3A
:100AD0006510B435C23CF432A0297531F332633A63
:100AE0006F390D050001453764104636E13968104D
:100AF0005739693A6510B435C23CF432A0297531D2
:100B0000F332633A6F390D050000533A61397410BE
:100B10004636E1396810D23261320D05000189266E
:100B20004F224510201020103A102518322C0D05A8
:100B3000000189206432F232F33920103A10303C3F
:100B400025183826D8060A000928E131EB32742727
:100B5000F5363A10303C25183426D8060A00D22241
:100B600041222022412AC1060A00CD34F339E93757
:100B70006E104636E1396810E93920376F3AA031F6
:100B80006F37EE32633A65320D0500014537641068
:100B90004636E1396810D23261320D050000533A11
:100BA000613974104636E1396810D2326132A020C2
:100BB0006432F232F3390D050001D2326132202263
:100BC000613A611DA012301958102518322CA0125C
:100BD000301958102518322C0D05000145376410C6
:100BE0004636E1396810D2326132A0206432F232E6
:100BF000F3390D050000533A613974104636E13976
:100C00006810D3264610C337F03C0D050001453768
:100C100064104636E1396810D3264610C337F03CDD
:100C20000D050000533A613974104636E1396810F9
:100C3000D3264610D23261320D050001D232613224
:100C40002022613A611D20000D05453764104636AB
:100C5000E1396810D3264610D23261320D0500000A
:100C6000533A613974104636E1396810D32646107C
:100C70005739693AE5060A00453764104636E139C6
:100C80006810D32646105739693AE5060A00533AE8
:100C9000613974104636E139681041326439E539FA
:100CA0007310D232F332F4060A0045376410463628
:100CB000E139681041326439E5397310D232F332C8
:100CC000F4060A000D05DF2FDF2FDF2FDF2FDF2FC8
:100CD000DF2FDF2FDF2FDF2FDF2F0D050001DF2FAD
:100CE000DF29F430723AA0316F38F92FE430F43054
:100CF000DF2F0D050001533A61397410DB126410C7
:100D000074345D10E430F430A0316F38F9068A068F
:100D10000A004937A0396D33A036E939F3346F370B
:100D20002032613A6110733A6139741020106132D7
:100D30006439E539731DA012301C4C2C0D050001DF
:100D40004937A0396D33A036E939F3346F37203293
:100D5000613A6110653764102010201061326439E7
:100D6000E539731DA012301C4C2C0D0500014937CC
:100D7000A026C92920234D105739693A6510F33749
:100D80007539E3322032613A611061326439E539F4
:100D9000731DA012301C4C2C0D0500014937A026F4
:100DA000C92920234D105739693A6510E430F430D1
:100DB000A039693D65102010201020102010201D42
:100DC000A012EC3A2014303C2536F8140D050D0520
:100DD00000024539F237721DA0294D23A03473104B
:100DE000EE377410E3376E37E531F432E4060A006B
:100DF000D334FA32A030F2326110F23261320D0592
:100E00000001F5396532DF39693D65103D10253641
:100E10007510A839F2312018F812301C4C2CA90694
:100E20000A00EC376F38A031EF3A6E3A3D102532A8
:100E30002010A839F2312018F812301C4C2CA906C9
:100E40008A060A0057396138203AF234E7336539A7
:100E500065323A10D232F332743A69376710E430AF
:100E6000F430DF3BF234F432DF3064327210F437A6
:100E7000A039F430723A0D0500015538E430F432EF
:100E8000A039693D65106139E5300D050001F5397E
:100E90006532DF39693D65103D102536E4060A00EC
:100EA000EC376F38DF31EF3A6E3AA01EA012F5062C
:100EB0008A060A000D05DF2FDF226E32A0316F385F
:100EC000F92FE430F430DF2FDF2F0D050001DF2F85
:100ED000DF2FDF2FDF2FDF2FDF2FDF2FDF2FDF2FA2
:100EE000DF2F0D050D0500000D05DF2FDF2FDF2F94
:100EF000DF2FDF2FDF2FDF2FDF2FDF2FDF2FDF2F82
:100F0000DF2FDF2FDF2FDF2F0D05DF2FDF2FDF2973
:100F1000F430723AA032F832E33AF432DF36E9398B
:100F2000F3346F37DF2FDF2FDF068A060A00C3375F
:100F3000ED366137641049223A10252C0D050D0558
:100F4000000189042D1FA0246E3B61366932A02167
:100F50004D22A024C4100D0500010D05DF2FDF2F49
:100F6000DF2F45376410653CE531753AE52FED34E8
:100F7000F339E937EE2FDF2FDF2FDF068A2FDF2F40
:100F8000DF2FDF2FDF2FDF2FDF2FDF2FDF2FDF2FF1
:100F9000DF2FDF2FDF2FDF2FDF2FDF2F0D050000EB
:100FA000533A61397410653CE531753AE52FE33702
:100FB000ED366137E4060A0089163E105538EC34E8
:100FC000EE35A031EF36ED306E320D05000109101F
:100FD000201054396137F336693AA020E335EE37F3
:100FE000EC326732E5060A0089163E10533A613A40
:0C0FF000F539A031E832E3350D050001B1
:101000000910201054396137F336693AA026C929EE
:10101000A026C32AA029F430F43AF3060A00E634E5
:10102000EE3473346532A0346E10733A613AF53998
:10103000DF31E832E3350D05000089163E10D32676
:101040004610613BE134EC30623665106334E531C3
:10105000EB060A000910201054396137F336693A5B
:10106000A020E335EE37EC326732E5060A0089044A
:101070002D1FA0306C36EF3BE4060A0089042D1FBB
:1010800020326537F932E4060A000D050D050D051D
:10109000BD1EBD1EBD1EBD1EBD1EBD1EBD1EBD1E78
:1010A000BD1EBD1EBD1EBD1EBD1EBD1EBD1EBD1E68
:1010B000BD1EBD1EBD1EBD1EBD1EBD1EBD1EBD1E58
:1010C000BD1EBD1EBD1EBD1EBD1EBD1E0D050001EB
:1010D0005434E939A0347310CD27CD24CA24A0217B
:1010E000C9235310D024431042214D10E63772100B
:1010F000CD24D31B5F21C22633170D050001CC3050
:10110000733AA03A7032613A6532A0376E10A53951
:10111000A0127316203179104937EF3A65170D0583
:101120000D050001311A2D2575362D193500B11A1E
:101130003A1A361DB21C0001DF2FDF2FC324C72946
:101140002028C921A029F430723AA027F032F230C9
:10115000F4346F37DF2FDF2FDF068A060A00F730FF
:10116000693A69376710E6377210C227D3292028F9
:10117000C921A031EF36ED306E3200010D05F73098
:10118000693A69376710E6377210C227D3292028D9
:10119000C921A031EF36ED306E3200010D050D058D
:1011A000BD1EBD1EBD1E0D050D05C634EE347334C7
:1011B00065322038F237E332F339AE068A2BE13458
:1011C0007410E6377210C227D3292028C921203A8B
:1011D00075396E106F336610ED32000145376410BB
:1011E000ED3069370D05000021000D1222000D12AF
:1011F0000830F800FB280000F8170E29F8132D001E
:10120000B70C220003180D16031C0D1278170E29B7
:101210007813F80BFF280C2900000D168430840089
:10122000840B10290000F81BFE28781B08292000D9
:1012300008000B088B1323009517151400000000FD
:10124000891B8B1713087F39031965292D00B400FA
:10125000230011082D00B500230012082D00B60050
:101260003408B7002000F4202D0035082300910039
:101270002D003608230092000B088B1395171514C8
:1012800000000000891B8B17130D140D7F39031903
:1012900065292D00B400230011082D00B50023009E
:1012A00012082D00B6003408B7002000F4202D00ED
:1012B0003508230091002D00360823009200910A82
:1012C0000319920A200019292300200008000B08A6
:1012D0008B1323009517151400000000891B8B1732
:1012E00003189B2913087F392C00EA0023001108FA
:1012F0002C00EB00230012082C00EC006A082D00E3
:10130000B7002000F4202C006B08230091002C0073
:101310006C08230092000B088B139517151400001E
:101320000000891B8B172C00E90B972999292300B2
:101330009B29BF292300130D140D7F392C00EA00CF
:10134000230011082C00EB00230012082C00EC00F5
:101350006A082D00B7002000F4202C006B08230041
:1013600091002C006C0823009200910A0319920A44
:1013700003102C00E90BBD29BF292000672920009C
:1013800008008930230091000330920020001921C9
:10139000210010102200101021000C1222000C1647
:1013A0009130230091000330920020001921B031C8
:1013B000752A9730230091000330920020001921F4
:1013C0007830210099001E129E161E179E171D14BC
:1013D000A030220098009901A03023009100033032
:1013E000920020001921B031782A84302300910026
:1013F000003092002000192121009116C0308B048A
:101400008D30230091000030920020001921B0316E
:101410007B2A5B30230091000030920020001921CC
:1014200011108F309800990196018030970012308A
:101430009600000021001114C0308B046530230099
:1014400091000030920020001921B0317E2AD53061
:10145000230091000130920020001921280063161A
:101460006414E410E3166313E3130130F600FB0089
:10147000FC01FD00FE01E201DF302300910001309C
:10148000920020001921B031812A2D00530807391C
:10149000F700530CF800F80CF80C1F30F80578082A
:1014A000550784000030563D8500F801F80AF70A18
:1014B0005A2AF80DF70B592AD4080319622A78081A
:1014C0008004652AF80978088005200008002400B7
:1014D00011082E00200824009100140C031C6D2A12
:1014E0001108F70020000800240011082E00200831
:1014F00024009100140C031C7A2A1108F700200024
:1015000008002D005308003A200003198B2A013AE5
:101510000319ED2A502B2D00E201E10162085A0265
:10152000031CB32A031D982A590861020318B32A21
:101530005708610784005808623D85000008EE00E6
:101540002400951240309400273092002A309500F4
:101550002D006E082E00A000200067222D00E10A59
:101560000319E20A8E2AE601E501E401E3016608B7
:101570006002031CEC2A031DCD2A65085F02031CD0
:10158000EC2A031DCD2A64085E02031CEC2A031D0D
:10159000CD2A5D0863020318EC2A5B086307840008
:1015A0005C08643D8500240095124030940027308B
:1015B00092002A30950001302E00A0002000672202
:1015C0007708800001302D00E3070318E40A0319AF
:1015D000E50A0319E60AB72A512B2D00E801E701B5
:1015E00068085A02031C152B031DFA2A59086702C2
:1015F0000318152B5708670784005808683D8500B5
:101600000008EE002400951240309400273092002C
:101610002A3095002D006E082E00A00020007422B4
:101620002D00E70A0319E80AF02AEC01EB01EA01B0
:10163000E9016C086002031C4E2B031D2F2B6B0865
:101640005F02031C4E2B031D2F2B6A085E02031C36
:101650004E2B031D2F2B5D08690203184E2B5B08D0
:10166000690784005C086A3D8500240095124030BB
:101670009400273092002A30950002302E00A000FE
:10168000200074227708800001302D00E90703183C
:10169000EA0A0319EB0A0319EC0A192B512B200053
:1016A0002D00200008009F302D00BC003608D3001C
:1016B000D4010130D600D501200045222D00360886
:1016C000D300D401D6018030D500200045222D0062
:1016D0003708D6003608D5003508D4003408D300C2
:1016E0002430D8002C30D700DA010130D900243062
:1016F000DC002830DB00E001DF01DE010430DD002A
:10170000200081222D003608D3000130D400D600FD
:10171000D501200045222D003608D300D401D60182
:101720008030D500200045222D003808203C031DC4
:101730009D2B0130F8009F2B9F2B0030F8002000DC
:1017400008002C00E608031D282C03302D00A400FF
:101750002C006B082D00B0002C006C082D00B1008F
:10176000B201B301F801F901FA013008A5002C001B
:101770006A082D00B0002C006B082D00B1002C0071
:101780006C082D00B200B301F801F901FA0130082C
:10179000A6002C00F801F901FA0169082D00A70044
:1017A0002C0067082D00D300D4010130D600D501EC
:1017B000200045222C0067082D00D300D401D6015B
:1017C0008030D500200045222C0068082D00D6006E
:1017D0002C0067082D00D5002C0066082D00D400D1
:1017E0002C0065082D00D3002430D8001430D70019
:1017F000DA010430D9002C006E082D00DC002C002A
:101800006D082D00DB002308E0002208DF0021081E
:10181000DE002008DD00200081220230F700F70BF7
:101820000F2C00002C0067082D00D3000130D400DD
:10183000D600D501200045222C0067082D00D300DA
:10184000D401D6018030D50020004522B72C2C00D1
:10185000660BB82C13302D00A8002C006C082D004E
:10186000B000B101B201B301F801F901FA01300889
:10187000A9002C006B082D00B0002C006C082D0076
:10188000B100B201B301F801F901FA013008AA0070
:101890002C006A082D00B0002C006B082D00B10050
:1018A0002C006C082D00B200B301F801F901FA0117
:1018B0003008AB002C00F801F901FA0169082D008D
:1018C000AC002C0067082D00D300D4010130D600F5
:1018D000D501200045222C0067082D00D300D4013B
:1018E000D6018030D500200045222C0068082D004C
:1018F000D6002C0067082D00D5002C0066082D00AE
:10190000D4002C0065082D00D3002430D8001830F6
:10191000D700DA010530D9002C006E082D00DC005C
:101920002C006D082D00DB002308E0002208DF00FA
:101930002108DE002008DD00200081220230F700AF
:10194000F70BA02C00002C0067082D00D3000130FD
:10195000D400D600D501200045222C0067082D00B8
:10196000D300D401D6018030D500200045222C00C0
:10197000200008002C00EA1BD02C0F30F700690E65
:10198000F7050A3077020318C82C3030F707CA2C45
:101990006A08F70777082D00B7002000F4202C0014
:1019A0000F30E9050A3069020318D82C3030DA2CE0
:1019B000EA136A08E90769082D00B7002000F4203F
:1019C00008002D004D08003A20000319EB2C013AC5
:1019D0000319142D3E2D2D00D601D50156085402B1
:1019E000031C132D031DF82C530855020318132D47
:1019F0005108550784005208563D85000008D9005B
:101A00002400951240309400273092002A3095002F
:101A10002D0059082E00A000200067222D00D50AB5
:101A20000319D60AEE2C3F2D2D00D801D7015808F6
:101A30005402031C3C2D031D212D5308570203188B
:101A40003C2D5108570784005208583D8500000876
:101A5000D9002400951240309400273092002A309B
:101A600095002D0059082E00A000200074222D00A2
:101A7000D70A0319D80A172D3F2D20002D0020006A
:101A800008002D004D08003A200003194B2D013AA3
:101A90000319922DDA2D2D00D8015308580203188E
:101AA0006A2D5808510784000030523D8500000817
:101AB000DE002400951240309400273092002A3036
:101AC00095002D005E082E00A000200067222D004A
:101AD000D80A4D2DDA01D9015A085702031C912D5D
:101AE000031D762D560859020318912D54085907E5
:101AF000840055085A3D85000008DE002400951238
:101B000040309400273092002A3095002D005E0866
:101B10002E00A000200067222D00D90A0319DA0A3E
:101B20006C2DDB2D2D00DB0153085B020318B12D5A
:101B30005B08510784000030523D85000008DE003C
:101B40002400951240309400273092002A309500EE
:101B50002D005E082E00A000200074222D00DB0A5C
:101B6000942DDD01DC015D085702031CD82D031DF7
:101B7000BD2D56085C020318D82D54085C0784005C
:101B800055085D3D85000008DE00240095124030B8
:101B90009400273092002A3095002D005E082E0018
:101BA000A000200074222D00DC0A0319DD0AB32DE9
:101BB000DB2D20002D002000080005302D00D10075
:101BC0004F08D300D4010130D600D50120004522B2
:101BD0002D004F08D300D401D6018030D50020005D
:101BE00045222D005008D6004F08D5004E08D400DD
:101BF0004D08D3002430D8004130D700DA0101303D
:101C0000D9002430DC004230DB00E001DF01DE01DE
:101C10000130DD00200081222D004F08D30001306B
:101C2000D400D600D501200045222D004F08D30056
:101C3000D401D6018030D500200045222D00520865
:101C4000F80020000800243085003D3084000008A2
:101C50000319382E0530F800F701F70B2D2EF80B7D
:101C60002C2E2E30F700F70B332E362E800B2A2E1B
:101C700008002D00B508031DCC2E0630C000023030
:101C8000C100D001D101F801F901FA013A08C200FE
:101C9000D101F801F901FA013908C300F801F9018D
:101CA000FA013808C4003608D300D4010130D60048
:101CB000D501200045222D003608D300D401D601DD
:101CC0008030D500200045222D003708D00036088E
:101CD000CF003508CE003408CD002430D20030309B
:101CE000D100D4010130D3002000E1242D003608BA
:101CF000D3000130D400D600D501200045222D00AC
:101D00003608D300D401D6018030D500200045220A
:101D10002D003608D300D4010130D600D5012000B3
:101D200045222D003608D300D401D6018030D500DD
:101D3000200045222D003708D0003608CF00350896
:101D4000CE003408CD002430D2003130D100043030
:101D5000D3003D08D5003C08D4003F08D7003E081A
:101D6000D600200041250230F700F70BB52E000009
:101D70002D003608D3000130D400D600D501200054
:101D800045222D003608D300D401D6018030D5007D
:101D900020004522632F2D00350B642F0630C5002F
:101DA0001230C600CF01D001D101F801F901FA01CA
:101DB0003B08C700D001D101F801F901FA013A0846
:101DC000C800D101F801F901FA013908C900F80188
:101DD000F901FA013808CA003608D300D4010130ED
:101DE000D600D501200045222D003608D300D401AD
:101DF000D6018030D500200045222D003708D000C4
:101E00003608CF003508CE003408CD002430D2008B
:101E10003530D100D4010130D3002000E1242D0061
:101E20003608D3000130D400D600D5012000452269
:101E30002D003608D300D401D6018030D500200013
:101E400045222D003608D300D4010130D600D5013B
:101E5000200045222D003608D300D401D601803061
:101E6000D500200045222D003708D0003608CF00CD
:101E70003508CE003408CD002430D2003630D100F1
:101E80000530D3003D08D5003C08D4003F08D700FA
:101E90003E08D600200041250230F700F70B4E2FF8
:101EA00000002D003608D3000130D400D600D50143
:101EB000200045222D003608D300D401D601803001
:101EC000D500200045222D00CB013708D000360870
:101ED000CF003508CE003408CD002000DD2578087D
:101EE0000139013C031D8D2F2D004B080A3C0318BE
:101EF0007F2FC830CD0020002326832F2D000A30ED
:101F0000CD00200023262D004B08643C03188B2FA6
:101F100020008D2F2D00CB0A652F200008002B00FC
:101F2000200884002108850002310008A200013148
:101F30000008A3003F3122082D00D3000130D40057
:101F4000D600D501200045222B0022082D00D30009
:101F5000D401D6018030D50020004522B031AC2A12
:101F60002C003A0884003B088500003FBD0001308A
:101F7000BE003C083E020318C72F3E08BE0A3A07BF
:101F8000840000303B3D85000008BD06B92F3D08A8
:101F9000F8002000080078080319D22F77081A00EB
:101FA000F80BCE2F08002B002308FA00220884002B
:101FB000230885000008A40021088500200884006B
:101FC000F7012408F8002000CB272B00220884000A
:101FD000230885008001B0312000E62A0F302B0055
:101FE000A400A601A501A70198312000462388314D
:021FF0000800E7
:102000009330230091000030920088312000192184
:10201000903121008F1122008F1521008F10220096
:102020008F1428005D082D00B70028005C082D00E3
:10203000B60028005B082D00B50028005A082D00C6
:10204000B4008831200053239031F808031D332851
:10205000A130230091000030920088312000192126
:102060009031952C332828005D082C00E8002800CA
:102070005C082C00E70028005B082C00E600280024
:102080005A082C00E500EC01EB01EA01E9012330DC
:10209000EE00BB30ED002D00A301A201A1014030F4
:1020A000A00088312000A12390312C00E801E70135
:1020B000E6012B006B082C00E500E800E501E601D5
:1020C000E701ED01EC01EB012B006C082C00EA00AC
:1020D0006B08FA006A08F900F701F8017708E504CF
:1020E0007808E6046A08E7046B08E804ED01EC01EF
:1020F000EB012B006D082C00EA006C08FA006B085D
:10210000F9006A08F800F7017708E5046A08E604B0
:102110006B08E7046C08E8042B00F801F901FA01E8
:102120006E082C0065042800C20078082C006604A4
:102130002800C30079082C0067042800C4007A082E
:102140002C0068042800C5002B006F08F1002C004B
:10215000E801E701E6012008E500E800E501E60105
:10216000E701ED01EC01EB012108EA006B08FA0040
:102170006A08F900F701F8017708E5047808E60431
:102180006A08E7046B08E804ED01EC01EB012208A2
:10219000EA006C08FA006B08F9006A08F800F70119
:1021A0007708E5046A08E6046B08E7046C08E804AD
:1021B000F801F901FA01230865042800C60078082F
:1021C0002C0066042800C70079082C00670428004A
:1021D000C8007A082C0068042800C9002C002408D4
:1021E000F200E801E701E6012508E500E800E50165
:1021F000E601E701ED01EC01EB012608EA006B08BE
:10220000FA006A08F900F701F8017708E504780890
:10221000E6046A08E7046B08E804ED01EC01EB0151
:102220002708EA006C08FA006B08F9006A08F80051
:10223000F7017708E5046A08E6046B08E7046C0810
:10224000E804F801F901FA01280865042800CA0029
:1022500078082C0066042800CB0079082C0067045D
:102260002800CC007A082C0068042800CD002C003F
:102270002908F300E801E701E6012A08E500E80083
:10228000E501E601E701ED01EC01EB012B08EA00B5
:102290006B08FA006A08F900F701F8017708E5040D
:1022A0007808E6046A08E7046B08E804ED01EC012D
:1022B000EB012C08EA006C08FA006B08F9006A08C8
:1022C000F800F7017708E5046A08E6046B08E704FC
:1022D0006C08E804F801F901FA012D0865042800EA
:1022E000CE0078082C0066042800CF0079082C0066
:1022F00067042800D0007A082C0068042800D10068
:102300002C00E801E701E6012E08E500E800E50100
:10231000E601E701ED01EC01EB012F08EA006B0893
:10232000FA006A08F900F701F8017708E50478086F
:10233000E6046A08E7046B08E804ED01EC01EB0130
:102340003008EA006C08FA006B08F9006A08F80027
:10235000F7017708E5046A08E6046B08E7046C08EF
:10236000E804F801F901FA0131086504F400E80114
:10237000E701E6013208E500E800E501E601E701D2
:10238000ED01EC01EB013308EA006B08FA006A0882
:10239000F900F701F8017708E5047808E6046A080F
:1023A000E7046B08E804ED01EC01EB013408EA00F6
:1023B0006C08FA006B08F9006A08F800F701770862
:1023C000E5046A08E6046B08E7046C08E804F80111
:1023D000F901FA01350865042800D20078082C00BC
:1023E00066042800D30079082C0067042800D40074
:1023F0007A082C0068042800D5002C003608F50067
:10240000E801E701E6013708E500E800E501E6013B
:10241000E701ED01EC01EB013808EA006B08FA0076
:102420006A08F900F701F8017708E5047808E6047E
:102430006A08E7046B08E804ED01EC01EB013908D8
:10244000EA006C08FA006B08F9006A08F800F70166
:102450007708E5046A08E6046B08E7046C08E804FA
:10246000F801F901FA013A0865042800D600780855
:102470002C0066042800D70079082C006704280087
:10248000D8007A082C0068042800D900AE30230058
:10249000910000309200031022302C00E9008831B6
:1024A000200067219031280045082C00E9003730D2
:1024B000EA0088312000BA249031280044082C001A
:1024C000E9003730EA0088312000BA249031280032
:1024D00043082C00E9003730EA0088312000BA2494
:1024E0009031280042082C00E9003730EA0088319A
:1024F0002000BA2490310D302D00B7008831200023
:10250000F42090310A302D00B70088312000F420EB
:102510009031C3302300910000309200031022302C
:102520002C00E900883120006721903171082C00CF
:10253000E9003730EA0088312000BA2490310D30AC
:102540002D00B70088312000F42090310A302D0092
:10255000B70088312000F4209031D830230091005A
:1025600000309200031022302C00E9008831200056
:1025700067219031280049082C00E9003730EA0033
:1025800088312000BA249031280048082C00E90046
:102590003730EA0088312000BA24903128004708FB
:1025A0002C00E9003730EA0088312000BA2490314D
:1025B000280046082C00E9003730EA008831200066
:1025C000BA2490310D302D00B70088312000F4205E
:1025D00090310A302D00B70088312000F42090316E
:1025E000ED302300910000309200031022302C00C7
:1025F000E900883120006721903172082C00E90041
:102600003730EA0088312000BA2490310D302D0097
:10261000B70088312000F42090310A302D00B70037
:1026200088312000F42090310230230091000130E5
:102630009200031022302C00E9008831200067212D
:10264000903128004D082C00E9003730EA0088312D
:102650002000BA24903128004C082C00E9003730C3
:10266000EA0088312000BA24903128004B082C0061
:10267000E9003730EA0088312000BA249031280080
:102680004A082C00E9003730EA0088312000BA24DB
:1026900090310D302D00B70088312000F4209031AA
:1026A0000A302D00B70088312000F4209031173017
:1026B0002300910001309200031022302C00E90029
:1026C0008831200067219031280051082C00E90052
:1026D0003730EA0088312000BA24903128005008B1
:1026E0002C00E9003730EA0088312000BA2490310C
:1026F00028004F082C00E9003730EA00883120001C
:10270000BA24903128004E082C00E9003730EA0046
:1027100088312000BA2490310D302D00B700883167
:102720002000F42090310A302D00B70088312000BD
:10273000F42090312C3023009100013092000310DE
:1027400022302C00E9008831200067219031730885
:102750002C00E9003730EA0088312000BA2490319B
:102760000D302D00B70088312000F42090310A3060
:102770002D00B70088312000F42090314130230033
:10278000910001309200031022302C00E9008831C2
:1027900020006721903174082C00E9003730EA00EE
:1027A00088312000BA2490310D302D00B7008831D7
:1027B0002000F42090310A302D00B700883120002D
:1027C000F420903156302300910001309200031024
:1027D00022302C00E9008831200067219031280048
:1027E00055082C00E9003730EA0088312000BA246F
:1027F0009031280054082C00E9003730EA00883175
:102800002000BA249031280053082C00E90037300A
:10281000EA0088312000BA249031280052082C00A8
:10282000E9003730EA0088312000BA2490310D30B9
:102830002D00B70088312000F42090310A302D009F
:10284000B70088312000F42090316B3023009100D4
:1028500001309200031022302C00E9008831200062
:1028600067219031280059082C00E9003730EA0030
:1028700088312000BA249031280058082C00E90043
:102880003730EA0088312000BA24903128005708F8
:102890002C00E9003730EA0088312000BA2490315A
:1028A000280056082C00E9003730EA008831200063
:1028B000BA2490310D302D00B70088312000F4206B
:1028C00090310A302D00B70088312000F42090317B
:1028D00080302300910001309200031022302C0040
:1028E000E900883120006721903175082C00E9004B
:1028F0003730EA0088312000BA2490310D302D00A5
:10290000B70088312000F42090310A302D00B70044
:1029100088312000F420903195302300910001305F
:102920009200883120001921903108002D00B5084F
:10293000031D3B2D0630BC002030BD003A08C90005
:102940003B08CA00CB01CC01F801F901FA014908A2
:10295000BE003908C9003A08CA003B08CB00CC01C8
:10296000F801F901FA014908BF00F801F901FA017B
:102970003808C0003608D300D4010130D600D50194
:1029800088312000452290312D003608D300D40133
:10299000D6018030D50088312000452290312D00AD
:1029A0003708D0003608CF003508CE003408CD00F7
:1029B0002430D2002C30D100D4010130D300883132
:1029C0002000E12490312D003608D3000130D400DE
:1029D000D600D50188312000452290312D003608DF
:1029E000D300D401D6018030D500883120004522A3
:1029F00090312D003608D300D4010130D600D50126
:102A000088312000452290312D003608D300D401B2
:102A1000D6018030D50088312000452290312D002C
:102A20003708D0003608CF003508CE003408CD0076
:102A30002430D2002D30D100D4010430D3008831AD
:102A40002000E12490312D003608D3000130D4005D
:102A5000D600D50188312000452290312D0036085E
:102A6000D300D401D6018030D50088312000452222
:102A70009031E62D2D00350BE72D0630C1002130B9
:102A8000C2003B08C900CA01CB01CC01F801F90121
:102A9000FA014908C3003A08C9003B08CA00CB0143
:102AA000CC01F801F901FA014908C4003908C9004C
:102AB0003A08CA003B08CB00CC01F801F901FA0141
:102AC0004908C500F801F901FA013808C6003608BE
:102AD000D300D4010130D600D50188312000452231
:102AE00090312D003608D300D401D6018030D500B6
:102AF00088312000452290312D003708D00036085B
:102B0000CF003508CE003408CD002430D20031305B
:102B1000D100D4010130D30088312000E12490316C
:102B20002D003608D3000130D400D600D5018831FD
:102B30002000452290312D003608D300D401D60163
:102B40008030D50088312000452290312D00360894
:102B5000D300D4010130D600D501883120004522B0
:102B600090312D003608D300D401D6018030D50035
:102B700088312000452290312D003708D0003608DA
:102B8000CF003508CE003408CD002430D2003230DA
:102B9000D100D4010530D30088312000E1249031E8
:102BA0002D003608D3000130D400D600D50188317D
:102BB0002000452290312D003608D300D401D601E3
:102BC0008030D50088312000452290312D00C7018A
:102BD0003708D0003608CF003508CE003408CD00C5
:102BE00088312000DD25903178080139013C031D32
:102BF000162E2D0047080A3C0318062EC830CD00BB
:102C000088312000232690310C2E2D000A30CD0073
:102C100088312000232690312D004708643C03189A
:102C2000142E2000162E2D00C70AE82D20000800C3
:102C30002C00C301C401C501C601C701C801C901F7
:102C4000CA01CB01CC01CD01CE01CF01D001D10110
:102C5000D201D301D401D501D601D701D801D901C0
:102C6000DA01DB01DC01DD01DE01DF01E001E10170
:102C7000E201E301E401E501E601E701E801E90120
:102C8000EA01EB01EC01ED01EE01EF012D00A001E5
:102C9000A101A201A301A401A501A601A701A80108
:102CA000A901AA01AB01AC01AD01AE01AF01B001B8
:102CB000B101B201280045082D00B500B601B701E9
:102CC000B80135082C00C300280044082D00B500C9
:102CD000280045082D00B600B701B80135082C00C2
:102CE000C400280043082D00B500280044082D002A
:102CF000B600280045082D00B700B80135082C00A3
:102D0000C500280042082C00C6007108C700280032
:102D100049082D00B500B601B701B80135082C00EF
:102D2000C800280048082D00B500280049082D00DB
:102D3000B600B701B80135082C00C90028004708C3
:102D40002D00B500280048082D00B60028004908CD
:102D50002D00B700B80135082C00CA00280046082D
:102D60002C00CB007208CC0028004D082D00B500C7
:102D7000B601B701B80135082C00CD0028004C0879
:102D80002D00B50028004D082D00B600B701B80190
:102D900035082C00CE0028004B082D00B500280077
:102DA0004C082D00B60028004D082D00B700B801D2
:102DB00035082C00CF0028004A082C00D0007308EA
:102DC000D100280051082D00B500B601B701B801A7
:102DD00035082C00D200280050082D00B50028002E
:102DE00051082D00B600B701B80135082C00D300FA
:102DF00028004F082D00B500280050082D00B6000F
:102E0000280051082D00B700B80135082C00D40067
:102E100028004E082C00D5000030D600D700D8007E
:102E20007408D900280055082D00B500B601B70177
:102E3000B80135082C00DA00280054082D00B50030
:102E4000280055082D00B600B701B80135082C0040
:102E5000DB00280053082D00B500280054082D0081
:102E6000B600280055082D00B700B80135082C0021
:102E7000DC00280052082C00DD007508DE00280068
:102E800059082D00B500B601B701B80135082C006E
:102E9000DF00280058082D00B500280059082D0033
:102EA000B600B701B80135082C00E000280057082B
:102EB0002D00B500280058082D00B600280059083C
:102EC0002D00B700B80135082C00E1002800560895
:102ED0002C00E20028005D082D00B70028005C08E7
:102EE0002D00B60028005B082D00B50028005A0808
:102EF0002D00B4008831200053239031F808031DC1
:102F00008B2F9B30230091000130920088312000EC
:102F100019219031C92F28005D082D00B700280025
:102F20005C082D00B60028005B082D00B5002800C5
:102F30005A082D00B400BB01BA01B901B801200044
:102F4000962428005D082D00B70028005C082D009D
:102F5000B60028005B082D00B50028005A082D0097
:102F6000B400BB01BA01B901B8012330BD00E330A0
:102F7000BC00BF014030BE008831200039269031AE
:102F8000AC302300910001309200883120001921DB
:102F9000903108002D002108F80120020318D32FDA
:102FA0002008F700DF2FF7010830A200A00DF70D71
:102FB000210877020318F700F80DA20BD62F200086
:102FC000080021000F1122000F11240011082C000D
:102FD000410824009100140C031CEB2F1108F80089
:102FE00011082C00400824009100140C031CF52F3C
:102FF0001108F70021000F1122000F152000080012
:103000003108F7003208F8003308F9003408FA00F4
:103010007A082C00BA007908B9007808B800770857
:10302000B7003A08C400C501C601C7014408B10091
:103030003908C4003A08C500C601C7014408B200F7
:103040003808C4003908C5003A08C600C70144085A
:10305000B3003708B4002F08B5003008B600BE3002
:10306000230091000130920088312000192198310D
:103070002C00BB013B08053C031C5828D1303B0702
:103080008400233085000318850A0008C300E90086
:103090003730EA0088312000BA24983120302D00E2
:1030A000B70088312000F42098312C00BB0A3A2860
:1030B0000D302D00B70088312000F42098310A30FF
:1030C0002D00B70088312000F420983128004A08EC
:1030D0002C00BC0028004B082C00BD00023028004A
:1030E0004C072C00BE00003028004D3D2C00BF00D6
:1030F00028005D082D00B70028005C082D00B600F0
:1031000028005B082D00B50028005A082D00B400E7
:103110008831200053239831F808031D9928C430C2
:10312000230091000130920088312000192198314C
:10313000192928005D082D00B70028005C082D0023
:10314000B60028005B082D00B50028005A082D00A5
:10315000B4002C003F082D00BB002C003E082D00C1
:10316000BA002C003D082D00B9002C003C082D00B1
:10317000B8002330BD00D130BC00BF010630BE0016
:10318000883120003926983106302800CA070030DF
:10319000CB3DCC3DCD3D0630CE070030CF3DD03DC0
:1031A000D13D0630F40774073F3C031815294A083F
:1031B0002C00BC0028004B082C00BD000230280069
:1031C0004C072C00BE00003028004D3D2C00BF00F5
:1031D00028005D082D00B70028005C082D00B6000F
:1031E00028005B082D00B50028005A082D00B40007
:1031F0002C003F082D00BB002C003E082D00BA001B
:103200002C003D082D00B9002C003C082D00B80012
:103210002230BD009E30BC00BF010630BE008831A8
:10322000200039269831F40128009031200018261A
:10323000983108002B00A801A901AA01AB01AC013B
:10324000AD01AE01AF01B001B101B201B301543023
:10325000230091000230920088312000192198311A
:10326000643023009100023092008831200019213F
:1032700098312B00B4012708340203185929340867
:10328000250784000030263D85000008BD002C0085
:10329000E9003730EA0088312000BA249831203024
:1032A0002D00B70088312000F42098312B00B40A9B
:1032B0003B290D302D00B70088312000F4209831D3
:1032C0000A302D00B70088312000F42098312B00FF
:1032D0002608BE002508BD002708BF00C001C001A8
:1032E00001303F0240020318852940083D07840051
:1032F00000303E3D85000008AA3C031D83290130B3
:103300004007F800A929C00A702940083D07840039
:1033100000303E3D85000008AA3C031D9D29793000
:103320002300910002309200883120001921983149
:10333000FF30F8002B00A929A9298430230091002F
:10334000023092008831200019219831FF30F800B6
:103350002B007808B5003508FF3C031DB429A830C0
:10336000F8000530F900432B35082507B60000307A
:10337000263DB70036088400370885000031000874
:103380000F39B8003808BD00BE013E08023C031CDE
:10339000E32903103E0DC53E84002230850003184A
:1033A000850A00083D02031DE12903103E0D013E80
:1033B000C53E8400223085000318850A0008F80005
:1033C0000B2ABE0AC5298D302300910002309200DD
:1033D00003101F302C00E90088312000672198314C
:1033E0002B003D082C00E9003730EA00883120002E
:1033F000BA2498310D302D00B70088312000F42018
:1034000098310A302D00B70088312000F42098311F
:10341000FF30F8002B007808B9003908FF3C031D85
:10342000162AA830F8000530F900432B350827028A
:10343000BA003708BE003608BD003A08BF000130A8
:103440003F023D07840000303E3D85000008C0007B
:1034500001303F02C2003E082C00BB002B003D089B
:103460002C00BA002B0042082C00BC008831200040
:10347000B027983178082B00C10041084002031D95
:10348000452A0130F8009B2A9B2A9F302300910097
:10349000023092008831200019219831A830230091
:1034A000910002309200031013302C00E9008831A3
:1034B0002000672198312B0040082C00E9003730AC
:1034C000EA0088312000BA2498310D302D00B70071
:1034D00088312000F42098310A302D00B70088315F
:1034E0002000F4209831B430230091000230920083
:1034F000031013302C00E900883120006721983137
:103500002B0041082C00E9003730EA008831200008
:10351000BA2498310D302D00B70088312000F420F6
:1035200098310A302D00B70088312000F4209831FE
:103530000030F8002B00F808031DA32AA830F8007B
:103540000530F900432B3608840037088500003128
:103550000008F039F700770EBD000F30BD053D08BB
:10356000BE003E080C3C031DB92A0130F8000E2BAA
:103570000E2BC030230091000230920088312000D1
:1035800019219831D13023009100023092000310AC
:1035900013302C00E90088312000672198312B007E
:1035A0003E082C00E9003730EA0088312000BA24B8
:1035B00098310D302D00B70088312000F42098316B
:1035C0000A302D00B70088312000F4209831DD301A
:1035D0002300910002309200031013302C00E90008
:1035E00088312000672198310C302C00E9003730F9
:1035F000EA0088312000BA2498310D302D00B70040
:1036000088312000F42098310A302D00B70088312D
:103610002000F42098310030F8002B00F808031D3A
:10362000162BA830F8000530F900432B3808A80005
:1036300001303607BD000030373DBE0002303A028F
:10364000BF003E0885003D0884003F08F8000319CC
:10365000312B233087007B30860012001E00F80BD0
:103660002D2B02303A02A9002A146B30230091005E
:10367000023092008831200019219831A830F800DA
:103680000530F9002B00B0312000C92AAA302B00E8
:10369000A80024085038A9002608850025088400C1
:1036A0002708F80003195C2B233087007A30860046
:1036B00012001E00F80B582B02302707B800783094
:1036C0003807BA002330BB000318BB0A01303802A8
:1036D000BC0023302C00BB007930BA002B003C0822
:1036E0002C00BC0088312000B02798312B003B080B
:1036F00085003A0884007808800001303807B90056
:103700002330BB007830BA003908BC00BD013C084A
:103710003D0203189C2B3D083A07840000303B3DD6
:1037200085000008BF003F082000111E952B2300D4
:103730009A002B00BD0A872BE9302300910002304C
:10374000920088312000192198312B00BE013C08DD
:103750003E020318C52B3E083A07840000303B3D6B
:1037600085000008BF002C00E9003730EA008831EE
:103770002000BA24983120302D00B7008831200075
:10378000F42098312B00BE0AA72B0D302D00B70076
:1037900088312000F42098310A302D00B70088319C
:1037A0002000F42098310800F53023009100033008
:1037B000920088312000192198312B0029088400BB
:1037C0002A088500003FAB00290884002A088500EC
:1037D00001310008BC01BB01BA01B900BC00B9014C
:1037E000BA01BB01290884002A08850002310008BB
:1037F000C101C001BF01BE003F08FA003E08F90048
:10380000F701F8017708B9047808BA043E08BB0448
:103810003F08BC04290884002A08850003310008F9
:10382000C101C001BF01BE004008FA003F08F90015
:103830003E08F800F7017708B9043E08BA043F08CB
:10384000BB044008BC04290884002A088500043F02
:10385000F700F801F901FA0177083904AC0078089B
:103860003A04AD0079083B04AE007A083C04AF008E
:10387000290884002A08850005310008BA01B9002A
:10388000BA00B901290884002A088500063FFA0118
:103890003904B0007A083A04B100FF3023009100E7
:1038A0000330920003100C302C00E9008831200016
:1038B000672198312B002B082C00E9003730EA00F3
:1038C00088312000BA2498310D302D00B70088319E
:1038D0002000F42098310A302D00B70088312000F4
:1038E000F420983109302300910004309200031035
:1038F0000E302C00E90088312000672198312B0020
:103900002F082C00E9003730EA0088312000BA2463
:1039100098312B002E082C00E9003730EA0088315E
:103920002000BA2498312B002D082C00E9003730F4
:10393000EA0088312000BA2498312B002C082C0092
:10394000E9003730EA0088312000BA2498310D3080
:103950002D00B70088312000F42098310A302D0066
:10396000B70088312000F4209831143023009100F2
:103970000430920003100E302C00E9008831200042
:10398000672198312B0031082C00E9003730EA001C
:1039900088312000BA2498312B0030082C00E9002F
:1039A0003730EA0088312000BA2498310D302D00DC
:1039B000B70088312000F42098310A302D00B7007C
:1039C00088312000F42098312B002B082C00AF0008
:1039D0000130B000200000202B002B082C00AF008D
:1039E0000230B000200000201F302300910004307E
:1039F00092008831200019219831A831582D78087B
:103A00002C0065082D00A0006430A100903120003A
:103A1000CA27983177082C00E50078083030031D5C
:103A2000182DE61C242DE619242D661A20301B2D96
:103A3000E61166126614F80778082D00B700883181
:103A40002000F42098312C0065082D00A0000A30D9
:103A5000A10090312000CA27983177082C00E5009A
:103A600078083030031D3A2DE619432D661C432D8E
:103A7000661A2030F80778082D00B700883120003A
:103A8000F42098312C003030E50765082D00B70090
:103A900088312000F420983108002400951240302D
:103AA0009400433092003A3095002C003D08C1004C
:103AB0003C08C00090312000E12798312400951285
:103AC00040309400433092003A3095002C00C10100
:103AD0000430C00090312000E127983178082C0094
:103AE000BF007708BE003E08F7003F080F39FA0014
:103AF0003E08F8007A08F90020000800F701F801F4
:103B00002C00660803106718F707F70CF80CE71885
:103B1000F707F70CF80C6719F707F70CF80CE7191B
:103B2000F707F70CF80C671AF707F70CF80CE71A09
:103B3000F707F70CF80C671BF707F70CF80CE71BF7
:103B4000F707F70CF80C2000080001302A005C078A
:103B50000F392B00BA002A005B082B003A02031D24
:103B6000BC2DDA3023009100033092008831200010
:103B7000192198315F2E2B002A005C082C00E600EA
:103B80000930E70020007E25CB307807F80022308E
:103B9000FA000318FA0A78082B00C0007A08C1005E
:103BA0003908FA0038088400390885000030001808
:103BB0000130F8007818E22D4108850040088400A3
:103BC0000010E72D410885004008840000142A00F9
:103BD0005C082C00E6000930E70020007E2501305B
:103BE0007807CB3EF8002230FA000318FA0A78086A
:103BF0002B00C0007A08C10038088400390885000D
:103C000001310008F70001310008F8000131000817
:103C1000F90001310008FA003D317A08C500790841
:103C2000C4007808C3007708C20041088500400836
:103C30008400420880004308813F4408823F4508D1
:103C4000833F2A005C082C00E6000930E7002000D2
:103C50007E2505307807CB3EF8002230FA000318A5
:103C6000FA0A78082B00C0007A08C10038088400DE
:103C70003908850005310008F70001310008F80017
:103C800001310008F90001310008FA003D317A08DD
:103C9000C5007908C4007808C3007708C20041084D
:103CA000850040088400420880004308813F4408A2
:103CB000823F4508833F3A082A00DC002000983103
:103CC000052F2B00290884002A088500013FAB003E
:103CD0008E30230091000430920088312000192199
:103CE00098319930230091000430920003100E3077
:103CF0002C00E90088312000672198312B002B0827
:103D00002C00E5001B30E6002000FF240D302D00C4
:103D1000B70088312000F42098310A302D00B70018
:103D200088312000F420983121008C1222008C165A
:103D3000210010102200101421000C1222000C127D
:103D40002B002A08B9002908B800A031200000285B
:103D50009831A33023009100043092008831200074
:103D60001921983121008C1222008C122100101090
:103D70002200101021000C1222000C16AD3023007E
:103D800091000430920088312000192198312B00D5
:103D90002E10280052082B00B800280053082B00D2
:103DA000B9001630280054072B00BA000030280054
:103DB000553D2B00BB00280056082B003802AF00F1
:103DC000280057082B00393BB000280058082B006A
:103DD0003A3BB100280059082B003B3BB2002800B9
:103DE00059082B00B600280058082B00B500280001
:103DF00057082B00B400280056082B00B3002330CE
:103E0000B9007E30B8002000A52DA831582DB4305F
:103E1000230091000430920088312000192198314C
:103E20002B00290884002A088500003FAB002B08DE
:103E30002C00AF00B001200000202B00AF01AE012C
:103E4000AD01AC01AF08031D512F2E08F43C031C3B
:103E5000512F031D2F2F2D08233C031C512F280009
:103E60005D082B00B30028005C082B00B20028007E
:103E70005B082B00B10028005A082B00B0002F0867
:103E8000B7002E08B6002D08B5002C08B400A031EC
:103E90002000F32A983101302B00AE070030AF3DEF
:103EA000222F2B082C00AF000230B0002000002091
:103EB000C030230091000430920088312000192185
:103EC0009831A831582D47302300910006309200D8
:103ED00088312000192198312B00290884002A08F4
:103EE000850000310008EB002C00AF000130B0006D
:103EF000200000202B00AB01AC01AD01AE01AF01F1
:103F0000B001B101B201B301B401B501B601B7010D
:103F1000B801B901BA01BB01BC01BD01BE01BF01BD
:103F2000C001C101C201C301C401C501C601C7016D
:103F3000C801C901CA01CB01CC01CD01CE01CF011D
:103F4000D001D101D201D301D401D501D601D701CD
:103F5000D801D901DA01DB01DC01DD01DE01DF017D
:103F6000E001E101E201E301E401E501E601E7012D
:103F7000E801E901EA0128005D082D00B7002800EA
:103F80005C082D00B60028005B082D00B500280055
:103F90005A082D00B400BB01BA01B901B8012330A1
:103FA000BD007B30BC00BF014030BE008831200026
:103FB000392698319031002098312B00290884004F
:103FC0002A08850000310008EB002C00AF00023009
:103FD000B0002000002055302300910006309200F0
:0C3FE0008831200019219831A831582D9B
:10400000A63023009100033092008831200019214E
:10401000A0312B003808840039088500013FBA0020
:10402000AD30230091000330920003100E302C00BD
:10403000E900883120006721A0312B003A082C00CC
:10404000E5001B30E60098312000FF24A0310D3040
:104050002D00B70088312000F420A0310A302D0057
:10406000B70088312000F420A03121001010220078
:1040700010148530F700F70B3B282B00BB013A08E2
:104080003B020318F4283B082200990001302D0060
:10409000CD00883120002326A03103102B003B0DDA
:1040A000FA01F9000310F90DFA0D79083A3E2C00D7
:1040B000BA0020307A3DBB008330BD003030BC00F8
:1040C000983120004D25A0312C003B0885003A088E
:1040D0008400780880007908813F03102B003B0D95
:1040E000013EFA01F9000310F90DFA0D79083A3E84
:1040F0002C00BA0020307A3DBB008730BD00303044
:10410000BC00983120004D25A0312C003B088500D3
:104110003A088400780880007908813F03102B005A
:104120003B0DFA01F9000310F90DFA0D79083A3E3A
:10413000840020307A3D850000082C00BA0001314F
:104140000008BB003F3103102B003B0D013EFA017C
:10415000F9000310F90DFA0D79083A3E8400203079
:104160007A3D850000082C00BC0001310008BD002C
:104170003F313B08E9003730EA0088312000BA249B
:10418000A0312C003A08E9003730EA0088312000DD
:10419000BA24A0312C302D00B70088312000F42043
:1041A000A0312C003D08E9003730EA0088312000BA
:1041B000BA24A0312C003C08E9003730EA008831ED
:1041C0002000BA24A0310D302D00B7008831200026
:1041D000F420A0310A302D00B70088312000F420EF
:1041E000A0312B00BB0A3F28210010102200101024
:1041F000B73023009100033092008831200019214C
:10420000A031BD302300910003309200883120009E
:104210001921A0312B00BC01BD01BE01BF01C001AD
:10422000C101C201C301C401C501C601C701C80162
:10423000C901CA01CB01CC01CD01CE01CF01D00112
:10424000D101D201D301D401D501D601D701D801C2
:10425000D901DA01DB01DC01DD01DE01DF01E00172
:10426000E101E201E301E401E501E601E701E80122
:10427000E901EA01EB01EC01ED01EE01EF012C0097
:10428000A001A101A201A301A401A501A601A7010A
:10429000A801A901AA01AB01AC01AE01AD01AE08B4
:1042A000031D852A2B003A082C002D020318852AAD
:1042B0008C302C07BA002330BB000318BB0A031054
:1042C0002D0DBC002E0DBD0003103C0DF9003D0D61
:1042D000FA0079083A3E840020307A3D85000008D3
:1042E000BC0001310008BD003F31BD0CBC0CBD0C51
:1042F000BC0CBD0CBC0CBD0CBC0C0F30BD053C088F
:10430000F700FA013C08BC007A08BD003B088500B4
:104310003A0884003C088000AC0A8C302C07BA00B4
:104320002330BB000318BB0A03102D0DBC002E0D5B
:10433000BD0003103C0DF9003D0DFA0079083A3E2E
:10434000840020307A3D85000008BC00013100085F
:10435000BD003F310F30BC05BD01BC0DBD0DBC0D16
:10436000BD0DBC0DBD0DBC0DBD0DF030BC05031069
:104370002D0DBE002E0DBF000130BE070030BF3D29
:1043800003103E0DF9003F0DFA0079083A3E840013
:1043900020307A3D85000008BE0001310008BF00D2
:1043A0003F313F08BE00BF013E080F39F700FA0158
:1043B00077083C04F7007A083D04FA007708BC004F
:1043C0007A08BD003B0885003A0884003C0880005C
:1043D000AC0A8C302C07BA002330BB000318BB0A90
:1043E00003102D0DBC002E0DBD000130BC070030A8
:1043F000BD3D03103C0DF9003D0DFA0079083A3E31
:10440000840020307A3D85000008BC00013100089E
:10441000BD003F313C08F700FA013C08BC007A08B7
:10442000BD003B0885003A0884003C088000AC0AC7
:104430002C083F3C031D812A2330BB008C30BA007E
:104440003F30BC0088312000B027A03178082C0014
:10445000AB00280052082C00AF00280053082C00A5
:10446000B0001630280054072C00B100003028009E
:10447000553D2C00B20028005D082D00B700280033
:104480005C082D00B60028005B082D00B500280050
:104490005A082D00B4002C0032082D00BB002C005F
:1044A00031082D00BA002C0030082D00B9002C0076
:1044B0002F082D00B8002330BD008C30BC00BF0198
:1044C0004030BE00883120003926A031403028001D
:1044D000D2070030D33DD43DD53D4030D607003023
:1044E000D73DD83DD93D2C00AC01233085008C3020
:1044F0008400F7014030F80088312000CB27A0313C
:104500002C00AD0A0319AE0A4F292C083E3C031CAF
:10451000E42A2C08B30033083E3C031C992A8C3053
:1045200033078400233085000318850A8001B30A0D
:104530008B2A280052082C00B400280053082C00B5
:10454000B5001630280054072C00B60000302800B3
:10455000553D2C00B70028005D082D00B70028004D
:104560005C082D00B60028005B082D00B50028006F
:104570005A082D00B4002C0037082D00BB002C0079
:1045800036082D00BA002C0035082D00B9002C008B
:1045900034082D00B8002330BD008C30BC00BF01B2
:1045A0004030BE00883120003926A031403028003C
:1045B000D2070030D33DD43DD53D4030D607003042
:1045C000D73DD83DD93D2C00903120001826A03190
:1045D000CC30230091000330920088312000192153
:1045E000A0319831A82E2B00B108031DAE2B063048
:1045F000B800D830B9003608C9003708CA00CB0166
:10460000CC01F801F901FA014908BA003508C900DE
:104610003608CA003708CB00CC01F801F901FA01CD
:104620004908BB00F801F901FA013408BC0032085E
:104630002D00D300D4010130D600D50188312000EF
:104640004522A0312B0032082D00D300D401D60121
:104650008030D500883120004522A0312B0033085E
:104660002D00D0002B0032082D00CF002B00310888
:104670002D00CE002B0030082D00CD002330D200BD
:104680008830D100D4010130D30088312000E124EA
:10469000A0312B0032082D00D3000130D400D60009
:1046A000D501883120004522A0312B0032082D0091
:1046B000D300D401D6018030D500883120004522B6
:1046C000A0312B0032082D00D300D4010130D600D8
:1046D000D501883120004522A0312B0032082D0061
:1046E000D300D401D6018030D50088312000452286
:1046F000A0312B0033082D00D0002B0032082D00F4
:10470000CF002B0031082D00CE002B0030082D00EB
:10471000CD002330D2008930D100D4010430D30041
:1047200088312000E124A0312B0032082D00D30075
:104730000130D400D600D501883120004522A031B7
:104740002B0032082D00D300D401D6018030D500D3
:10475000883120004522A0316F2C2B00310B702CAA
:104760000630BD00DC30BE003708C900CA01CB01ED
:10477000CC01F801F901FA014908BF003608C90067
:104780003708CA00CB01CC01F801F901FA01490848
:10479000C0003508C9003608CA003708CB00CC0174
:1047A000F801F901FA014908C100F801F901FA011B
:1047B0003408C20032082D00D300D4010130D600E5
:1047C000D501883120004522A0312B0032082D0070
:1047D000D300D401D6018030D50088312000452295
:1047E000A0312B0033082D00D0002B0032082D0003
:1047F000CF002B0031082D00CE002B0030082D00FB
:10480000CD002330D2008D30D100D4010130D3004F
:1048100088312000E124A0312B0032082D00D30084
:104820000130D400D600D501883120004522A031C6
:104830002B0032082D00D300D401D6018030D500E2
:10484000883120004522A0312B0032082D00D300F2
:10485000D4010130D600D501883120004522A03195
:104860002B0032082D00D300D401D6018030D500B2
:10487000883120004522A0312B0033082D00D000C4
:104880002B0032082D00CF002B0031082D00CE0068
:104890002B0030082D00CD002330D2008E30D10007
:1048A000D4010530D30088312000E124A0312B0051
:1048B00032082D00D3000130D400D600D501883154
:1048C00020004522A0312B0032082D00D300D40156
:1048D000D6018030D500883120004522A0312B0040
:1048E000C30133082D00D0002B0032082D00CF006B
:1048F0002B0031082D00CE002B0030082D00CD00FC
:1049000088312000DD25A03178080139013C031DE4
:10491000A92C2B0043080A3C0318972CC8302D0003
:10492000CD00883120002326A0319E2C2B000A3098
:104930002D00CD00883120002326A0312B00430814
:10494000643C0318A62C2000A92C2B00C30A712C50
:10495000200098314A2F85302300910005309200C5
:10496000883120001921A0312B00290884002A0851
:104970008500003100082C00AE00AF000130B0000F
:10498000983120000020A0312B00AB01AC01AD011B
:10499000AE01AF01B001B101290884002A088500E9
:1049A000003FAB00290884002A0885000131000877
:1049B0002C00B101B001AF01AE00B100AE01AF01FA
:1049C000B0012B00290884002A0885000231000864
:1049D0002C00B601B501B401B3003408FA00330865
:1049E000F900F701F8017708AE047808AF0433083E
:1049F000B0043408B1042B00290884002A0885007B
:104A0000033100082C00B601B501B401B30035082C
:104A1000FA003408F9003308F800F7017708AE040B
:104A20003308AF043408B0043508B1042B0029085A
:104A300084002A088500043FF700F801F901FA0113
:104A400077082C002E042B00AE0078082C002F04D1
:104A50002B00AF0079082C0030042B00B0007A083E
:104A60002C0031042B00B100290884002A0885009D
:104A7000073100082C00AF01AE00AF00AE012B00E3
:104A8000290884002A088500083FFA012C002E041A
:104A90002B00AC007A082C002F042B00AD008F30C7
:104AA000230091000530920003100C302C00E90027
:104AB000883120006721A0312B002B082C00E90051
:104AC0003730EA0088312000BA24A0310D302D00A3
:104AD000B70088312000F420A0310A302D00B70043
:104AE00088312000F420A031993023009100053056
:104AF000920003100E302C00E9008831200067215D
:104B0000A0312B0031082C00E9003730EA00883151
:104B10002000BA24A0312B0030082C00E9003730E7
:104B2000EA0088312000BA24A0312B002F082C0085
:104B3000E9003730EA0088312000BA24A0312B0088
:104B40002E082C00E9003730EA0088312000BA2412
:104B5000A0310D302D00B70088312000F420A031A5
:104B60000A302D00B70088312000F420A031A43095
:104B7000230091000530920003100E302C00E90054
:104B8000883120006721A0312B002D082C00E9007E
:104B90003730EA0088312000BA24A0312B002C08DD
:104BA0002C00E9003730EA0088312000BA24A03117
:104BB0000D302D00B70088312000F420A0310A30DC
:104BC0002D00B70088312000F420A0312B002B08E5
:104BD0002C00AF00B001983120000020A0312B0044
:104BE000B201B301B401B501B601B701B801B90111
:104BF000BA01BB01BC01BD01BE01BF01C001C101C1
:104C0000C201C301C401C501C601C701C801C90170
:104C1000CA01CB01CC01CD01CE01CF01D001D10120
:104C2000D201D301D401D501D601D701D801D901D0
:104C3000DA01DB01DC01DD01DE01DF01E001E10180
:104C4000E201E301E401E501E601E701E801E90130
:104C5000EA01EB01EC01ED01EE01EF012C00A001F6
:104C6000A101AF302300910005309200883120006F
:104C70001921A03128005D082D00B70028005C082C
:104C80002D00B60028005B082D00B50028005A084A
:104C90002D00B400883120005323A031F808031DF3
:104CA0005B2EB53023009100053092008831200042
:104CB0001921A031192F2C00A901A801A701A601D3
:104CC000A908031D062FA808031D062F27082B007F
:104CD0002D0203186D2E2C00062F031D752E2C0897
:104CE0002C0026020318062F2B002C00260DF7009F
:104CF000270DF800280DF900290DFA00F70DF80D21
:104D0000F90DFA0DF70DF80DF90DFA0DF70DF80D77
:104D1000F90DFA0DF70DF80DF90DFA0DF70DF80D67
:104D2000F90DFA0DC030F70577082B002E072C007F
:104D3000A20078082B002F3D2C00A30079082B003F
:104D4000303D2C00A4007A082B00313D2C00A5003A
:104D500028005D082C00E80028005C082C00E70013
:104D600028005B082C00E60028005A082C00E5000B
:104D70002508EC002408EB002308EA002208E900DB
:104D80002330EE008230ED002D00A301A201A1012D
:104D90004030A00088312000A123A0312C00AA01BE
:104DA0002A083F3C031CEE2E82302A078400233061
:104DB00085000318850A0008AE00E9003730EA00D4
:104DC00088312000BA24A03120302D00B70088316E
:104DD0002000F420A0312C00AA0AD02E0D302D0086
:104DE000B70088312000F420A0310A302D00B70030
:104DF00088312000F420A03101302C00A6070318D0
:104E0000A70A0319A80A0319A90A602E2B002B0868
:104E10002C00AF000230B000983120000020A031FB
:104E2000C6302300910005309200883120001921FE
:104E3000A031A831582D20302C006A1E3030EC00F3
:104E40006908F700E91F2C2FF709F70A7708E9002E
:104E50002D30EC00EA176A1469082D00A0006430B8
:104E6000A10090312000CA27A03177082C00E9006A
:104E700030307807ED0069082D00A0000A30A1004D
:104E800090312000CA27A031303077072C00EF0086
:104E900030307807EE006C08F70030306D020319EF
:104EA000552FEA14EA1B6A15692F6C08ED002030B3
:104EB000EC0030306E020319612F6A14EA1BEA1409
:104EC000692F031D6A14031D692F6D08EE00203041
:104ED000ED006A19702FEA18782F6A18802F882F32
:104EE0006C082D00B70088312000F420A0312C0080
:104EF0006D082D00B70088312000F420A0312C006F
:104F00006E082D00B70088312000F420A0312C005D
:104F10006F082D00B70088312000F420A031080070
:104F20008318952F243085008400F701F801F901DA
:104F3000FA012D00B401B501B601B7012F082E0406
:104F40002D042C040319D42F2030B8000310A80D11
:104F5000A90DAA0DAB0DB40DB50DB60DB70D2F08EB
:104F60003702031DBD2F2E083602031DBD2F2D084D
:104F70003502031DBD2F2C083402031CCE2F2C0834
:104F8000B4022D08031C2D0FB5022E08031C2E0F92
:104F9000B6022F08031C2F0FB7020314F70DF80DEC
:104FA000F90DFA0DB80BA62F340880003508813FA3
:104FB0003608823F3708833F200008002A005C083B
:104FC0005B020319E52F0030E62F0130F8002000C6
:104FD000080003302B00A4002030A6000930A500F3
:104FE0000430A700983120004623A031A831A72D16
:10500000280063166414E410E3166313E3132B0003
:105010003408BB003B080139F8002800E412781876
:10502000E41603102B003B0C0139F8002800641231
:10503000781864162B003B0CF700F70C3F30F7058F
:1050400077080139F8002800E4117818E4152B00DE
:105050003B0CF700F70CF70C1F30F7057708013908
:10506000F800280064117818641503302B00BB0089
:105070003B080139F8002800E4137818E4170310FE
:105080002B003B0C0139F8002800641378186417D2
:105090002B003408BB00BD01BC017B080139003086
:1050A000BC04E53023009100013092000310093068
:1050B0002C00E900883120006721A8317B082C00F2
:1050C000E9001830EA00A03120001B27A831203069
:1050D0002D00B70088312000F420A83128302D00A1
:1050E000B70088312000F420A8312B003D082C00A7
:1050F000E9003730EA0088312000BA24A8312B00BB
:105100003C082C00E9003730EA0088312000BA243E
:10511000A83129302D00B70088312000F420A831B3
:105120000D302D00B70088312000F420A8310A305E
:105130002D00B70088312000F420A8317C08013907
:1051400000302B00BC04F0302300910001309200AD
:10515000031009302C00E900883120006721A831B4
:105160007C082C00E9001830EA00A03120001B2741
:10517000A83120302D00B70088312000F420A8315C
:1051800028302D00B70088312000F420A8312B00F2
:105190003D082C00E9003730EA0088312000BA24AD
:1051A000A8312B003C082C00E9003730EA00883198
:1051B0002000BA24A83129302D00B7008831200002
:1051C000F420A8310D302D00B70088312000F420E4
:1051D000A8310A302D00B70088312000F420A83112
:1051E0002B003B080F39F700F70EF70DF70DC03015
:1051F000F7057708BC04FB302300910001309200D2
:10520000031009302C00E900883120006721A83103
:105210002B003B082C00E9001830EA00A0312000E8
:105220001B27A83120302D00B70088312000F42042
:10523000A83128302D00B70088312000F420A83193
:105240002B003D082C00E9003730EA0088312000AF
:10525000BA24A8312B003C082C00E9003730EA00C2
:1052600088312000BA24A83129302D00B7008831B8
:105270002000F420A8310D302D00B7008831200027
:10528000F420A8310A302D00B70088312000F42026
:10529000A83130302B00BC040630230091000230CE
:1052A000920003100A302C00E900883120006721A9
:1052B000A83103302C00E9001830EA00A0312000AA
:1052C0001B27A83120302D00B70088312000F420A2
:1052D000A83128302D00B70088312000F420A831F3
:1052E0002B003D082C00E9003730EA00883120000F
:1052F000BA24A8312B003C082C00E9003730EA0022
:1053000088312000BA24A83129302D00B700883117
:105310002000F420A8310D302D00B7008831200086
:10532000F420A8310A302D00B70088312000F42085
:10533000A831280062080139F700F70DF70DF70DC5
:10534000F830F70577082B00BC04123023009100D9
:105350000230920003100A302C00E900883120004E
:105360006721A831280062082C00E9001830EA0003
:10537000A03120001B27A83120302D00B700883134
:105380002000F420A83128302D00B70088312000FB
:10539000F420A8312B003D082C00E9003730EA004A
:1053A00088312000BA24A8312B003C082C00E900E9
:1053B0003730EA0088312000BA24A83129302D0086
:1053C000B70088312000F420A8310D302D00B7003F
:1053D00088312000F420A8310A302D00B700883130
:1053E0002000F420A8317E080139F700F70DF70DF1
:1053F000FC30F70577082B00BC041E302300910019
:105400000230920003100C302C00E900883120009B
:105410006721A8317E082C00E9001830EA00A0318D
:1054200020001B27A83120302D00B7008831200034
:10543000F420A83128302D00B70088312000F42056
:10544000A8312B003D082C00E9003730EA008831F4
:105450002000BA24A8312B003C082C00E90037308A
:10546000EA0088312000BA24A83129302D00B70085
:1054700088312000F420A8310D302D00B70088318C
:105480002000F420A8310A302D00B7008831200018
:10549000F420A8317D080139F7000310F70D7708D3
:1054A0002B00BC042B30230091000230920003102B
:1054B0000A302C00E900883120006721A8317D08DE
:1054C0002C00E9001830EA00A03120001B27A83189
:1054D00020302D00B70088312000F420A83128307A
:1054E0002D00B70088312000F420A8312B003D08A2
:1054F0002C00E9003730EA0088312000BA24A831B6
:105500002B003C082C00E9003730EA0088312000ED
:10551000BA24A83129302D00B70088312000F420AA
:10552000A8310D302D00B70088312000F420A831BB
:105530000A302D00B70088312000F420A831760809
:1055400001392B00BC043730230091000230920057
:1055500003100A302C00E900883120006721A831AF
:1055600076082C00E9001830EA00A03120001B2743
:10557000A83120302D00B70088312000F420A83158
:1055800028302D00B70088312000F420A8312B00EE
:105590003D082C00E9003730EA0088312000BA24A9
:1055A000A8312B003C082C00E9003730EA00883194
:1055B0002000BA24A83129302D00B70088312000FE
:1055C000F420A8310D302D00B70088312000F420E0
:1055D000A8310A302D00B70088312000F420A8310E
:1055E0002B00BC0DBD0DBC0DBD0DBC0DBD0DBC0D0E
:1055F000BD0DF030BC054330230091000230920015
:1056000003101A302C00E900883120006721A831EE
:105610002B003D082C00E9003730EA0088312000DB
:10562000BA24A8312B003C082C00E9003730EA00EE
:1056300088312000BA24A8310D302D00B700883100
:105640002000F420A8310A302D00B7008831200056
:10565000F420A8312B003C08F8003D08F900790837
:10566000B6007808B50021000F1122000F112400A8
:10567000951240309400433092003A3095002B0050
:1056800036082C00C1002B0035082C00C0009031DA
:105690002000E127A83121000F1122000F150D3045
:1056A000F700F70B512B21000F1122000F112400DE
:1056B000951240309400433092003A3095002C000F
:1056C000C1010430C00090312000E127A8317808E2
:1056D0002B00B8007708B70021000F1122000F152A
:1056E0002B003708B90038080F39BA003908F8001C
:1056F0003A08F900200008004230230091000430ED
:105700009200883120001921A83164302B00A900B3
:105710004930230091000430920003100E302C0019
:10572000E900883120006721A8312B0029082C00CE
:10573000E5001B30E60098312000FF24A8310D3031
:105740002D00B70088312000F420A8310A302D0048
:10575000B70088312000F420A83121001010220069
:1057600010142030F80021001D08833978049D00B2
:105770000F30F8001F08F03978049F000D30F70053
:10578000F70BC02B2B00B401200000207908280063
:10579000BB007808BA000C30F80021001D088339DE
:1057A00078049D000F30F8001F08F03978049F003E
:1057B0000D30F700F70BDA2B2B00B401200000208E
:1057C00079082800BD007808BC000030F8002100EE
:1057D0001D08833978049D000F30F8001F08F03948
:1057E00078049F000D30F700F70BF42B2B00AF016E
:1057F000AE01AF08031D9F2C29082E0203189F2C11
:105800002E08220099008530F700F70B052C003098
:10581000F80021001D08833978049D000F30F8003E
:105820001F08F03978049F000D30F700F70B162C95
:1058300003102B002E0DB2002F0DB3000310320DFC
:10584000F900330DFA0079083A3EB20020307A3D73
:10585000B300B401200000202B003308850032087B
:105860008400780880007908813F0430F800210026
:105870001D08833978049D000F30F8001F08F039A7
:1058800078049F002B00AD01AC01AB01AA01B0016F
:105890003008093C031C5D2C0D30F700F70B4E2C33
:1058A000B4012000002078082B00AA077908AB3D3E
:1058B0000030AC3DAD3DB00A482C83102D082D00C2
:1058C000AB002B002C082D00AA002B002B082D006C
:1058D000A9002B002A082D00A800AF01AE01AD01E0
:1058E0000A30AC00A03120009027A8317A082B00A4
:1058F000AD007908AC007808AB007708AA000D303D
:10590000F700F70B812C03102E0DB2002F0DB30002
:105910000130B2070030B33D0310320DF900330DF2
:10592000FA0079083A3E840020307A3D85002A0842
:1059300080002B08813FAE0A0319AF0AF92B5330C0
:105940002300910004309200883120001921A831F1
:105950000030F80021001D08833978049D000F30C5
:10596000F8001F08F03978049F0010102200101072
:10597000200008002B002608840027088500003F2F
:10598000A800743023009100073092008831200075
:105990001921A8319730230091000730920003109D
:1059A0000C302C00E900883120006721A8312B0041
:1059B00028082C00E9003730EA0088312000BA249A
:1059C000A8319E302300910007309200031004306C
:1059D0002C00E900883120006721A8312B0028081D
:1059E000003A20000319132D103A03191D2D113A06
:1059F0000319272D033A0319282D923A0319292D4B
:105A0000063A0319332D093A03193D2DEE3A0319CD
:105A1000472D033A0319492D013A03194B2D033A37
:105A200003194D2D4F2D2B002708AA002608A90089
:105A300098312000D42BA831582D2B002708AA001C
:105A40002608A90098312000612EA831582D582D24
:105A5000582D2B002708AA002608A90098312000FD
:105A6000072FA831582D2B002708AA002608A900C7
:105A7000A0312000AB2CA831582D2B002708AA00FC
:105A80002608A90098312000632FA831582D7C23C7
:105A9000582D7C23582D7C23582D7C23582DA13044
:105AA0002300910007309200883120001921A8318D
:105AB000AD30230091000730920088312000192179
:105AC000A831A831862DDC302300910007309200E8
:105AD000883120001921A831E730230091000730D8
:105AE0009200883120001921A8318831EE27A83191
:105AF0000230A90003302B002207A4000030233D10
:105B0000A500A7002408A6002000BA2CA031DE279B
