:06000000B03100280000F1
:0800080083018031200077081C
:10001000A0007808A1007908A2007A08A3002300B4
:1000200011082000A400230012082000A5002300CE
:1000300013082000A600230014082000A7008B1E30
:1000400023280B194328850191308400801E2A281B
:10005000911A45282008F7002108F8002208F90025
:100060002308FA002408230091002000250823001B
:100070009200200026082300930020002708230078
:1000800094000900200080314728803185286430A1
:1000900095000130AD070318AE0A0319AF0A031922
:1000A000B00AB008031D5E28AF08031D5E28AE0825
:1000B000031D5E282D08633C03188228B001AF01A0
:1000C000AE01AD010130B1070318B20A0319B30A3A
:1000D0000319B40AB408031D7F283308003C031831
:1000E0008228FF3A031D7F283208503C03188228DB
:1000F000FF3A031D7F2831087F3C03188228B50A88
:100100000319B60A0B1180312A2886288928281C51
:100110009C2857081F3C031C9C285708D70A1F39E6
:10012000173E8400203085000318850A911E96280A
:100130002300190880002000911280312A28D52040
:10014000522AA024EE34F4346136693DE5060A00F3
:100150008921EF367036653AE5060A00C927A024E2
:10016000EE34F4346136693DE5060A008921EF3644
:100170007036653AE5060A00412243104937693A6C
:10018000E930EC34FA320D0500018921EF36703682
:10019000653AE5060A00533A61397410D32BC5223B
:1001A000D0060A008929F7326538A039F432701078
:1001B0003A10A53A0D05000045274410D32BC5225F
:1001C000D0060A00CC37E7336532A021C92353108B
:1001D000E430F4300D058000D3264610E430F430CE
:1001E0002036E9397410E93920337536EC10A11046
:1001F0000D050000D3264610E430F4302036E939EE
:100200007410E939A0326D38F43C0D0500006636F3
:10021000E1396810E23AF33C8A060000D2326132DA
:10022000A024441D00016636E1396810E3376E37BB
:10023000E5317410CF250D0500016636E1396810EF
:10024000EE377410E3376E37E531F4060A0065398E
:10025000F237721D6636E1396810ED37E4326C1002
:10026000E939A0346E3B613669320D05000166360E
:10027000E1396810F434ED32EF3AF4060A006636DC
:10028000E1396810F332633A6F39A032F230F33259
:10029000A031EF367036653AE5060A006539F23767
:1002A000721D6636E1396810ED37E4326C10E939B9
:1002B000A0346E3B613669320D0500016636E139C6
:1002C0006810F434ED32EF3AF4060A006636E1398C
:1002D000681033196B21793A6510F33AE239E53148
:1002E000F43772106539E1396510E3376D38EC3257
:1002F000F4320D0500006539F237721D6636E139BA
:100300006810ED37E4326C10E939A0346E3B613689
:1003100069320D0500016636E1396810F434ED32BA
:10032000EF3AF4060A006636E1396810B435C23C8B
:10033000F432A0397531F332633A6F39A032F230BA
:10034000F332A031EF367036653AE5060A006636BC
:10035000E1396810F434ED32EF3AF4060A006636FB
:10036000E13968107739693A6510E3376D38EC3256
:10037000F4320D0500006636E1396810F434ED32D0
:10038000EF3AF4060A006636E13968107739693ABF
:100390006510E3376D38EC32F4320D050000D232CF
:1003A0006132A024441D00016636E1396810E3374C
:1003B0006E37E5317410CF250D0500016636E13941
:1003C0006810EE377410E3376E37E531F4060A0033
:1003D0000D05533A61397410ED30EB325F39E53178
:1003E000E534F632DF31EF36ED306E320D050001C7
:1003F000892DC227D3295D103E1F3E1000018916AA
:100400003E104639E136651049223A10252C0D057B
:10041000000189163E10C3376E3A65377410F33405
:10042000FA323A1025320D05001089163E10E939CE
:10043000DF32F834733A3A1025320D0500014537A2
:100440006410ED30EB325F39E531693BE52FE3377E
:10045000ED366137E4068A060A00F3346737613601
:10046000A0326E32A03B693A68105323C4060A00DA
:10047000E437EE137410E6346E32A02946220D05DF
:10048000000089163E104937F630EC3464104639C6
:10049000E136651049222039E531E534F632641D34
:1004A000A012D8060A0089163E1043294310653968
:1004B000F237F2100D05000189042D1F2039E531B6
:1004C000E534F63264104329431DA012D8060A0011
:1004D00089042010A0316F36EC32633AA021D2217A
:1004E000201DA012D8060A0089163E104937F630A2
:1004F000EC346410E432F634E332A0244410F232D7
:10050000E332693B65320D05000189042D1F203956
:10051000E531E534F632641D20102010A012D80613
:100520000A0089042010A0267910E432F634E33260
:10053000A024441DA012D8060A00892DC227D32961
:100540005D103C1E3C10000189163E104639E13614
:10055000651049223A10252C0D05000189163E1020
:10056000C3376E3A65377410F334FA323A102532D5
:100570000D050000533A61397410D3264610F53941
:1005800069376710F232F132733AA039E530F13A47
:100590006537E3320D0500014539F237F2102029A5
:1005A000E531E534F634EE33A031EF36ED306E321E
:1005B000A034EE316F37F334733A65377410F73483
:1005C0007434203AE8322032E539E933EE060A0085
:1005D000D3264610F5396510F232F13AE539741038
:1005E0006136EC37F732E4060A00D3264610F539B7
:1005F0006510F232F13AE5397410E432EE3C6532BE
:100600000D050001D23274397910F232F13AE53930
:100610007410F4372021CF295310D024C3060A00C8
:100620004539F237F2102029E531E534F634EE335E
:10063000A031EF36ED306E32A034EE316F37F33447
:10064000733A65377410F7347434203AE832203244
:10065000E539E933EE060A0045376410D326461023
:10066000F53969376710F232F132733AA039E53063
:10067000F13A6537E3320D050000533A61397410E1
:10068000CD27C422A026C520D32AD2220D050000E2
:10069000533A61397410CD27C422A026C520D32A2D
:1006A000D222202B6F36F430E7320D050000533A8A
:1006B00061397410D32BC522D0060A008929F7327C
:1006C0006538A039F43270103A10A53A0D050001D2
:1006D00045274410D32BC522D0060A00F4326D38CA
:1006E0005F3A6F383A10252C0D050001F4326D3851
:1006F0005F316F3A3A10252C0D05000070325F3BD8
:100700006136F5323A10252C0D050000E334E73947
:100710005F3B6136F5323A10252C0D050000E33AB7
:1007200072396537F42FF630EC3A651DA012D80601
:100730000A00F6376C3AE133E52FF630EC3A651DE6
:10074000A012D8060A000D05DF2FDF2FDF2FDF2FC5
:10075000DF2FDF2FDF2FDF2FDF2FDF2F0D05000132
:10076000DF2FDF29F430723AA0316F38F92FE430EF
:10077000F430DF2F0D050001533A61397410DB129C
:10078000641074345D10E430F430A0316F38F90631
:100790008A060A000D05DF2FDF226E32A0316F3886
:1007A000F92FE430F430DF2FDF2F0D050001DF2FAC
:1007B000DF2FDF2FDF2FDF2FDF2FDF2FDF2FDF2FC9
:1007C000DF2F0D050D0500004937A0396D33A03628
:1007D000E939F3346F372032613A6110733A613985
:1007E0007410201061326439E539731DA0124C2C4D
:1007F0000D0500014937A0396D33A036E939F334CE
:100800006F372032613A6110653764102010201074
:1008100061326439E539731DA0124C2C0D050001BD
:100820004937A026C92920234D105739693A651048
:10083000F3377539E3322032613A6110613264393D
:10084000E539731DA0124C2C0D0500014937A02677
:10085000C92920234D105739693A6510E430F43026
:10086000A039693D65102010201020102010201D97
:10087000A012EC3A0D050D050002D334FA32A03077
:10088000F2326110F23261320D050001F539653244
:10089000DF39693D65103D1025367510A839F231F4
:1008A0002018F812301C4C2CA9060A00EC376F38BF
:1008B000A031EF3A6E3A3D1025322010A839F231BE
:1008C0002018F812301C4C2CA9068A060A00573949
:1008D0006138203AF234E733653965323A10D23262
:1008E000F332743A69376710E430F430DF3BF234A6
:1008F000F432DF3064327210F437A039F430723AD7
:100900000D0500005538E430F432A039693D65101A
:100910006139E5300D050001F5396532DF39693D92
:1009200065103D102536E4060A00EC376F38DF31DC
:10093000EF3A6E3AA01EA012F5068A060A000D05CF
:10094000DF2FDF2FDF2FDF2FDF2FDF2FDF2FDF2F37
:10095000DF2FDF2FDF2FDF2FDF2FDF2FDF2F0D0523
:10096000DF2FDF2FDF29F430723AA032F832E33A7A
:10097000F432DF36E939F3346F37DF2FDF2FDF064C
:100980008A060A00C337ED366137641049223A10EF
:10099000252C0D050D05000189163E10453CE1365C
:1009A00070366510E337ED3661376410303C30182F
:1009B0000D05000189042D1FA0246E3B61366932AC
:1009C000A0214D22A024C4100D0500010D05DF2F2C
:1009D000DF2FDF2F45376410653CE531753AE52F91
:1009E000ED34F339E937EE2FDF2FDF2FDF068A2FC3
:1009F000DF2FDF2FDF2FDF2FDF2FDF2FDF2FDF2F87
:100A0000DF2FDF2FDF2FDF2FDF2FDF2FDF2F0D0572
:100A10000000533A61397410653CE531753AE52FB1
:100A2000E337ED366137E4060A0089163E10553883
:100A3000EC34EE35A031EF36ED306E320D050001AD
:100A40000910201054396137F336693AA020E33594
:100A5000EE37EC326732E5060A0089163E10533A4B
:100A6000613AF539A031E832E3350D05000109108E
:100A7000201054396137F336693AA026C929A026D7
:100A8000C32AA029F430F43AF3060A00E634EE341F
:100A900073346532A0346E10733A613AF539DF3140
:100AA000E832E3350D05000089163E10D3264610C6
:100AB000613BE134EC30623665106334E531EB06BE
:100AC0000A000910201054396137F336693AA02022
:100AD000E335EE37EC326732E5060A0089042D1F54
:100AE000A0306C36EF3BE4060A0089042D1F20324B
:100AF0006537F932E4060A00CD24D329C9274E1000
:100B00004626C12948104937693AE930EC34FA32AF
:100B10000D0500014636E1396810E93920376F3A92
:100B2000A0316F37EE32633A65320D050001892F2F
:100B30005F28C921CC27C72FDF060A008904F034BB
:100B40006336EF33DF3BF234F432DF31EF3A6E3AA3
:100B500065392010201DA012EC3A0D050001890412
:100B6000F0346336EF335F36EF37F02FE337753706
:100B7000F43272102010201DA012E4060A0089042D
:100B8000F0346336EF33DF396D337739693AE52F67
:100B9000E3377537F432721DA012EC3A0D050001EF
:100BA0008904F0346336EF33DF396D335F36EF3766
:100BB000F02FE3377537F432721DA012E4060A00F5
:100BC000892FDF26C520D32AD222CD224E2ADF2F1D
:100BD0000D0500018904ED32E1397539E5366537D7
:100BE000F42FE430F430DF31EF3A6E3A65392010FB
:100BF00020103A102536F5060A008904ED32E13955
:100C00005F36EF37F02FE3377537F432721020106C
:100C100020102010201020103A1025320D05000160
:100C20008904ED32E1397539E5366537F42FE43062
:100C3000F430DF396D33DF31EF3A6E3A65393A100F
:100C40002536F5060A008904ED32E139DF396D33C6
:100C50005F36EF37F02FE3377537F432721020101C
:100C6000201020103A1025320D0500018921EF36A1
:100C70007036653AE5060A000D050D050D05BD1E29
:100C8000BD1EBD1EBD1EBD1EBD1EBD1EBD1EBD1E8C
:100C9000BD1EBD1EBD1EBD1EBD1EBD1EBD1EBD1E7C
:100CA000BD1EBD1EBD1EBD1EBD1EBD1EBD1EBD1E6C
:100CB000BD1EBD1EBD1EBD1EBD1E0D050001543452
:100CC000E939A0347310CD27CD24CA24A021C9232B
:100CD0005310D024431042214D10E6377210CD241A
:100CE000D31B5F21C22631170D050001CC30733AAA
:100CF000A03A7032613A6532A0376E103218B21ADB
:100D00002F18B617B11A2C10E23CA024EE37F5329A
:100D1000AE068A060A00DF2FDF2FC324C72920284A
:100D2000C921A029F430723AA027F032F230F4340D
:100D30006F37DF2FDF2FDF068A060A00F730693AA8
:100D400069376710E6377210C227D3292028C921D6
:100D5000A031EF36ED306E3200014639E1366510D4
:100D600049223A10252C0D050001C3376E3A65372C
:100D70007410F334FA323A10A53A0D050001F03040
:100D80007936EF30641D20000D050D050001E939AD
:100D9000DF32F834733A3A1025320D0500010D05A3
:100DA0000D05BD1EBD1EBD1E0D050D05C634EE3460
:100DB000733465322038F237E332F339AE068A2BCA
:100DC000E1347410E6377210C227D3292028C921D4
:100DD000203A75396E106F336610ED3200014537D9
:100DE0006410ED3069370D05000021000D1222005E
:100DF0000D120830F8002000FD2E0000F817132F08
:100E0000F8133200A50C220003180D16031C0D1256
:100E100020007817132F7813F80B012F0F2F0000E5
:100E200022000D16200084308400840B152F000052
:100E3000F81B002F781B0B2F08000B088B132300C7
:100E40009517151400000000891B8B1713087F39B4
:100E5000031D2C2F20006C2F3200A200230011084C
:100E60003200A300230012083200A4002208A500CB
:100E70002000F526320023082300910032002408C8
:100E8000230092000B088B13951715140000000027
:100E9000891B8B17130D140D7F39031D512F200053
:100EA0006C2F3200A200230011083200A30023009F
:100EB00012083200A4002208A5002000F526320006
:100EC0002308230091003200240823009200910A95
:100ED0000319920A20001D2F0800AE302300910054
:100EE0000030920020001D2721000E1022000E105D
:100EF00021008E1122008E11B630230091000030A7
:100F0000920020001D27B031102DBC30230091002D
:100F10000030920020001D277830210099001E101B
:100F20009E101E11003023008C0000309000003015
:100F30008D00EB308F0021001E129E161E179E138F
:100F40001D1498302200980032309900C5302300DB
:100F500091000030920020001D27B031132D9F30EA
:100F6000230091000030920020001D2721009116DF
:100F7000C0308B04A8302300910000309200200084
:100F80001D27B031162D21001508C03907389500EE
:100F900011142000B031192D2F002A10AB152B1180
:100FA000AA102A11AA112000B0311C2D32002108EC
:100FB0000739F700210CF800F80CF80C1F30F80581
:100FC0007808230784000030243D8500F801F80AE2
:100FD000F70A2000EC2FF80DF70BEB2F3200A208D8
:100FE000031DF42F2000F82F780880042000FB2F29
:080FF000F809780880050800EB
:101000002400110832003E08240091002000240032
:10101000140C03180D28200007281108F7002000E1
:1010200008002400110832003E082400910020002E
:101030002400140C03181E28200018281108F7009B
:101040002000080032002108003A200003192C2853
:10105000013A0319AD282E293200B001AF0120005A
:101060003200300828020318372820005E282000AC
:10107000031D4228320027082F02031C41282000AC
:101080005E282000320025082F0784002608303D06
:1010900085000008BC0024009512403094000930FF
:1010A00092002A30950032003C08BE00200000204B
:1010B0003200AF0A0319B00A200030283200B40110
:1010C000B301B201B1012000320034082E0203182E
:1010D0006B282000AC282000031D8A28320033082A
:1010E0002D02031875282000AC282000031D8A2833
:1010F000320032082C0203187F282000AC28200080
:10110000031D8A2832002B083102031C8928200085
:10111000AC28200032002908310784002A08323D1B
:1011200085002400951240309400093092002A3046
:10113000950001303200BE002000002078087708BA
:10114000800001303200B1070318B20A0319B30A54
:101150000319B40A200064282F293200B601B50112
:1011600020003200360828020318B8282000DF28A3
:101170002000031DC328320027083502031CC228A3
:101180002000DF28200032002508350784002608CB
:10119000363D85000008BC002400951240309400C4
:1011A000093092002A30950032003C08BE00200031
:1011B00011203200B50A0319B60A2000B128320006
:1011C000BA01B901B801B701200032003A082E0275
:1011D0000318EC2820002D292000031D0B293200C4
:1011E00039082D020318F62820002D292000031DA0
:1011F0000B29320038082C020318002920002D2961
:101200002000031D0B2932002B083702031C0A297A
:1012100020002D29200032002908370784002A08E1
:10122000383D85002400951240309400093092002A
:101230002A30950002303200BE00200011207808CC
:101240007708800001303200B7070318B80A031985
:10125000B90A0319BA0A2000E5282F292F29080006
:101260009F303100C0003A083200A100A2010130D5
:10127000A400A30180312000D627883131003A082C
:101280003200A100A201A4018030A300803120001F
:10129000D627883131003B083200A40031003A08DB
:1012A0003200A300310039083200A20031003808B2
:1012B0003200A1002530A6007030A500A801013041
:1012C000A7002530AA006C30A900AE01AD01AC0129
:1012D0000430AB002000222031003A083200A10087
:1012E0000130A2000130A400A30180312000D627E4
:1012F000883131003A083200A100A201A4018030F7
:10130000A30080312000D6278831CF302300910000
:1013100001309200803120001D27883131003C08C7
:10132000203C031995292000A3292000D430230054
:10133000910001309200803120001D27883101305A
:10134000F800AF29AF29DE30230091000130920070
:10135000803120001D2788310030F800AF29883106
:10136000F92C3100D3080319B7292000442A2000A2
:1013700003303100E0005808EC005908ED00EE01A0
:10138000EF016C08F700F801F901FA017708E100B4
:101390005708EC005808ED005908EE00EF016C0802
:1013A000F700F801F901FA017708E2005608F700A2
:1013B000F801F901FA017708E30054083200A100AE
:1013C000A2010130A400A30180312000D62788317A
:1013D000310054083200A100A201A4018030A30012
:1013E00080312000D6278831310055083200A40012
:1013F000310054083200A300310053083200A2002B
:10140000310052083200A1002530A6009030A5001E
:10141000A8010430A70031005B083200AA003100A7
:101420005A083200A90031005F083200AE003100D6
:101430005E083200AD0031005D083200AC003100C2
:101440005C083200AB00200022200230F700F70BCE
:10145000272A0000310054083200A1000130A20008
:101460000130A400A30180312000D627883131004B
:1014700054083200A100A201A4018030A3008031F1
:101480002000D6278831E32A3100530B492A4B2A02
:1014900020002000E32A200013303100E400590826
:1014A000EC00ED01EE01EF016C08F700F801F90125
:1014B000FA017708E5005808EC005908ED00EE0144
:1014C000EF016C08F700F801F901FA017708E6006E
:1014D0005708EC005808ED005908EE00EF016C08C1
:1014E000F700F801F901FA017708E7005608F7005C
:1014F000F801F901FA017708E80054083200A10068
:10150000A2010130A400A30180312000D627883138
:10151000310054083200A100A201A4018030A300D0
:1015200080312000D6278831310055083200A400D0
:10153000310054083200A300310053083200A200E9
:10154000310052083200A1002530A6009430A500D9
:10155000A8010530A70031005B083200AA00310065
:101560005A083200A90031005F083200AE00310095
:101570005E083200AD0031005D083200AC00310081
:101580005C083200AB00200022200230F700F70B8D
:10159000C72A0000310054083200A1000130A20027
:1015A0000130A400A30180312000D627883131000A
:1015B00054083200A100A201A4018030A3008031B0
:1015C0002000D627883108000B088B1323009517BD
:1015D000151400000000891B8B17031CF12A200042
:1015E0001D2B13087F393100D20023001108310070
:1015F000D300230012083100D40052083200A500A5
:1016000080312000F52688313100530823009100F5
:1016100031005408230092000B088B139517151402
:1016200000000000891B8B173100D10B192B1B2BDD
:10163000200020001D2B2000452B2300130D140D2E
:101640007F393100D200230011083100D30023007C
:1016500012083100D40052083200A5008031200069
:10166000F5268831310053082300910031005408D9
:1016700023009200910A0319920A03103100D10B42
:10168000432B452B20002000E42A2000080083186B
:101690004D2B253085009B308400F701F801F901BE
:1016A000FA013100EB01EC01ED01EE01670866047F
:1016B00065046404031D5E2B2000A12B2000203054
:1016C0003100EF00200003103100E00DE10DE20DCC
:1016D000E30DEB0DEC0DED0DEE0D67086E02031939
:1016E000732B2000822B66086D020319792B2000D2
:1016F000822B65086C0203197F2B2000822B640863
:101700006B022000031C952B31006408EB02650876
:10171000031C650FEC026608031C660FED026708E8
:10172000031C670FEE0203142000F70DF80DF90DEE
:10173000FA0D3100EF0B9E2BA02B20002000632B15
:10174000200031006B08800001316C0880000131FD
:101750006D08800001316E0880003D3120000800D6
:1017600004083100D8003B30DF009A30DE00CA3078
:10177000DD00DC010A30DA0020008314253085000A
:101780008130840031005408E3005308E20052081D
:10179000E1005108E0005F08E7005E08E6005D0830
:1017A000E5005C08E400200047237808F708031DE3
:1017B000FC2B31005A08013A031DE02B2000FC2BC2
:1017C0005808031DE52B2000FF2B0F395A02031D7B
:1017D000EB2B2000F02B031CEF2B2000082C20000B
:1017E0003100D81FF52B2000082C581FF92B2000A2
:1017F000FF2B20302000002C3100D8012000303099
:10180000F70777083200A50080312000F5268831DF
:10181000831031005F08E3005E08E2005D08E1002C
:101820005C08E000E701E601E5010A30E400200081
:1018300047237A083100DF007908DE007808DD00F0
:101840007708DC00DA0B262C282C20002000BD2B8A
:101850002000080031005508F8015402031C322C06
:101860002000362C5408F7002000492CF7010830DE
:101870003100D60020003100D40DF70D5508770255
:101880000318F700F80DD60B472C492C2000200038
:101890003B2C20000800203031004F1E3030D0009B
:1018A0004E08F700F71B562C20005F2CF709F70AAB
:1018B0007708CE002D30D000CF174F1420007808C5
:1018C00031004E08D4006430D50020002A24770867
:1018D0003100CE0030307807D1004E08D4000A30F5
:1018E000D50020002A24303077073100D300303073
:1018F0007807D2005008F700200030303100510244
:10190000031D842C2000892CCF14CF1B4F152000E1
:10191000A62C31005008D1002030D00030305202C7
:10192000031D942C2000992C4F14CF1BCF142000A2
:10193000A62C03199E2C31004F142000031DA62C49
:1019400031005108D2002030D100200031004F1D5D
:10195000AB2C2000B52CCF1CAF2C2000BD2C4F1C75
:10196000B32C2000C52C2000CD2C310050083200B3
:10197000A50080312000F526883131005108320061
:10198000A50080312000F526883131005208320050
:10199000A50080312000F52688313100530832003F
:1019A000A50080312000F526883108007C30230016
:1019B000910005309200803120001D2788312100E0
:1019C0008F1022008F1421000E1122000E152E0000
:1019D0006F083100BB002E006E083100BA002E00E7
:1019E0006D083100B9002E006C083100B8002000ED
:1019F0003029F808031D062D8A3023009100053098
:101A00009200803120001D278831972E2E006F080C
:101A10003100D5002E006E083100D4002E006D0874
:101A20003100D3002E006C083100D200D901D8015A
:101A3000D701D6012430DB00E830DA00DF01DE0117
:101A4000DD014030DC002000B121973023009100FF
:101A500005309200803120001D2788319E30230000
:101A600091000530920003101B303100D10020009E
:101A7000E422413084002F005B083100D4002F00A5
:101A80005A083100D3002F0059083100D2002F002E
:101A900058083100D1002000B0230D303200A500DD
:101AA00080312000F52688310A303200A5008031CF
:101AB0002000F5268831AF302300910005309200D8
:101AC00003101B303100D1002000E4222F005C08FD
:101AD0003100CE001830CF0020004B240D303200F2
:101AE000A50080312000F52688310A303200A5009B
:101AF00080312000F5268831BF3023009100053069
:101B0000920003101B303100D1002000E42241304C
:101B100084002F0060083100D4002F005F083100DE
:101B2000D3002F005E083100D2002F005D08310085
:101B3000D1002000B0230D303200A50080312000FC
:101B4000F52688310A303200A50080312000F526C4
:101B50008831D030230091000530920003101B30F3
:101B60003100D1002000E4222F0061083100CE00B6
:101B70001830CF0020004B240D303200A5008031FA
:101B80002000F52688310A303200A500803120007F
:101B9000F52688312E006F083100D5002E006E0822
:101BA0003100D4002E006D083100D3002E006C08E7
:101BB0003100D200D901D801D701D6012530DB0090
:101BC0002830DA00DF01DE01DD014030DC002000DA
:101BD000B121E030230091000530920080312000D7
:101BE0001D278831EA302300910005309200031050
:101BF00020303100D1002000E42241308400300048
:101C00004B083100D40030004A083100D3003000C6
:101C100049083100D200300048083100D1002000CE
:101C2000B0230D303200A50080312000F526883128
:101C30000A303200A50080312000F5268831FD30C1
:101C40002300910005309200031020303100D100B4
:101C50002000E42230004C083100CE001830CF00C4
:101C600020004B240D303200A50080312000F526E5
:101C700088310A303200A50080312000F5268831F5
:101C80001030230091000630920003102030310004
:101C9000D1002000E422413084003000500831009F
:101CA000D40030004F083100D30030004E0831001E
:101CB000D20030004D083100D1002000B0230D309B
:101CC0003200A50080312000F52688310A3032002C
:101CD000A50080312000F5268831233023009100B3
:101CE00006309200031020303100D1002000E422A1
:101CF000300051083100CE001830CF0020004B24B6
:101D00000D303200A50080312000F52688310A30E0
:101D10003200A50080312000F526883136302300BE
:101D2000910006309200803120001D278831B031AB
:101D30001F2D3100D21F9E2E2000B72E0F30F7002E
:101D4000510EF7050A307702031CA82E2000AC2E96
:101D50003030F7072000B02E31005208F70720007E
:101D600077083200A50080312000F52688310F3039
:101D70003100D1050A305102031CC02E2000C32EB1
:101D800030302000C72E3100D2135208200031001D
:101D9000D10751083200A50080312000F526883196
:101DA0000800300043088400440885000031000822
:101DB000C6000130C7002000300045084702031C60
:101DC000E32E2000F02E200030004708C70A43070A
:101DD00084000030443D85000008C6062000DC2E4B
:101DE00030004608F80020000800780831003A0862
:101DF000D4006430D50020002A2477083100BA00CE
:101E0000780830300319062F2000122FBB180A2F34
:101E100020001F2FBB1D0E2F20001F2F3B1A20302C
:101E20002000172F3100BB113B123B142000F80794
:101E300078083200A50080312000F5268831310075
:101E40003A08D4000A30D50020002A24770831004F
:101E5000BA007808303003192F2F20003A2FBB1D0D
:101E6000332F2000422F3B18372F2000422F3B1AE0
:101E700020302000F80778083200A50080312000CB
:101E8000F526883130303100BA073A083200A50013
:101E900080312000F526883108002F005B08FA0009
:101EA0005A0884007A0885000008DC00590885007B
:101EB00058088400F7015C08F8002000780803192E
:101EC000652F77081A00F80B612F2F005B08FA00C6
:101ED0005A0884007A08850080012000B031152E50
:101EE0000F302F00DC00DE01DD01DF01903120002A
:101EF0000523883108002F006B08EF006A08EE0008
:101F000020002F006F083000A1002F006E08300065
:101F1000A00020080139F700FA017708F8002F0027
:101F20002A1378182A1703106F0C3000A1002F0015
:101F30006E0C3000A00020080139F700FA01770884
:101F4000F8002F00AA137818AA176F0C3000A10010
:101F50002F006E0C3000A000A10CA00C3F30A1059A
:101F600020080139F700FA017708F8002F002B103C
:101F700078182B146F0C3000A1002F006E0C30006D
:101F8000A000A10CA00CA10CA00C1F30A1052008E2
:101F90000139F700FA017708F8002F00AB10781824
:101FA000AB1420002F00EE0120002F006E08013935
:101FB000F8002A1278182A1603106E0C0139F8005E
:101FC000AA127818AA1620002F00ED01EC016C0867
:101FD000F8006D08F900200008002E006B086A0266
:101FE000031DF42F2000F72F20000030F82F0130C0
:041FF000F8000800ED
:102000002F00E101E201E301E401E501E601E7015E
:10201000E801E901EA01EB01EC01ED01EE01EF015C
:102020003000A001A101A201A301A401A501A60104
:10203000A701A801A901AA01AB01AC01AD01AE0144
:10204000AF01B001B101B201B301E830230091004A
:1020500001309200803120001D279031F83023009C
:10206000910001309200803120001D279031300016
:10207000B40120002F00600830003402031C422805
:10208000200062282000300034082F005E07840002
:1020900000305F3D850000083000BD003D08310084
:1020A000D1003730D200883120009926903120307D
:1020B0003200A50080312000F52690313000B40AAE
:1020C00020003A280D303200A50080312000F5268E
:1020D00090310A303200A50080312000F526903181
:1020E0002F005F083000BE002F005E083000BD00EA
:1020F0002F0060083000BF0020003000C001C00188
:102100002000013030003F024002031C89282000DB
:10211000A2282000300040083D07840000303E3DEA
:1021200085000008AA3C0319972820009E2820005B
:10213000013030004007F8002000C9283000C00AF4
:1021400020008128300040083D07840000303E3DDB
:1021500085000008AA3C0319AF282000BD282000F4
:102160002D302300910002309200803120001D2785
:102170009031FF30F800C928C92838302300910079
:1021800002309200803120001D279031FF30F8008E
:10219000C92878083000B5003508FF3C0319D2285B
:1021A0002000D8282000E130F8000730F900032B88
:1021B000300035082F005E073000B60000302F00D9
:1021C0005F3D3000B70036088400370885000031D5
:1021D00000080F39B8003808BD0020003000BE01EB
:1021E000200030003E08023C0318F82820001B297C
:1021F0002000031030003E0DB43E840024308500E2
:102200000318850A00083D02031908292000172930
:102210002000031030003E0D013EB43E8400243007
:1022200085000318850A0008F800200042293000C4
:10223000BE0A2000F12841302300910002309200B4
:1022400003101F303100D10088312000E42290318A
:1022500030003D083100D1003730D20088312000F5
:10226000992690310D303200A50080312000F526EE
:1022700090310A303200A50080312000F5269031DF
:10228000FF30F80078083000B9003908FF3C031926
:102290004B29200051292000E130F8000730F900D7
:1022A000032B300035082F0060023000BA003708D9
:1022B000BE003608BD003A08BF00200001303000E3
:1022C0003F023D07840000303E3D85000008C0000D
:1022D00001303F02C2003E08C4003D08C30042086E
:1022E000C50088312000D126903178083000C10027
:1022F0004108400203197E29200083292000013073
:10230000F800D929D92953302300910002309200D6
:10231000803120001D2790315C3023009100023075
:102320009200031013303100D10088312000E422E4
:102330009031300040083100D1003730D200883170
:102340002000992690310D303200A5008031200008
:10235000F52690310A303200A50080312000F526A4
:102360009031683023009100023092000310133046
:102370003100D10088312000E42290313000410842
:102380003100D1003730D2008831200099269031B9
:102390000D303200A50080312000F52690310A3042
:1023A0003200A50080312000F52690310030F80081
:1023B000D929F808031DE129E130F8000730F900B8
:1023C000032B3000360884003708850000310008F0
:1023D000F039F700770EBD000F30BD053D08BE0097
:1023E000200030003E080C3C0319F8292000FD298C
:1023F00020000130F800522A522A74302300910044
:1024000002309200803120001D279031853023005A
:10241000910002309200031013303100D100883156
:102420002000E422903130003E083100D1003730E6
:10243000D20088312000992690310D303200A5005D
:1024400080312000F52690310A303200A50080311D
:102450002000F52690319130230091000230920047
:10246000031013303100D10088312000E422903174
:102470000C303100D1003730D2008831200099264D
:1024800090310D303200A50080312000F5269031CA
:102490000A303200A50080312000F526903100304E
:1024A000F800522AF808031D5A2AE130F8000730D4
:1024B000F900032B300038082F00E1000130300014
:1024C0003607BD000030373DBE0002303A02BF0083
:1024D0003E0885003D0884003F08F800031D722A6D
:1024E00020007B2A24308700F43086002000120070
:1024F0001E00F80B772A023030003A022F00E2006B
:102500006314FF30230091000130920003100E305D
:102510003100D10088312000E42290312F00610881
:102520003100D1003730D200883120009926903117
:102530000D303200A50080312000F52690310A30A0
:102540003200A50080312000F526903109302300AB
:10255000910002309200031012303100D100883116
:102560002000E42290312F0062083100CE001830A4
:10257000CF00883120004B2490310D303200A5006F
:1025800080312000F52690310A303200A5008031DC
:102590002000F526903100302F0063180130300004
:1025A000BD001530230091000230920003100E3060
:1025B0003100D10088312000E422903130003D0804
:1025C0003100CE001830CF00883120004B249031EC
:1025D0000D303200A50080312000F52690310A3000
:1025E0003200A50080312000F52690311F302300F5
:1025F000910002309200803120001D279031E1309F
:10260000F8000730F900B031492DAA302F00E00062
:102610005C085038E1005E0885005D0884005F08B2
:10262000F800031D152B20001E2B24308700F230EC
:102630008600200012001E00F80B1A2B02302F001B
:102640005F073000A000F0302007A2002430A30074
:102650000318A30A01302002A4002430C400F13082
:10266000C3002408C50088312000D12690313000F5
:1026700023088500220884007808800001302007A4
:10268000A1002430A300F030A2002108A400200003
:102690003000A5012000300024082502031C522B25
:1026A0002000672B2000300025082207840000301E
:1026B000233D85000008A70027082000111E5E2B7F
:1026C00023009A0020003000A50A20004B2B9D30EB
:1026D0002300910002309200803120001D279031AC
:1026E0003000A6012000300024082602031C7A2BAB
:1026F0002000982B2000300026082207840000309C
:10270000233D85000008A70027083100D10037309D
:10271000D200883120009926903120303200A50067
:1027200080312000F52690313000A60A2000732B5E
:102730000D303200A50080312000F52690310A309E
:102740003200A50080312000F52690310800F70105
:10275000F8013100310803103218F707F70CF80CB4
:10276000B218F707F70CF80C3219F707F70CF80C4A
:10277000B219F707F70CF80C321AF707F70CF80C38
:10278000B21AF707F70CF80C321BF707F70CF80C26
:10279000B21BF707F70CF80C200008005730230095
:1027A000910003309200803120001D279031643069
:1027B0002F00E3005E3023009100033092000310ED
:1027C0000E303100D10088312000E42290312F00FA
:1027D00063083100BA001B30BB0088312000F526A9
:1027E00090310D303200A50080312000F526903167
:1027F0000A303200A50080312000F52690312100FA
:102800000E1022000E142030F80021001D0883391C
:1028100078049D000F30F8001F08F03978049F00FD
:102820000D30F7002000F70B132C2F00EB01EA010D
:10283000883120007B27903179082C00B30078087C
:10284000B2000C30F80021001D08833978049D0087
:102850000F30F8001F08F03978049F000D30F700A2
:102860002000F70B312C2F00EB01EA01883120000A
:102870007B27903179082C00B5007808B40000302F
:10288000F80021001D08833978049D000F30F800FE
:102890001F08F03978049F000D30F7002000F70B77
:1028A0004F2C2F00EB01EA01883120007B2790316B
:1028B00079082C00AF007808AE002F00E501E40194
:1028C00020002F00E5080319672C2000332D20007D
:1028D0002F0063086402031C6F2C2000332D20009E
:1028E0002F006408220099008530F7002000F70BC4
:1028F000772C0030F80021001D08833978049D00F2
:102900000F30F8001F08F03978049F000D30F700F1
:102910002000F70B892C03102F00640DE800650DD3
:10292000E9000310680DF900690DFA0079083A3ED4
:10293000F8002030FA3D7808E8007A08E900EB0159
:10294000EA01883120007B2790312F00690885003B
:1029500068088400780880000131790880003F31E0
:102960000430F80021001D08833978049D000F30E1
:10297000F8001F08F03978049F002C00B901B80155
:10298000B701B6012F00E60120002F006608093CC0
:102990000318CC2C2000E82C20000D30F700F70B9A
:1029A000CF2C2F00EB01EA01883120007B279031EA
:1029B0007908FA0078082C00B6077A08B73D00308D
:1029C000B83D0030B93D20002F00E60A2000C52C9C
:1029D00083102C0039083100E3002C003808310046
:1029E000E2002C0037083100E1002C0036083100ED
:1029F000E000E701E601E5010A30E400883120004B
:102A0000472390317A082C00B9007908B80078087B
:102A1000B7007708B6000D30F7002000F70B0E2D39
:102A200003102F00640DE800650DE9000130E80790
:102A30000030E93D0310680DF900690DFA007908CE
:102A40003A3E840020307A3D85002C003608800014
:102A50000131370880003F3120002F00E40A0319BC
:102A6000E50A2000612C68302300910003309200B9
:102A7000803120001D2790310030F80021001D0812
:102A8000833978049D000F30F8001F08F03978046E
:102A90009F009D14200021009D1C502D20004B2DD7
:102AA0002C00B10121001C082C00B0002F0063088D
:102AB000E8002000E23023009100003092008031D5
:102AC00020001D2790312F00E90120002F00680809
:102AD0006902031C6D2D2000AB2E20002F00690819
:102AE0003100B1000330B2002000A72392307807F4
:102AF000F8002230FA000318FA0A78082F00EA00DA
:102B00007A08EB000310690DFA01F9000310F90DC2
:102B1000FA0D79083A3E840020307A3D850000089D
:102B2000EC0001310008ED003F31ED0CEC0CED0C38
:102B3000EC0CED0CEC0CED0CEC0C0F30ED056C0816
:102B4000F700FA017708EC007A08ED006B088500C1
:102B50006A0884006C08800069083100B100033005
:102B6000B2002000A723923078078400223085002D
:102B70000318850A00082F00EA006A083100D10016
:102B80003730D20088312000992690312030320031
:102B9000A50080312000F52690312F006908310012
:102BA000B1000330B2002000A72301307807923E25
:102BB000F8002230FA000318FA0A78082F00EA0019
:102BC0007A08EB000310690DFA01F9000310F90D02
:102BD000FA0D79083A3E840020307A3D85000008DD
:102BE000EC0001310008ED003F310F30EC05ED0144
:102BF000EC0DED0DEC0DED0DEC0DED0DEC0DED0D09
:102C0000F030EC050310690D013EFA01F9000310E4
:102C1000F90DFA0D79083A3E840020307A3D85009E
:102C20000008EE0001310008EF003F316F08EE00B0
:102C3000EF016E080F39F700FA0177086C04F7000E
:102C40007A086D04FA007708EC007A08ED006B084A
:102C500085006A0884006C08800069083100B100B2
:102C60000330B2002000A72301307807923E840091
:102C7000223085000318850A00082F00EA006A0840
:102C80003100D1003730D2008831200099269031B0
:102C900020303200A50080312000F52690312F0031
:102CA00069083100B1000330B2002000A7230230D0
:102CB0007807923EF8002230FA000318FA0A7808E2
:102CC0002F00EA007A08EB000310690D013EFA01BB
:102CD000F9000310F90DFA0D79083A3E840020300E
:102CE0007A3D85000008EC0001310008ED003F311D
:102CF0006C08F700FA017708EC007A08ED006B0821
:102D000085006A0884006C08800069083100B10001
:102D10000330B2002000A72302307807923E8400DF
:102D2000223085000318850A00082F00EA006A088F
:102D30003100D1003730D2008831200099269031FF
:102D400020303200A50080312000F52690312F0080
:102D5000E90A2000662D0D303200A50080312000E8
:102D6000F52690310A303200A50080312000F5268A
:102D7000903121000E1022000E10200008002F00BC
:102D80005E0884005F08850000310008E000013023
:102D90005E07F80000305F3DFA007808E1007A082D
:102DA000E2009F3023009100043092008031200027
:102DB0001D279031C230230091000430920003108F
:102DC0000C303100D10088312000E42290312F00F6
:102DD00060083100D1003730D200883120009926B8
:102DE0009031C93023009100043092000310043068
:102DF0003100D10088312000E42290312F0060089A
:102E0000003A200003191A2F103A0319242F113AFF
:102E10000319252F033A0319262F733A0319272F75
:102E2000033A0319292F013A03192B2F033A0319E7
:102E30002D2F2F2FCC3023009100043092008031B1
:102E400020001D279031382F382F382F382FCE23D0
:102E5000382FCE23382FCE23382FCE23382FDA30F9
:102E60002300910004309200803120001D27903112
:102E7000E6302300910004309200803120001D27AD
:102E800090319031672F153023009100053092006A
:102E9000803120001D279031203023009100053023
:102EA0009200803120001D279031883170279031A9
:102EB0000230A90003302F005A07DC0000305B3DD0
:102EC000DD005D08DF005C08DE002000BF2E8831D9
:102ED000ED279031F8080319702F0630A900722FE2
:102EE0000430A9009831DD2F03302F00DC002030A2
:102EF000DE000930DD000430DF00200005239031C2
:102F0000942F2D3023009100053092008031200055
:102F10001D27903137302300910005309200803119
:102F200020001D279031742F2908063C031DA52F72
:102F300046302300910005309200803120001D278B
:102F400090310130F800A82FA82F0030F800A82FEA
:102F50009831E72F2E006B086A020319B12F200069
:102F6000C12F2000FA302300910000309200803100
:102F700020001D2790310030F8000030F900DE2FCE
:102F8000DE2F2E006A083100B000200001302E0034
:102F90006A070F39EA0031003008B1000930B20089
:102FA0002000A72378081A3EF8002430FA000318FE
:102FB000FA0A7808F8007A08F900DE2FA8315D2AAD
:102FC000253085009B30840000080319F52F05305B
:102FD000F800F701F70BEA2FF80BE92F2E30F70076
:0C2FE000F70BF02FF32F800BE72F0800F9
:103000003100D301D401D501D601D701D801D901AE
:10301000DA01DB01D20803190F2820002328200041
:1030200002303100D6004030D500D401D301023047
:10303000DA005030D9000F30D800FF30D700803090
:10304000DB0020008B283100520B28282A28200082
:1030500020003F28200002303100D6005030D5003B
:103060001030D400D3010230DA005030D9001F30C4
:10307000D800FF30D7008130DB0020008B283100E2
:103080005208023C0319462820005B282000023029
:103090003100D6005030D5006030D400D30102306A
:1030A000DA005130D9006F30D800FF30D7008330BC
:1030B000DB0020008B2831005208033C03196228F2
:1030C00020007728200002303100D6005130D50092
:1030D0007030D400D3010230DA005130D9007F3093
:1030E000D800FF30D7008430DB0020008B28FF3071
:1030F0003100D600FF30D500FF30D400FF30D300C0
:10310000FF30DA00FF30D900FF30D800FF30D700A1
:10311000FF30DB002000D330F8000830F900983190
:10312000C1293100D0080319972820001729200051
:1031300003303100D8005508E2005608E300E401EE
:10314000E5016208F700F801F901FA017708D900F2
:103150005408E2005508E3005608E400E50162085F
:10316000F700F801F901FA017708DA005308F700CF
:10317000F801F901FA017708DB0051083200A100DB
:10318000A2010130A400A30180312000D62798318C
:10319000310051083200A100A201A4018030A30037
:1031A00080312000D6279831310052083200A40027
:1031B000310051083200A300310050083200A20053
:1031C00031004F083200A1002530A6008830A5004C
:1031D000A8010430A7002530AA008730A900AE015D
:1031E000AD01AC010130AB008831200022209831C4
:1031F0000230F700F70BFA280000310051083200C6
:10320000A1000130A2000130A400A3018031200000
:10321000D6279831310051083200A100A201A40143
:103220008030A30080312000D6279831A9293100B1
:10323000500B1C291E2920002000A9292000133032
:103240003100DC005608E200E301E401E501620818
:10325000F700F801F901FA017708DD005508E200EE
:103260005608E300E401E5016208F700F801F901FE
:10327000FA017708DE005408E2005508E30056081A
:10328000E400E5016208F700F801F901FA017708A6
:10329000DF005308F700F801F901FA017708E000B0
:1032A00051083200A100A2010130A400A301803125
:1032B0002000D6279831310051083200A100A20128
:1032C000A4018030A30080312000D627983131003E
:1032D00052083200A400310051083200A30031002E
:1032E00050083200A20031004F083200A100253002
:1032F000A6008C30A500A8010530A7002530AA0043
:103300008730A900AE01AD01AC010130AB008831BE
:103310002000222098310230F700F70B8D290000A1
:10332000310051083200A1000130A2000130A40098
:10333000A30180312000D627983131005108320096
:10334000A100A201A4018030A30080312000D62773
:10335000983131005708F80020009831882C31004E
:103360003308FA003208C9007A08CA00300884001D
:103370003108850000310008CB004B08D200200046
:1033800000287908FA00780884007A088500093056
:10339000F80031004A088700490886002000120022
:1033A0001E00F80BCF2931003508FA003408C90097
:1033B0007A08CA003208840033088500003100080A
:1033C000F70001310008F80001310008F90001316F
:1033D0000008FA003D317A08CE007908CD0078085F
:1033E000CC007708CB004A088500490884004B08C8
:1033F000800001314C08800001314D08800001310E
:103400004E0880003D313708FA003608C9007A08B6
:10341000CA00320884003308850004310008F70030
:1034200001310008F80001310008F90001310008FD
:10343000FA003D317A08CE007908CD007808CC003A
:103440007708CB004A088500490884004B088000B3
:1034500001314C08800001314D08800001314E08D7
:1034600080003D313908FA003808C9007A08CA00DE
:10347000300884003108850001310008F70001316F
:103480000008F80001310008F90001310008FA00D5
:103490003D317A08CE007908CD007808CC00770855
:1034A000CB004A088500490884004B0880000131A0
:1034B0004C08800001314D08800001314E08800029
:1034C0003D313B08FA003A08C9007A08CA003008C2
:1034D00084003108850005310008F700013100083B
:1034E000F80001310008F90001310008FA003D310F
:1034F0007A08CE007908CD007808CC007708CB0098
:103500004A088500490884004B08800001314C08B6
:10351000800001314D08800001314E0880003D31AE
:103520003508FA00340884007A0885000008C900CC
:1035300001310008CA0001310008CB000131000848
:10354000CC003D31E43023009100033092000310A1
:1035500025303100D10088312000E422983131003B
:103560004C08D1003730D20088312000992698319C
:1035700031004B08D1003730D20088312000992625
:10358000983131004A08D1003730D200883120000C
:103590009926983131004908D1003730D20088315E
:1035A0002000992698310D303200A500803120008E
:1035B000F52698310A303200A50080312000F5262A
:1035C000983131003708FA00360884007A088500FF
:1035D0000008C90001310008CA0001310008CB0011
:1035E00001310008CC003D31FA3023009100033056
:1035F0009200031025303100D10088312000E422F0
:10360000983131004C08D1003730D2008831200089
:103610009926983131004B08D1003730D2008831DB
:1036200020009926983131004A08D1003730D20065
:10363000883120009926983131004908D10037306F
:10364000D20088312000992698310D303200A50033
:1036500080312000F52698310A303200A5008031F3
:103660002000F526983131003908FA003808840026
:103670007A0885000008C90001310008CA0001313C
:103680000008CB0001310008CC003D311030230090
:10369000910004309200031025303100D1008831B0
:1036A0002000E422983131004C08D1003730D2009C
:1036B000883120009926983131004B08D1003730ED
:1036C000D200883120009926983131004A08D10073
:1036D0003730D200883120009926983131004908CE
:1036E000D1003730D20088312000992698310D3032
:1036F0003200A50080312000F52698310A303200D2
:10370000A50080312000F526983131003B08FA00F1
:103710003A0884007A0885000008C90001310008D1
:10372000CA0001310008CB0001310008CC003D3156
:103730002630230091000430920003102530310020
:10374000D10088312000E4229831413084003100DA
:103750004C08D4004B08D3004A08D2004908D100D5
:1037600088312000B02398313A3023009100043092
:103770009200031004303100D10088312000E4228F
:10378000983131003508FA00340884007A08850041
:103790000008C90001310008CA0001310008CB004F
:1037A00001310008CC003D312F0023083100D50045
:1037B0002F0022083100D4002F0021083100D3004F
:1037C0002F0020083100D2004C08D9004B08D80047
:1037D0004A08D7004908D6002530DB007030DA00EF
:1037E000DF01DE01DD010430DC0088312000B12181
:1037F000983131003F08FA003E0884007A088500BD
:10380000CE01CD01CC014308CB004B08CE00CB014B
:10381000CC01CD01D301D201D1014208D000510821
:10382000FA005008F900F701F8017708CB0478088E
:10383000CC047908CD047A08CE04D301D201D10199
:103840004108D0005208FA005108F9005008F80069
:10385000F7017708CB047808CC047908CD047A08FE
:10386000CE044008F700F801F901FA0177084B048B
:10387000F70078084C04F80079084D04F9007A083C
:103880004E04FA0077088000013178088000013189
:103890007908800001317A0880003D313D08FA0046
:1038A0003C08C9007A08CA003508FA0034088400C8
:1038B0007A0885000008CB0001310008CC000131F6
:1038C0000008CD0001310008CE003D310430CB07A7
:1038D0000030CC3D0030CD3D0030CE3D2F002308E0
:1038E0003100D2002F0022083100D1002F00210822
:1038F0003100D0002F0020083100CF004E08D60044
:103900004D08D5004C08D4004B08D3002000912866
:1039100031004A08850049088400780880003D305D
:103920002300910004309200803120001D2798313F
:1039300031003F08FA003E0884007A08850000083C
:10394000C90001310008CA0001310008CB00013173
:103950000008CC003D313508FA00340884007A08AC
:1039600085000008CD0001310008CE0001310008BB
:10397000CF0001310008D0003D31463023009100D6
:103980000430920003100C303100D1008831200047
:10399000E42298314130840031004C08D4004B08B7
:1039A000D3004A08D2004908D10088312000B02352
:1039B00098314D30230091000430920003140830F8
:1039C0003100D10088312000E422983131005008C4
:1039D000D1003730D200883120009926983131004B
:1039E0004F08D1003730D200883120009926983115
:1039F00031004E08D1003730D2008831200099269E
:103A0000983131004D08D1003730D2008831200084
:103A10009926983129303200A50080312000F52602
:103A200098310D303200A50080312000F526983104
:103A30000A303200A50080312000F526983131008F
:103A40003D08FA003C0884007A0885000008C90097
:103A50003508FA00340884007A0885000008CA0096
:103A600001310008CB0001310008CC000131000811
:103A7000CD003D310430CA070030CB3D0030CC3D95
:103A80000030CD3D563023009100043092000310E9
:103A90000C303100D10088312000E422983131000F
:103AA0004908CE001830CF00883120004B249831CF
:103AB0005D30230091000430920003100930310082
:103AC000D10088312000E422983131004D08D10026
:103AD0003730D200883120009926983131004C08C7
:103AE000D1003730D200883120009926983131003A
:103AF0004B08D1003730D200883120009926983108
:103B000031004A08D1003730D20088312000992690
:103B10009831643023009100043092000310053086
:103B20003100D10088312000E4229831A831892A5F
:103B300031006B08003A20000319A22D013A031945
:103B4000D92D102E3200A501A40120003200250835
:103B500023020318AD2D2000D82D2000031DB82D01
:103B6000320022082402031CB72D2000D82D20008B
:103B700032002008240784002108253D8500000824
:103B80003100EF002400951240309400093092007B
:103B90002A30950031006F083200BE0088312000C5
:103BA000002098313200A40A0319A50A2000A62D8E
:103BB000112E3200A701A60120003200270823029F
:103BC0000318E42D20000F2E2000031DEF2D3200DE
:103BD00022082602031CEE2D20000F2E20003200AA
:103BE0002008260784002108273D850000083100B1
:103BF000EF002400951240309400093092002A30E2
:103C0000950031006F083200BE008831200011207D
:103C100098313200A60A0319A70A2000DD2D112EC3
:103C2000112E080005303100EF006D083200A100B0
:103C3000A2010130A400A30180312000D6279831D1
:103C400031006D083200A100A201A4018030A30060
:103C500080312000D627983131006E083200A40050
:103C600031006D083200A30031006C083200A20060
:103C700031006B083200A1002530A6009F30A5005E
:103C8000A8010130A7002530AA00A030A900AE018C
:103C9000AD01AC010130AB00883120002220983109
:103CA00031006D083200A1000130A2000130A400F3
:103CB000A30180312000D627983131006D083200F1
:103CC000A100A201A4018030A30080312000D627EA
:103CD0009831320020080139013C0319712E20006F
:103CE0007B2E2000073023009100013092008031AC
:103CF00020001D27983132002008F800200008001D
:103D000067302300910004309200803120001D278D
:103D1000983131003308BB003208BA003108B900CD
:103D20003008B800200031003B08370203189A2EF3
:103D30002000DE2E2000031DB92E31003A08360285
:103D40000318A42E2000DE2E2000031DB92E310002
:103D5000390835020318AE2E2000DE2E2000031D88
:103D6000B92E310034083802031CB82E2000DE2E94
:103D700020002F0023083100CB002F002208310043
:103D8000CA002F0021083100C9002F00200831008F
:103D9000C8003B08CF003A08CE003908CD003808EB
:103DA000CC00A03120000020983110303100B9073C
:103DB0000030BA3D0030BB3D2000932EA831242BAB
:103DC0003100BC013108F039BD00BE01BF0134082B
:103DD0003007C8003508313DC9003608323DCA00F9
:103DE0003708333DCB00FF30C8070F30C93D0030E6
:103DF000CA3D0030CB3DC0014908F039C100C201C5
:103E0000C3013F08C7003E08C6003D08C5003C0886
:103E1000C40020003100470843020318112F20007E
:103E20007B2F2000031D302F31004608420203186B
:103E30001B2F20007B2F2000031D302F3100450851
:103E400041020318252F20007B2F2000031D302F57
:103E5000310040084402031C2F2F20007B2F20003C
:103E6000310047083B020318372F20007B2F20002A
:103E7000031D562F310046083A020318412F200037
:103E80007B2F2000031D562F3100450839020318EF
:103E90004B2F20007B2F2000031D562F31003808A8
:103EA0004402031C552F20007B2F20002F002308E5
:103EB0003100CB002F0022083100CA002F0021085A
:103EC0003100C9002F0020083100C8004708CF008A
:103ED0004608CE004508CD004408CC00A0312000A3
:103EE0000020983110303100C5070030C63D003049
:103EF000C73D20000A2FA831612B543023009100C8
:103F000005309200803120001D2798316130230058
:103F1000910005309200803120001D2798318831B2
:103F2000702798312F005A0884005B088500033100
:103F3000800803199D2F2000AF2F20006E30230032
:103F4000910005309200803120001D279831053006
:103F5000A900A8311C2A98310630A900B82F753065
:103F60002300910005309200803120001D279831F8
:103F70009831F62F093023009100053092008031EE
:103F800020001D2798312F0058088400590885000B
:103F900000310008003A20000319D52F013A031917
:103FA000DF2F033A0319EF2FF72F2F005908DB00FB
:103FB0005808DA0090312000432F9831F72F2F0056
:103FC0005908DB005808DA0090312000812F983121
:103FD000F8080319EE2F0130F800F92FF72F2F0002
:103FE0005908DB005808DA0020007D2FF72F003039
:063FF000F800B031242EA0
:104000003100C908031906282000BC28200006300A
:104010003100D000200020303100D1004E08DD00FA
:104020004F08DE00DF01E0015D08F700F801F9014B
:10403000FA017708D2004D08DD004E08DE004F0877
:10404000DF00E0015D08F700F801F901FA017708E7
:10405000D3004C08F700F801F901FA017708D40001
:104060004A083200A100A2010130A400A30180315E
:104070002000D627A03131004A083200A100A20159
:10408000A4018030A30080312000D627A031310068
:104090004B08EE004A08ED004908EC004808EB0028
:1040A00025303200A1008030A000A3010130A20021
:1040B000983120009825A03131004A083200A10033
:1040C0000130A2000130A400A30180312000D627D6
:1040D000A03131004A083200A100A201A4018030C1
:1040E000A30080312000D627A03131004A083200D9
:1040F000A100A2010130A400A30180312000D62735
:10410000A03131004A083200A100A201A401803090
:10411000A30080312000D627A03131004B08EE00EB
:104120004A08ED004908EC004808EB002530320051
:10413000A1008130A000A3010430A200983120002A
:104140009825A03131004A083200A1000130A200B8
:104150000130A400A30180312000D627A031310016
:104160004A083200A100A201A4018030A3008031DE
:104170002000D627A0318E293100490BC128C32841
:10418000200020008529200006303100D5002000C5
:1041900021303100D6004F08DD00DE01DF01E001F3
:1041A0005D08F700F801F901FA017708D7004E0819
:1041B000DD004F08DE00DF01E0015D08F700F801D7
:1041C000F901FA017708D8004D08DD004E08DE003D
:1041D0004F08DF00E0015D08F700F801F901FA017E
:1041E0007708D9004C08F700F801F901FA017708BF
:1041F000DA004A083200A100A2010130A400A301A4
:1042000080312000D627A03131004A083200A100B9
:10421000A201A4018030A30080312000D627A03164
:1042200031004B08EE004A08ED004908EC00480850
:10423000EB0025303200A1008530A000A301013041
:10424000A200983120009825A03131004A083200A0
:10425000A1000130A2000130A400A30180312000A0
:10426000D627A03131004A083200A100A201A401E2
:104270008030A30080312000D627A03131004A08C9
:104280003200A100A2010130A400A301803120006E
:10429000D627A03131004A083200A100A201A401B2
:1042A0008030A30080312000D627A03131004B0898
:1042B000EE004A08ED004908EC004808EB00253004
:1042C0003200A1008630A000A3010530A200983181
:1042D00020009825A03131004A083200A1000130A9
:1042E000A2000130A400A30180312000D627A03114
:1042F00031004A083200A100A201A4018030A300CD
:1043000080312000D627A0318E297B3023009100F8
:1043100001309200803120001D27A0313100DB01E7
:10432000200031004B08EE004A08ED004908EC007F
:104330004808EB00983120001226A0317808013996
:10434000013C031DD02931005B080A3C031CAA294B
:104350002000B3292000C8303100EB00903120004C
:10436000E027A031BA290A303100EB00903120005B
:10437000E027A03131005B08643C031CC129200008
:10438000CC2920008B302300910001309200803135
:1043900020001D27A031D0293100DB0A20009129FF
:1043A00093302300910001309200803120001D27BE
:1043B000A031080031006B08003A20000319E429FD
:1043C000013A0319412A9E2A3200A6012000310039
:1043D0006F0832002602031CEF2920000C2A20005F
:1043E00032002608200784000030213D85000008A7
:1043F000AC002400951240309400093092002A301D
:10440000950032002C08BE00883120000020A03129
:104410003200A60A2000E7293200A801A7012000E7
:104420003200280825020318172A2000402A2000FD
:10443000031D222A320024082702031C212A2000FF
:10444000402A200032002208270784002308283D44
:1044500085000008AC00240095124030940009301B
:1044600092002A30950032002C08BE0088312000CE
:104470000020A0313200A70A0319A80A2000102A40
:104480009F2A3200A901200031006F083200290262
:10449000031C4C2A2000692A20003200290820072A
:1044A00084000030213D85000008AC0024009512F6
:1044B00040309400093092002A30950032002C08D8
:1044C000BE00883120001120A0313200A90A20004E
:1044D000442A3200AB01AA01200032002B08250239
:1044E0000318742A20009D2A2000031D7F2A320011
:1044F00024082A02031C7E2A20009D2A2000320064
:1045000022082A07840023082B3D85000008AC0000
:104510002400951240309400093092002A30950012
:1045200032002C08BE00883120001120A03132005A
:10453000AA0A0319AB0A20006D2A9F2A9F2A0800A5
:104540003100D3080319A62A20006E2B2000063064
:104550003100DE00200002303100DF005808EC009E
:104560005908ED00EE01EF016C08F700F801F901C0
:10457000FA017708E0005708EC005808ED005908E8
:10458000EE00EF016C08F700F801F901FA01770875
:10459000E1005608F700F801F901FA017708E20096
:1045A00054083200A100A2010130A400A30180310F
:1045B0002000D627A031310054083200A100A2010A
:1045C000A4018030A30080312000D627A031310023
:1045D0005508EE005408ED005308EC005208EB00BB
:1045E00025303200A1008E30A000A3010130A200CE
:1045F000983120009825A031310054083200A100E4
:104600000130A2000130A400A30180312000D62790
:10461000A031310054083200A100A201A401803071
:10462000A30080312000D627A03131005408320089
:10463000A100A2010130A400A30180312000D627EF
:10464000A031310054083200A100A201A401803041
:10465000A30080312000D627A03131005508EE009C
:104660005408ED005308EC005208EB0025303200EE
:10467000A1008F30A00004303100EF005B08320051
:10468000A30031005A083200A20031005D08320058
:10469000A50031005C083200A4002000DA210230BD
:1046A000F700F70B512B0000310054083200A10035
:1046B0000130A2000130A400A30180312000D627E0
:1046C000A031310054083200A100A201A4018030C1
:1046D000A30080312000D627A031482C3100530B95
:1046E000732B752B20002000482C20000630310051
:1046F000E300200012303100E4005908EC00ED0125
:10470000EE01EF016C08F700F801F901FA017708F2
:10471000E5005808EC005908ED00EE01EF016C08C7
:10472000F700F801F901FA017708E6005708EC00F4
:104730005808ED005908EE00EF016C08F700F80189
:10474000F901FA017708E7005608F700F801F901C6
:10475000FA017708E80054083200A100A2010130F4
:10476000A400A30180312000D627A03131005408D5
:104770003200A100A201A4018030A30080312000FA
:10478000D627A03131005508EE005408ED0053083B
:10479000EC005208EB0025303200A1009330A0005D
:1047A000A3010130A200983120009825A0313100EA
:1047B00054083200A1000130A2000130A400A3017E
:1047C00080312000D627A031310054083200A100EA
:1047D000A201A4018030A30080312000D627A0319F
:1047E000310054083200A100A2010130A400A3014D
:1047F00080312000D627A031310054083200A100BA
:10480000A201A4018030A30080312000D627A0316E
:1048100031005508EE005408ED005308EC00520832
:10482000EB0025303200A1009430A00005303100AB
:10483000EF005B083200A30031005A083200A200EA
:1048400031005D083200A50031005C083200A40090
:104850002000DA210230F700F70B2C2C0000310089
:1048600054083200A1000130A2000130A400A301CD
:1048700080312000D627A031310054083200A10039
:10488000A201A4018030A30080312000D627A031EE
:104890003100E901200031005508EE005408ED0018
:1048A0005308EC005208EB00983120001226A0318A
:1048B00078080139013C031D8A2C310069080A3C43
:1048C000031C642C20006D2C2000C8303100EB004C
:1048D00090312000E027A031742C0A303100EB0029
:1048E00090312000E027A03131006908643C031CAE
:1048F0007B2C2000862C2000BB302300910001304F
:104900009200803120001D27A0318A2C3100E90A55
:1049100020004B2CC33023009100013092008031E5
:1049200020001D27A031A0313D2D31003708C300E4
:104930003608C2003508C1003408C0003308C7007B
:104940003208C6003108C5003008C4003B08CB005F
:104950003A08CA003908C9003808C80020003100E8
:10496000C0080319B52C2000CB2C20003100C10851
:104970000319BC2C2000CB2C20003100C2080319E5
:10498000C32C2000CB2C20003100C308031DCA2CEF
:1049900020007A2D20003100C3080319D12C2000FB
:1049A000E82C20003100C2080319D82C2000E82C84
:1049B00020003100C1080319DF2C2000E82C200062
:1049C00031004008403C031CE72C2000EB2C200069
:1049D000FA014030F02C31004108FA004008200074
:1049E0003100CC007A08CD0020002E006F08310085
:1049F000D5002E006E083100D4002E006D08310065
:104A0000D3002E006C083100D2004708D9004608B8
:104A1000D8004508D7004408D6003D08DB003C0814
:104A2000DA00DF01DE014D08DD004C08DC008831D2
:104A30002000B121A0312F0023083100D5002F0024
:104A400022083100D4002F0021083100D3002F00AC
:104A500020083100D2004B08D9004A08D800490884
:104A6000D7004808D6003D08DB003C08DA004D08B6
:104A7000DD004C08DC002000A02A31004C08C407EF
:104A80004D08C53D0030C63D0030C73D4C08C80745
:104A90004D08C93D0030CA3D0030CB3D3F08FA000B
:104AA0003E0884007A0885004C080007F7000131B1
:104AB0004D08003DF80001310030003DF9000131A2
:104AC0000030003DFA003D31770880000131780860
:104AD000800001317908800001317A0880003D3181
:104AE0004C08C0024D08C13B0030C23B0030C33B04
:104AF0002000AF2CA831952B3100C4080319822D5A
:104B000020003F2E200006303100CC002000023073
:104B10003100CD004908DD004A08DE00DF01E00178
:104B20005D08F700F801F901FA017708CE0048089E
:104B3000DD004908DE004A08DF00E0015D08F700FB
:104B4000F801F901FA017708CF004708F700F801EA
:104B5000F901FA017708D0004B08D100450832006E
:104B6000A100A2010130A400A30180312000D627BA
:104B7000A031310045083200A100A201A40180301B
:104B8000A30080312000D627A03131004608EE0076
:104B90004508ED004408EC004308EB0025303200E6
:104BA000A1007C30A000A3010130A20098312000B8
:104BB0009825A031310045083200A1000130A20043
:104BC0000130A400A30180312000D627A03131009C
:104BD00045083200A100A201A4018030A300803169
:104BE0002000D627A031310045083200A100A201E3
:104BF0000130A400A30180312000D627A03131006C
:104C000045083200A100A201A4018030A300803138
:104C10002000D627A03131004608EE004508ED00FF
:104C20004408EC004308EB0025303200A1007D3041
:104C3000A000A3010530A200983120009825A031E2
:104C40000230F700F70B222E000031004508320039
:104C5000A1000130A2000130A400A3018031200096
:104C6000D627A031310045083200A100A201A401DD
:104C70008030A30080312000D627A0310E2F3100D4
:104C8000440B442E462E200020000E2F200006301C
:104C90003100D200200012303100D3004A08DD007C
:104CA000DE01DF01E0015D08F700F801F901FA011A
:104CB0007708D4004908DD004A08DE00DF01E00182
:104CC0005D08F700F801F901FA017708D5004808F6
:104CD000DD004908DE004A08DF00E0015D08F7005A
:104CE000F801F901FA017708D6004708F700F80142
:104CF000F901FA017708D7004B08D80045083200BF
:104D0000A100A2010130A400A30180312000D62718
:104D1000A031310045083200A100A201A401803079
:104D2000A30080312000D627A03131004608EE00D4
:104D30004508ED004408EC004308EB002530320044
:104D4000A1008230A000A3010130A2009831200010
:104D50009825A031310045083200A1000130A200A1
:104D60000130A400A30180312000D627A0313100FA
:104D700045083200A100A201A4018030A3008031C7
:104D80002000D627A031310045083200A100A20141
:104D90000130A400A30180312000D627A0313100CA
:104DA00045083200A100A201A4018030A300803197
:104DB0002000D627A03131004608EE004508ED005E
:104DC0004408EC004308EB0025303200A10083309A
:104DD000A000A3010630A200983120009825A03140
:104DE0000230F700F70BF22E0000310045083200C8
:104DF000A1000130A2000130A400A30180312000F5
:104E0000D627A031310045083200A100A201A4013B
:104E10008030A30080312000D627A0313100D90195
:104E2000200031004608EE004508ED004408EC0083
:104E30004308EB00983120001226A0317808013990
:104E4000013C031D502F310059080A3C031C2A2F36
:104E50002000332F2000C8303100EB0090312000BB
:104E6000E027A0313A2F0A303100EB0090312000CA
:104E7000E027A03131005908643C031C412F200079
:104E80004C2F2000A7302300910001309200803188
:104E900020001D27A031502F3100D90A2000112FEA
:104EA000AF302300910001309200803120001D2797
:044EB000A031080025
:1050000082302300910004309200803120001D275F
:10501000A8312F0023083100CB002F0022083100D7
:10502000CA002F0021083100C9002F0020083100DC
:10503000C8003308CF003208CE003108CD00300858
:10504000CC00A03120000020A83131003708BE007C
:105050003608BD003508BC003408BB00BC01BD01EA
:10506000BE012F0023083100C6002F0022083100A6
:10507000C5002F0021083100C4002F002008310096
:10508000C3003308CA003208C9003108C80030081C
:10509000C7003B08CB00A03120007C25A83101309F
:1050A00031003007BA000030313DBB000030323DE6
:1050B000BC000030333DBD003508BF003608C000DD
:1050C0003708C100C201C001C101C2012F0023087D
:1050D0003100C6002F0022083100C5002F00210832
:1050E0003100C4002F0020083100C3003D08CA0071
:1050F0003C08C9003B08C8003A08C7003F08CB007D
:10510000A03120007C25A831023031003007BA00E0
:105110000030313DBB000030323DBC000030333D3B
:10512000BD003608BF003708C000C101C201C00180
:10513000C101C2012F0023083100C6002F00220840
:105140003100C5002F0021083100C4002F002008C5
:105150003100C3003D08CA003C08C9003B08C80034
:105160003A08C7003F08CB00A03120007C25A831B9
:10517000033031003007BA000030313DBB00003051
:10518000323DBC000030333DBD003708BF00C001D8
:10519000C101C201C001C101C2012F0023083100B9
:1051A000C6002F0022083100C5002F002108310061
:1051B000C4002F0020083100C3003D08CA003C088D
:1051C000C9003B08C8003A08C7003F08CB00A0311F
:1051D00020007C25A831043031003007BA000030AF
:1051E000313DBB000030323DBC000030333DBD00DE
:1051F0002F0023083100C6002F0022083100C5000F
:105200002F0021083100C4002F0020083100C30006
:105210003D08CA003C08C9003B08C8003A08C7005E
:105220003808CB00A03120007C25A8318C30230029
:1052300091000430920003100C303100D10088310D
:105240002000E422A8314130840031003708BD003D
:105250003608BC003508BB003408BA00200004083A
:105260003100C000BD1B362920004429C003C016F0
:10527000BA09BB09BC09BD09BA0A0319BB0A03195B
:10528000BC0A0319BD0A20003B303100C7009A3028
:10529000C600CA30C500C4010A30C2002000831411
:1052A000253085006A30840031003D08E3003C0869
:1052B000E2003B08E1003A08E0004708E700460842
:1052C000E6004508E5004408E40088312000472353
:1052D000A8317808F708031D902931004208013AE7
:1052E000031D7429200090294008031D79292000FE
:1052F00094290F394202031D7F2920008429031CB1
:1053000083292000C62920003100C01F89292000E0
:10531000C629401F8D292000942920302000BE2955
:1053200020303100C00520003100C01A992920002A
:10533000A829C0127708C0002D303200A5008031A6
:105340002000F526A83131004008F700C0012000F8
:1053500030303100C01AAE292000BE29C0127708B3
:10536000C0002D303200A50080312000F526A83184
:1053700031004008F700C00130302000F7077708FF
:105380003200A50080312000F526A83183103100BD
:105390004708E3004608E2004508E1004408E00051
:1053A000E701E601E5010A30E400883120004723E7
:1053B000A8317A083100C7007908C6007808C5000E
:1053C0007708C400C20BE629E829200020004F29F5
:1053D00020000D303200A50080312000F526A831D4
:1053E0000A303200A50080312000F526A831953022
:1053F000230091000430920003100D303100D100E1
:1054000088312000E422A83131003808BA001B306E
:10541000BB0088312000F526A8319C302300910084
:1054200004309200031404303100D1008831200090
:10543000E422A831A831BC2BA33023009100033013
:105440009200803120001D27A831B0302300910048
:1054500003309200803120001D27A8313000CC019C
:1054600020008831ED27A831F808031DC02BBC307F
:105470002300910003309200031007303100D10067
:1054800088312000E422A83130004C083100CE00E1
:105490001830CF00883120004B24A831C0302300C1
:1054A000910003309200031412303100D100883192
:1054B0002000E422A8319031AA2FA83179083000C9
:1054C000CE007808CD004E083100B10030004D0804
:1054D0003100B0002530B3002F30B2002530B500C8
:1054E0003830B4002530B7003C30B6002530B90064
:1054F0004030B8002530BB004430BA002530BD0034
:105500004830BC002530BF004930BE009831200033
:10551000AF29A831013030004C07093E840020300B
:1055200085000318850A5708800058083100A0003C
:105530001030300059073100A100003030005A3DD2
:105540003100A200003030005B3D3100A30030008C
:105550005F083100A70030005E083100A60030006F
:105560005D083100A50030005C083100A40020086F
:105570002402A8002108253BA9002208263BAA00F6
:105580002308273BAB003000690831002007AC003E
:1055900030006A083100213DAD0030006B08310059
:1055A000223DAE0030006C083100233DAF003000DA
:1055B000640869073100B000300065086A3D3100B9
:1055C000B100300066086B3D3100B2003000670862
:1055D0006C3D3100B3002B0833020318F12A200080
:1055E000352B2000031D102B31002A08320203182E
:1055F000FB2A2000352B2000031D102B3100290829
:1056000031020318052B2000352B2000031D102B21
:10561000310030082802031C0F2B2000352B2000FE
:1056200031002308B3002208B2002108B10020088D
:10563000B0002708B7002608B6002508B5002408E2
:10564000B40098312000802EA8313000E80AEC0127
:10565000EB01EA01E90131002308AF002208AE00A6
:105660002108AD002008AC00200031002F08B30055
:105670002E08B2002D08B1002C08B00030006708D9
:105680003100B700300066083100B6003000650810
:105690003100B500300064083100B40030005F080C
:1056A0003100BB0030005E083100BA0030005D08F8
:1056B0003100B90030005C083100B800983120009A
:1056C000E02EA831300063083100B30030006208DA
:1056D0003100B200300061083100B10030006008D4
:1056E0003100B000300067083100B70030006608B4
:1056F0003100B600300065083100B50030006408A4
:105700003100B4002F08BB002E08BA002D08B900E4
:105710002C08B8002430BD00EC30BC002530BF00A0
:105720004930BE00A0312000952CA83130005B0824
:105730003100B30030005A083100B200300059087F
:105740003100B100300058083100B00030006C0862
:105750003100B70030006B083100B60030006A0835
:105760003100B500300069083100B400300068082D
:105770003100B800200000283000CC0A2000312A77
:10578000CA302300910003309200803120001D2791
:10579000A831D730230091000330920080312000DF
:0857A0001D27A8319831AB2F41
:1060000023009F15A0309B0001309C00A6309E000D
:1060100090309D0021000D1222000D1624009512D3
:1060200040309400093092002A30950022009D12E1
:106030009D111D1221008E120E168E1120002810A7
:10604000B001AF01AE01AD01B401B301B201B101C4
:10605000B601B501D701D901D8012C00AD01AC01C1
:10606000AB01AA01AF01AE01B101B001B301B201B0
:10607000B501B4011E30F00023008C018D018E01AA
:106080008F01900122009201910120000330A900AC
:10609000AA01AB01AC01B701B801B901BA01BB015A
:1060A000BC01BD01BE01BF01C001C101C201C301EC
:1060B000C401C501C601C701C801C901CA01CB019C
:1060C000CC01CD01CE01CF01D001D101D201D3014C
:1060D000D401D501D601DA01DB01DC01DD01DE01ED
:1060E000DF01E001E101E201E301E401E501E60194
:1060F000E701E801E901EA01EB01EC01ED01EE0144
:10610000EF012100A001A101A201A301A401A501A9
:10611000A601A701A801A901AA01AB01AC01AD012B
:10612000AE01AF01B001B101B201B301B401B501DB
:10613000B601B701B801B901BA01BB01BC01BD018B
:10614000BE01BF01C001C101C201C301C401C5013B
:10615000C601C701C801C901CA01CB01CC01CD01EB
:10616000CE01CF01D001D101D201D301D401D5019B
:10617000D601D701D801D901DA01DB01DC01DD014B
:10618000DE01DF01E001E101E201E301E401E501FB
:10619000E601E701E801E901EA01EB01EC01ED01AB
:1061A000EE01EF012200A001A101A201A301A401BF
:1061B000A501A601A701A801A901AA01AB01AC0193
:1061C000AD01AE01AF01B001B101B201B301B40143
:1061D000B501B601B701B801B901BA01BB01BC01F3
:1061E000BD01BE01BF01C001C101C201C301C401A3
:1061F000C501C601C701C801C901CA01CB01CC0153
:10620000CD01CE01CF01D001D101D201D301D40102
:10621000D501D601D701D801D901DA01DB01DC01B2
:10622000DD01DE01DF01E001E101E201E301E40162
:10623000E501E601E701E801E901EA01EB01EC0112
:10624000ED01EE01EF012300A001A101A201A301D4
:10625000A401A501A601A701A801A901AA01AB01FA
:10626000AC01AD01AE01AF01B001B101B201B301AA
:10627000B401B501B601B701B801B901BA01BB015A
:10628000BC01BD01BE01BF01C001C101C201C3010A
:10629000C401C501C601C701C801C901CA01CB01BA
:1062A000CC01CD01CE01CF01D001D101D201D3016A
:1062B000D401D501D601D701D801D901DA01DB011A
:1062C000DC01DD01DE01DF01E001E101E201E301CA
:1062D000E401E501E601E701E801E901EA01EB017A
:1062E000EC01ED01EE01EF012400A001A101A201EA
:1062F000A301A401A501A601A701A801A901AA0162
:10630000AB01AC01AD01AE01AF01B001B101B20111
:10631000B301B401B501B601B701B801B901BA01C1
:10632000BB01BC01BD01BE01BF01C001C101C20171
:10633000C301C401C501C601C701C801C901CA0121
:10634000CB01CC01CD01CE01CF01D001D101D201D1
:10635000D301D401D501D601D701D801D901DA0181
:10636000DB01DC01DD01DE01DF01E001E101E20131
:10637000E301E401E501E601E701E801E901EA01E1
:10638000EB01EC01ED01EE01EF012500A001A101FF
:10639000A201A301A401A501A601A701A801A901C9
:1063A000AA01AB01AC01AD01AE01AF01B001B10179
:1063B000B201B301B401B501B601B701B801B90129
:1063C000BA01BB01BC01BD01BE01BF01C001C101D9
:1063D000C201C301C401C501C601C701C801C90189
:1063E000CA01CB01CC01CD01CE01CF01D001D10139
:1063F000D201D301D401D501D601D701D801D901E9
:10640000DA01DB01DC01DD01DE01DF01E001E10198
:10641000E201E301E401E501E601E701E801E90148
:10642000EA01EB01EC01ED01EE01EF012600A00114
:10643000A101A201A301A401A501A601A701A80130
:10644000A901AA01AB01AC01AD01AE01AF01B001E0
:10645000B101B201B301B401B501B601B701B80190
:10646000B901BA01BB01BC01BD01BE01BF01C00140
:10647000C101C201C301C401C501C601C701C801F0
:10648000C901CA01CB01CC01CD01CE01CF01D001A0
:10649000D101D201D301D401D501D601D701D80150
