:06000000B031942900005C
:0800080083018031200077081C
:10001000A0007808A1007908A2007A08A3002300B4
:1000200011082000A400230012082000A5002300CE
:1000300013082000A600230014082000A700850153
:1000400091308400001C2628111846288501913023
:100050008400801E2D28911A48282008F7002108C6
:10006000F8002208F9002308FA0024082300910070
:10007000200025082300920020002608230093007A
:1000800020002708230094000900200080314A281E
:1000900080316B2896018030970012309600000066
:1000A0000130B1070318B20A0319B30A0319B40ADD
:1000B000111080312D28D434ED3272104937693A4D
:1000C000E930EC34FA320D0500008921EF36703644
:1000D000653AE5060A006E28281C812859081F3C4D
:1000E000031C81285908D90A1F39193E8400203081
:1000F00085000318850A911E7B28230019088000BB
:100100002000911280312D28D520522AA024EE34CF
:10011000F4346136693DE5060A008921EF36703610
:10012000653AE5060A00CD24D329C9274E10462694
:10013000C12948104937693AE930EC34FA320D05E3
:1001400000010923EC307334A0347310EE377410BF
:10015000E3376E37E531F432E4060A0089294D238E
:100160002010D0244326CF23A02AF332A021EF3A37
:100170006E3A65392010201020103A10303C2518B6
:100180003826D8060A0089294D232010D02443267A
:10019000CF232026EF377010C3377537F432721033
:1001A000201020103A10303C2518322C0D0500018B
:1001B00089294D232010CD22C1292010A02AF332F5
:1001C000A021EF3A6E3A65392010201020103A1025
:1001D000303C25183826D8060A0089294D232010DE
:1001E000CD22C12920102026EF377010C337753774
:1001F000F4327210201020103A10303C2518322CA6
:100200000D0500018926C9294610D0244326CF2395
:10021000A02AF332A021EF3A6E3A6539201020105F
:1002200020103A10303C25183826D8060A008926B6
:10023000C9294610D0244326CF23A02AEE316F3897
:10024000F9326410C3377537F43272103A10303C0B
:1002500025183826D8060A008926C9294610D02430
:100260004326CF232026EF377010C3377537F4327B
:100270007210201020103A10303C2518322C0D0539
:1002800000018926C9294610D0244326CF23A02B5C
:10029000F234F432A021EF3A6E3A65392010201082
:1002A0003A10303C2518322C0D0500018926C92949
:1002B0004610CD22C1292010A02AF332A021EF3A06
:1002C0006E3A65392010201020103A10303C251865
:1002D0003826D8060A008926C9294610CD22C12908
:1002E0002010A02AEE316F38F9326410C337753709
:1002F000F43272103A10303C25183826D8060A001D
:100300008926C9294610CD22C12920102026EF3781
:100310007010C3377537F4327210201020103A1065
:10032000303C2518322C0D0500018921EF3670363E
:10033000653AE5060A00CD34F339E9376E104636E2
:10034000E1396810E93920376F3AA0316F37EE3262
:10035000633A65320D0500015739693A6510CD24BD
:100360005323A0206432F232F339A020F23261101C
:10037000C3376D38EC32F4320D0500005B28C9211B
:10038000CC27C72E201D2000CD34F339E9376E105D
:100390004636E1396810E93920376F3AA0316F37B6
:1003A000EE32633A65320D0500004122371A3918E2
:1003B000A024EE34F4346136693DE5060A00892153
:1003C000EF367036653AE5060A00892BD224D4222E
:1003D000201DA0126410A812301A4C2CA9060A0085
:1003E0008929C5282010201DA0126410A812301AD7
:1003F0004C2CA9060A00892044225210201DA0126C
:100400006410A812301A4C2CA9060A0009284D10B5
:10041000201020103A102532201425183426D81424
:100420000D0500018929C820C42757103A1025322C
:10043000201425183426D8140D050001892BC52059
:10044000CB17542949103A10253220142518342688
:10045000D8140D05000109294127C72220103A10A0
:100460002532201425183426D8140D0500018921C1
:100470004F22492747103A102532201425183426D8
:10048000D8140D050001892D4122371A39185D1045
:10049000C634EE306C10C337ED36613764103A1055
:1004A00025183426D8060A000D05533A6139741010
:1004B000ED30EB325F39E531E534F632DF31EF36DE
:1004C000ED306E320D050001892DC227D3295D1054
:1004D0003E1F3E10000145376410ED30EB325F39AE
:1004E000E531693BE52FE337ED366137E4068A06EF
:1004F0000A00F33467376136A0326E32A03B693AA6
:1005000068105323C4060A00E437EE137410E6346F
:100510006E32A02946220D05000089163E1049378B
:10052000F630EC3464104639E13665104922203942
:10053000E531E534F632641DA012D8060A008916AA
:100540003E10432943106539F237F2100D050001C2
:1005500089042D1F2039E531E534F6326410432932
:10056000431DA012D8060A0089042010A0316F365E
:10057000EC32633AA021D221201DA012D8060A0035
:1005800089163E104937F630EC346410E432F63404
:10059000E332A0244410F232E332693B65320D05A8
:1005A000000189042D1F2039E531E534F632641D40
:1005B00020102010A012D8060A0089042010A026BE
:1005C0007910E432F634E332A024441DA012D80698
:1005D0000A00892DC227D3295D103C1E3C10000162
:1005E00089163E104639E136651049223A10252C0D
:1005F0000D05000189163E10C3376E3A6537741039
:10060000F334FA323A1025320D050000533A6139BD
:100610007410D3264610F53969376710F232F1327B
:10062000733AA039E530F13A6537E3320D05000140
:100630004539F237F2102029E531E534F634EE334E
:10064000A031EF36ED306E32A034EE316F37F33437
:10065000733A65377410F7347434203AE832203234
:10066000E539E933EE060A00D3264610F539651060
:10067000F232F13AE53974106136EC37F732E406BC
:100680000A00D3264610F5396510F232F13AE53901
:100690007410E432EE3C65320D050001D23274393B
:1006A0007910F232F13AE5397410F4372021CF296C
:1006B0005310D024C3060A004539F237F21020291E
:1006C000E531E534F634EE33A031EF36ED306E32FD
:1006D000A034EE316F37F334733A65377410F73462
:1006E0007434203AE8322032E539E933EE060A0064
:1006F00045376410D3264610F53969376710F23252
:10070000F132733AA039E530F13A6537E3320D053D
:100710000000C927A024EE34F4346136693DE506B3
:100720000A008921EF367036653AE5060A00412253
:1007300043104937693AE930EC34FA320D050001CB
:100740008921EF367036653AE5060A00533A613979
:100750007410D32BC522D0060A008929F7326538D8
:10076000A039F43270103A10A53A0D050001452762
:100770004410D32BC522D0060A00533A61397410B5
:10078000C324C7292032613A6110E3376E3B6539D3
:10079000F3346F370D05000145376410C324C729B2
:1007A0002032613A6110E3376E3B6539F3346F37BD
:1007B0000D050000D3264610E430F4302036E93928
:1007C0007410E93920337536EC10A1100D05800046
:1007D000D3264610E430F4302036E9397410E93974
:1007E000A0326D38F43C0D050000533A61397410A5
:1007F000CD27C4222022D526CD2C0D050001892627
:100800004F224510201020103A102518322C0D05CB
:10081000000109286139E136311020103A10303CCE
:1008200025183826D8060A0009286139E136321021
:1008300020103A10303C25183426D8060A004537D7
:100840006410CD27C4222022D526CD2C0D05000012
:10085000533A61397410CD27C422A026C520D32A6B
:10086000D2220D050000533A61397410CD27C422FD
:10087000A026C520D32AD222202B6F36F430E732AF
:100880000D050000533A61397410D32BC522D006F0
:100890000A008929F7326538A039F43270103A100D
:1008A000A53A0D05800145274410D32BC522D0065B
:1008B0000A00F4326D385F3A6F383A10252C0D0576
:1008C0000001F4326D385F316F3A3A10252C0D0576
:1008D000000070325F3B6136F5323A10252C0D0571
:1008E0000000E334E7395F3B6136F5323A10252CDE
:1008F0000D050000E33A72396537F42FF630EC3A13
:10090000651DA012D8060A00F6376C3AE133E52FD0
:10091000F630EC3A651DA012D8060A00533A613948
:100920007410CD27C422202AC5295410492B0D0547
:1009300000018929F7326538A039F43270103A1075
:10094000A53A0D05000145376410CD27C422202AA1
:10095000C5295410492B0D05000141326410D326DE
:100960004610F13AE5060A00533A613974104636EA
:10097000E13968104539E13965104136EC060A0065
:10098000453764104636E13968104539E13965105C
:100990004136EC060A00533A613974104636E139A3
:1009A00068104539E13965103110D332633A6F3937
:1009B0000D0500018929E531F4377210413264399F
:1009C000E539731D2018F812301C4C2C0D05000160
:1009D000453764104636E13968104539E13965100C
:1009E0003110D332633A6F390D050000533A613943
:1009F00074104636E1396810C337F03CA018A029BE
:100A0000E531F437F2060A0089297531F332633A89
:100A10006F39A0206432F232F3393A10303C251895
:100A20003826D8060A00453764104636E139681082
:100A3000C337F03CA018A029E531F437F2060A00CC
:100A4000533A613974104636E13968105739693ABA
:100A50006510C432ED370D05000189264F2245107F
:100A6000201020103A102518322C0D050001892085
:100A70006432F232F33920103A10303C251838260F
:100A8000D8060A000928E131EB327427F5363A100E
:100A9000303C25183426D8060A005739693A6510C3
:100AA000C430F4300D050001453764104636E13995
:100AB00068105739693A6510C432ED370D050000EA
:100AC000533A613974104636E13968105739693A3A
:100AD0006510B435C23CF432A0297531F332633A63
:100AE0006F390D050001453764104636E13968104D
:100AF0005739693A6510B435C23CF432A0297531D2
:100B0000F332633A6F390D050000533A61397410BE
:100B10004636E1396810D23261320D05000189266E
:100B20004F224510201020103A102518322C0D05A8
:100B3000000189206432F232F33920103A10303C3F
:100B400025183826D8060A000928E131EB32742727
:100B5000F5363A10303C25183426D8060A00D22241
:100B600041222022412AC1060A00CD34F339E93757
:100B70006E104636E1396810E93920376F3AA031F6
:100B80006F37EE32633A65320D0500014537641068
:100B90004636E1396810D23261320D050000533A11
:100BA000613974104636E1396810D2326132A020C2
:100BB0006432F232F3390D050001D2326132202263
:100BC000613A611DA012301958102518322CA0125C
:100BD000301958102518322C0D05000145376410C6
:100BE0004636E1396810D2326132A0206432F232E6
:100BF000F3390D050000533A613974104636E13976
:100C00006810D3264610C337F03C0D050001453768
:100C100064104636E1396810D3264610C337F03CDD
:100C20000D050000533A613974104636E1396810F9
:100C3000D3264610D23261320D050001D232613224
:100C40002022613A611D20000D05453764104636AB
:100C5000E1396810D3264610D23261320D0500000A
:100C6000533A613974104636E1396810D32646107C
:100C70005739693AE5060A00453764104636E139C6
:100C80006810D32646105739693AE5060A00533AE8
:100C9000613974104636E139681041326439E539FA
:100CA0007310D232F332F4060A0045376410463628
:100CB000E139681041326439E5397310D232F332C8
:100CC000F4060A000D05DF2FDF2FDF2FDF2FDF2FC8
:100CD000DF2FDF2FDF2FDF2FDF2F0D050001DF2FAD
:100CE000DF29F430723AA0316F38F92FE430F43054
:100CF000DF2F0D050001533A61397410DB126410C7
:100D000074345D10E430F430A0316F38F9068A068F
:100D10000A004937A0396D33A036E939F3346F370B
:100D20002032613A6110733A6139741020106132D7
:100D30006439E539731DA012301C4C2C0D050001DF
:100D40004937A0396D33A036E939F3346F37203293
:100D5000613A6110653764102010201061326439E7
:100D6000E539731DA012301C4C2C0D0500014937CC
:100D7000A026C92920234D105739693A6510F33749
:100D80007539E3322032613A611061326439E539F4
:100D9000731DA012301C4C2C0D0500014937A026F4
:100DA000C92920234D105739693A6510E430F430D1
:100DB000A039693D65102010201020102010201D42
:100DC000A012EC3A2014303C2536F8140D050D0520
:100DD00000024539F237721DA0294D23A03473104B
:100DE000EE377410E3376E37E531F432E4060A006B
:100DF000D334FA32A030F2326110F23261320D0592
:100E00000001F5396532DF39693D65103D10253641
:100E10007510A839F2312018F812301C4C2CA90694
:100E20000A00EC376F38A031EF3A6E3A3D102532A8
:100E30002010A839F2312018F812301C4C2CA906C9
:100E40008A060A0057396138203AF234E7336539A7
:100E500065323A10D232F332743A69376710E430AF
:100E6000F430DF3BF234F432DF3064327210F437A6
:100E7000A039F430723A0D0500015538E430F432EF
:100E8000A039693D65106139E5300D050001F5397E
:100E90006532DF39693D65103D102536E4060A00EC
:100EA000EC376F38DF31EF3A6E3AA01EA012F5062C
:100EB0008A060A000D05DF2FDF226E32A0316F385F
:100EC000F92FE430F430DF2FDF2F0D050001DF2F85
:100ED000DF2FDF2FDF2FDF2FDF2FDF2FDF2FDF2FA2
:100EE000DF2F0D050D0500000D05DF2FDF2FDF2F94
:100EF000DF2FDF2FDF2FDF2FDF2FDF2FDF2FDF2F82
:100F0000DF2FDF2FDF2FDF2F0D05DF2FDF2FDF2973
:100F1000F430723AA032F832E33AF432DF36E9398B
:100F2000F3346F37DF2FDF2FDF068A060A00C3375F
:100F3000ED366137641049223A10252C0D050D0558
:100F4000000189042D1FA0246E3B61366932A02167
:100F50004D22A024C4100D0500010D05DF2FDF2F49
:100F6000DF2F45376410653CE531753AE52FED34E8
:100F7000F339E937EE2FDF2FDF2FDF068A2FDF2F40
:100F8000DF2FDF2FDF2FDF2FDF2FDF2FDF2FDF2FF1
:100F9000DF2FDF2FDF2FDF2FDF2FDF2F0D050000EB
:100FA000533A61397410653CE531753AE52FE33702
:100FB000ED366137E4060A0089163E105538EC34E8
:100FC000EE35A031EF36ED306E320D05000109101F
:100FD000201054396137F336693AA020E335EE37F3
:100FE000EC326732E5060A0089163E10533A613A40
:0C0FF000F539A031E832E3350D050001B1
:101000000910201054396137F336693AA026C929EE
:10101000A026C32AA029F430F43AF3060A00E634E5
:10102000EE3473346532A0346E10733A613AF53998
:10103000DF31E832E3350D05000089163E10D32676
:101040004610613BE134EC30623665106334E531C3
:10105000EB060A000910201054396137F336693A5B
:10106000A020E335EE37EC326732E5060A0089044A
:101070002D1FA0306C36EF3BE4060A0089042D1FBB
:1010800020326537F932E4060A000D050D050D051D
:10109000BD1EBD1EBD1EBD1EBD1EBD1EBD1EBD1E78
:1010A000BD1EBD1EBD1EBD1EBD1EBD1EBD1EBD1E68
:1010B000BD1EBD1EBD1EBD1EBD1EBD1EBD1EBD1E58
:1010C000BD1EBD1EBD1EBD1EBD1EBD1E0D050001EB
:1010D0005434E939A0347310CD27CD24CA24A0217B
:1010E000C9235310D024431042214D10E63772100B
:1010F000CD24D31B5F21C22633170D050001CC3050
:10110000733AA03A7032613A6532A0376E10A53951
:10111000A0127316203179104937EF3A65170D0583
:101120000D050001B1192D2575362D193500B11B9E
:10113000BA18351D31190001DF2FDF2FC324C7294D
:101140002028C921A029F430723AA027F032F230C9
:10115000F4346F37DF2FDF2FDF068A060A00F730FF
:10116000693A69376710E6377210C227D3292028F9
:10117000C921A031EF36ED306E3200010D05F73098
:10118000693A69376710E6377210C227D3292028D9
:10119000C921A031EF36ED306E3200010D050D058D
:1011A000BD1EBD1EBD1E0D050D05C634EE347334C7
:1011B00065322038F237E332F339AE068A2BE13458
:1011C0007410E6377210C227D3292028C921203A8B
:1011D00075396E106F336610ED32000145376410BB
:1011E000ED3069370D05000021000D1222000D12AF
:1011F0000830F800FB280000F8170E29F8132D001E
:10120000B70C220003180D16031C0D1278170E29B7
:101210007813F80BFF280C2900000D168430840089
:10122000840B10290000F81BFE28781B08292000D9
:1012300008000B088B1323009517151400000000FD
:10124000891B8B1713087F39031965292D00B400FA
:10125000230011082D00B500230012082D00B60050
:101260003408B7002000F4202D0035082300910039
:101270002D003608230092000B088B1395171514C8
:1012800000000000891B8B17130D140D7F39031903
:1012900065292D00B400230011082D00B50023009E
:1012A00012082D00B6003408B7002000F4202D00ED
:1012B0003508230091002D00360823009200910A82
:1012C0000319920A200019292300200008000B08A6
:1012D0008B1323009517151400000000891B8B1732
:1012E00003189B2913087F392C00ED0023001108F7
:1012F0002C00EE00230012082C00EF006D082D00DA
:10130000B7002000F4202C006E08230091002C0070
:101310006F08230092000B088B139517151400001B
:101320000000891B8B172C00EA0B972999292300B1
:101330009B29BF292300130D140D7F392C00ED00CC
:10134000230011082C00EE00230012082C00EF00EF
:101350006D082D00B7002000F4202C006E0823003B
:1013600091002C006F0823009200910A0319920A41
:1013700003102C00EA0BBD29BF292000672920009B
:1013800008008930230091000330920020001921C9
:10139000210010102200101021000C1222000C1647
:1013A0009130230091000330920020001921B031C8
:1013B000732A9730230091000330920020001921F6
:1013C0007830210099001E129E161E179E171D14BC
:1013D000A030220098009901A03023009100033032
:1013E000920020001921B031762A84302300910028
:1013F000003092002000192121009116C0308B048A
:101400008D30230091000030920020001921B0316E
:10141000792A5B30230091000030920020001921CE
:1014200011108F309800990196018030970012308A
:101430009600000021001114C0308B046530230099
:1014400091000030920020001921B0317C2AD53063
:10145000230091000130920020001921280063161A
:101460006414E410E3166313E3130130F600FB0089
:10147000FC01FD00FE01E201DF302300910001309C
:10148000920020001921B0317F2A2D00530807391E
:10149000F700530CF800F80CF80C1F30F80578082A
:1014A000550784000030563D8500F801F80AF70A18
:1014B0005A2AF80DF70B592AD4080319622A78081A
:1014C0008004652AF80978088005200008002400B7
:1014D00011082E00200824009100140C031C6D2A12
:1014E0001108F70020000800240011082E00200831
:1014F00024009100140C031C7A2A1108F700200024
:1015000008002D005308003A200003198B2A013AE5
:101510000319ED2A502B2D00E201E10162085A0265
:10152000031CB32A031D982A590861020318B32A21
:101530005708610784005808623D85000008EE00E6
:101540002400951240309400273092002A309500F4
:101550002D006E082E00A000200067222D00E10A59
:101560000319E20A8E2AE601E501E401E3016608B7
:101570006002031CEC2A031DCD2A65085F02031CD0
:10158000EC2A031DCD2A64085E02031CEC2A031D0D
:10159000CD2A5D0863020318EC2A5B086307840008
:1015A0005C08643D8500240095124030940027308B
:1015B00092002A30950001302E00A0002000672202
:1015C0007708800001302D00E3070318E40A0319AF
:1015D000E50A0319E60AB72A512B2D00E801E701B5
:1015E00068085A02031C152B031DFA2A59086702C2
:1015F0000318152B5708670784005808683D8500B5
:101600000008EE002400951240309400273092002C
:101610002A3095002D006E082E00A00020007422B4
:101620002D00E70A0319E80AF02AEC01EB01EA01B0
:10163000E9016C086002031C4E2B031D2F2B6B0865
:101640005F02031C4E2B031D2F2B6A085E02031C36
:101650004E2B031D2F2B5D08690203184E2B5B08D0
:10166000690784005C086A3D8500240095124030BB
:101670009400273092002A30950002302E00A000FE
:10168000200074227708800001302D00E90703183C
:10169000EA0A0319EB0A0319EC0A192B512B200053
:1016A0002D00200008009F302D00BC003608D3001C
:1016B000D4010130D600D501200045222D00360886
:1016C000D300D401D6018030D500200045222D0062
:1016D0003708D6003608D5003508D4003408D300C2
:1016E0002430D8002C30D700DA010130D900243062
:1016F000DC002830DB00E001DF01DE010430DD002A
:10170000200081222D003608D3000130D400D600FD
:10171000D501200045222D003608D300D401D60182
:101720008030D500200045222D003808203C031DC4
:101730009D2B0130F8009F2B9F2B0030F8002000DC
:1017400008002C00E708031D282C03302D00A400FE
:101750002C006C082D00B0002C006D082D00B1008D
:10176000B201B301F801F901FA013008A5002C001B
:101770006B082D00B0002C006C082D00B1002C006F
:101780006D082D00B200B301F801F901FA0130082B
:10179000A6002C00F801F901FA016A082D00A70043
:1017A0002C0068082D00D300D4010130D600D501EB
:1017B000200045222C0068082D00D300D401D6015A
:1017C0008030D500200045222C0069082D00D6006D
:1017D0002C0068082D00D5002C0067082D00D400CF
:1017E0002C0066082D00D3002430D8001430D70018
:1017F000DA010430D9002C006F082D00DC002C0029
:101800006E082D00DB002308E0002208DF0021081D
:10181000DE002008DD00200081220230F700F70BF7
:101820000F2C00002C0068082D00D3000130D400DC
:10183000D600D501200045222C0068082D00D300D9
:10184000D401D6018030D50020004522B72C2C00D1
:10185000670BB82C13302D00A8002C006D082D004C
:10186000B000B101B201B301F801F901FA01300889
:10187000A9002C006C082D00B0002C006D082D0074
:10188000B100B201B301F801F901FA013008AA0070
:101890002C006B082D00B0002C006C082D00B1004E
:1018A0002C006D082D00B200B301F801F901FA0116
:1018B0003008AB002C00F801F901FA016A082D008C
:1018C000AC002C0068082D00D300D4010130D600F4
:1018D000D501200045222C0068082D00D300D4013A
:1018E000D6018030D500200045222C0069082D004B
:1018F000D6002C0068082D00D5002C0067082D00AC
:10190000D4002C0066082D00D3002430D8001830F5
:10191000D700DA010530D9002C006F082D00DC005B
:101920002C006E082D00DB002308E0002208DF00F9
:101930002108DE002008DD00200081220230F700AF
:10194000F70BA02C00002C0068082D00D3000130FC
:10195000D400D600D501200045222C0068082D00B7
:10196000D300D401D6018030D500200045222C00C0
:10197000200008002C00EB1BD02C0F30F7006A0E63
:10198000F7050A3077020318C82C3030F707CA2C45
:101990006B08F70777082D00B7002000F4202C0013
:1019A0000F30EA050A306A020318D82C3030DA2CDE
:1019B000EB136B08EA076A082D00B7002000F4203B
:1019C00008002D004D08003A20000319EB2C013AC5
:1019D0000319142D3E2D2D00D601D50156085402B1
:1019E000031C132D031DF82C530855020318132D47
:1019F0005108550784005208563D85000008D9005B
:101A00002400951240309400273092002A3095002F
:101A10002D0059082E00A000200067222D00D50AB5
:101A20000319D60AEE2C3F2D2D00D801D7015808F6
:101A30005402031C3C2D031D212D5308570203188B
:101A40003C2D5108570784005208583D8500000876
:101A5000D9002400951240309400273092002A309B
:101A600095002D0059082E00A000200074222D00A2
:101A7000D70A0319D80A172D3F2D20002D0020006A
:101A800008002D004D08003A200003194B2D013AA3
:101A90000319922DDA2D2D00D8015308580203188E
:101AA0006A2D5808510784000030523D8500000817
:101AB000DE002400951240309400273092002A3036
:101AC00095002D005E082E00A000200067222D004A
:101AD000D80A4D2DDA01D9015A085702031C912D5D
:101AE000031D762D560859020318912D54085907E5
:101AF000840055085A3D85000008DE002400951238
:101B000040309400273092002A3095002D005E0866
:101B10002E00A000200067222D00D90A0319DA0A3E
:101B20006C2DDB2D2D00DB0153085B020318B12D5A
:101B30005B08510784000030523D85000008DE003C
:101B40002400951240309400273092002A309500EE
:101B50002D005E082E00A000200074222D00DB0A5C
:101B6000942DDD01DC015D085702031CD82D031DF7
:101B7000BD2D56085C020318D82D54085C0784005C
:101B800055085D3D85000008DE00240095124030B8
:101B90009400273092002A3095002D005E082E0018
:101BA000A000200074222D00DC0A0319DD0AB32DE9
:101BB000DB2D20002D002000080005302D00D10075
:101BC0004F08D300D4010130D600D50120004522B2
:101BD0002D004F08D300D401D6018030D50020005D
:101BE00045222D005008D6004F08D5004E08D400DD
:101BF0004D08D3002430D8004130D700DA0101303D
:101C0000D9002430DC004230DB00E001DF01DE01DE
:101C10000130DD00200081222D004F08D30001306B
:101C2000D400D600D501200045222D004F08D30056
:101C3000D401D6018030D500200045222D00520865
:101C4000F80020000800243085003D3084000008A2
:101C50000319382E0530F800F701F70B2D2EF80B7D
:101C60002C2E2E30F700F70B332E362E800B2A2E1B
:101C700008002D00B508031DCC2E0630C000023030
:101C8000C100D001D101F801F901FA013A08C200FE
:101C9000D101F801F901FA013908C300F801F9018D
:101CA000FA013808C4003608D300D4010130D60048
:101CB000D501200045222D003608D300D401D601DD
:101CC0008030D500200045222D003708D00036088E
:101CD000CF003508CE003408CD002430D20030309B
:101CE000D100D4010130D3002000E1242D003608BA
:101CF000D3000130D400D600D501200045222D00AC
:101D00003608D300D401D6018030D500200045220A
:101D10002D003608D300D4010130D600D5012000B3
:101D200045222D003608D300D401D6018030D500DD
:101D3000200045222D003708D0003608CF00350896
:101D4000CE003408CD002430D2003130D100043030
:101D5000D3003D08D5003C08D4003F08D7003E081A
:101D6000D600200041250230F700F70BB52E000009
:101D70002D003608D3000130D400D600D501200054
:101D800045222D003608D300D401D6018030D5007D
:101D900020004522632F2D00350B642F0630C5002F
:101DA0001230C600CF01D001D101F801F901FA01CA
:101DB0003B08C700D001D101F801F901FA013A0846
:101DC000C800D101F801F901FA013908C900F80188
:101DD000F901FA013808CA003608D300D4010130ED
:101DE000D600D501200045222D003608D300D401AD
:101DF000D6018030D500200045222D003708D000C4
:101E00003608CF003508CE003408CD002430D2008B
:101E10003530D100D4010130D3002000E1242D0061
:101E20003608D3000130D400D600D5012000452269
:101E30002D003608D300D401D6018030D500200013
:101E400045222D003608D300D4010130D600D5013B
:101E5000200045222D003608D300D401D601803061
:101E6000D500200045222D003708D0003608CF00CD
:101E70003508CE003408CD002430D2003630D100F1
:101E80000530D3003D08D5003C08D4003F08D700FA
:101E90003E08D600200041250230F700F70B4E2FF8
:101EA00000002D003608D3000130D400D600D50143
:101EB000200045222D003608D300D401D601803001
:101EC000D500200045222D00CB013708D000360870
:101ED000CF003508CE003408CD002000DD2578087D
:101EE0000139013C031D8D2F2D004B080A3C0318BE
:101EF0007F2FC830CD0020002326832F2D000A30ED
:101F0000CD00200023262D004B08643C03188B2FA6
:101F100020008D2F2D00CB0A652F200008002C00FB
:101F20003408840035088500003FB7000130B80050
:101F3000360838020318A62F3808B80A3407840078
:101F40000030353D85000008B706982F3708F800A7
:101F50002000080078080319B12F77081A00F80B41
:101F6000AD2F08002A006E08FA006D0884006E0884
:101F7000850000082B00A0002A006C0885006B0873
:101F80008400F7012B002008F8002000AA272A006F
:101F90006D0884006E0885008001B0312000CF2AD2
:101FA0000F302B00A000A201A101A3019831200055
:101FB0004623883108002D002108F801200203186B
:101FC000E42F2008F700F02FF7010830A200A00D41
:101FD000F70D210877020318F700F80DA20BE72F81
:101FE000200008002A005C085B020319F92F00306A
:0A1FF000FA2F0130F800200008006D
:102000009330230091000030920088312000192184
:10201000903121008F1122008F1521008F10220096
:102020008F1428005D082D00B70028005C082D00E3
:10203000B60028005B082D00B50028005A082D00C6
:10204000B4008831200053239031F808031D332851
:10205000A130230091000030920088312000192126
:1020600090319D2C332828005D082C00E9002800C1
:102070005C082C00E80028005B082C00E700280022
:102080005A082C00E600ED01EC01EB01EA012330D7
:10209000EF00B730EE002D00A301A201A1014030F6
:1020A000A00088312000A12390312C00DD01DC014B
:1020B000DB012B0067082C00DA00DD00DA01DB0110
:1020C000DC01E201E101E0012B0068082C00DF00E7
:1020D0006008FA005F08F900F701F8017708DA04F0
:1020E0007808DB045F08DC046008DD04E201E1013C
:1020F000E0012B0069082C00DF006108FA0060088D
:10210000F9005F08F800F7017708DA045F08DB04DC
:102110006008DC046108DD042B00F801F901FA0114
:102120006A082C005A042800C20078082C005B04BE
:102130002800C30079082C005C042800C4007A0839
:102140002C005D042800C5002B006B08F1002C005A
:10215000DD01DC01DB012B006C082C00DA00DD0066
:10216000DA01DB01DC01E201E101E0012B006D0895
:102170002C00DF006008FA005F08F900F701F801A1
:102180007708DA047808DB045F08DC046008DD0403
:10219000E201E101E0012B006E082C00DF00610884
:1021A000FA006008F9005F08F800F7017708DA0420
:1021B0005F08DB046008DC046108DD042B00F80123
:1021C000F901FA016F082C005A042800C6007808AB
:1021D0002C005B042800C70079082C005C04280050
:1021E000C8007A082C005D042800C9002C002008D3
:1021F000F200DD01DC01DB012108DA00DD00DA019B
:10220000DB01DC01E201E101E0012208DF006008FE
:10221000FA005F08F900F701F8017708DA04780896
:10222000DB045F08DC046008DD04E201E101E00199
:102230002308DF006108FA006008F9005F08F80071
:10224000F7017708DA045F08DB046008DC04610842
:10225000DD04F801F901FA0124085A042800CA0033
:1022600078082C005B042800CB0079082C005C0463
:102270002800CC007A082C005D042800CD002C003A
:102280002508F300DD01DC01DB012608DA00DD00B2
:10229000DA01DB01DC01E201E101E0012708DF00F6
:1022A0006008FA005F08F900F701F8017708DA041E
:1022B0007808DB045F08DC046008DD04E201E1016A
:1022C000E0012808DF006108FA006008F9005F08F3
:1022D000F800F7017708DA045F08DB046008DC0423
:1022E0006108DD04F801F901FA0129085A042800FF
:1022F000CE0078082C005B042800CF0079082C0061
:102300005C042800D0007A082C005D042800D1006D
:102310002C00DD01DC01DB012A08DA00DD00DA0136
:10232000DB01DC01E201E101E0012B08DF006008D4
:10233000FA005F08F900F701F8017708DA04780875
:10234000DB045F08DC046008DD04E201E101E00178
:102350002C08DF006108FA006008F9005F08F80047
:10236000F7017708DA045F08DB046008DC04610821
:10237000DD04F801F901FA012D085A04F400DD0129
:10238000DC01DB012E08DA00DD00DA01DB01DC0113
:10239000E201E101E0012F08DF006008FA005F08B8
:1023A000F900F701F8017708DA047808DB045F0820
:1023B000DC046008DD04E201E101E0013008DF0037
:1023C0006108FA006008F9005F08F800F701770873
:1023D000DA045F08DB046008DC046108DD04F8014E
:1023E000F901FA0131085A042800D20078082C00BB
:1023F0005B042800D30079082C005C042800D4007A
:102400007A082C005D042800D5002C003208F50065
:10241000DD01DC01DB013308DA00DD00DA01DB017C
:10242000DC01E201E101E0013408DF006008FA00AC
:102430005F08F900F701F8017708DA047808DB048F
:102440005F08DC046008DD04E201E101E001350819
:10245000DF006108FA006008F9005F08F800F70182
:102460007708DA045F08DB046008DC046108DD0437
:10247000F801F901FA0136085A042800D600780854
:102480002C005B042800D70079082C005C0428008D
:10249000D8007A082C005D042800D900AE30230053
:1024A000910000309200031022302C00EA008831A5
:1024B000200067219031280045082C00EA003730C1
:1024C000EB0088312000BA249031280044082C0009
:1024D000EA003730EB0088312000BA249031280020
:1024E00043082C00EA003730EB0088312000BA2482
:1024F0009031280042082C00EA003730EB00883188
:102500002000BA2490310D302D00B7008831200012
:10251000F42090310A302D00B70088312000F420DB
:102520009031C3302300910000309200031022301C
:102530002C00EA00883120006721903171082C00BE
:10254000EA003730EB0088312000BA2490310D309A
:102550002D00B70088312000F42090310A302D0082
:10256000B70088312000F4209031D830230091004A
:1025700000309200031022302C00EA008831200045
:1025800067219031280049082C00EA003730EB0021
:1025900088312000BA249031280048082C00EA0035
:1025A0003730EB0088312000BA24903128004708EA
:1025B0002C00EA003730EB0088312000BA2490313B
:1025C000280046082C00EA003730EB008831200054
:1025D000BA2490310D302D00B70088312000F4204E
:1025E00090310A302D00B70088312000F42090315E
:1025F000ED302300910000309200031022302C00B7
:10260000EA00883120006721903172082C00EA002E
:102610003730EB0088312000BA2490310D302D0086
:10262000B70088312000F42090310A302D00B70027
:1026300088312000F42090310230230091000130D5
:102640009200031022302C00EA008831200067211C
:10265000903128004D082C00EA003730EB0088311B
:102660002000BA24903128004C082C00EA003730B2
:10267000EB0088312000BA24903128004B082C0050
:10268000EA003730EB0088312000BA24903128006E
:102690004A082C00EA003730EB0088312000BA24C9
:1026A00090310D302D00B70088312000F42090319A
:1026B0000A302D00B70088312000F4209031173007
:1026C0002300910001309200031022302C00EA0018
:1026D0008831200067219031280051082C00EA0041
:1026E0003730EB0088312000BA24903128005008A0
:1026F0002C00EA003730EB0088312000BA249031FA
:1027000028004F082C00EA003730EB008831200009
:10271000BA24903128004E082C00EA003730EB0034
:1027200088312000BA2490310D302D00B700883157
:102730002000F42090310A302D00B70088312000AD
:10274000F42090312C3023009100013092000310CE
:1027500022302C00EA008831200067219031730874
:102760002C00EA003730EB0088312000BA24903189
:102770000D302D00B70088312000F42090310A3050
:102780002D00B70088312000F42090314130230023
:10279000910001309200031022302C00EA008831B1
:1027A00020006721903174082C00EA003730EB00DC
:1027B00088312000BA2490310D302D00B7008831C7
:1027C0002000F42090310A302D00B700883120001D
:1027D000F420903156302300910001309200031014
:1027E00022302C00EA008831200067219031280037
:1027F00055082C00EA003730EB0088312000BA245D
:102800009031280054082C00EA003730EB00883162
:102810002000BA249031280053082C00EA003730F9
:10282000EB0088312000BA249031280052082C0097
:10283000EA003730EB0088312000BA2490310D30A7
:102840002D00B70088312000F42090310A302D008F
:10285000B70088312000F42090316B3023009100C4
:1028600001309200031022302C00EA008831200051
:1028700067219031280059082C00EA003730EB001E
:1028800088312000BA249031280058082C00EA0032
:102890003730EB0088312000BA24903128005708E7
:1028A0002C00EA003730EB0088312000BA24903148
:1028B000280056082C00EA003730EB008831200051
:1028C000BA2490310D302D00B70088312000F4205B
:1028D00090310A302D00B70088312000F42090316B
:1028E00080302300910001309200031022302C0030
:1028F000EA00883120006721903175082C00EA0039
:102900003730EB0088312000BA2490310D302D0093
:10291000B70088312000F42090310A302D00B70034
:1029200088312000F420903195302300910001304F
:102930009200883120001921903108002D00B5083F
:10294000031D432D0630BC002030BD003A08C900ED
:102950003B08CA00CB01CC01F801F901FA01490892
:10296000BE003908C9003A08CA003B08CB00CC01B8
:10297000F801F901FA014908BF00F801F901FA016B
:102980003808C0003608D300D4010130D600D50184
:1029900088312000452290312D003608D300D40123
:1029A000D6018030D50088312000452290312D009D
:1029B0003708D0003608CF003508CE003408CD00E7
:1029C0002430D2002C30D100D4010130D300883122
:1029D0002000E12490312D003608D3000130D400CE
:1029E000D600D50188312000452290312D003608CF
:1029F000D300D401D6018030D50088312000452293
:102A000090312D003608D300D4010130D600D50115
:102A100088312000452290312D003608D300D401A2
:102A2000D6018030D50088312000452290312D001C
:102A30003708D0003608CF003508CE003408CD0066
:102A40002430D2002D30D100D4010430D30088319D
:102A50002000E12490312D003608D3000130D4004D
:102A6000D600D50188312000452290312D0036084E
:102A7000D300D401D6018030D50088312000452212
:102A80009031EE2D2D00350BEF2D0630C100213099
:102A9000C2003B08C900CA01CB01CC01F801F90111
:102AA000FA014908C3003A08C9003B08CA00CB0133
:102AB000CC01F801F901FA014908C4003908C9003C
:102AC0003A08CA003B08CB00CC01F801F901FA0131
:102AD0004908C500F801F901FA013808C6003608AE
:102AE000D300D4010130D600D50188312000452221
:102AF00090312D003608D300D401D6018030D500A6
:102B000088312000452290312D003708D00036084A
:102B1000CF003508CE003408CD002430D20031304B
:102B2000D100D4010130D30088312000E12490315C
:102B30002D003608D3000130D400D600D5018831ED
:102B40002000452290312D003608D300D401D60153
:102B50008030D50088312000452290312D00360884
:102B6000D300D4010130D600D501883120004522A0
:102B700090312D003608D300D401D6018030D50025
:102B800088312000452290312D003708D0003608CA
:102B9000CF003508CE003408CD002430D2003230CA
:102BA000D100D4010530D30088312000E1249031D8
:102BB0002D003608D3000130D400D600D50188316D
:102BC0002000452290312D003608D300D401D601D3
:102BD0008030D50088312000452290312D00C7017A
:102BE0003708D0003608CF003508CE003408CD00B5
:102BF00088312000DD25903178080139013C031D22
:102C00001E2E2D0047080A3C03180E2EC830CD009A
:102C10008831200023269031142E2D000A30CD005B
:102C200088312000232690312D004708643C03188A
:102C30001C2E20001E2E2D00C70AF02D200008009B
:102C40002C00C301C401C501C601C701C801C901E7
:102C5000CA01CB01CC01CD01CE01CF01D001D10100
:102C6000D201D301D401D501D601D701D801D901B0
:102C7000DA01DB01DC01DD01DE01DF01E001E10160
:102C8000E201E301E401E501E601E701E801E90110
:102C9000EA01EB01EC01ED01EE01EF012D00A001D5
:102CA000A101A201A301A401A501A601A701A801F8
:102CB000A901AA01AB01AC01AD01AE01AF01B001A8
:102CC000B101B201280045082D00B500B601B701D9
:102CD000B80135082C00C300280044082D00B500B9
:102CE000280045082D00B600B701B80135082C00B2
:102CF000C400280043082D00B500280044082D001A
:102D0000B600280045082D00B700B80135082C0092
:102D1000C500280042082C00C6007108C700280022
:102D200049082D00B500B601B701B80135082C00DF
:102D3000C800280048082D00B500280049082D00CB
:102D4000B600B701B80135082C00C90028004708B3
:102D50002D00B500280048082D00B60028004908BD
:102D60002D00B700B80135082C00CA00280046081D
:102D70002C00CB007208CC0028004D082D00B500B7
:102D8000B601B701B80135082C00CD0028004C0869
:102D90002D00B50028004D082D00B600B701B80180
:102DA00035082C00CE0028004B082D00B500280067
:102DB0004C082D00B60028004D082D00B700B801C2
:102DC00035082C00CF0028004A082C00D0007308DA
:102DD000D100280051082D00B500B601B701B80197
:102DE00035082C00D200280050082D00B50028001E
:102DF00051082D00B600B701B80135082C00D300EA
:102E000028004F082D00B500280050082D00B600FE
:102E1000280051082D00B700B80135082C00D40057
:102E200028004E082C00D5000030D600D700D8006E
:102E30007408D900280055082D00B500B601B70167
:102E4000B80135082C00DA00280054082D00B50020
:102E5000280055082D00B600B701B80135082C0030
:102E6000DB00280053082D00B500280054082D0071
:102E7000B600280055082D00B700B80135082C0011
:102E8000DC00280052082C00DD007508DE00280058
:102E900059082D00B500B601B701B80135082C005E
:102EA000DF00280058082D00B500280059082D0023
:102EB000B600B701B80135082C00E000280057081B
:102EC0002D00B500280058082D00B600280059082C
:102ED0002D00B700B80135082C00E1002800560885
:102EE0002C00E20028005D082D00B70028005C08D7
:102EF0002D00B60028005B082D00B50028005A08F8
:102F00002D00B4008831200053239031F808031DB0
:102F1000932F9B30230091000130920088312000D4
:102F200019219031D12F28005D082D00B70028000D
:102F30005C082D00B60028005B082D00B5002800B5
:102F40005A082D00B400BB01BA01B901B801200034
:102F50009E2428005D082D00B70028005C082D0085
:102F6000B60028005B082D00B50028005A082D0087
:102F7000B400BB01BA01B901B8012330BD00E33090
:102F8000BC00BF014030BE0088312000392690319E
:102F9000AC302300910001309200883120001921CB
:102FA0009031080021000F1122000F112400110898
:102FB0002C003B0824009100140C031CDC2F11088A
:102FC000F80011082C003A0824009100140C031C8E
:102FD000E62F1108F70021000F1122000F15200025
:102FE000080003302B00A0002030A2000930A1000F
:102FF0000430A3009831200046239031A831AA2D37
:103000003108F7003208F8003308F9003408FA00F4
:103010007A082C00BB007908BA007808B900770854
:10302000B8003B08C400C501C601C7014408B2008E
:103030003A08C4003B08C500C601C7014408B300F4
:103040003908C4003A08C5003B08C600C701440857
:10305000B4003808B5003008B6003108B700BE30FB
:10306000230091000130920088312000192198310D
:103070002C00BC013C08053C031C5828D2303C07FE
:103080008400233085000318850A0008C300EA0085
:103090003730EB0088312000BA24983120302D00E1
:1030A000B70088312000F42098312C00BC0A3A285F
:1030B0000D302D00B70088312000F42098310A30FF
:1030C0002D00B70088312000F420983128004A08EC
:1030D0002C00BD0028004B082C00BE000230280048
:1030E0004C072C00BF00003028004D3D2C00C000D4
:1030F00028005D082D00B70028005C082D00B600F0
:1031000028005B082D00B50028005A082D00B400E7
:103110008831200053239831F808031D9928C430C2
:10312000230091000130920088312000192198314C
:10313000192928005D082D00B70028005C082D0023
:10314000B60028005B082D00B50028005A082D00A5
:10315000B4002C0040082D00BB002C003F082D00BF
:10316000BA002C003E082D00B9002C003D082D00AF
:10317000B8002330BD00D230BC00BF010630BE0015
:10318000883120003926983106302800CA070030DF
:10319000CB3DCC3DCD3D0630CE070030CF3DD03DC0
:1031A000D13D0630F40774073F3C031815294A083F
:1031B0002C00BD0028004B082C00BE000230280067
:1031C0004C072C00BF00003028004D3D2C00C000F3
:1031D00028005D082D00B70028005C082D00B6000F
:1031E00028005B082D00B50028005A082D00B40007
:1031F0002C0040082D00BB002C003F082D00BA0019
:103200002C003E082D00B9002C003D082D00B80010
:103210002230BD009E30BC00BF010630BE008831A8
:10322000200039269831F401280090312000202612
:10323000983108002B00A401A501A601A701A8014F
:10324000A901AA01AB01AC01AD01AE01AF0154303F
:10325000230091000230920088312000192198311A
:10326000643023009100023092008831200019213F
:1032700098312B00B0012308300203185929300877
:10328000210784000030223D85000008B7002C0093
:10329000EA003730EB0088312000BA249831203022
:1032A0002D00B70088312000F42098312B00B00A9F
:1032B0003B290D302D00B70088312000F4209831D3
:1032C0000A302D00B70088312000F42098312B00FF
:1032D0002208B8002108B7002308B900BA01BA01D2
:1032E000013039023A02031885293A083707840069
:1032F0000030383D85000008AA3C031D83290130B9
:103300003A07F800A929BA0A70293A083707840051
:103310000030383D85000008AA3C031D9D29793006
:103320002300910002309200883120001921983149
:10333000FF30F8002B00A929A9298430230091002F
:10334000023092008831200019219831FF30F800B6
:103350002B007808B1003108FF3C031DB429A430CC
:10336000F8000530F900432B31082107B200003086
:10337000223DB30032088400330885000031000884
:103380000F39B4003408B700B8013808023C031CF8
:10339000E3290310380DC53E840022308500031850
:1033A000850A00083702031DE1290310380D013E8C
:1033B000C53E8400223085000318850A0008F80005
:1033C0000B2AB80AC5298D302300910002309200E3
:1033D00003101F302C00EA0088312000672198314B
:1033E0002B0037082C00EA003730EB008831200032
:1033F000BA2498310D302D00B70088312000F42018
:1034000098310A302D00B70088312000F42098311F
:10341000FF30F8002B007808B5003508FF3C031D8D
:10342000162AA430F8000530F900432B3108230296
:10343000B6003308B8003208B7003608B9000130CA
:103440003902370784000030383D85000008BA0093
:1034500001303902BC0038082C00B5002B003708B9
:103460002C00B4002B003C082C00B6008831200052
:103470008F27983178082B00BB003B083A02031DC8
:10348000452A0130F8009B2A9B2A9F302300910097
:10349000023092008831200019219831A830230091
:1034A000910002309200031013302C00EA008831A2
:1034B0002000672198312B003A082C00EA003730B1
:1034C000EB0088312000BA2498310D302D00B70070
:1034D00088312000F42098310A302D00B70088315F
:1034E0002000F4209831B430230091000230920083
:1034F000031013302C00EA00883120006721983136
:103500002B003B082C00EA003730EB00883120000C
:10351000BA2498310D302D00B70088312000F420F6
:1035200098310A302D00B70088312000F4209831FE
:103530000030F8002B00F808031DA32AA430F8007F
:103540000530F900432B3208840033088500003130
:103550000008F039F700770EB7000F30B7053708CD
:10356000B80038080C3C031DB92A0130F8000E2BB6
:103570000E2BC030230091000230920088312000D1
:1035800019219831D13023009100023092000310AC
:1035900013302C00EA0088312000672198312B007D
:1035A00038082C00EA003730EB0088312000BA24BC
:1035B00098310D302D00B70088312000F42098316B
:1035C0000A302D00B70088312000F4209831DD301A
:1035D0002300910002309200031013302C00EA0007
:1035E00088312000672198310C302C00EA003730F8
:1035F000EB0088312000BA2498310D302D00B7003F
:1036000088312000F42098310A302D00B70088312D
:103610002000F42098310030F8002B00F808031D3A
:10362000162BA430F8000530F900432B3408A40011
:1036300001303207B7000030333DB80002303602A7
:10364000B90038088500370884003908F8000319E4
:10365000312B233087007730860012001E00F80BD4
:103660002D2B02303602A50026146B30230091006A
:10367000023092008831200019219831A430F800DE
:103680000530F9002B00B0312000B22AAA302B00FF
:10369000A40020085038A5002208850021088400D5
:1036A0002308F80003195C2B23308700763086004E
:1036B00012001E00F80B582B02302307B4007430A0
:1036C0003407B7002330B8000318B80A01303402B9
:1036D000B90023302C00B5007530B4002B00390838
:1036E0002C00B600883120008F2798312B00380835
:1036F0008500370884007808800001303407B50061
:103700002330B8007430B7003508B900BA01390861
:103710003A0203189C2B3A08370784000030383DE2
:1037200085000008BC003C082000111E952B2300DA
:103730009A002B00BA0A872BE9302300910002304F
:10374000920088312000192198312B00BB013908E3
:103750003B020318C52B3B08370784000030383D77
:1037600085000008BC002C00EA003730EB008831EF
:103770002000BA24983120302D00B7008831200075
:10378000F42098312B00BB0AA72B0D302D00B70079
:1037900088312000F42098310A302D00B70088319C
:1037A0002000F42098310800F53023009100033008
:1037B000920088312000192198312B0025088400BF
:1037C00026088500003FA7002508840026088500FC
:1037D00001310008B101B001AF01AE00B100AE018E
:1037E000AF01B001250884002608850002310008D9
:1037F000B601B501B401B3003408FA003308F9008A
:10380000F701F8017708AE047808AF043308B00474
:103810003408B10425088400260885000331000817
:10382000B601B501B401B3003508FA003408F90057
:103830003308F800F7017708AE043308AF04340802
:10384000B0043508B1042508840026088500043F2B
:10385000F700F801F901FA0177082E04A8007808AA
:103860002F04A90079083004AA007A083104AB00BB
:10387000250884002608850005310008AF01AE0048
:10388000AF00AE012508840026088500063FFA0136
:103890002E04AC007A082F04AD00FF302300910005
:1038A0000330920003100C302C00EA008831200015
:1038B000672198312B0027082C00EA003730EB00F5
:1038C00088312000BA2498310D302D00B70088319E
:1038D0002000F42098310A302D00B70088312000F4
:1038E000F420983109302300910004309200031035
:1038F0000E302C00EA0088312000672198312B001F
:103900002B082C00EA003730EB0088312000BA2465
:1039100098312B002A082C00EA003730EB00883160
:103920002000BA2498312B0029082C00EA003730F7
:10393000EB0088312000BA2498312B0028082C0095
:10394000EA003730EB0088312000BA2498310D307E
:103950002D00B70088312000F42098310A302D0066
:10396000B70088312000F4209831143023009100F2
:103970000430920003100E302C00EA008831200041
:10398000672198312B002D082C00EA003730EB001E
:1039900088312000BA2498312B002C082C00EA0032
:1039A0003730EB0088312000BA2498310D302D00DB
:1039B000B70088312000F42098310A302D00B7007C
:1039C00088312000F42098312B0027082C00B0000B
:1039D0000130B100200000202B0027082C00B0008F
:1039E0000230B100200000201F302300910004307D
:1039F00092008831200019219831A831582D78087B
:103A00002C0066082D00A0006430A1008831200041
:103A1000DB27983177082C00E60078083030031D4A
:103A2000182DE71C242DE719242D671A20301B2D93
:103A3000E71167126714F80778082D00B70088317E
:103A40002000F42098312C0066082D00A0000A30D8
:103A5000A10088312000DB27983177082C00E60090
:103A600078083030031D3A2DE719432D671C432D8C
:103A7000671A2030F80778082D00B7008831200039
:103A8000F42098312C003030E60766082D00B7008E
:103A900088312000F420983108002400951240302D
:103AA0009400433092003A3095002C003708BB0058
:103AB0003608BA0090312000D227983124009512A0
:103AC00040309400433092003A3095002C00BB0106
:103AD0000330BA0090312000D227983178082C00AA
:103AE000B9007708B8003808F70039080F39FA002C
:103AF0003808F8007A08F90020000800F701F801FA
:103B00002C00670803106818F707F70CF80CE81882
:103B1000F707F70CF80C6819F707F70CF80CE81919
:103B2000F707F70CF80C681AF707F70CF80CE81A07
:103B3000F707F70CF80C681BF707F70CF80CE81BF5
:103B4000F707F70CF80C2000080001302A005C078A
:103B50000F392B00B6002A005B082B003602031D2C
:103B6000BC2DDA3023009100033092008831200010
:103B7000192198315F2E2B002A005C082C00E700E9
:103B80000930E80020007E25CB307807F80022308D
:103B9000FA000318FA0A78082B00BA007A08BB006A
:103BA0003508FA0034088400350885000030001814
:103BB0000130F8007818E22D3B0885003A088400AF
:103BC0000010E72D3B0885003A08840000142A0005
:103BD0005C082C00E7000930E80020007E25013059
:103BE0007807CB3EF8002230FA000318FA0A78086A
:103BF0002B00BA007A08BB00340884003508850021
:103C000001310008F70001310008F8000131000817
:103C1000F90001310008FA003D317A08BF00790847
:103C2000BE007808BD007708BC003B0885003A0854
:103C300084003C0880003D08813F3E08823F3F08E9
:103C4000833F2A005C082C00E7000930E8002000D0
:103C50007E2505307807CB3EF8002230FA000318A5
:103C6000FA0A78082B00BA007A08BB0034088400EE
:103C70003508850005310008F70001310008F8001B
:103C800001310008F90001310008FA003D317A08DD
:103C9000BF007908BE007808BD007708BC003B086B
:103CA00085003A0884003C0880003D08813F3E08BA
:103CB000823F3F08833F36082A00DC00200098310D
:103CC000052F2B002508840026088500013FA7004A
:103CD0008E30230091000430920088312000192199
:103CE00098319930230091000430920003100E3077
:103CF0002C00EA0088312000672198312B0027082A
:103D00002C00E6001B30E7002000FF240D302D00C2
:103D1000B70088312000F42098310A302D00B70018
:103D200088312000F420983121008C1222008C165A
:103D3000210010102200101421000C1222000C127D
:103D40002B002608B5002508B400A031200000286B
:103D50009831A33023009100043092008831200074
:103D60001921983121008C1222008C122100101090
:103D70002200101021000C1222000C16AD3023007E
:103D800091000430920088312000192198312B00D5
:103D90002A10280052082B00B400280053082B00DA
:103DA000B5001630280054072B00B600003028005C
:103DB000553D2B00B700280056082B003402AB00FD
:103DC000280057082B00353BAC00280058082B0072
:103DD000363BAD00280059082B00373BAE002800C9
:103DE00059082B00B200280058082B00B100280009
:103DF00057082B00B000280056082B00AF002330D6
:103E0000B5007A30B4002000A52DA831582DB4306B
:103E1000230091000430920088312000192198314C
:103E20002B002508840026088500003FA7002708EE
:103E30002C00B000B101200000202B00AB01AA0132
:103E4000A901A801AB08031D512F2A08F43C031C4B
:103E5000512F031D2F2F2908233C031C512F28000D
:103E60005D082B00AF0028005C082B00AE00280086
:103E70005B082B00AD0028005A082B00AC002B0873
:103E8000B3002A08B2002908B1002808B000A03108
:103E90002000F32A983101302B00AA070030AB3DF7
:103EA000222F27082C00B0000230B1002000002093
:103EB000C030230091000430920088312000192185
:103EC0009831A831582D47302300910006309200D8
:103ED00088312000192198312B00250884002608FC
:103EE000850000310008E7002C00B0000130B1006F
:103EF000200000202B00A701A801A901AA01AB0105
:103F0000AC01AD01AE01AF01B001B101B201B3012D
:103F1000B401B501B601B701B801B901BA01BB01DD
:103F2000BC01BD01BE01BF01C001C101C201C3018D
:103F3000C401C501C601C701C801C901CA01CB013D
:103F4000CC01CD01CE01CF01D001D101D201D301ED
:103F5000D401D501D601D701D801D901DA01DB019D
:103F6000DC01DD01DE01DF01E001E101E201E3014D
:103F7000E401E501E60128005D082D00B7002800F6
:103F80005C082D00B60028005B082D00B500280055
:103F90005A082D00B400BB01BA01B901B8012330A1
:103FA000BD007730BC00BF014030BE00883120002A
:103FB000392698319031002098312B002508840053
:103FC0002608850000310008E7002C00B000023010
:103FD000B1002000002055302300910006309200EF
:0C3FE0008831200019219831A831582D9B
:10400000A63023009100033092008831200019214E
:10401000A0312B003408840035088500013FB6002C
:10402000AD30230091000330920003100E302C00BD
:10403000EA00883120006721A0312B0036082C00CF
:10404000E6001B30E70098312000FF24A0310D303E
:104050002D00B70088312000F420A0310A302D0057
:10406000B70088312000F420A03121001010220078
:1040700010148530F700F70B3B282B00B7013608EA
:1040800037020318F42837082200990001302D0068
:10409000CD00883120002326A03103102B00370DDE
:1040A000FA01F9000310F90DFA0D79083A3E2C00D7
:1040B000B40020307A3DB5008330B7003030B60010
:1040C000983120004D25A0312C003508850034089A
:1040D0008400780880007908813F03102B00370D99
:1040E000013EFA01F9000310F90DFA0D79083A3E84
:1040F0002C00B40020307A3DB5008730B700303056
:10410000B600983120004D25A0312C0035088500DF
:1041100034088400780880007908813F03102B0060
:10412000370DFA01F9000310F90DFA0D79083A3E3E
:10413000840020307A3D850000082C00B400013155
:104140000008B5003F3103102B00370D013EFA0186
:10415000F9000310F90DFA0D79083A3E8400203079
:104160007A3D850000082C00B60001310008B70038
:104170003F313508EA003730EB0088312000BA249F
:10418000A0312C003408EA003730EB0088312000E1
:10419000BA24A0312C302D00B70088312000F42043
:1041A000A0312C003708EA003730EB0088312000BE
:1041B000BA24A0312C003608EA003730EB008831F1
:1041C0002000BA24A0310D302D00B7008831200026
:1041D000F420A0310A302D00B70088312000F420EF
:1041E000A0312B00B70A3F28210010102200101028
:1041F000B73023009100033092008831200019214C
:10420000A031BD302300910003309200883120009E
:104210001921A0312B00B801B901BA01BB01BC01C1
:10422000BD01BE01BF01C001C101C201C301C40182
:10423000C501C601C701C801C901CA01CB01CC0132
:10424000CD01CE01CF01D001D101D201D301D401E2
:10425000D501D601D701D801D901DA01DB01DC0192
:10426000DD01DE01DF01E001E101E201E301E40142
:10427000E501E601E701E801E901EA01EB01EC01F2
:10428000ED01EE01EF012C00A001A101A201A301AB
:10429000A401A501A601A701A801AA01A901AA08D4
:1042A000031D852A2B0036082C0029020318852AB5
:1042B00088302807B4002330B5000318B50A03106E
:1042C000290DB6002A0DB7000310360DF900370D81
:1042D000FA0079083A3E840020307A3D85000008D3
:1042E000B60001310008B7003F31B70CB60CB70C6F
:1042F000B60CB70CB60CB70CB60C0F30B7053608B9
:10430000F700FA013608B6007A08B70035088500CC
:104310003408840036088000A80A88302807B400D2
:104320002330B5000318B50A0310290DB6002A0D75
:10433000B7000310360DF900370DFA0079083A3E40
:10434000840020307A3D85000008B6000131000865
:10435000B7003F310F30B605B701B60DB70DB60D3A
:10436000B70DB60DB70DB60DB70DF030B60503108D
:10437000290DB8002A0DB9000130B8070030B93D49
:104380000310380DF900390DFA0079083A3E84001F
:1043900020307A3D85000008B80001310008B900DE
:1043A0003F313908B800B90138080F39F700FA0170
:1043B00077083604F7007A083704FA007708B60061
:1043C0007A08B70035088500340884003608800074
:1043D000A80A88302807B4002330B5000318B50AAE
:1043E0000310290DB6002A0DB7000130B6070030C2
:1043F000B73D0310360DF900370DFA0079083A3E43
:10440000840020307A3D85000008B60001310008A4
:10441000B7003F313608F700FA013608B6007A08CF
:10442000B700350885003408840036088000A80AE3
:1044300028083F3C031D812A2330B5008830B40092
:104440003F30B600883120008F27A03178082C003B
:10445000A700280052082C00AB00280053082C00AD
:10446000AC001630280054072C00AD0000302800A6
:10447000553D2C00AE0028005D082D00B700280037
:104480005C082D00B60028005B082D00B500280050
:104490005A082D00B4002C002E082D00BB002C0063
:1044A0002D082D00BA002C002C082D00B9002C007E
:1044B0002B082D00B8002330BD008830BC00BF01A0
:1044C0004030BE00883120003926A031403028001D
:1044D000D2070030D33DD43DD53D4030D607003023
:1044E000D73DD83DD93D2C00A80123308500883028
:1044F0008400F7014030F80088312000AA27A0315D
:104500002C00A90A0319AA0A4F2928083E3C031CBB
:10451000E42A2808AF002F083E3C031C992A883063
:104520002F078400233085000318850A8001AF0A15
:104530008B2A280052082C00B000280053082C00B9
:10454000B1001630280054072C00B20000302800BB
:10455000553D2C00B30028005D082D00B700280051
:104560005C082D00B60028005B082D00B50028006F
:104570005A082D00B4002C0033082D00BB002C007D
:1045800032082D00BA002C0031082D00B9002C0093
:1045900030082D00B8002330BD008830BC00BF01BA
:1045A0004030BE00883120003926A031403028003C
:1045B000D2070030D33DD43DD53D4030D607003042
:1045C000D73DD83DD93D2C00903120002026A03188
:1045D000CC30230091000330920088312000192153
:1045E000A0319831A82E2B00AD08031DAE2B06304C
:1045F000B400D830B5003208C4003308C500C60185
:10460000C701F801F901FA014408B6003108C400F5
:104610003208C5003308C600C701F801F901FA01E4
:104620004408B700F801F901FA013008B8002E0873
:104630002D00D300D4010130D600D50188312000EF
:104640004522A0312B002E082D00D300D401D60125
:104650008030D500883120004522A0312B002F0862
:104660002D00D0002B002E082D00CF002B002D0890
:104670002D00CE002B002C082D00CD002330D200C1
:104680008430D100D4010130D30088312000E124EE
:10469000A0312B002E082D00D3000130D400D6000D
:1046A000D501883120004522A0312B002E082D0095
:1046B000D300D401D6018030D500883120004522B6
:1046C000A0312B002E082D00D300D4010130D600DC
:1046D000D501883120004522A0312B002E082D0065
:1046E000D300D401D6018030D50088312000452286
:1046F000A0312B002F082D00D0002B002E082D00FC
:10470000CF002B002D082D00CE002B002C082D00F3
:10471000CD002330D2008530D100D4010430D30045
:1047200088312000E124A0312B002E082D00D30079
:104730000130D400D600D501883120004522A031B7
:104740002B002E082D00D300D401D6018030D500D7
:10475000883120004522A0316F2C2B002D0B702CAE
:104760000630B900DC30BA003308C400C501C60108
:10477000C701F801F901FA014408BB003208C4007E
:104780003308C500C601C701F801F901FA01440860
:10479000BC003108C4003208C5003308C600C70198
:1047A000F801F901FA014408BD00F801F901FA0124
:1047B0003008BE002E082D00D300D4010130D600F1
:1047C000D501883120004522A0312B002E082D0074
:1047D000D300D401D6018030D50088312000452295
:1047E000A0312B002F082D00D0002B002E082D000B
:1047F000CF002B002D082D00CE002B002C082D0003
:10480000CD002330D2008930D100D4010130D30053
:1048100088312000E124A0312B002E082D00D30088
:104820000130D400D600D501883120004522A031C6
:104830002B002E082D00D300D401D6018030D500E6
:10484000883120004522A0312B002E082D00D300F6
:10485000D4010130D600D501883120004522A03195
:104860002B002E082D00D300D401D6018030D500B6
:10487000883120004522A0312B002F082D00D000C8
:104880002B002E082D00CF002B002D082D00CE0070
:104890002B002C082D00CD002330D2008A30D1000F
:1048A000D4010530D30088312000E124A0312B0051
:1048B0002E082D00D3000130D400D600D501883158
:1048C00020004522A0312B002E082D00D300D4015A
:1048D000D6018030D500883120004522A0312B0040
:1048E000BF012F082D00D0002B002E082D00CF0077
:1048F0002B002D082D00CE002B002C082D00CD0004
:1049000088312000DD25A03178080139013C031DE4
:10491000A92C2B003F080A3C0318972CC8302D0007
:10492000CD00883120002326A0319E2C2B000A3098
:104930002D00CD00883120002326A0312B003F0818
:10494000643C0318A62C2000A92C2B00BF0A712C54
:10495000200098314A2F85302300910005309200C5
:10496000883120001921A0312B0025088400260859
:104970008500003100082C00AE00B0000130B1000D
:10498000983120000020A0312B00A701A801A90127
:10499000AA01AB01AC01AD01250884002608850001
:1049A000003FA70025088400260885000131000883
:1049B0002C00B101B001AF01AE00B100AE01AF01FA
:1049C000B0012B002508840026088500023100086C
:1049D0002C00B601B501B401B3003408FA00330865
:1049E000F900F701F8017708AE047808AF0433083E
:1049F000B0043408B1042B00250884002608850083
:104A0000033100082C00B601B501B401B30035082C
:104A1000FA003408F9003308F800F7017708AE040B
:104A20003308AF043408B0043508B1042B0025085E
:104A3000840026088500043FF700F801F901FA0117
:104A400077082C002E042B00AA0078082C002F04D5
:104A50002B00AB0079082C0030042B00AC007A0846
:104A60002C0031042B00AD002508840026088500A9
:104A7000073100082C00AF01AE00AF00AE012B00E3
:104A80002508840026088500083FFA012C002E0422
:104A90002B00A8007A082C002F042B00A9008F30CF
:104AA000230091000530920003100C302C00EA0026
:104AB000883120006721A0312B0027082C00EA0054
:104AC0003730EB0088312000BA24A0310D302D00A2
:104AD000B70088312000F420A0310A302D00B70043
:104AE00088312000F420A031993023009100053056
:104AF000920003100E302C00EA008831200067215C
:104B0000A0312B002D082C00EA003730EB00883153
:104B10002000BA24A0312B002C082C00EA003730EA
:104B2000EB0088312000BA24A0312B002B082C0088
:104B3000EA003730EB0088312000BA24A0312B0086
:104B40002A082C00EA003730EB0088312000BA2414
:104B5000A0310D302D00B70088312000F420A031A5
:104B60000A302D00B70088312000F420A031A43095
:104B7000230091000530920003100E302C00EA0053
:104B8000883120006721A0312B0029082C00EA0081
:104B90003730EB0088312000BA24A0312B002808E0
:104BA0002C00EA003730EB0088312000BA24A03115
:104BB0000D302D00B70088312000F420A0310A30DC
:104BC0002D00B70088312000F420A0312B002708E9
:104BD0002C00B000B101983120000020A0312B0042
:104BE000AE01AF01B001B101B201B301B401B50131
:104BF000B601B701B801B901BA01BB01BC01BD01E1
:104C0000BE01BF01C001C101C201C301C401C50190
:104C1000C601C701C801C901CA01CB01CC01CD0140
:104C2000CE01CF01D001D101D201D301D401D501F0
:104C3000D601D701D801D901DA01DB01DC01DD01A0
:104C4000DE01DF01E001E101E201E301E401E50150
:104C5000E601E701E801E901EA01EB01EC01ED0100
:104C6000AF302300910005309200883120001921D7
:104C7000A03128005D082D00B70028005C082D0039
:104C8000B60028005B082D00B50028005A082D004A
:104C9000B400883120005323A031F808031D5A2E98
:104CA000B530230091000530920088312000192191
:104CB000A031192F2C00A701A601A501A401A70866
:104CC000031D062FA608031D062F25082B00290209
:104CD00003186C2E2C00062F031D742E28082C00A0
:104CE00024020318062F2B002C00240DF700250D9D
:104CF000F800260DF900270DFA00F70DF80DF90D53
:104D0000FA0DF70DF80DF90DFA0DF70DF80DF90D77
:104D1000FA0DF70DF80DF90DFA0DF70DF80DF90D67
:104D2000FA0DC030F70577082B002A072C00A000E9
:104D300078082B002B3D2C00A10079082B002C3D7E
:104D40002C00A2007A082B002D3D2C00A300280087
:104D50005D082C00E90028005C082C00E800280011
:104D60005B082C00E70028005A082C00E600230806
:104D7000ED002208EC002108EB002008EA002330B7
:104D8000EF007E30EE002D00A301A201A101403012
:104D9000A00088312000A123A0312B00EE016E0875
:104DA0003F3C031CEE2E7E306E07840023308500CE
:104DB0000318850A00082C00AE00EA003730EB002B
:104DC00088312000BA24A03120302D00B70088316E
:104DD0002000F420A0312B00EE0ACF2E0D302D0044
:104DE000B70088312000F420A0310A302D00B70030
:104DF00088312000F420A03101302C00A4070318D2
:104E0000A50A0319A60A0319A70A5F2E2B00270873
:104E10002C00B0000230B100983120000020A031F9
:104E2000C6302300910005309200883120001921FE
:104E3000A031A831582D20302C006B1E3030EC00F2
:104E40006A08F700EA1F2C2FF709F70A7708EA002B
:104E50002D30EC00EB176B146A082D00A0006430B5
:104E6000A10088312000DB27A03177082C00EA0060
:104E700030307807ED006A082D00A0000A30A1004C
:104E800088312000DB27A031303077072C00EF007D
:104E900030307807EE006C08F70030306D020319EF
:104EA000552FEB14EB1B6B15692F6C08ED002030B0
:104EB000EC0030306E020319612F6B14EB1BEB1406
:104EC000692F031D6B14031D692F6D08EE00203040
:104ED000ED006B19702FEB18782F6B18802F882F2F
:104EE0006C082D00B70088312000F420A0312C0080
:104EF0006D082D00B70088312000F420A0312C006F
:104F00006E082D00B70088312000F420A0312C005D
:104F10006F082D00B70088312000F420A031080070
:104F20008318952F243085008400F701F801F901DA
:104F3000FA012D00B401B501B601B7012F082E0406
:104F40002D042C040319D42F2030B8000310A80D11
:104F5000A90DAA0DAB0DB40DB50DB60DB70D2F08EB
:104F60003702031DBD2F2E083602031DBD2F2D084D
:104F70003502031DBD2F2C083402031CCE2F2C0834
:104F8000B4022D08031C2D0FB5022E08031C2E0F92
:104F9000B6022F08031C2F0FB7020314F70DF80DEC
:104FA000F90DFA0DB80BA62F340880003508813FA3
:0C4FB0003608823F3708833F20000800CD
:10500000280063166414E410E3166313E3132B0003
:105010003008B70037080139F8002800E412781882
:10502000E41603102B00370C0139F8002800641235
:10503000781864162B00370CF700F70C3F30F70593
:1050400077080139F8002800E4117818E4152B00DE
:10505000370CF700F70CF70C1F30F705770801390C
:10506000F800280064117818641503302B00B7008D
:1050700037080139F8002800E4137818E417031002
:105080002B00370C0139F8002800641378186417D6
:105090002B003008B700B901B8017B080139003096
:1050A000B804E5302300910001309200031009306C
:1050B0002C00EA00883120006721A8317B082C00F1
:1050C000EA001830EB00A03120001B27A831203067
:1050D0002D00B70088312000F420A83128302D00A1
:1050E000B70088312000F420A8312B0039082C00AB
:1050F000EA003730EB0088312000BA24A8312B00B9
:1051000038082C00EA003730EB0088312000BA2440
:10511000A83129302D00B70088312000F420A831B3
:105120000D302D00B70088312000F420A8310A305E
:105130002D00B70088312000F420A8317C08013907
:1051400000302B00B804F0302300910001309200B1
:10515000031009302C00EA00883120006721A831B3
:105160007C082C00EA001830EB00A03120001B273F
:10517000A83120302D00B70088312000F420A8315C
:1051800028302D00B70088312000F420A8312B00F2
:1051900039082C00EA003730EB0088312000BA24AF
:1051A000A8312B0038082C00EA003730EB0088319A
:1051B0002000BA24A83129302D00B7008831200002
:1051C000F420A8310D302D00B70088312000F420E4
:1051D000A8310A302D00B70088312000F420A83112
:1051E0002B0037080F39F700F70EF70DF70DC03019
:1051F000F7057708B804FB302300910001309200D6
:10520000031009302C00EA00883120006721A83102
:105210002B0037082C00EA001830EB00A0312000EA
:105220001B27A83120302D00B70088312000F42042
:10523000A83128302D00B70088312000F420A83193
:105240002B0039082C00EA003730EB0088312000B1
:10525000BA24A8312B0038082C00EA003730EB00C4
:1052600088312000BA24A83129302D00B7008831B8
:105270002000F420A8310D302D00B7008831200027
:10528000F420A8310A302D00B70088312000F42026
:10529000A83130302B00B8040630230091000230D2
:1052A000920003100A302C00EA00883120006721A8
:1052B000A83103302C00EA001830EB00A0312000A8
:1052C0001B27A83120302D00B70088312000F420A2
:1052D000A83128302D00B70088312000F420A831F3
:1052E0002B0039082C00EA003730EB008831200011
:1052F000BA24A8312B0038082C00EA003730EB0024
:1053000088312000BA24A83129302D00B700883117
:105310002000F420A8310D302D00B7008831200086
:10532000F420A8310A302D00B70088312000F42085
:10533000A831280062080139F700F70DF70DF70DC5
:10534000F830F70577082B00B804123023009100DD
:105350000230920003100A302C00EA00883120004D
:105360006721A831280062082C00EA001830EB0001
:10537000A03120001B27A83120302D00B700883134
:105380002000F420A83128302D00B70088312000FB
:10539000F420A8312B0039082C00EA003730EB004C
:1053A00088312000BA24A8312B0038082C00EA00EC
:1053B0003730EB0088312000BA24A83129302D0085
:1053C000B70088312000F420A8310D302D00B7003F
:1053D00088312000F420A8310A302D00B700883130
:1053E0002000F420A8317E080139F700F70DF70DF1
:1053F000FC30F70577082B00B8041E30230091001D
:105400000230920003100C302C00EA00883120009A
:105410006721A8317E082C00EA001830EB00A0318B
:1054200020001B27A83120302D00B7008831200034
:10543000F420A83128302D00B70088312000F42056
:10544000A8312B0039082C00EA003730EB008831F6
:105450002000BA24A8312B0038082C00EA0037308D
:10546000EB0088312000BA24A83129302D00B70084
:1054700088312000F420A8310D302D00B70088318C
:105480002000F420A8310A302D00B7008831200018
:10549000F420A8317D080139F7000310F70D7708D3
:1054A0002B00B8042B30230091000230920003102F
:1054B0000A302C00EA00883120006721A8317D08DD
:1054C0002C00EA001830EB00A03120001B27A83187
:1054D00020302D00B70088312000F420A83128307A
:1054E0002D00B70088312000F420A8312B003908A6
:1054F0002C00EA003730EB0088312000BA24A831B4
:105500002B0038082C00EA003730EB0088312000EF
:10551000BA24A83129302D00B70088312000F420AA
:10552000A8310D302D00B70088312000F420A831BB
:105530000A302D00B70088312000F420A831760809
:1055400001392B00B804373023009100023092005B
:1055500003100A302C00EA00883120006721A831AE
:1055600076082C00EA001830EB00A03120001B2741
:10557000A83120302D00B70088312000F420A83158
:1055800028302D00B70088312000F420A8312B00EE
:1055900039082C00EA003730EB0088312000BA24AB
:1055A000A8312B0038082C00EA003730EB00883196
:1055B0002000BA24A83129302D00B70088312000FE
:1055C000F420A8310D302D00B70088312000F420E0
:1055D000A8310A302D00B70088312000F420A8310E
:1055E0002B00B80DB90DB80DB90DB80DB90DB80D2A
:1055F000B90DF030B805433023009100023092001D
:1056000003101A302C00EA00883120006721A831ED
:105610002B0039082C00EA003730EB0088312000DD
:10562000BA24A8312B0038082C00EA003730EB00F0
:1056300088312000BA24A8310D302D00B700883100
:105640002000F420A8310A302D00B7008831200056
:10565000F420A8312B003808F8003908F90079083F
:10566000B2007808B10021000F1122000F112400B0
:10567000951240309400433092003A3095002B0050
:1056800032082C00BB002B0031082C00BA009031EE
:105690002000D227A83121000F1122000F150D3054
:1056A000F700F70B512B21000F1122000F112400DE
:1056B000951240309400433092003A3095002C000F
:1056C000BB010330BA0090312000D227A8317808FE
:1056D0002B00B4007708B30021000F1122000F1532
:1056E0002B003308B50034080F39B6003508F80030
:1056F0003608F900200008004230230091000430F1
:105700009200883120001921A83164302B00A500B7
:105710004930230091000430920003100E302C0019
:10572000EA00883120006721A8312B0025082C00D1
:10573000E6001B30E70098312000FF24A8310D302F
:105740002D00B70088312000F420A8310A302D0048
:10575000B70088312000F420A83121001010220069
:1057600010142030F80021001D08833978049D00B2
:105770000F30F8001F08F03978049F000D30F70053
:10578000F70BC02B2B00B001200000207908280067
:10579000BB007808BA000C30F80021001D088339DE
:1057A00078049D000F30F8001F08F03978049F003E
:1057B0000D30F700F70BDA2B2B00B0012000002092
:1057C00079082800BD007808BC000030F8002100EE
:1057D0001D08833978049D000F30F8001F08F03948
:1057E00078049F000D30F700F70BF42B2B00AB0172
:1057F000AA01AB08031D9F2C25082A0203189F2C21
:105800002A08220099008530F700F70B052C00309C
:10581000F80021001D08833978049D000F30F8003E
:105820001F08F03978049F000D30F700F70B162C95
:1058300003102B002A0DAE002B0DAF0003102E0D10
:10584000F9002F0DFA0079083A3EAE0020307A3D7B
:10585000AF00B001200000202B002F0885002E088B
:105860008400780880007908813F0430F800210026
:105870001D08833978049D000F30F8001F08F039A7
:1058800078049F002B00A901A801A701A601AC0183
:105890002C08093C031C5D2C0D30F700F70B4E2C37
:1058A000B0012000002078082B00A6077908A73D4A
:1058B0000030A83DA93DAC0A482C831029082D00D2
:1058C000AB002B0028082D00AA002B0027082D0074
:1058D000A9002B0026082D00A800AF01AE01AD01E4
:1058E0000A30AC00A03120009027A8317A082B00A4
:1058F000A9007908A8007808A7007708A6000D304D
:10590000F700F70B812C03102A0DAE002B0DAF0012
:105910000130AE070030AF3D03102E0DF9002F0D02
:10592000FA0079083A3E840020307A3D8500260846
:1059300080002708813FAA0A0319AB0AF92B5330CC
:105940002300910004309200883120001921A831F1
:105950000030F80021001D08833978049D000F30C5
:10596000F8001F08F03978049F0010102200101072
:10597000200008002B002208840023088500003F37
:10598000A400743023009100073092008831200079
:105990001921A8319730230091000730920003109D
:1059A0000C302C00EA00883120006721A8312B0040
:1059B00024082C00EA003730EB0088312000BA249C
:1059C000A8319E302300910007309200031004306C
:1059D0002C00EA00883120006721A8312B00240820
:1059E000003A20000319132D103A03191D2D113A06
:1059F0000319272D033A0319282D923A0319292D4B
:105A0000063A0319332D093A03193D2DEE3A0319CD
:105A1000472D033A0319492D013A03194B2D033A37
:105A200003194D2D4F2D2B002308A6002208A50099
:105A300098312000D42BA831582D2B002308A60024
:105A40002208A50098312000612EA831582D582D2C
:105A5000582D2B002308A6002208A500983120000D
:105A6000072FA831582D2B002308A6002208A500D7
:105A7000A0312000AB2CA831582D2B002308A60004
:105A80002208A50098312000632FA831582D7C23CF
:105A9000582D7C23582D7C23582D7C23582DA13044
:105AA0002300910007309200883120001921A8318D
:105AB000AD30230091000730920088312000192179
:105AC000A831A831892DDC302300910007309200E5
:105AD000883120001921A831E730230091000730D8
:105AE0009200883120001921A8318831D027A831AF
:105AF0000230A90003302A006D072B00A0000030FF
:105B00002A006E3D2B00A100A3002008A200200067
:105B1000BA2C8831F227A831F8080319922D0630E3
:105B2000A900942D0430A900A831F92FF4302300E6
:105B3000910007309200883120001921A8310030EF
