:0600000088313A2D0000DA
:0800080083018031200077081C
:10001000A0007808A1007908A2007A08A3002300B4
:1000200011082000A400230012082000A5002300CE
:1000300013082000A600230014082000A7008B1E30
:1000400023280B194328850191308400801E2A281B
:10005000911A45282008F7002108F8002208F90025
:100060002308FA002408230091002000250823001B
:100070009200200026082300930020002708230078
:100080009400090020008031472880319D28643089
:1000900095000130AC070318AD0A0319AE0A031925
:1000A000AF0AAF08031D5E28AE08031D5E28AD0829
:1000B000031D5E282C08633C03188A28AF01AE019B
:1000C000AD01AC010130B0070318B10A0319B20A3F
:1000D0000319B30AB308031D7F283208003C031834
:1000E0008A28FF3A031D7F283108503C03188A28CC
:1000F000FF3A031D7F2830087F3C03188A28803090
:10010000B0025130B13B0130B23B0030B33BB40AD6
:100110000319B50A0B1180312A28D434ED3272103C
:100120004937693AE930EC34FA320D05000089218B
:10013000EF367036653AE5060A002B08023C0319D3
:10014000A5282B08053C031DA7282A1CBA285808F7
:100150001F3C031CBA285808D80A1F39183E8400CF
:10016000203085000318850A911EB4282300190841
:1001700080002000911280312A28D520522AA02404
:10018000EE34F4346136693DE5060A008921EF3624
:100190007036653AE5060A000D05091E2D00663623
:1001A000E1396810E23AF33C0D0500000929E53019
:1001B000641049223A000933EC307334A0316F37B0
:1001C000EE32633AA027CB060A000933EC307334D1
:1001D00020376F3AA0316F37EE32633A0D050000D9
:1001E0006539F237721D6636E1396810ED37E43251
:1001F0006C10E939A0346E3B613669320D0500019F
:100200006636E1396810F434ED32EF3AF4060A004C
:100210006636E1396810F332633A6F39A032F23052
:10022000F332A031EF367036653AE5060A006539DB
:10023000F237721D6636E1396810ED37E4326C1022
:10024000E939A0346E3B613669320D05000166362E
:10025000E1396810F434ED32EF3AF4060A006636FC
:10026000E139681033196B21793A6510F33AE239B4
:10027000E531F43772106539E1396510E3376D38CF
:10028000EC32F4320D0500006539F237721D663626
:10029000E1396810ED37E4326C10E939A0346E3B77
:1002A000613669320D0500016636E1396810F434B3
:1002B000ED32EF3AF4060A006636E1396810B435DB
:1002C000C23CF432A0397531F332633A6F39A0324F
:1002D000F230F332A031EF367036653AE5060A00A7
:1002E0006636E1396810F434ED32EF3AF4060A006C
:1002F0006636E13968107739693A6510E3376D3849
:10030000EC32F4320D0500006636E1396810F43441
:10031000ED32EF3AF4060A006636E13968107739B3
:10032000693A6510E3376D38EC32F4320D050000A0
:100330004636E13968104937693AE930EC34FA3227
:100340000D0500010D058921EF367036653AE50689
:100350000A00892DCD2453235D10C3376E37E53154
:100360007410F33AE331E53973170D050001892D57
:10037000CD2453235D10BC16A01CC6060A00892D8F
:10038000CD2453235D102D1F2000892DCD24532310
:100390005D10CD22CD27D22CDF214128C121492A51
:1003A00059106539F237F210202AE8347310E93910
:1003B000A0294D230D050001892DCD2453235D1067
:1003C000BC16A01CC6060A00892DCD2453235D103F
:1003D0002D1F20000D05892DCD2453235D10CD2226
:1003E000CD27D22CDF214128C121492A5910653956
:1003F000F237F210A021E83470104922A0347310B3
:100400006937F630EC34E4060A00892DCD245323F5
:100410005D10BC16A01CC6060A00892DCD245323EE
:100420005D102D1F20000D05892DCD2453235D1057
:1004300043346938A0244410E939A0346E3B613656
:1004400069320D050000D0244326CF232032613AC3
:1004500061107739693AF4326E1D20237537633A9B
:10046000E9376E1025322C10D030F230ED32F432F4
:10047000721025320D050000D0244326CF232032F0
:10048000613A61107739693AF4326E10F33AE33128
:10049000E53973337536EC3C0D050000C927A024FF
:1004A000EE34F4346136693DE5060A008921EF3601
:1004B0007036653AE5060A00412243104937693A29
:1004C000E930EC34FA320D0500018921EF3670363F
:1004D000653AE5060A00533A61397410D32BC522F8
:1004E000D0060A008929F7326538A039F432701035
:1004F0003A10A53A0D05000145274410D32BC5221B
:10050000D0060A00CC37E7336532A021C923531047
:10051000E430F4300D058000D3264610E430F4308A
:100520002036E9397410E93920337536EC10A11002
:100530000D050000D3264610E430F4302036E939AA
:100540007410E939A0326D38F43C0D050000533ABF
:1005500061397410ED30EB325F39E531E534F63254
:10056000DF31EF36ED306E320D0589163E10000199
:1005700045376410ED30EB325F39E531693BE52FEB
:10058000E337ED366137E4068A060A00F33467374D
:100590006136A0326E32A03B693A68105323C4061C
:1005A0000A00E437EE137410E6346E32A0294622B6
:1005B0000D05000089163E104937F630EC34641002
:1005C0004639E136651049222039E531E534F63205
:1005D000641DA012D8060A0089163E104329431054
:1005E0006539F237F2100D05000189042D1F2039FD
:1005F000E531E534F63264104329431DA012D806D4
:100600000A0089042010A0316F36EC32633AA02131
:10061000D221201DA012D8060A0089163E104937A3
:10062000F630EC346410E432F634E332A0244410A3
:10063000F232E332693B65320D05000189042D1F5A
:100640002039E531E534F632641D20102010A01267
:10065000D8060A0089042010A0267910E432F63466
:10066000E332A024441DA012D8060A005439613791
:10067000F3347410E337ED366137E4068A042D1F36
:100680002000A110A137F6327233EC377710653CA9
:10069000E531753A6532DF36E939F3346F372036A4
:1006A000E939F4060A00533A61397410D32646102A
:1006B000F53969376710F232F132733AA039E53013
:1006C000F13A6537E3320D0500014539F237F21092
:1006D0002029E531E534F634EE33A031EF36ED3044
:1006E0006E32A034EE316F37F334733A65377410DD
:1006F000F7347434203AE8322032E539E933EE0633
:100700000A00D3264610F5396510F232F13AE53980
:1007100074106136EC37F732E4060A00D32646102F
:10072000F5396510F232F13AE5397410E432EE3CF5
:1007300065320D050001D23274397910F232F13A86
:10074000E5397410F4372021CF295310D024C30683
:100750000A004539F237F2102029E531E534F63444
:10076000EE33A031EF36ED306E32A034EE316F371C
:10077000F334733A65377410F7347434203AE8323E
:100780002032E539E933EE060A0045376410D326F6
:100790004610F53969376710F232F132733AA039F1
:1007A000E530F13A6537E3320D050000533A61391F
:1007B0007410CD27C422A026C520D32AD2220D052D
:1007C0000000533A61397410CD27C422A026C520F9
:1007D000D32AD222202B6F36F430E7320D050000E9
:1007E000F4326D385F3A6F383A10252C0D05000150
:1007F000F4326D385F316F3A3A10252C0D05000048
:1008000070325F3B6136F5323A10252C0D05000041
:10081000E334E7395F3B6136F5323A10252C0D059C
:100820000000E33A72396537F42FF630EC3A651D73
:10083000A012D8060A00F6376C3AE133E52FF630FD
:10084000EC3A651DA012D8060A00533A61397410BB
:100850004636E13968104539E13965104136EC0614
:100860000A00453764104636E13968104539E139E8
:1008700065104136EC060A00533A61397410463669
:10088000E13968104539E13965103110D332633AE6
:100890006F390D050001453764104636E13968109F
:1008A0004539E13965103110D332633A6F390D059E
:1008B0000000533A613974104636E1396810C33785
:1008C000F03CA018A029E531F437F2060A004537BC
:1008D00064104636E1396810C337F03CA018A029EF
:1008E000E531F437F2060A00C432733A6937613AE7
:1008F000E9376E1061326439E539731DA004303C6C
:1009000025183826D8060A00D3377539E332A030C7
:100910006432F232F3393A100918F812301C4C2CB8
:100920000D050001C430F430A039693D651DA004F7
:100930000910A012301C4C2C0D050001C337F03CEF
:10094000693767170001DF2FDF2FDF2FDF2FDF224F
:100950006E32A0316F38F92FE430F430DF2FDF2F03
:10096000DF2FDF2FDF068A2FDF2FDF2FDF2FDF2F95
:10097000DF2FDF2FDF2FDF2FDF2FDF2FDF2FDF2F07
:10098000DF2FDF2FDF068A060A00533A6139741021
:10099000653CE531753AE52FE337ED366137E4061E
:1009A0000A0089163E105538EC34EE35A031EF368A
:1009B000ED306E320D0500010910201054396137F9
:1009C000F336693AA020E335EE3777366532E73201
:1009D0000D05000089163E10533A613AF539A031F1
:1009E000E832E3350D05000189042D1FA02679109A
:1009F000733A613AF539A034731025320D050001C0
:100A00000910201054396137F336693AA026C929F4
:100A1000A026C32AA029F430F43AF3060A00E634EB
:100A2000EE3473346532A0346E10733A613AF5399E
:100A3000DF31E832E3350D05000089163E10E93953
:100A4000A0294D23A030F63069366131EC320D0516
:100A500000010910201054396137F336693AA0209B
:100A6000E335EE3777366532E7320D05000189044C
:100A70002D1FA0306C36EF3B65320D050001890457
:100A80002D1F20326537E932E4060A000D05543483
:100A9000E9392010ED34F339E9376E10E939A03225
:100AA000F832E33AF432E4068A042D1F2018F812D3
:100AB000E4060A000D05DF2FDF2FDF2FDF2FDF2FEA
:100AC000DF2FDF2FDF2FDF2FDF2FDF2FDF2FDF2FB6
:100AD000DF2FDF2FDF2FDF2FDF2F0D05DF2FDF2FA2
:100AE000DF2FDF2F533A61397410653CE531753AD9
:100AF000E52FED34F339E937EE2FDF2FDF2FDF2F2E
:100B0000DF068A060A00C337ED36613764104922D2
:100B10003A10252C0D050D05000189042D1FA02478
:100B20006E3B61366932A0214D22A024C4100D0510
:100B300000010D05DF2FDF2FDF2FDF2FDF226E32C9
:100B4000A032F832E33AF432DF36E939F3346F3762
:100B5000DF2FDF2FDF2FDF2FDF068A2FDF2FDF2FA3
:100B6000DF2FDF2FDF2FDF2FDF2FDF2FDF2FDF2F15
:100B7000DF2FDF2FDF2FDF2FDF2FDF2FDF2FDF062E
:100B80000A000D050D05BD1EBD1EBD1EBD1EBD1EF0
:100B9000BD1EBD1EBD1EBD1EBD1EBD1EBD1EBD1E7D
:100BA000BD1EBD1EBD1EBD1EBD1EBD1EBD1EBD1E6D
:100BB000BD1EBD1EBD1EBD1EBD1EBD1EBD1EBD1E5D
:100BC000BD1E0D0500015434E939A0347310CD2742
:100BD000CD24CA24A021C9235310D024431042217C
:100BE0004D10E6377210CD24D31B5F21C22631177A
:100BF0000D050001CC30733AA03A7032613A65328B
:100C0000A0376E103218B21A2F18B417B21A2C105F
:100C1000E23CA024EE37F532AE068A060A00DF2F4A
:100C2000DF2FC324C7292028C921A029F430723A14
:100C3000A027F032F230F4346F37DF2FDF2FDF06DA
:100C40008A060A00F730693A69376710E63772108A
:100C5000C227D3292028C921A031EF36ED306E32CA
:100C600000014639E136E524441DA012312C0D0562
:100C70000001F0307936EF306410F334FA323A1074
:100C800025320D050001F0307936EF30641D20006B
:100C90000D050D05000189163E104937F630EC347C
:100CA0006410E337ED366137E4060A000D050D05E3
:100CB000BD1EBD1EBD1E0D050D05C634EE347334BC
:100CC00065322038F237E332F339AE068A2BE1344D
:100CD0007410E6377210C227D3292028C921203A80
:100CE00075396E106F336610ED32000145376410B0
:100CF000ED3069370D05000021000D1222000D12A4
:100D00000830F800832E0000F817962EF8133100F3
:100D1000AB0C220003180D16031C0D127817962E2B
:100D20007813F80B872E942E00000D168430840063
:100D3000840B982E0000F81B862E781B902E200026
:100D400008000B088B1323009517151400000000F2
:100D5000891B8B1713087F390319ED2E3100A8006A
:100D6000230011083100A900230012083100AA0055
:100D70002808AB0020007C263100290823009100C0
:100D800031002A08230092000B088B1395171514C5
:100D900000000000891B8B17130D140D7F390319F8
:100DA000ED2E3100A800230011083100A900230016
:100DB00012083100AA002808AB0020007C26310070
:100DC00029082300910031002A0823009200910A8B
:100DD0000319920A2000A12E2300200008004E30A3
:100DE00023009100023092002000A12621000E1065
:100DF00022000E1021008E1122008E115630230089
:100E00009100023092002000A1268831E52D5C304F
:100E100023009100023092002000A12678302100AA
:100E200099001E109E101E11003023008C009000AF
:100E30008D00E7308F0021001E129E161E179E1790
:100E40001D14A03022009800323099006530230034
:100E50009100023092002000A1268831E82DBD309B
:100E600023009100003092002000A126210091165D
:100E7000C0308B04C6302300910000309200200067
:100E8000A1268831EB2D8D30230091000030920097
:100E90002000A1261110873098009901960180301A
:100EA00097009601000021001114C0308B04973088
:100EB00023009100003092002000A1268831EE2D01
:100EC000253085003630840000080319752F053061
:100ED000F800F701F70B6A2FF80B692F2E30F70097
:100EE000F70B702F732F800B672F08002400110859
:100EF0003000580824009100140C031C7C2F1108AA
:100F0000F700200008003100A81B982F0F30F700D1
:100F1000270EF7050A3077020318912F3030F707B4
:100F2000932F2808F7077708AB0020007C263100B4
:100F30000F30A7050A3027020318A02F3030A22F48
:100F4000A8132808A7072708AB0020007C26080064
:100F500031002808840029088500003FAB000130DB
:100F6000AC002A082C020318BF2F2C08AC0A280753
:100F700084000030293D85000008AB06B12F2B0806
:100F8000F8002000080030005508F801540203184A
:100F9000CC2F5408F700D82FF7010830D600D40D15
:100FA000F70D550877020318F700F80DD60BCF2F71
:100FB0002000080030004008FA003F0884007A084A
:100FC00085000008C2003E0885003D088400F70146
:100FD0004208F80078080319F12F77081A00F80B77
:100FE000ED2F3F08840040088500800188312000F3
:0C0FF000A82EDF30F8000730F9000800E0
:101000009830230091000130920080312000A12609
:1010100088313000BD01BE01BF01C001C101C20164
:10102000C301C401C501C601C701C801C901CA0184
:10103000CB01CC01CD01CE01CF01D00121008F1019
:1010400022008F100A303000D60080312000602747
:1010500088312400951240309400093092002A30E3
:1010600095009E303000D8008031200076278831EE
:101070003000D1015108133C031C58281D30510782
:101080008400253085000318850A2400951240301D
:101090009400093092002A3095003000D801803148
:1010A000200076278831770880003000D10A3A285E
:1010B00021008F1022008F1430003D08203C031DBA
:1010C00002293E08BA3C031D02293F08183C031DB3
:1010D0007428A93023009100013092008031200053
:1010E000A1268831002930003F08213C031DC42877
:1010F000B730230091000130920080312000A126FA
:101100008831BF30230091000130920080312000EF
:10111000A12688313000D2015208133C031CAB28B1
:101120001D3052078400253085000318850A000809
:10113000D6003100A7003730A80080312000832777
:10114000883120303100AB00803120007C2688318E
:101150003000D20A8C280D303100AB0080312000E5
:101160007C2688310A303100AB00803120007C269B
:101170008831C53023009100013092008031200079
:10118000A126883100293000DC3023009100013095
:10119000920080312000A1268831E43023009100A4
:1011A0000130920080312000A12688313000D30127
:1011B0005308133C031CF7281D30530784002530C7
:1011C00085000318850A0008D6003100A7003730D3
:1011D000A800803120008327883120303100AB0007
:1011E000803120007C2688313000D30AD828EA30AC
:1011F000230091000130920080312000A126883127
:101200003E293000053023009100023092008031E9
:101210002000A12688310D30230091000230920079
:1012200080312000A12688313000D4015408133CBD
:10123000031C35291D305407840025308500031810
:10124000850A0008D6003100A7003730A800803199
:1012500020008327883120303100AB00803120000E
:101260007C2688313000D40A1629133023009100DF
:101270000230920080312000A1268831A230230064
:1012800091000130920080312000A1268831883100
:10129000F02D0B088B132300951715140000000088
:1012A000891B8B1703187E2913087F393100A8008A
:1012B000230011083100A900230012083100AA0000
:1012C0002808AB00803120007C26883131002908B5
:1012D0002300910031002A08230092000B088B1391
:1012E0009517151400000000891B8B173100A70B00
:1012F0007A297C2923007E29A3292300130D140DAC
:101300007F393100A800230011083100A900230013
:1013100012083100AA002808AB00803120007C268A
:101320008831310029082300910031002A08230068
:101330009200910A0319920A03103100A70BA12908
:10134000A32920004929200008003000C601C70158
:10135000C801C901CA01CB01CC01CD01CE01CF0129
:10136000D001D101D201D301D401D501D601D701D9
:10137000D801D901DA01DB01DC01DD01DE01DF0189
:10138000E001E101E201E301E401E501E601E70139
:10139000E801A73023009100023092008031200044
:1013A000A12688313000E901450869020318F229B5
:1013B0006908430784000030443D8500000831007F
:1013C000A200A7003730A800803120008327883191
:1013D00020303100AB00803120007C268831300085
:1013E000E90AD4290D303100AB00803120007C2681
:1013F00088310A303100AB00803120007C268831F2
:10140000300044083100A300300043083100A2003E
:10141000300045083100A400A501A50101302402D7
:1014200025020318232A2508220784000030233DC3
:1014300085000008AA3C031D212A01302507F80079
:10144000472AA50A0E2A2508220784000030233DDA
:1014500085000008AA3C031D3B2AC63023009100EA
:101460000230920080312000A1268831FF30F80040
:101470003100472A472AD1302300910002309200E0
:1014800080312000A1268831FF30F8003100780833
:101490003000EA006A08FF3C031D532A4630F8007A
:1014A0000830F900E32B6A084307EB000030443DA5
:1014B000EC006B0884006C088500003100080F39CF
:1014C000ED006D083100A200A3012308023C031CBB
:1014D000832A0310230DE93E84002430850003187D
:1014E000850A00082202031D812A0310230D013EF4
:1014F000E93E8400243085000318850A0008F800BE
:10150000A82AA30A652ADA3023009100023092004B
:1015100003101F303100A7002000492131002208AC
:10152000A7003730A80080312000832788310D3094
:101530003100AB00803120007C2688310A30310038
:10154000AB00803120007C268831FF30F80031006C
:1015500078083000EE006E08FF3C031DB42A4630C8
:10156000F8000830F900E32B6A084502EF006C0828
:101570003100A30030006B083100A20030006F087A
:101580003100A40001302402220784000030233DF2
:1015900085000008A50001302402A7002308A90047
:1015A0002208A8002708AA0080312000A827883137
:1015B00078083100A60026082502031DE32A013021
:1015C000F800332B332BEC302300910002309200D3
:1015D00080312000A1268831F530230091000230AF
:1015E0009200031013303100A70020004921310080
:1015F0002508A7003730A8008031200083278831D4
:101600000D303100AB00803120007C2688310A305B
:101610003100AB00803120007C268831013023006E
:10162000910003309200031013303100A700200016
:10163000492131002608A7003730A800803120005A
:10164000832788310D303100AB00803120007C26AB
:1016500088310A303100AB00803120007C2688318F
:101660000030F8003100F808031D3D2B4630F8002B
:101670000830F9003000E32B310030006B088400A3
:101680006C08850000310008F039F700770E310052
:10169000A2000F30A2052208A30023080B3C031D63
:1016A000552B0130F800A52BA52B0D302300910000
:1016B0000330920080312000A12688311E302300A3
:1016C000910003309200031013303100A700200076
:1016D000492131002308A7003730A80080312000BD
:1016E000832788310D303100AB00803120007C260B
:1016F00088310A303100AB00803120007C268831EF
:101700002A3023009100033092000310133031007F
:10171000A700200049210B303100A7003730A80076
:1017200080312000832788310D303100AB008031BB
:1017300020007C2688310A303100AB008031200047
:101740007C2688310030F8003100F808031DAF2BEB
:101750004630F8000830F9003000E32B310030004B
:101760006D08C60001306B073100A2000030300068
:101770006C3D3100A300023030006F023100A40044
:1017800023088500220884002408F8000319D02BC0
:10179000253087002730860012001E00F80BCC2B66
:1017A000023030006F02E7006814B8302300910067
:1017B0000230920080312000A12688314630F800A6
:1017C0000830F900300088312000162E203030001B
:1017D0004A1E3030CC004908F700C91FF72BF70923
:1017E000F70A7708C9002D30CC00CA174A144908F7
:1017F000D4006430D50080312000C32788317708B9
:101800003000C90030307807CD004908D4000A30D4
:10181000D50080312000C327883130307707300071
:10182000CF0030307807CE004C08F70030304D0242
:1018300003191E2CCA14CA1B4A15322C4C08CD00A1
:101840002030CC0030304E0203192A2C4A14CA1B17
:10185000CA14322C031D4A14031D322C4D08CE002D
:101860002030CD004A19392CCA18412C4A18492C6D
:10187000512C4C083100AB00803120007C2688318F
:1018800030004D083100AB00803120007C268831CB
:1018900030004E083100AB00803120007C268831BA
:1018A00030004F083100AB00803120007C268831A9
:1018B0000800AA303000C60042084038C70044087B
:1018C0008500430884004508F80003196F2C253073
:1018D00087002830860012001E00F80B6B2C0230A7
:1018E0004507D60026305607D8002530D900031802
:1018F000D90A01305602DA0025303100A90027301C
:10190000A80030005A083100AA0080312000A82722
:101910008831300059088500580884007808800014
:1019200001305607D7002530D9002630D800570897
:10193000DA00DB015A085B020318AF2C5B0858077A
:1019400084000030593D85000008DD005D0820005E
:10195000111EA82C23009A003000DB0A9A2C363086
:10196000230091000330920080312000A1268831AD
:101970003000DC015A085C020318D82C5C085807B8
:1019800084000030593D85000008DD003100A700CB
:101990003730A80080312000832788312030310083
:1019A000AB00803120007C2688313000DC0ABA2C64
:1019B0000D303100AB00803120007C2688310A30A8
:1019C0003100AB00803120007C26883108000F30C8
:1019D0003000C200C401C301C50120005924080021
:1019E000F701F8013000580803105918F707F70CF1
:1019F000F80CD918F707F70CF80C5919F707F70C7A
:101A0000F80CD919F707F70CF80C591AF707F70C67
:101A1000F80CD91AF707F70CF80C591BF707F70C55
:101A2000F80CD91BF707F70CF80C20000800D6308B
:101A3000230091000330920080312000A1268831DC
:101A40003000490884004A088500003FCB004B085D
:101A5000CC0090312000002888319031682C2F0074
:101A6000580857020319362D0030372D0130F80081
:101A70002000080023009F15A0309B0001309C002F
:101A8000A6309E0090309D0021000D1222000D1600
:101A90002400951240309400093092002A309500BD
:101AA00022009D129D111D1221008E120E168E1104
:101AB0002000A901A8012A100330AB00AF01AE013C
:101AC000AD01AC01B301B201B101B001B501B40186
:101AD000B701B601D8012C00AC01AB01AA01A901E4
:101AE000AE01AD01B001AF01B201B101B401B3016A
:101AF00023008C018D018E018F0190012200920143
:101B00009101AE2D2034603418340034FF34603439
:101B100039340034FF34C0340034FF34C03400346E
:101B20009334C034003442346334D934003406343E
:101B30008034793400340134013472340034C334D5
:101B400064342734003405348034093401340034DB
:101B5000023401340934C034003400340D308500BF
:101B60008230840085171200F700003A0319C82D4F
:101B70001200F800F81BC02D3F39870012008600C4
:101B8000781B1200781F12001E00F70BC22DB32D18
:101B9000C130230091000530920080312000A12641
:101BA0008831E3302300910005309200803120001D
:101BB000A1268831FA30230091000530920080314F
:101BC0002000A12688318031EF2E88318031072F07
:101BD000883180312F2F88318031432F8831002880
:101BE0002F0068100F3023009100063092008031E2
:101BF0002000A12688312230230091000630920077
:101C000080312000A12688312F006818F82E20008E
:101C1000D8080319C42E20303000C4001830C30087
:101C2000200058083000C5002000A5297908FA00D6
:101C3000780884007A0885002330F8002430870073
:101C4000F930860012001E00F80B222E31302300DE
:101C5000910006309200031009303100A7002000E7
:101C600049212F0069083100A700B730A800803152
:101C70002000832788310D303100AB0080312000F7
:101C80007C2688310A303100AB00803120007C2670
:101C900088313930230091000630920003100E3055
:101CA0003100A7002000492130003A08C90018304F
:101CB000CA002000E6230D303100AB008031200047
:101CC0007C2688310A303100AB00803120007C2630
:101CD000883143302300910006309200803120008B
:101CE000A12688313000BC013A083C020318932E2B
:101CF000FA303C078400243085000318850A000868
:101D0000BD003100A7003730A800803120008327B4
:101D1000883120303100AB00803120007C268831B2
:101D20003000BC0A742E4830230091000630920027
:101D300080312000A126883120303000BE001830CC
:101D4000BD002030C0003830BF0080312000DA2FC5
:101D5000883130003B1CBA2E2430BE00F930BD0063
:101D600090312000402B88312F00681078186814BB
:101D7000C52E30004B302300910006309200803198
:101D80002000A1268831042E2F0020002B08033CC0
:101D9000031DE02EB308031DDA2EB208031DDA2E50
:101DA00029083102031CE02E031DDA2E3008280218
:101DB0000318E02E2F25F8080319E02E0630AB009B
:101DC0002F006818F82E02303000BD00C830D60051
:101DD00080312000602788313000BD0BE62E2E3088
:101DE0003100AB00803120007C268831042E2F008A
:101DF0005630230091000630920080312000A12649
:101E000088312E303100AB00803120007C268831B3
:101E100004303000BD00FA30D60080312000602749
:101E200088313000BD0B0B2F2000012F76302300AE
:101E300091000630920080312000A1268831630095
:102000006B30230091000230920080312000A12625
:10201000903130004C08CD00723023009100023026
:10202000920003100E303100A700883120004921B2
:10203000903130004D08D2001B30D3005208D4003C
:102040006430D50080312000C327903177083000FC
:10205000D20078083030031D3428D31C4028D3190F
:102060004028531A20303728D31153125314F8073D
:1020700078083100AB00803120007C2690313000A0
:102080005208D4000A30D50080312000C327903197
:1020900077083000D20078083030031D5528D31956
:1020A0005E28531C5E28531A2030F8077808310048
:1020B000AB00803120007C26903130003030D207D8
:1020C00052083100AB00803120007C2690310D3069
:1020D0003100AB00803120007C2690310A30310085
:1020E000AB00803120007C26903121000E102200B0
:1020F0000E141430F80021001D08833978049D0067
:102100000F30F8001F08F03978049F000D30F700F9
:10211000F70B88289D149D188B281B08F8001C08B5
:102120002C00B2007808B1000C30F80021001D0826
:10213000833978049D000F30F8001F08F0397804C7
:102140009F000D30F700F70BA3289D149D18A628BB
:102150001B08F8001C082C00B4007808B3000030FD
:10216000F80021001D08833978049D000F30F80025
:102170001F08F03978049F000D30F700F70BBE28D8
:102180009D149D18C1281B08F8001C082C00AE00E7
:102190007808AD003000CF01CE01CF08031DBF2964
:1021A0004D084E020318BF294E08220099008530C1
:1021B000F700F70BD9280030F80021001D088339FB
:1021C00078049D000F30F8001F08F03978049F0054
:1021D0000D30F700F70BEA28031030004E0DD20047
:1021E0004F0DD3000310520DF900530DFA0079087A
:1021F000393E840020307A3D850021009D149D18D1
:10220000FF281B0880001C08813F0430F8001D08CF
:10221000833978049D000F30F8001F08F0397804E6
:102220009F002C00B801B701B601B5013000D00104
:102230005008093C031C31290D30F700F70B1E290B
:1022400021009D149D1822291C08FA001B082C004F
:10225000B5077A08B63D0030B73DB83D3000D00A2A
:10226000182983102C0038083000D5002C003708BE
:102270003000D4002C0036083000D3002C00350884
:102280003000D200D901D801D7010A30D600831816
:102290004D29253085003C308400F701F801F90113
:1022A000FA01DC01DD01DE01DF01590858045704A1
:1022B000560403198B292030E0000310D20DD30DF2
:1022C000D40DD50DDC0DDD0DDE0DDF0D59085F02DF
:1022D000031D742958085E02031D742957085D0206
:1022E000031D742956085C02031C85295608DC026C
:1022F0005708031C570FDD025808031C580FDE0255
:102300005908031C590FDF020314F70DF80DF90DDE
:10231000FA0DE00B5D295C0880005D08813F5E08D6
:10232000823F5F08833F7A082C00B8007908B70025
:102330007808B6007708B5000D30F700F70B9E2936
:10234000031030004E0DD2004F0DD3000130D207E4
:102350000030D33D0310520DF900530DFA007908F7
:10236000393E840020307A3D85002C0035088000FD
:102370003608813F3000CE0A0319CF0ACD287C30C1
:10238000230091000230920080312000A12690317C
:102390000030F80021001D08833978049D000F30BB
:1023A000F8001F08F03978049F009D149D18D62965
:1023B0001B08F8001C082C00B0007808AF003000A3
:1023C0004D08D2008230230091000230920080310B
:1023D0002000A12690313000D30152085302031887
:1023E0002B2B5308D8000330D90088312000F0246B
:1023F000903191307807F8002230FA000318FA0A79
:1024000078083000D8007A08D9000310530DFA017B
:10241000F9000310F90DFA0D7908393E84002030D7
:102420007A3D85000008DA0001310008DB003F3109
:10243000DB0CDA0CDB0CDA0CDB0CDA0CDB0CDA0C68
:102440000F30DB055A08F700FA017A08DB0059085B
:102450008500580884005A0880005308D8000330CB
:10246000D90088312000F024903191307807840021
:10247000223085000318850A00083000D80031009A
:10248000A7003730A800803120008327903120300A
:102490003100AB00803120007C26903130005308A1
:1024A000D8000330D90088312000F0249031013069
:1024B0007807913EF8002230FA000318FA0A7808EB
:1024C0003000D8007A08D9000310530DFA01F90042
:1024D0000310F90DFA0D7908393E840020307A3D59
:1024E00085000008DA0001310008DB003F310F30C1
:1024F000DA05DB01DA0DDB0DDA0DDB0DDA0DDB0DB4
:10250000DA0DDB0DF030DA050310530D013EFA0150
:10251000F9000310F90DFA0D7908393E84002030D6
:102520007A3D85000008DC0001310008DD003F3104
:102530005D08DC00DD015C080F39F700FA0177085F
:102540005A04F7007A085B04FA007708DA007A0880
:10255000DB0059088500580884005A088000530899
:10256000D8000330D90088312000F02490310130A8
:102570007807913E8400223085000318850A000800
:102580003000D8003100A7003730A800803120008B
:102590008327903120303100AB00803120007C2631
:1025A000903130005308D8000330D9008831200022
:1025B000F024903102307807913EF8002230FA0082
:1025C0000318FA0A78083000D8007A08D9000310F6
:1025D000530D013EFA01F9000310F90DFA0D7908C7
:1025E000393E840020307A3D85000008DA00013150
:1025F0000008DB003F315A08F700FA017A08DB00D7
:1026000059088500580884005A0880005308D800EB
:102610000330D90088312000F0249031023078074F
:10262000913E8400223085000318850A000830009E
:10263000D8003100A7003730A80080312000832760
:10264000903120303100AB00803120007C26903169
:102650003000D30AED290D303100AB00803120006D
:102660007C2690310A303100AB00803120007C267E
:10267000903121000E1022000E10883120002C2DE8
:10268000C530230091000430920080312000A12643
:10269000903130003D0884003E088500003100087C
:1026A000003A200003195B2B013A0319932C033ADB
:1026B0000319EF2CDF2E30003E08C0003D08BF009C
:1026C000D130230091000430920080312000A126F7
:1026D0009031DC30230091000430920080312000E2
:1026E000A12690318831E72490310230AB000130CF
:1026F00030003F07F8000030403DFA007808C20083
:102700007A08C3004308C5004208C4004408840096
:1027100045088500003FC60001304407F80000303E
:10272000453DFA007808C7007A08C8004608C90085
:1027300080312000F92790317908FA007808840068
:102740007A0885000930F800253087002A30860095
:1027500012001E00F80BA82B3000D30152085302C0
:102760000318C22B2A305307840025308500031834
:10277000850A00084902031DC02B0130F800C42B54
:10278000D30AAE2B0030F800F8080319ED2B4630C1
:102790002300910005309200031023303100A70080
:1027A000883120004921903130004608C900183096
:1027B000CA0088312000E62390310D303100AB0093
:1027C000803120007C2690310A303100AB0080310E
:1027D00020007C269031712C30004608C9008031E1
:1027E0002000F92790317908FA00780884007A08E7
:1027F00085000930F800253087002A308600120055
:102800001E00F80BFF2B30005208083C0319132C54
:102810005208D20A2A3E8400253085000318850A12
:10282000490880001D2C41302300910003309200A4
:1028300080312000A126903130005A3023009100D1
:102840000530920080312000A12690318330230092
:1028500091000530920003100C303100A700883140
:10286000200049219031300046083100A700373060
:10287000A80080312000832790318A302300910006
:1028800005309200031004303100A7008831200089
:102890004921903130004608013A20000319542C98
:1028A000A13A03195E2C5F2C30004808CA00470883
:1028B000C90088312000172D9031682C682C8D308C
:1028C000230091000530920080312000A126903134
:1028D0009930230091000530920080312000A1261C
:1028E000903188312F259031F80803198D2CB308C9
:1028F000031D872CB208031D872C29083102031CF5
:102900008A2C031D872C3008280203188A2C0630D5
:10291000AB008C2C0330AB008F2C0430AB000030AC
:10292000F8007808E12E30003E08C0003D08BF00E6
:10293000EA30230091000430920080312000A1266B
:102940009031F430230091000430920003101230D3
:102950003100A70088312000492190312B08300038
:10296000C9001830CA0088312000E62390310D30AC
:102970003100AB00803120007C2690310A303100DC
:10298000AB00803120007C26903100302300910084
:102990000530920080312000A126903101303000B6
:1029A000C2002030C4000B30C3000130C5008831A4
:1029B0002000592490312B08063C031DEB2C0F30CE
:1029C000230091000530920080312000A126903133
:1029D0000130F800ED2C0030F8007808E12E3000CE
:1029E0003E08C0003D08BF001D30230091000530A7
:1029F000920080312000A1269031293023009100DF
:102A00000530920080312000A12690318831E724E2
:102A1000903130003F088400400885000131800873
:102A2000031DD22E373023009100053092008031F3
:102A30002000A12690310530AB0088312F25903140
:102A4000F808031DC52E2F0058085702031D372D07
:102A50009A30230091000230920080312000A1269C
:102A600090310030F800F900512D512D2F005708FA
:102A70003000C40001302F0057070F39D700300055
:102A80004408D8000C30D90088312000F02490315F
:102A90007808273EF8002430FA000318FA0A7A086A
:102AA000F90079083000C2007808C10041088400AC
:102AB0004208850004310008C40001310008C50047
:102AC00001310008C60001310008C7003D317430F3
:102AD0002300910004309200031018303100A70049
:102AE0008831200049219031300047083100A7008B
:102AF0003730A8008031200083279031300046080D
:102B00003100A7003730A8008031200083279031A2
:102B1000300045083100A7003730A8008031200080
:102B200083279031300044083100A7003730A800D7
:102B300080312000832790310D303100AB0080318F
:102B400020007C2690310A303100AB00803120001B
:102B50007C26903130004108840042088500003115
:102B60000008C40001310008C50001310008C6009A
:102B700001310008C7003D3184302300910004304A
:102B80009200031013303100A70088312000492142
:102B90009031300047083100A7003730A80080315D
:102BA000200083279031300046083100A7003730DD
:102BB000A800803120008327903130004508310083
:102BC000A7003730A80080312000832790313000E3
:102BD00044083100A7003730A80080312000832747
:102BE00090310D303100AB00803120007C269031D7
:102BF0000A303100AB00803120007C26903130005B
:102C0000410884004208850008310008C4000131F1
:102C10000008C50001310008C60001310008C700E6
:102C20003D319230230091000430920003100F30A8
:102C30003100A70088312000492190313000470839
:102C40003100A7003730A800803120008327903161
:102C5000300046083100A7003730A800803120003E
:102C600083279031300045083100A7003730A80095
:102C70008031200083279031300044083100A700C4
:102C80003730A80080312000832790310D3031008B
:102C9000AB00803120007C2690310A303100AB003F
:102CA000803120007C2690319E302300910004303A
:102CB000920080312000A126903104303000C40001
:102CC000FA30D60080312000602790313000C40BEC
:102CD000602E2E303100AB00803120007C269031F8
:102CE00004303000C400FA30D60080312000602764
:102CF00090313000C40B732E2E303100AB00803188
:102D000020007C26903104303000C400FA30D60018
:102D100080312000602790313000C40B862E2E3089
:102D20003100AB00803120007C269031043030002F
:102D3000C400FA30D6008031200060279031300086
:102D4000C40B992E2E303100AB00803120007C2640
:102D500090310D303100AB00803120007C26903165
:102D60000A303100AB00803120007C2690310430E5
:102D70003000C400FA30D600803120006027903146
:102D80003000C40BBA2E20001D2DA330230091006B
:102D90000430920080312000A12690310630AB0033
:102DA000DB2E30003F30230091000530920080314F
:102DB0002000A12690310030F8007808E12E003084
:062DC000F8008831B32E7B
:020000040001F9
:04000E00823FFF1E10
:00000001FF
;PIC16F1789
;CRC=E820  CREATED="04-6-25 17:34"
