:06000000B831B629000032
:0800080083018031200077081C
:10001000A0007808A1007908A2007A08A3002300B4
:1000200011082000A400230012082000A5002300CE
:1000300013082000A600230014082000A700850153
:1000400091308400001C2628111846288501913023
:100050008400801E2D28911A48282008F7002108C6
:10006000F8002208F9002308FA0024082300910070
:10007000200025082300920020002608230093007A
:1000800020002708230094000900200080314A281E
:1000900080316A2896018030970096010000013077
:1000A000B1070318B20A0319B30A0319B40A1110ED
:1000B00080312D28D434ED3272104937693AE93055
:1000C000EC34FA320D0500008921EF367036653ABE
:1000D000E5060A006D28281C802859081F3C031CCF
:1000E00080285908D90A1F39193E8400203085001C
:1000F0000318850A911E7A28230019088000200021
:10010000911280312D28D520522AA024EE34F434C7
:100110006136693DE5060A008921EF367036653A99
:10012000E5060A00CD24D329C9274E104626C12949
:1001300048104937693AE930EC34FA320D050001CC
:100140000923EC307334A0347310EE377410E337A6
:100150006E37E531F432E4060A0089294D23201078
:10016000D0244326CF23A02AF332A021EF3A6E3ABF
:1001700065392010201020103A10303C2518382600
:10018000D8060A0089294D232010D0244326CF23E6
:100190002026EF377010C3377537F43272102010F5
:1001A00020103A10303C2518322C0D050001892909
:1001B0004D232010CD22C1292010A02AF332A021E6
:1001C000EF3A6E3A65392010201020103A10303C7A
:1001D00025183826D8060A0089294D232010CD225B
:1001E000C12920102026EF377010C3377537F4323D
:1001F0007210201020103A10303C2518322C0D05BA
:1002000000018926C9294610D0244326CF23A02ADD
:10021000F332A021EF3A6E3A6539201020102010F9
:100220003A10303C25183826D8060A008926C929F4
:100230004610D0244326CF23A02AEE316F38F9325E
:100240006410C3377537F43272103A10303C2518F9
:100250003826D8060A008926C9294610D024432604
:10026000CF232026EF377010C3377537F432721062
:10027000201020103A10303C2518322C0D050001BA
:100280008926C9294610D0244326CF23A02BF23437
:10029000F432A021EF3A6E3A6539201020103A105E
:1002A000303C2518322C0D0500018926C92946103D
:1002B000CD22C1292010A02AF332A021EF3A6E3AB4
:1002C00065392010201020103A10303C25183826AF
:1002D000D8060A008926C9294610CD22C129201036
:1002E000A02AEE316F38F9326410C3377537F43213
:1002F00072103A10303C25183826D8060A00892694
:10030000C9294610CD22C12920102026EF377010B0
:10031000C3377537F4327210201020103A10303C79
:100320002518322C0D0500018921EF367036653A0B
:10033000E5060A00CD34F339E9376E104636E13967
:100340006810E93920376F3AA0316F37EE32633ADF
:1003500065320D0500005B28C921CC27C72E201D62
:100360002000CD34F339E9376E104636E139681094
:10037000E93920376F3AA0316F37EE32633A653290
:100380000D050000C927A024EE34F4346136693D20
:10039000E5060A008921EF367036653AE5060A005F
:1003A000412243104937693AE930EC34FA320D05FD
:1003B00000018921EF367036653AE5060A00533AA6
:1003C00061397410D32BC522D0060A008929F7326F
:1003D0006538A039F43270103A10A53A0D05800B3B
:1003E00045274410D32BC522D0060A00CC37E7336B
:1003F0006532A021C9235310E430F4300D0580008C
:10040000D3264610E430F4302036E9397410E93947
:1004100020337536EC10A1100D050000D3264610D0
:10042000E430F4302036E9397410E939A0326D38FF
:10043000F43C0D0500000D05533A61397410ED30A0
:10044000EB325F39E531E534F632DF31EF36ED304E
:100450006E320D050001892DC227D3295D103E1F84
:100460003E10000145376410ED30EB325F39E53165
:10047000693BE52FE337ED366137E4068A060A006B
:10048000F33467376136A0326E32A03B693A6810A8
:100490005323C4060A00E437EE137410E6346E32B8
:1004A000A02946220D05000089163E104937F63076
:1004B000EC3464104639E136651049222039E531C3
:1004C000E534F632641DA012D8060A0089163E10E3
:1004D000432943106539F237F2100D0500018904F4
:1004E0002D1F2039E531E534F63264104329431DD0
:1004F000A012D8060A0089042010A0316F36EC3211
:10050000633AA021D221201DA012D8060A00891624
:100510003E104937F630EC346410E432F634E332FE
:10052000A0244410F232E332693B65320D0500012C
:1005300089042D1F2039E531E534F632641D201081
:100540002010A012D8060A0089042010A0267910D5
:10055000E432F634E332A024441DA012D8060A0087
:10056000892DC227D3295D103C1E3C10000189163D
:100570003E104639E136651049223A10252C0D050A
:10058000000189163E10C3376E3A65377410F33494
:10059000FA323A1025320D050010533A61397410C1
:1005A000D3264610F53969376710F232F132733AC3
:1005B000A039E530F13A6537E3320D0500014539E0
:1005C000F237F2102029E531E534F634EE33A0316C
:1005D000EF36ED306E32A034EE316F37F334733ACC
:1005E00065377410F7347434203AE8322032E53934
:1005F000E933EE060A00D3264610F5396510F232CB
:10060000F13AE53974106136EC37F732E4060A0046
:10061000D3264610F5396510F232F13AE5397410F7
:10062000E432EE3C65320D050001D23274397910A6
:10063000F232F13AE5397410F4372021CF29531002
:10064000D024C3060A004539F237F2102029E531DB
:10065000E534F634EE33A031EF36ED306E32A034AF
:10066000EE316F37F334733A65377410F7347434FE
:10067000203AE8322032E539E933EE060A00453700
:100680006410D3264610F53969376710F232F1321B
:10069000733AA039E530F13A6537E3320D050000D1
:1006A000533A61397410CD27C4222022D526CD2C8F
:1006B0000D05000189264F224510201020103A1008
:1006C0002518322C0D05000109286139E136311059
:1006D00020103A10303C25183826D8060A00092880
:1006E0006139E136321020103A10303C251834269A
:1006F000D8060A0045376410CD27C4222022D5260B
:10070000CD2C0D050000533A61397410CD27C42259
:10071000A026C520D32AD2220D050000533A613904
:100720007410CD27C422A026C520D32AD222202B84
:100730006F36F430E7320D050000533A613974101A
:10074000D32BC522D0060A008929F7326538A03993
:10075000F43270103A10A53A0D05000145274410F7
:10076000D32BC522D0060A00F4326D385F3A6F38B9
:100770003A10252C0D050001F4326D385F316F3AC7
:100780003A10252C0D05000070325F3B6136F532C2
:100790003A10252C0D050000E334E7395F3B613644
:1007A000F5323A10252C0D050000E33A7239653711
:1007B000F42FF630EC3A651DA012D8060A00F63781
:1007C0006C3AE133E52FF630EC3A651DA012D806FD
:1007D0000A00533A613974104636E13968104539D8
:1007E000E13965104136EC060A004537641046369B
:1007F000E13968104539E13965104136EC060A00E7
:10080000533A613974104636E13968104539E13997
:1008100065103110D332633A6F390D050001892913
:10082000E531F437721041326439E539731D20180F
:10083000F812301C4C2C0D0500014537641046366B
:10084000E13968104539E13965103110D332633A26
:100850006F390D050000533A613974104636E1399D
:100860006810C337F03CA018A029E531F437F20630
:100870000A0089297531F332633A6F39A020643256
:10088000F232F3393A10303C25183826D8060A00DF
:10089000453764104636E1396810C337F03CA0187C
:1008A000A029E531F437F2060A00533A6139741091
:1008B0004636E13968105739693A6510C432ED3768
:1008C0000D05000189264F224510201020103A10F6
:1008D0002518322C0D05000189206432F232F339DB
:1008E00020103A10303C25183826D8060A0009286E
:1008F000E131EB327427F5363A10303C25183426B6
:10090000D8060A005739693A6510C430F4300D052D
:100910000001453764104636E13968105739693AA5
:100920006510C432ED370D050000533A613974107B
:100930004636E13968105739693A6510B435C23C1A
:10094000F432A0297531F332633A6F390D05000195
:10095000453764104636E13968105739693A6510F1
:10096000B435C23CF432A0297531F332633A6F39A1
:100970000D050000533A613974104636E1396810AC
:10098000D23261320D05000189264F224510201018
:1009900020103A102518322C0D05000189206432F0
:1009A000F232F33920103A10303C25183826D80698
:1009B0000A000928E131EB327427F5363A10303C51
:1009C00025183426D8060A00D22241222022412AA4
:1009D000C1060A00CD34F339E9376E104636E139E5
:1009E0006810E93920376F3AA0316F37EE32633A39
:1009F00065320D050001453764104636E13968104F
:100A0000D23261320D050000533A61397410463616
:100A1000E1396810D2326132A0206432F232F33907
:100A20000D050001D23261322022613A611DA0120F
:100A3000301958102518322CA012301958102518CA
:100A4000322C0D050001453764104636E139681037
:100A5000D2326132A0206432F232F3390D05000047
:100A6000533A613974104636E1396810D32646107E
:100A7000C337F03C0D050001453764104636E139B7
:100A80006810D3264610C337F03C0D050000533ADA
:100A9000613974104636E1396810D3264610D232D7
:100AA00061320D050001D23261322022613A611DAE
:100AB00020000D05453764104636E1396810D3260D
:100AC0004610D23261320D050000533A613974107C
:100AD0004636E1396810D32646105739693AE5069B
:100AE0000A00453764104636E1396810D3264610AF
:100AF0005739693AE5060A00533A613974104636A7
:100B0000E139681041326439E5397310D232F33279
:100B1000F4060A00453764104636E1396810413260
:100B20006439E5397310D232F332F4060A000D0548
:100B3000DF2FDF2FDF2FDF2FDF2FDF2FDF2FDF2F45
:100B4000DF2FDF2F0D050001DF2FDF29F430723A90
:100B5000A0316F38F92FE430F430DF2F0D0500019C
:100B6000533A61397410DB12641074345D10E43050
:100B7000F430A0316F38F9068A060A000D05DF2F20
:100B8000DF226E32A0316F38F92FE430F430DF2FDE
:100B9000DF2F0D050001DF2FDF2FDF2FDF2FDF2FEE
:100BA000DF2FDF2FDF2FDF2FDF2F0D050D050000DB
:100BB0004937A0396D33A036E939F3346F37203225
:100BC000613A6110733A61397410201061326439EE
:100BD000E539731DA0124C2C0D0500014937A039D1
:100BE0006D33A036E939F3346F372032613A611042
:100BF000653764102010201061326439E539731DA7
:100C0000A0124C2C0D0500014937A026C92920232C
:100C10004D105739693A6510F3377539E332203290
:100C2000613A611061326439E539731DA0124C2CB0
:100C30000D0500014937A026C92920234D10573939
:100C4000693A6510E430F430A039693D6510201030
:100C5000201020102010201DA012EC3A0D050D05CB
:100C60000002D334FA32A030F2326110F232613233
:100C70000D050001F5396532DF39693D65103D101C
:100C800025367510A839F2312018F812301C4C2C7A
:100C9000A9060A00EC376F38A031EF3A6E3A3D10E2
:100CA00025322010A839F2312018F812301C4C2CB3
:100CB000A9068A060A0057396138203AF234E73328
:100CC000653965323A10D232F332743A69376710B7
:100CD000E430F430DF3BF234F432DF30643272104F
:100CE000F437A039F430723A0D0500005538E4307D
:100CF000F432A039693D65106139E5300D05000118
:100D0000F5396532DF39693D65103D102536E40659
:100D10000A00EC376F38DF31EF3A6E3AA01EA012AE
:100D2000F5068A060A000D05DF2FDF2FDF2FDF2FE4
:100D3000DF2FDF2FDF2FDF2FDF2FDF2FDF2FDF2F43
:100D4000DF2FDF2FDF2F0D05DF2FDF2FDF29F4301F
:100D5000723AA032F832E33AF432DF36E939F3344A
:100D60006F37DF2FDF2FDF068A060A00C337ED3625
:100D70006137641049223A10252C0D050D0500013C
:100D800089042D1FA0246E3B61366932A0214D22BB
:100D9000A024C4100D0500010D05DF2FDF2FDF2F6C
:100DA00045376410653CE531753AE52FED34F3398C
:100DB000E937EE2FDF2FDF2FDF068A2FDF2FDF2F20
:100DC000DF2FDF2FDF2FDF2FDF2FDF2FDF2FDF2FB3
:100DD000DF2FDF2FDF2FDF2FDF2F0D050000533A2E
:100DE00061397410653CE531753AE52FE337ED362E
:100DF0006137E4060A0089163E105538EC34EE35AA
:100E0000A031EF36ED306E320D05000109102010D3
:100E100054396137F336693AA020E335EE37EC32C6
:100E20006732E5060A0089163E10533A613AF539F1
:100E3000A031E832E3350D050001091020105439C6
:100E40006137F336693AA026C929A026C32AA0290A
:100E5000F430F43AF3060A00E634EE3473346532C3
:100E6000A0346E10733A613AF539DF31E832E33578
:100E70000D05000089163E10D3264610613BE13473
:100E8000EC30623665106334E531EB060A00091078
:100E9000201054396137F336693AA020E335EE3734
:100EA000EC326732E5060A0089042D1FA0306C364B
:100EB000EF3BE4060A0089042D1F20326537F93222
:100EC000E4060A000D050D050D05BD1EBD1EBD1E67
:100ED000BD1EBD1EBD1EBD1EBD1EBD1EBD1EBD1E3A
:100EE000BD1EBD1EBD1EBD1EBD1EBD1EBD1EBD1E2A
:100EF000BD1EBD1EBD1EBD1EBD1EBD1EBD1EBD1E1A
:100F0000BD1EBD1EBD1E0D0500015434E939A034BF
:100F10007310CD27CD24CA24A021C9235310D02477
:100F2000431042214D10E6377210CD24D31B5F21B0
:100F3000C22631170D050001CC30733AA03A703249
:100F4000613A6532A0376E103218B21A2F18B617F0
:100F5000B11A2C10E23CA024EE37F532AE068A0618
:100F60000A00DF2FDF2FC324C7292028C921A02989
:100F7000F430723AA027F032F230F4346F37DF2FBA
:100F8000DF2FDF068A060A00F730693A69376710F3
:100F9000E6377210C227D3292028C921A031EF36A5
:100FA000ED306E3200010D05F730693A6937671090
:100FB000E6377210C227D3292028C921A031EF3685
:100FC000ED306E32000145376410ED3069370D05A4
:100FD00000002F004210C3154311C2104211C2116C
:100FE000B8312000712A240011083300660824005B
:100FF0009100140C031CF92F1108F70020000800C1
:101000000D050D05BD1EBD1EBD1E0D050D05C6340D
:10101000EE34733465322038F237E332F339AE06FA
:101020008A2BE1347410E6377210C227D3292028A6
:10103000C921203A75396E106F336610ED32000108
:1010400021000D1222000D120830F80027280000A0
:10105000F8173A28F8133300AB0C220003180D16CA
:10106000031C0D1278173A287813F80B2B28382810
:1010700000000D1684308400840B3C280000F81B0F
:101080002A28781B3428200008000B088B13230023
:101090009517151400000000891B8B1713087F3962
:1010A000031991283300A800230011083300A90078
:1010B000230012083300AA002808AB0020002020DB
:1010C000330029082300910033002A0823009200EE
:1010D0000B088B139517151400000000891B8B1744
:1010E000130D140D7F39031991283300A800230034
:1010F00011083300A900230012083300AA002808B1
:10110000AB00200020203300290823009100330089
:101110002A0823009200910A0319920A2000452808
:10112000230020000800C23023009100013092000B
:101130002000452021000E1022000E1021008E11EB
:1011400022008E11CA30230091000130920020004D
:101150004520B831652AD03023009100013092003B
:10116000200045207830210099001E109E101E118D
:10117000003023008C0090008D00EB308F002100A8
:101180001E129E161E179E131D14983022009800E2
:1011900032309900D93023009100013092002000B4
:1011A0004520B831682A8330230091000030920036
:1011B0002000452021009116C0308B048C30230084
:1011C00091000030920020004520B8316B2A5A303F
:1011D00023009100003092002000452011108F3034
:1011E0009800990196018030970096010000210037
:1011F0001114C0308B046430230091000030920041
:1012000020004520B8316E2A330049080739F7001D
:10121000490CF800F80CF80C1F30F80578084B075B
:10122000840000304C3D8500F801F80AF70A1929BE
:10123000F80DF70B1829CA0803192129780880042A
:101240002429F809780880052000080024001108E6
:101250003300660824009100140C031C2C2911088B
:10126000F7002000080033004908003A2000031965
:101270003D29013A0319A229042A3300D801D701D4
:1012800058085002031C6629031D4A294F085702BB
:10129000031866294D08570784004E08583D8500FD
:1012A0000008E400240095124030940009309200B8
:1012B0002A30950033006408E60080312000F327CF
:1012C00088313300D70A0319D80A4029DC01DB0131
:1012D000DA01D9015C085602031CA129031D8029EB
:1012E0005B085502031CA129031D80295A085402DA
:1012F000031CA129031D8029530859020318A129A1
:1013000051085907840052085A3D8500240095125F
:1013100040309400093092002A30950001303300AB
:10132000E60080312000F327883177088000013003
:101330003300D9070318DA0A0319DB0A0319DC0A98
:101340006A29052A3300DE01DD015E085002031C14
:10135000C929031DAF294F085D020318C9294D088B
:101360005D0784004E085E3D85000008E40024000F
:10137000951240309400093092002A3095003300D5
:101380006408E600200026213300DD0A0319DE0A86
:10139000A529E201E101E001DF0162085602031C18
:1013A000022A031DE32961085502031C022A031DBA
:1013B000E32960085402031C022A031DE329530891
:1013C0005F020318022A51085F0784005208603D3B
:1013D00085002400951240309400093092002A3094
:1013E000950002303300E6002000262177088000B7
:1013F00001303300DF070318E00A0319E10A03197B
:10140000E20ACD29052A20003300200008009F3081
:101410003100EF006D083300C900CA010130CC0073
:10142000CB012000042131006D083300C900CA013E
:10143000CC018030CB002000042131006E08330045
:10144000CC0031006D083300CB0031006C08330054
:10145000CA0031006B083300C9002530CE009F3030
:10146000CD00D0010130CF002530D200A030D10016
:10147000D601D501D4010430D3002000332131003E
:101480006D083300C9000130CA00CC00CB01200038
:10149000042131006D083300C900CA01CC0180303D
:1014A000CB002000042132002008203C031D5C2AD0
:1014B0000130F8005E2A5E2A0030F80020000800A3
:1014C0003300A808031DC02A0330B500C101C201C2
:1014D000F801F901FA012D08B600C201F801F9017D
:1014E000FA012C08B700F801F901FA012B08B8003D
:1014F0002908C900CA010130CC00CB012000042119
:1015000033002908C900CA01CC018030CB0020007B
:10151000042133002A08CC002908CB002808CA007F
:101520002708C9002630CE000530CD00D001043098
:10153000CF003008D2002F08D1003408D60033087D
:10154000D5003208D4003108D30020003321023006
:10155000F700F70BA92A000033002908C900013061
:10156000CA00CC00CB012000042133002908C900A7
:10157000CA01CC018030CB0020000421242B330091
:10158000280B252B1330B900C001C101C201F8019D
:10159000F901FA012E08BA00C101C201F801F901EE
:1015A000FA012D08BB00C201F801F901FA012C086B
:1015B000BC00F801F901FA012B08BD002908C90097
:1015C000CA010130CC00CB012000042133002908DE
:1015D000C900CA01CC018030CB00200004213300B7
:1015E0002A08CC002908CB002808CA002708C9000F
:1015F0002630CE000930CD00D0010530CF003008B4
:10160000D2002F08D1003408D6003308D5003208A4
:10161000D4003108D300200033210230F700F70B4B
:101620000F2B000033002908C9000130CA00CC008C
:10163000CB012000042133002908C900CA01CC01D4
:101640008030CB00200004213300200008000B086C
:101650008B1323009517151400000000891B8B17AE
:1016600003185B2B13087F393100D20023001108C7
:101670003100D300230012083100D4005208330097
:10168000AB002000202031005308230091003100DE
:101690005408230092000B088B13951715140000B3
:1016A0000000891B8B173100D10B572B592B2300BE
:1016B0005B2B7F2B2300130D140D7F393100D200DB
:1016C000230011083100D300230012083100D40098
:1016D00052083300AB0020002020310053082300C3
:1016E00091003100540823009200910A0319920AD4
:1016F00003103100D10B7D2B7F2B2000272B2000E6
:1017000008003100D21B972B0F30F700510EF70560
:101710000A30770203188F2B3030F707912B5208CD
:10172000F70777083300AB002000202031000F308E
:10173000D1050A30510203189F2B3030A12BD21350
:101740005208D10751083300AB00200020200800C8
:1017500092302300910000309200200045202100AB
:101760008F1022008F1421000F1122000F152D0061
:1017700045083100EE002D0044083100ED002D0039
:1017800043083100EC002D0042083100EB0020003E
:101790000722F808031DD42BA0302300910000304D
:1017A000920020004520202E2D0045083300AA007D
:1017B0002D0044083300A9002D0043083300A80081
:1017C0002D0042083300A700AE01AD01AC01AB0112
:1017D0002530B0002F30AF00B401B301B20140306A
:1017E000B100200060223100C1010030C104410479
:1017F000300052042D00AA00AB01AC01AD01300055
:101800005308F1003100C1010030C104410430002F
:1018100057042D00AE00AF01B001B10130005808EF
:10182000F2003100C1010030C104410430005C0409
:101830002D00B200B301B401B50130005D08F30022
:101840003100C1010030C1044104300061042D00A9
:10185000B600B701B801B9013100C0010030C004C1
:10186000400430006504F4003100C1010030C104BF
:101870004104300069042D00BA00BB01BC01BD0168
:1018800030006A08F5003100C1010030C104410494
:1018900030006E042D00BE00BF01C001C101AD309B
:1018A0002300910000309200031022303100D1005B
:1018B000200027232D002D083100D1003730D20021
:1018C000200081232D002C083100D1003730D200B8
:1018D000200081232D002B083100D1003730D200A9
:1018E000200081232D002A083100D1003730D2009A
:1018F000200081230D303300AB00200020200A306F
:101900003300AB0020002020C230230091000030C3
:101910009200031022303100D100200027237108EB
:101920003100D1003730D200200081230D30330048
:10193000AB00200020200A303300AB002000202024
:10194000D730230091000030920003102230310084
:10195000D100200027232D0031083100D10037307D
:10196000D200200081232D0030083100D100373013
:10197000D200200081232D002F083100D100373004
:10198000D200200081232D002E083100D1003730F5
:10199000D200200081230D303300AB002000202036
:1019A0000A303300AB0020002020EC3023009100EF
:1019B00000309200031022303100D1002000272394
:1019C00072083100D1003730D200200081230D3061
:1019D0003300AB00200020200A303300AB00200091
:1019E00020200130230091000130920003102230AA
:1019F0003100D100200027232D0035083100D1000F
:101A00003730D200200081232D0034083100D1006E
:101A10003730D200200081232D0033083100D1005F
:101A20003730D200200081232D0032083100D10050
:101A30003730D200200081230D303300AB0020006E
:101A400020200A303300AB00200020201630230075
:101A5000910001309200031022303100D1002000AB
:101A600027232D0039083100D1003730D200200063
:101A700081232D0038083100D1003730D2002000FA
:101A800081232D0037083100D1003730D2002000EB
:101A900081232D0036083100D1003730D2002000DC
:101AA00081230D303300AB00200020200A303300AA
:101AB000AB00200020202B30230091000130920049
:101AC000031022303100D100200027237308310099
:101AD000D1003730D200200081230D303300AB001D
:101AE000200020200A303300AB00200020204030AE
:101AF0002300910001309200031022303100D10008
:101B00002000272374083100D1003730D200200094
:101B100081230D303300AB00200020200A30330039
:101B2000AB002000202055302300910001309200AE
:101B3000031022303100D100200027232D003D0862
:101B40003100D1003730D200200081232D003C0825
:101B50003100D1003730D200200081232D003B0816
:101B60003100D1003730D200200081232D003A0807
:101B70003100D1003730D200200081230D303300F6
:101B8000AB00200020200A303300AB0020002020D2
:101B90006A3023009100013092000310223031009E
:101BA000D100200027232D0041083100D10037301B
:101BB000D200200081232D0040083100D1003730B1
:101BC000D200200081232D003F083100D1003730A2
:101BD000D200200081232D003E083100D100373093
:101BE000D200200081230D303300AB0020002020E4
:101BF0000A303300AB00200020207F30230091000A
:101C000001309200031022303100D1002000272340
:101C100075083100D1003730D200200081230D300B
:101C20003300AB00200020200A303300AB0020003E
:101C300020209430230091000130920020004520A4
:101C4000080033004308003A200003192B2E013A04
:101C50000319552E7E2E3300CC01CB014C084A02CD
:101C6000031C542E031D382E49084B020318542E12
:101C700047084B07840048084C3D85000008CF000A
:101C80002400951240309400093092002A309500CB
:101C900033004F08E60080312000F32788313300FD
:101CA000CB0A0319CC0A2E2E7F2E3300CE01CD0194
:101CB0004E084A02031C7C2E031D622E49084D0269
:101CC00003187C2E47084D07840048084E3D8500C8
:101CD0000008CF0024009512403094000930920093
:101CE0002A30950033004F08E600200026213300FB
:101CF000CD0A0319CE0A582E7F2E20003300200073
:101D0000080033004308003A200003198B2E013AE3
:101D10000319D42E1A2F3300CE0149084E0203189E
:101D2000AB2E4E08470784000030483D8500000870
:101D3000D4002400951240309400093092002A30DB
:101D4000950033005408E60080312000F3278831E5
:101D50003300CE0A8D2ED001CF0150084D02031C56
:101D6000D32E031DB72E4C084F020318D32E4A085A
:101D70004F0784004B08503D85000008D400240024
:101D8000951240309400093092002A3095003300BB
:101D90005408E60080312000F32788313300CF0A51
:101DA0000319D00AAD2E1B2F3300D101490851026F
:101DB0000318F22E5108470784000030483D850083
:101DC0000008D4002400951240309400093092009D
:101DD0002A30950033005408E60020002621330005
:101DE000D10AD62ED301D20153084D02031C182F5D
:101DF000031DFE2E4C0852020318182F4A085207E2
:101E000084004B08533D85000008D400240095123F
:101E100040309400093092002A3095003300540875
:101E2000E600200026213300D20A0319D30AF42E3B
:101E30001B2F200033002000080005303300C700AE
:101E40004508C900CA010130CC00CB0120000421A3
:101E500033004508C900CA01CC018030CB00200006
:101E6000042133004608CC004508CB004408CA00D2
:101E70004308C9002630CE001730CD00D001013014
:101E8000CF002630D2001830D100D601D501D401C0
:101E90000130D3002000332133004508C900013050
:101EA000CA00CC00CB012000042133004508C90042
:101EB000CA01CC018030CB00200004213300480847
:101EC000F800200008002630850013308400000848
:101ED0000319782F0530F800F701F70B6D2FF80B79
:101EE0006C2F2E30F700F70B732F762F800B6A2F95
:101EF000080030002808840029088500003FAB0056
:101F00000130AC002A082C020318902F2C08AC0AD0
:101F1000280784000030293D85000008AB06822F89
:101F20002B08F800200008002F005708FA00560878
:101F300084007A0885000008D800550885005408F8
:101F40008400F7015808F80078080319AB2F7708C8
:101F50001A00F80BA72F5608840057088500800147
:101F6000B8312000C12A0F302F00D800DA01D90182
:101F7000DB0190312000E225883108003300290878
:101F8000C9000130CA00CC00CB012000042133007D
:101F90002908C900CA01CC018030CB0020000421EF
:101FA000080031005508F80154020318DA2F5408CC
:101FB000F700E62FF7010830D600D40DF70D5508CD
:101FC00077020318F700F80DD60BDD2F200008006C
:101FD0002F003B083A020319EF2F0030F02F013099
:061FE000F80020000800DB
:102000003300A808031DB0280630B3000230B40026
:102010002D08C4002E08C500C601C701F801F9014A
:10202000FA014408B5002C08C4002D08C5002E088C
:10203000C600C701F801F901FA014408B600F80129
:10204000F901FA012B08B7002908C900CA010130BB
:10205000CC00CB01883120000421903133002908C5
:10206000C900CA01CC018030CB0088312000042196
:10207000903133002A08C6002908C5002808C4008A
:102080002708C3002630C8000330C700CA0101304A
:10209000C900883120002126903133002908C90069
:1020A0000130CA00CC00CB018831200004219031DE
:1020B00033002908C900CA01CC018030CB00883127
:1020C00020000421903133002908C900CA010130E1
:1020D000CC00CB0188312000042190313300290845
:1020E000C900CA01CC018030CB0088312000042116
:1020F000903133002A08C6002908C5002808C4000A
:102100002708C3002630C8000430C700C9003008C3
:10211000CB002F08CA003208CD003108CC0088312E
:102120002000812690310230F700F70B952800003F
:1021300033002908C9000130CA00CC00CB01883126
:1021400020000421903133002908C900CA01CC01C4
:102150008030CB0088312000042190316729330082
:10216000280B68290630B8001230B9002E08C400C8
:10217000C501C601C701F801F901FA014408BA0016
:102180002D08C4002E08C500C601C701F801F901D9
:10219000FA014408BB002C08C4002D08C5002E0815
:1021A000C600C701F801F901FA014408BC00F801B2
:1021B000F901FA012B08BD002908C900CA01013044
:1021C000CC00CB0188312000042190313300290854
:1021D000C900CA01CC018030CB0088312000042125
:1021E000903133002A08C6002908C5002808C40019
:1021F0002708C3002630C8000830C700CA010130D4
:10220000C900883120002126903133002908C900F7
:102210000130CA00CC00CB0188312000042190316C
:1022200033002908C900CA01CC018030CB008831B5
:1022300020000421903133002908C900CA0101306F
:10224000CC00CB01883120000421903133002908D3
:10225000C900CA01CC018030CB00883120000421A4
:10226000903133002A08C6002908C5002808C40098
:102270002708C3002630C8000930C7000530C90050
:102280003008CB002F08CA003208CD003108CC003E
:1022900088312000812690310230F700F70B4E295B
:1022A000000033002908C9000130CA00CC00CB016E
:1022B000883120000421903133002908C900CA0167
:1022C000CC018030CB0088312000042190313300D4
:1022D000BE012A08C6002908C5002808C40027082E
:1022E000C300883120001D27903178080139013C56
:1022F000031D972933003E080A3C03188729C8307C
:10230000C30088312000632790318D2933000A30C3
:10231000C300883120006327903133003E08643CBD
:1023200003189529200097293300BE0A6929200047
:1023300008003100EC08031D4C2A0630EF00203065
:102340003200A400B201B301F801F901FA01220838
:10235000A500B301F801F901FA012108A600F8016E
:10236000F901FA012008A70031006D083300C90007
:10237000CA010130CC00CB0188312000042190310A
:1023800031006D083300C900CA01CC018030CB0098
:10239000883120000421903131006E083300C600DE
:1023A00031006D083300C50031006C083300C400F3
:1023B00031006B083300C3002530C8009F30C700D0
:1023C000CA010130C9008831200021269031310036
:1023D0006D083300C9000130CA00CC00CB01883140
:1023E00020000421903131006D083300C900CA017A
:1023F000CC018030CB0088312000042190313100A5
:102400006D083300C900CA010130CC00CB0188310E
:1024100020000421903131006D083300C900CA0149
:10242000CC018030CB008831200004219031310074
:102430006E083300C60031006D083300C50031005E
:102440006C083300C40031006B083300C300253032
:10245000C800A430C700CA010430C9008831200078
:102460002126903131006D083300C9000130CA00C7
:10247000CC00CB01883120000421903131006D085F
:102480003300C900CA01CC018030CB008831200064
:1024900004219031032B31006C0B042B06303200E9
:1024A000A8002130A900B101B201B301F801F9017E
:1024B000FA012308AA00B201B301F801F901FA01F7
:1024C0002208AB00B301F801F901FA012108AC00C0
:1024D000F801F901FA012008AD0031006D08330060
:1024E000C900CA010130CC00CB0188312000042191
:1024F000903131006D083300C900CA01CC01803031
:10250000CB00883120000421903131006E08330067
:10251000C60031006D083300C50031006C0833007F
:10252000C40031006B083300C3002530C800A83058
:10253000C700CA010130C90088312000212690312E
:1025400031006D083300C9000130CA00CC00CB0156
:10255000883120000421903131006D083300C9001A
:10256000CA01CC018030CB00883120000421903199
:1025700031006D083300C900CA010130CC00CB0125
:10258000883120000421903131006D083300C900EA
:10259000CA01CC018030CB00883120000421903169
:1025A00031006E083300C60031006D083300C500ED
:1025B00031006C083300C40031006B083300C300E5
:1025C0002530C800A930C700CA010530C9008831CC
:1025D00020002126903131006D083300C900013000
:1025E000CA00CC00CB018831200004219031310099
:1025F0006D083300C900CA01CC018030CB0088319E
:1026000020000421903131003200AE0131006E080B
:102610003300C60031006D083300C50031006C087E
:102620003300C40031006B083300C3008831200040
:102630001D27903178080139013C031D3E2B3200E3
:102640002E080A3C03182D2BC8303300C3008831F4
:10265000200063279031342B32000A303300C3004E
:10266000883120006327903132002E08643C031823
:102670003C2B20003E2B3200AE0A062B2000080027
:102680003108F7003208F8003308F9003408FA007E
:102690007A083100A3007908A2007808A100770821
:1026A000A000AC01AD01AE0123083000E70031000D
:1026B000AD01AE0122083000E8003100AE01210872
:1026C0003000E900310020083000EA006508EB0026
:1026D0006608EC00AB302300910001309200883195
:1026E0002000452090313000ED016D08053C031CB1
:1026F000942B47306D078400253085000318850A28
:1027000000083100AA00D1003730D2008831200003
:102710008123903120303300AB008831200020200D
:1027200090313000ED0A752B0D303300AB0088314D
:102730002000202090310A303300AB008831200087
:10274000202090312D0032083100A4002D003308E4
:102750003100A50002302D0034073100A600003002
:102760002D00353D3100A7002D0045083100EE0059
:102770002D0044083100ED002D0043083100EC002D
:102780002D0042083100EB008831200007229031F3
:10279000F808031DD52BB1302300910001309200C1
:1027A0008831200045209031E12D2D00450833006F
:1027B000AA002D0044083300A9002D00430833006F
:1027C000A8002D0042083300A7003100270833007D
:1027D000AE00310026083300AD003100250833007B
:1027E000AC00310024083300AB002530B000473086
:1027F000AF00B2010630B1002000002006302D00ED
:10280000B2070030B33DB43DB53D0630B6070030E9
:10281000B73DB83DB93D0630F40774073F3C031897
:102820004D2C32083100A4002D0033083100A500E2
:1028300002302D0034073100A60000302D00353D58
:102840003100A7002D0045083300AA002D004408E0
:102850003300A9002D0043083300A8002D004208D2
:102860003300A700310027083300AE0031002608EE
:102870003300AD00310025083300AC0031002408DE
:102880003300AB002430B0001630AF00B201063088
:10289000B10020000020F4012D003100AB01AC019B
:1028A000AD01AE01AF01B001B101B201B301B4019C
:1028B000B501B601B701B801B901BA01BB01BC014C
:1028C000BD01BE01BF01C001C101C201C301C401FC
:1028D000C501C601C701C801C901CA01CB01CC01AC
:1028E000CD01CE01CF01D001D101D201D301D4015C
:1028F000D501D601D701D801D901DA01DB01DC010C
:10290000DD01DE01DF01E001E101E201E301E401BB
:10291000E501E601E701E801E901EA012D002D08E2
:102920003100EC00ED01EE01EF016C08AB002D0071
:102930002C083100EC002D002D083100ED00EE01D7
:10294000EF016C08AC002D002B083100EC002D00CD
:102950002C083100ED002D002D083100EE00EF01B4
:102960006C08AD002D002A083100AE007108AF00E0
:102970002D0031083100EC00ED01EE01EF016C0893
:10298000B0002D0030083100EC002D00310831007E
:10299000ED00EE01EF016C08B1002D002F083100B1
:1029A000EC002D0030083100ED002D003108310021
:1029B000EE00EF016C08B2002D002E083100B300CC
:1029C0007208B4002D0035083100EC00ED01EE0175
:1029D000EF016C08B5002D0034083100EC002D002B
:1029E00035083100ED00EE01EF016C08B6002D0056
:1029F00033083100EC002D0034083100ED002D00CB
:102A000035083100EE00EF016C08B7002D003208E8
:102A10003100B8007308B9002D0039083100EC000E
:102A2000ED01EE01EF016C08BA002D00380831000D
:102A3000EC002D0039083100ED00EE01EF016C08CB
:102A4000BB002D0037083100EC002D0038083100A4
:102A5000ED002D0039083100EE00EF016C08BC00DC
:102A60002D0036083100BD000030BE00BF00C000A0
:102A70007408C1002D003D083100EC00ED01EE01AD
:102A8000EF016C08C2002D003C083100EC002D0065
:102A90003D083100ED00EE01EF016C08C3002D0090
:102AA0003B083100EC002D003C083100ED002D000A
:102AB0003D083100EE00EF016C08C4002D003A081B
:102AC0003100C5007508C6002D0041083100EC003A
:102AD000ED01EE01EF016C08C7002D004008310048
:102AE000EC002D0041083100ED00EE01EF016C0813
:102AF000C8002D003F083100EC002D0040083100D7
:102B0000ED002D0041083100EE00EF016C08C90016
:102B10002D003E083100CA002D0045083100EE00AE
:102B20002D0044083100ED002D0043083100EC0079
:102B30002D0042083100EB0088312000072290313F
:102B4000F808031DAD2D9A3023009100013092004A
:102B50008831200045209031E12D2D0045083100BD
:102B6000EE002D0044083100ED002D004308310037
:102B7000EC002D0042083100EB003200A301A2015D
:102B8000A101A001200099212D0045083300AA00D1
:102B90002D0044083300A9002D0043083300A8008D
:102BA0002D0042083300A700AE01AD01AC01AB011E
:102BB0002530B0005B30AF00B2014030B1002000E2
:102BC00000200800AA302F00DC0058085038DD0033
:102BD0005A088500590884005B08F8000319F82D8D
:102BE00024308700EE30860012001E00F80BF42D12
:102BF00002305B07EC00EC306C073000A2002430A0
:102C0000A3000318A30A01302F006C023000A400B7
:102C10002430A900ED30A8002408AA008831200043
:102C20007927903130002308850022088400780835
:102C3000800001302F006C07ED0024303000A3002D
:102C4000EC30A2002F006D083000A400A50124087C
:102C5000250203183C2E2508220784000030233D5E
:102C600085000008A70027082000111E352E23002C
:102C70009A003000A50A272EB030230091000230C0
:102C8000920088312000452090313000A6012408B0
:102C900026020318652E2608220784000030233DF3
:102CA00085000008A7003100D1003730D2008831FC
:102CB00020008123903120303300AB008831200088
:102CC000202090313000A60A472E0D303300AB0093
:102CD00088312000202090310A303300AB00883149
:102CE0002000202090310800503023009100033054
:102CF000920088312000452090312F005D0884002B
:102D00005E088500003FDF005D0884005E088500E6
:102D1000013100083000A601A501A401A300A6000E
:102D2000A301A401A5012F005D0884005E088500B1
:102D3000023100083000AB01AA01A901A80029084E
:102D4000FA002808F900F701F8017708A3047808C9
:102D5000A4042808A5042908A6042F005D088400FF
:102D60005E088500033100083000AB01AA01A9010B
:102D7000A8002A08FA002908F9002808F800F70135
:102D80007708A3042808A4042908A5042A08A6048F
:102D90002F005D0884005E088500043FF700F801FD
:102DA000F901FA017708300023042F00E0007808C9
:102DB000300024042F00E1007908300025042F00A2
:102DC000E2007A08300026042F00E3005D0884004A
:102DD0005E088500053100083000A401A300A400AE
:102DE000A3012F005D0884005E088500063FFA01FC
:102DF000300023042F00E4007A08300024042F0060
:102E0000E5005A30230091000330920003100C308B
:102E10003100D10088312000272390312F005F0836
:102E20003100D1003730D200883120008123903129
:102E30000D303300AB0088312000202090310A3063
:102E40003300AB0088312000202090316430230013
:102E500091000330920003100E303100D100883110
:102E60002000272390312F0063083100D100373034
:102E7000D20088312000812390312F006208310078
:102E8000D1003730D20088312000812390312F00CB
:102E900061083100D1003730D20088312000812311
:102EA00090312F0060083100D1003730D2008831D6
:102EB0002000812390310D303300AB008831200099
:102EC000202090310A303300AB00883120002020D0
:102ED00090316F30230091000330920003100E30C8
:102EE0003100D10088312000272390312F00650860
:102EF0003100D1003730D200883120008123903159
:102F00002F0064083100D1003730D2008831200012
:102F1000812390310D303300AB0088312000202018
:102F200090310A303300AB008831200020209031EE
:102F30002F005F083000E500E601200040237A30D2
:102F40002300910003309200883120004520903109
:102F5000A0315E2FE93023009100033092008831C8
:102F60002000452090312F005D0884005E08850018
:102F7000003FDF005F083000E500E601200040234D
:102F80002F00E301E201E101E001E308031DF42F5A
:102F90006208F43C031CF42F031DD22F6108233C6C
:102FA000031CF42F2D0045082F00E8002D004408D5
:102FB0002F00E7002D0043082F00E6002D004208F7
:102FC0002F00E5006308EC006208EB006108EA00EE
:102FD0006008E900983120004522903101302F002F
:102FE000E2070030E33DC52FF530230091000330A8
:0E2FF00092008831200045209031A0315E2FE4
:103000002F00DD01DE01DF01E001E101E201E3016A
:10301000E401E501E601E701E8011B30230091002E
:103020000230920088312000452098312B30230057
:1030300091000230920088312000452098312F0005
:10304000E9015C0869020318402869085A078400EE
:1030500000305B3D850000083000A2003100D10047
:103060003730D2008831200081239831203033005E
:10307000AB0088312000202098312F00E90A212858
:103080000D303300AB0088312000202098310A3009
:103090003300AB0088312000202098312F005B08DE
:1030A0003000A3002F005A083000A2002F005C0857
:1030B0003000A400A501A501013024022502031857
:1030C00071282508220784000030233D8500000870
:1030D000AA3C031D6F2801302507F8009628A50A91
:1030E0005C282508220784000030233D8500000865
:1030F000AA3C031D89284030230091000230920031
:103100008831200045209831FF30F80030009628A3
:1031100096284B3023009100023092008831200025
:1031200045209831FF30F8003000962878082F00AD
:10313000EA006A08FF3C031DA228DD30F8000730D2
:10314000F900422A6A085A07EB0000305B3DEC00A8
:103150006B0884006C088500003100080F39ED0011
:103160006D083000A200A3012308023C031CD228F2
:103170000310230DCC3E8400243085000318850AFB
:1031800000082202031DD0280310230D013ECC3E6F
:103190008400243085000318850A0008F800FA2806
:1031A000A30AB42854302300910002309200031087
:1031B0001F303100D10088312000272398313000A2
:1031C00022083100D1003730D2008831200081231D
:1031D00098310D303300AB00883120002020983129
:1031E0000A303300AB008831200020209831FF30B6
:1031F000F800300078082F00EE006E08FF3C031D39
:103200000629DD30F8000730F900422A6A085C021E
:10321000EF006C083000A3002F006B083000A20004
:103220002F006F083000A400013024022207840020
:103230000030233D85000008A50001302402A700CE
:103240002308A9002208A8002708AA008831200026
:103250007927983178083000A60026082502031D3A
:1032600035290130F8008C298C2966302300910023
:103270000230920088312000452098316F302300C1
:10328000910002309200031013303100D1008831D8
:10329000200027239831300025083100D100373035
:1032A000D20088312000812398310D303300AB00EB
:1032B00088312000202098310A303300AB0088315B
:1032C0002000202098317B302300910002309200B2
:1032D000031013303100D1008831200027239831AA
:1032E000300026083100D1003730D200883120006C
:1032F000812398310D303300AB008831200020202D
:1033000098310A303300AB008831200020209831FA
:103310000030F80030008C29F808031D9629DD30B4
:10332000F8000730F9002F00422A30002F006B0808
:1033300084006C08850000310008F039F700770E32
:103340003000A2000F30A2052208A30023080C3C85
:10335000031DAE290130F800042A042A8730230017
:103360009100023092008831200045209831983039
:103370002300910002309200031013303100D1007D
:103380008831200027239831300023083100D100F4
:103390003730D20088312000812398310D3033003E
:1033A000AB0088312000202098310A303300AB0078
:1033B0008831200020209831A43023009100023071
:1033C0009200031013303100D100883120002723F0
:1033D00098310C303100D1003730D20088312000D4
:1033E000812398310D303300AB008831200020203C
:1033F00098310A303300AB0088312000202098310A
:103400000030F8003000042AF808031D0E2ADD30D1
:10341000F8000730F9002F00422A30002F006D0815
:10342000DD0001306B073000A20000302F006C3D42
:103430003000A30002302F006F023000A4002308E8
:103440008500220884002408F80003192F2A24305C
:103450008700F030860012001E00F80B2B2A023085
:103460002F006F02DE005F14323023009100023023
:1034700092008831200045209831DD30F800073077
:10348000F9002F00B8312000A42A2F00E608031D00
:103490000C2B0630ED00D830EE006B083000AB008E
:1034A0002F006C083000AC00AD01AE01F801F9014D
:1034B000FA012B082F00EF006A083000AB002F0044
:1034C0006B083000AC002F006C083000AD00AE017E
:1034D000F801F901FA012B08A0002F00F801F90109
:1034E000FA0169083000A1002F0067083300C90005
:1034F000CA010130CC00CB01883120000421983171
:103500002F0067083300C900CA01CC018030CB000E
:1035100088312000042198312F0068083300C6004C
:103520002F0067083300C5002F0066083300C40071
:103530002F0065083300C3002430C800FD30C700E9
:10354000CA010130C90088312000212698312F009E
:1035500067083300C9000130CA00CC00CB018831B4
:103560002000042198312F0067083300C900CA01E8
:10357000CC018030CB0088312000042198312F000D
:1035800067083300C900CA010130CC00CB01883183
:103590002000042198312F0067083300C900CA01B8
:1035A000CC018030CB0088312000042198312F00DD
:1035B00068083300C6002F0067083300C5002F00DD
:1035C00066083300C4002F0065083300C3002430B0
:1035D000C800FE30C700CA010430C900883120008D
:1035E000212698312F0067083300C9000130CA0036
:1035F000CC00CB0188312000042198312F006708CE
:103600003300C900CA01CC018030CB0088312000D2
:1036100004219831DD2B2F00660BDE2B06303000A5
:10362000A200DC30A3002F006C083000AB00AC011E
:10363000AD01AE01F801F901FA012B08A4002F0039
:103640006B083000AB002F006C083000AC00AD01FF
:10365000AE01F801F901FA012B08A5002F006A0854
:103660003000AB002F006B083000AC002F006C085E
:103670003000AD00AE01F801F901FA012B08A600F7
:103680002F00F801F901FA0169083000A7002F00A6
:1036900067083300C900CA010130CC00CB01883172
:1036A0002000042198312F0067083300C900CA01A7
:1036B000CC018030CB0088312000042198312F00CC
:1036C00068083300C6002F0067083300C5002F00CC
:1036D00066083300C4002F0065083300C30025309E
:1036E000C8000230C700CA010130C900883120007B
:1036F000212698312F0067083300C9000130CA0025
:10370000CC00CB0188312000042198312F006708BC
:103710003300C900CA01CC018030CB0088312000C1
:10372000042198312F0067083300C900CA01013015
:10373000CC00CB0188312000042198312F0067088C
:103740003300C900CA01CC018030CB008831200091
:10375000042198312F0068083300C6002F00670845
:103760003300C5002F0066083300C4002F00650831
:103770003300C3002530C8000330C700CA0105303C
:10378000C90088312000212698312F0067083300B6
:10379000C9000130CA00CC00CB01883120000421CF
:1037A00098312F0067083300C900CA01CC0180306E
:1037B000CB0088312000042198312F003000A8016F
:1037C0002F0068083300C6002F0067083300C500CB
:1037D0002F0066083300C4002F0065083300C300C3
:1037E000883120001D27983178080139013C031DDC
:1037F000182C300028080A3C0318072CC830330066
:10380000C30088312000632798310E2C30000A3025
:103810003300C30088312000632798313000280826
:10382000643C0318162C2000182C3000A80AE02B4A
:1038300020000800003023009100043092008831FD
:103840002000452098312F005D0884005E08850027
:1038500000310008DF005D0884005E08850001314A
:103860000008E801E701E601E500E800E501E601FE
:10387000E7015D0884005E08850002310008ED0163
:10388000EC01EB01EA006B08FA006A08F900F701A5
:10389000F8017708E5047808E6046A08E7046B088D
:1038A000E8045D0884005E08850003310008ED012E
:1038B000EC01EB01EA006C08FA006B08F9006A08F9
:1038C000F800F7017708E5046A08E6046B08E704E6
:1038D0006C08E8045D0884005E088500043FF7007A
:1038E000F801F901FA0177086504E0007808660438
:1038F000E10079086704E2007A086804E3000F3009
:103900002300910004309200031013303100D100E5
:1039100088312000272398312F0063083100D1001F
:103920003730D20088312000812398312F0062087F
:103930003100D1003730D200883120008123983106
:103940002F0061083100D1003730D20088312000CB
:10395000812398312F0060083100D1003730D20028
:1039600088312000812398310D303300AB0088313D
:103970002000202098310A303300AB00883120002D
:10398000202098312F005F083000E500E6019031DB
:103990002000402398312D0045082F00E8002D001D
:1039A00044082F00E7002D0043082F00E6002D00FB
:1039B00042082F00E5006308EC006208EB00610894
:1039C000EA006008E900200045221D302300910034
:1039D000043092008831200045209831A0315E2FBC
:1039E0002B302300910004309200883120004520C4
:1039F00098312F005D0884005E08850000310008C2
:103A0000DF005D0884005E08850001310008E801E0
:103A1000E701E601E500E800E501E601E7015D08F0
:103A200084005E08850002310008ED01EC01EB0125
:103A3000EA006B08FA006A08F900F701F801770854
:103A4000E5047808E6046A08E7046B08E8045D0802
:103A500084005E08850003310008ED01EC01EB01F4
:103A6000EA006C08FA006B08F9006A08F800F70130
:103A70007708E5046A08E6046B08E7046C08E804C4
:103A80005D0884005E088500043FF700F801F90135
:103A9000FA0177086504E00078086604E100790817
:103AA0006704E2007A086804E300393023009100DB
:103AB00004309200031016303100D100883120000C
:103AC000272398312F0063083100D1003730D2000E
:103AD00088312000812398312F0062083100D10005
:103AE0003730D20088312000812398312F006108BF
:103AF0003100D1003730D200883120008123983145
:103B00002F0060083100D1003730D200883120000A
:103B1000812398310D303300AB0088312000202004
:103B200098310A303300AB008831200020209831D2
:103B30002F005F083000E500E601903120004023AF
:103B400098312D0045083100EE002D004408310069
:103B5000ED002D0043083100EC002D00420831003B
:103B6000EB003200A301A201A101A00190312000CD
:103B70009921983148302300910004309200883117
:103B8000200045209831A0315E2F55302300910050
:103B90000430920088312000452098312F00DF0149
:103BA000E001E101E201E301E401E5015D088400D7
:103BB0005E088500003FDF005D0884005E08850028
:103BC000013100083000E801E701E601E500E80006
:103BD000E501E601E7012F005D0884005E0885002D
:103BE000023100083000ED01EC01EB01EA006B0846
:103BF000FA006A08F900F701F8017708E504780887
:103C0000E6046A08E7046B08E8042F005D088400F6
:103C10005E088500033100083000ED01EC01EB0186
:103C2000EA006C08FA006B08F9006A08F800F7016E
:103C30007708E5046A08E6046B08E7046C08E80402
:103C40002F005D0884005E088500043FF700F8013E
:103C5000F901FA017708300065042F00E0007808C8
:103C6000300066042F00E1007908300067042F005F
:103C7000E2007A08300068042F00E3005D08840049
:103C80005E088500073100083000E601E500E60027
:103C9000E5012F005D0884005E088500083FFA01F9
:103CA000300065042F00E4007A08300066042F001D
:103CB000E5006230230091000430920003100C30C4
:103CC0003100D10088312000272398312F005F0870
:103CD0003100D1003730D200883120008123983163
:103CE0000D303300AB0088312000202098310A309D
:103CF0003300AB0088312000202098316C30230045
:103D000091000430920003100E303100D100883150
:103D10002000272398312F0063083100D10037306D
:103D2000D20088312000812398312F0062083100B1
:103D3000D1003730D20088312000812398312F0004
:103D400061083100D1003730D20088312000812352
:103D500098312F0060083100D1003730D20088310F
:103D60002000812398310D303300AB0088312000D2
:103D7000202098310A303300AB0088312000202009
:103D800098317730230091000430920003100E30F8
:103D90003100D10088312000272398312F00650899
:103DA0003100D1003730D200883120008123983192
:103DB0002F0064083100D1003730D2008831200054
:103DC000812398310D303300AB0088312000202052
:103DD00098310A303300AB00883120002020983120
:103DE0002F005F083000E500E601903120004023FD
:103DF00098318230230091000430920088312000F5
:103E0000452098313000D701D60157082F006502B0
:103E1000031CAA2F031D142F640830005602031C34
:103E2000132F2F00AA2F2F003000560DD800570D4A
:103E3000D900D80DD90DD80DD90DD80DD90DD80D63
:103E4000D90DD80DD90DC030D805DA015A083F3C3C
:103E5000031C552FF6305A078400243085000318C0
:103E6000850A5A085807E7000030593DE800FA0172
:103E700067088000F6305A07840024308500031854
:103E8000850A0008E5003100D1003730D2008831C2
:103E900020008123983120303300AB00883120008E
:103EA000202098313000DA0A262F560DF900570DE0
:103EB000FA00F90DFA0DF90DFA0DF90DFA0DF90DDB
:103EC000FA0DF90DFA0DC030F90579082F006007D9
:103ED0003000DB007A082F00613D3000DC0000304C
:103EE0002F00623D3000DD0000302F00633D3000C8
:103EF000DE002D0045083300AA002D0044083300E1
:103F0000A9002D0043083300A8002D00420833000B
:103F1000A70030005E083300AE0030005D083300BB
:103F2000AD0030005C083300AC0030005B083300AB
:103F3000AB002430B000F630AF00B2014030B10029
:103F400090312000002098313000D60A0319D70A9A
:103F5000052F2F000D303300AB00883120002020CA
:103F600098310A303300AB0088312000202098318E
:103F700089302300910004309200883120004520D0
:103F80009831A0315E2FF701F80131002D080310A0
:103F90002E18F707F70CF80CAE18F707F70CF80C0B
:103FA0002E19F707F70CF80CAE19F707F70CF80CF9
:103FB0002E1AF707F70CF80CAE1AF707F70CF80CE7
:103FC0002E1BF707F70CF80CAE1BF707F70CF80CD5
:103FD0002000080003302F00D8002030DA0009301C
:103FE000D9000430DB0090312000E2259831A03167
:023FF000AD2FF3
:104000009530230091000430920088312000452033
:10401000A0312D0045083300AA002D0044083300CC
:10402000A9002D0043083300A8002D0042083300EA
:10403000A70088312000BE27A0312F00E201E10156
:10404000E001DF010130E3000230E4000330E5006D
:104050000430E600E701E801E901EA01EB01EC01C7
:10406000ED01EE01EF013000A001A101A201A301C9
:10407000A401A501A601A701A801A901AA01AB01FC
:10408000AC01AD01AE01AF01B001B101B201B301AC
:10409000B401B501B601B701B801B901BA01BB015C
:1040A000BC01BD01BE01BF01C001C101C201C3010C
:1040B000C401C501C601C701C801C901CA01CB01BC
:1040C000CC01CD01CE01CF01D001D101D201D3016C
:1040D000D401D501D601D701D801D901DA01DB011C
:1040E000DC01DD01DE01DF01E001E101E201E301CC
:1040F000E401E501E601E701E801E901EA01EB017C
:10410000EC01ED01EE01EF013100A001A101A201DE
:10411000A301A401A501A601A701A801A901AA0163
:10412000AB01AC01AD01AE01AF01B001B101B20113
:10413000B301B401B501B601B701B801B901BA01C3
:10414000BB01BC01BD01BE01BF01C001C101C20173
:10415000C301C401C501C601C701C801C901CA0123
:10416000CB01CC01CD01CE01CF01D001D101D201D3
:10417000D301D401D501D601D701D801D901DA0183
:10418000DB01DC01DD01DE01DF01E001E101E20133
:10419000E301E401E501E601E701E801E901EA01E3
:1041A000EB01EC01ED01EE01EF013200A001A101F4
:1041B000A201A301A401A501A601A701A801A901CB
:1041C000AA01AB01AC01AD01AE01AF01B001B1017B
:1041D000B201B301B401B501B601B701B801B9012B
:1041E000BA01BB01BC01BD01BE01BF01C001C101DB
:1041F000C201C301C401C501C601C701C801C9018B
:10420000CA01CB01CC01CD01CE01CF01D001D1013A
:10421000D201D301D401D501D601D701D801D901EA
:10422000DA01DB01DC01DD01DE01DF01E001E1019A
:10423000E201E301E401E501E601E701E801E9014A
:10424000EA01EB01EC01ED01EE01EF013300A00109
:10425000A101A2012D0045083300AA002D00440849
:104260003300A9002D0043083300A8002D004208A8
:104270003300A7002F0062083300AE002F00610852
:104280003300AD002F0060083300AC002F005F0842
:104290003300AB002430B000F330AF000130B20087
:1042A000B101903120000020A031A83023009100FE
:1042B00004309200883120004520A031A0315E2FCB
:1042C000BA3023009100043092008831200045204C
:1042D000A0312F00DF01E001E101E201E301E4018F
:1042E000E5015D0884005E088500003FDF005D0891
:1042F00084005E088500013100083000E801E70114
:10430000E601E500E800E501E601E7012F005D08B0
:1043100084005E088500023100083000ED01EC01E8
:10432000EB01EA006B08FA006A08F900F701F801EE
:104330007708E5047808E6046A08E7046B08E804EF
:104340002F005D0884005E088500033100083000FE
:10435000ED01EC01EB01EA006C08FA006B08F900D2
:104360006A08F800F7017708E5046A08E6046B08B4
:10437000E7046C08E8042F005D0884005E088500EF
:10438000043FF700F801F901FA01770830006504ED
:104390002F00E2007808300066042F00E30079085F
:1043A000300067042F00E4007A08300068042F0012
:1043B000E5005D0884005E088500073100083000D4
:1043C000E601E500E600E5012F005D0884005E08D7
:1043D0008500083FFA01300065042F00E0007A08EC
:1043E000300066042F00E100C43023009100043047
:1043F000920003100C303100D100883120002723B7
:10440000A0312F005F083100D1003730D200883151
:1044100020008123A0310D303300AB008831200013
:104420002020A0310A303300AB008831200020204A
:10443000A031CE30230091000430920003100E30E2
:104440003100D100883120002723A0312F006508DA
:104450003100D1003730D200883120008123A031D3
:104460002F0064083100D1003730D200883120009D
:104470008123A0312F0063083100D1003730D200F2
:10448000883120008123A0312F0062083100D10043
:104490003730D200883120008123A0310D30330025
:1044A000AB00883120002020A0310A303300AB005F
:1044B000883120002020A031D93023009100043021
:1044C000920003100E303100D100883120002723E4
:1044D000A0312F0061083100D1003730D20088317F
:1044E00020008123A0312F0060083100D100373037
:1044F000D200883120008123A0310D303300AB0081
:10450000883120002020A0310A303300AB008831F0
:1045100020002020A0312F005F083000E500E601D8
:10452000903120004023A0312F00E601E701E8018F
:10453000E901EA01EB01EC01ED01EE01EF013000D0
:10454000A001A101A201A301A401A501A601A70147
:10455000A801A901AA01AB01AC01AD01AE01AF01F7
:10456000B001B101B201B301B401B501B601B701A7
:10457000B801B901BA01BB01BC01BD01BE01BF0157
:10458000C001C101C201C301C401C501C601C70107
:10459000C801C901CA01CB01CC01CD01CE01CF01B7
:1045A000D001D101D201D301D401D501E4302300DF
:1045B000910004309200883120004520A0312D0068
:1045C00045083100EE002D0044083100ED002D00BB
:1045D00043083100EC002D0042083100EB00883127
:1045E00020000722A031F808031D002BEA30230029
:1045F000910004309200883120004520A031BC2B6E
:104600003000DD01DC01DB01DA01DD08031DB32B25
:10461000DC08031DB32B5B082F0061020318122B6B
:104620003000B32B031D1A2B600830005A02031808
:10463000B32B2F0030005A0DF7005B0DF8005C0D16
:10464000F9005D0DFA00F70DF80DF90DFA0DF70DF3
:10465000F80DF90DFA0DF70DF80DF90DFA0DF70D2E
:10466000F80DF90DFA0DF70DF80DF90DFA0DC03032
:10467000F70577082F0062073000D60078082F0072
:10468000633D3000D70079082F00643D3000D8002A
:104690007A082F00653D3000D9002D004508330011
:1046A000AA002D0044083300A9002D004308330060
:1046B000A8002D0042083300A7003000590833003D
:1046C000AE00300058083300AD003000570833000A
:1046D000AC00300056083300AB002430B000F63098
:1046E000AF00B401B301B2014030B1008831200005
:1046F0006022A0313000DE015E083F3C031C9B2B92
:10470000F6305E078400243085000318850A00080F
:10471000E5003100D1003730D200883120008123FC
:10472000A03120303300AB00883120002020A031A0
:104730003000DE0A7C2B0D303300AB0088312000C6
:104740002020A0310A303300AB0088312000202027
:10475000A03101303000DA070318DB0A0319DC0A44
:104760000319DD0A052BFB30230091000430920071
:10477000883120004520A031A0315E2F0430230075
:10478000910005309200883120004520A0312D0095
:1047900045083300AA002D0044083300A9002D006D
:1047A00043083300A8002D0042083300A7008831D9
:1047B0002000BE27A0312F00E201E101E001DF016E
:1047C0002D0045083300AA002D0044083300A9003D
:1047D0002D0043083300A8002D0042083300A70035
:1047E0002F0062083300AE002F0061083300AD00D7
:1047F0002F0060083300AC002F005F083300AB00CF
:104800002430B000F330AF00B401B301B201043082
:10481000B100883120006022A031123023009100C5
:104820000530920003100B303100D1008831200098
:104830002723A0312F0063083100D1003730D20088
:10484000883120008123A03120303300AB00883133
:1048500020002020A0312F0064083100D100373023
:10486000D200883120008123A03120303300AB00FA
:10487000883120002020A0312F0065083100D100B0
:104880003730D200883120008123A031203033001E
:10489000AB00883120002020A0312F0066083100B5
:1048A000D1003730D200883120008123A0310D3073
:1048B0003300AB00883120002020A0310A303300C3
:1048C000AB00883120002020A0312330230091004C
:1048D00005309200883120004520A031A0315E2FA4
:1048E00030302300910005309200883120004520AF
:1048F000A0312D0045083300AA002D0044083300E4
:10490000A9002D0043083300A8002D004208330001
:10491000A70088312000BE27A0312D0049083300B0
:10492000AA002D0048083300A9002D0047083300D5
:10493000A8002D0046083300A70088312000BE27BC
:10494000A0312F00E201E101E001DF01E601E50114
:104950001030E400E3012D0045083300AA002D00CB
:1049600044083300A9002D0043083300A8002D009F
:1049700042083300A7002F0062083300AE002F006A
:1049800061083300AD002F0060083300AC002F0039
:104990005F083300AB002430B000F730AF00B40143
:1049A000B3010130B200B101883120006022A03192
:1049B0002D0049083300AA002D0048083300A90043
:1049C0002D0047083300A8002D0046083300A7003B
:1049D0002F0066083300AE002F0065083300AD00DD
:1049E0002F0064083300AC002F0063083300AB00D5
:1049F0002430B000F730AF000130B200B101903187
:104A000020000020A0313C302300910005309200AE
:104A1000883120004520A031A0315E2F7C3023005A
:104A2000910005309200883120004520A0312F00F0
:104A3000DF01E001E101E201E301E401E501E6015A
:104A4000E701E801E901EA01EB01EC01ED01EE010A
:104A5000EF013000A001A101A201A301A401A50161
:104A6000A601A701A801A901AA01AB01AC01AD01F2
:104A7000AE01AF01B001B101B201B301B401B501A2
:104A8000B601B701B801B901BA01BB01BC01BD0152
:104A9000BE01BF01C001C101C201C301C401C50102
:104AA000C601C701C801C901CA01CB01CC01CD01B2
:104AB000CE012D0045083300AA002D004408330024
:104AC000A9002D0043083300A8002D004208330040
:104AD000A700AE01AD01AC01AB012430B000EF3056
:104AE000AF00B2014030B100903120000020A03171
:104AF0008831A823A0312F005D0884005E0885005E
:104B0000003100083000CF00E500E60190312000C0
:104B10004023A0318A302300910005309200883173
:104B200020004520A031A0315E2F780831003A08DE
:104B3000D4006430D50088312000D127A031770817
:104B40003100BA0078083030031DAD2DBB1CB92DE3
:104B5000BB19B92D3B1A2030B02DBB113B123B14B1
:104B6000F80778083300AB00883120002020A031FE
:104B700031003A08D4000A30D50088312000D1270E
:104B8000A03177083100BA0078083030031DCE2DEF
:104B9000BB19D72D3B1CD72D3B1A2030F8077808BE
:104BA0003300AB00883120002020A03131003030AC
:104BB000BA073A083300AB00883120002020A0312A
:104BC00008002F006908ED006808EC006C08013946
:104BD000F700FA0142137718421703106D0CEF002B
:104BE0006C0CEE000139F700FA01C2137718C217F6
:104BF0006D0CEF006C0CEE00EF0CEE0C3F30EF058F
:104C00006E080139F700FA014310771843146D0C50
:104C1000EF006C0CEE00EF0CEE0CEF0CEE0C1F3006
:104C2000EF056E080139F700FA01C3107718C314B5
:104C3000EC016C080139F800421278184216031092
:104C40006C0C0139F800C2127818C216EB01EA01A7
:104C50006A08F8006B08F900200008008318342E59
:104C6000253085009B308400F701F801F901FA0135
:104C70003100EB01EC01ED01EE016708660465040B
:104C800064040319732E2030EF000310E00DE10DD2
:104C9000E20DE30DEB0DEC0DED0DEE0D67086E0270
:104CA000031D5C2E66086D02031D5C2E65086C02F8
:104CB000031D5C2E64086B02031C6D2E6408EB025E
:104CC0006508031C650FEC026608031C660FED0205
:104CD0006708031C670FEE020314F70DF80DF90DBA
:104CE000FA0DEF0B452E6B0880006C08813F6D08B4
:104CF000823F6E08833F200008002F005A0884007E
:104D00005B088500003FDC009330230091000630F3
:104D10009200883120004520A031B6302300910058
:104D20000630920003100C303100D1008831200091
:104D30002723A0312F005C083100D1003730D2008A
:104D4000883120008123A031BD302300910006303E
:104D50009200031004303100D10088312000272355
:104D6000A0312F005C08003A20000319E82E103A09
:104D70000319F22E113A0319F32E033A0319F42EF4
:104D8000923A0319F52E013A0319FF2E033A03193B
:104D9000092F013A0319132F073A03191D2F023A5D
:104DA0000319252F013A03192D2F0D3A0319352F19
:104DB000053A03193D2FEE3A0319452F033A03191B
:104DC000492F013A03194D2F033A0319512F552F3B
:104DD0002F005B08DE005A08DD0090312000742EA1
:104DE000A0315E2F5E2F5E2F5E2F2F005B08DE004E
:104DF0005A08DD0090312000AA2FA0315E2F2F002D
:104E00005B08DE005A08DD00983120001A2CA03122
:104E10005E2F2F005B08DE005A08DD00983120006D
:104E2000F02CA0315E2F2F005B08DE005A08DD0059
:104E300098312000C52DA0315E2F2F005B08DE00C9
:104E40005A08DD00200000285E2F2F005B08DE00DE
:104E50005A08DD00200060295E2F2F005B08DE006D
:104E60005A08DD002000BE2B5E2F2F005B08DE00FD
:104E70005A08DD002000702C5E2F2F005B08DE003A
:104E80005A08DD0020000E2D5E2FA8310020A03131
:104E90005E2FA8310020A0315E2FA8310020A03164
:104EA0005E2FA8310020A0315E2FC030230091007A
:104EB00006309200883120004520A031CC302300FC
:104EC000910006309200883120004520A031A031A9
:104ED0008C2FFB3023009100063092008831200097
:104EE0004520A03106302300910007309200883120
:104EF00020004520A0318831B327A0310230A9001D
:104F000003302F005607D8000030573DD900DB0092
:104F10005808DA0020007D2E8831E827A031F808F3
:104F20000319952F0630A900972F0430A900A83146
:104F3000222F133023009100073092008831200087
:104F40004520A0311D3023009100073092008831A8
:104F500020004520A0319831EA2FA0312908063CD5
:104F6000031DBF2F2C3023009100073092008831A1
:104F700020004520A0310130F800C12FC12F0030A2
:104F8000F800A831132F2F003B083A02031DD72F3A
:104F90000E3023009100023092008831200045201D
:104FA000A0310030F800F900F12FF12F2F003A085E
:104FB0003100AC0001302F003A070F39BA00310040
:104FC0002C08AD000930AE0098312000C327A03175
:104FD00078083A3EF8002430FA000318FA0A7A08F2
:064FE000F900B831412880
:105000009D3023009100033092008831200045201C
:10501000A83164302F00DD00A4302300910003305C
:10502000920003100E303100D10088312000272378
:10503000A8312F005D083100BA001B30BB00A03141
:1050400020009525A8310D303300AB0088312000B9
:105050002020A8310A303300AB0088312000202006
:10506000A83121000E1022000E142030F80021007B
:105070001D08833978049D000F30F8001F08F039AF
:1050800078049F000D30F700F70B44282F00E9014A
:10509000E801A0312000E125A83179082C00B300F7
:1050A0007808B2000C30F80021001D08833978041C
:1050B0009D000F30F8001F08F03978049F000D3074
:1050C000F700F70B61282F00E901E801A03120006B
:1050D000E125A83179082C00B5007808B40000302B
:1050E000F80021001D08833978049D000F30F80076
:1050F0001F08F03978049F000D30F700F70B7E2869
:105100002F00E901E801A0312000E125A83179084C
:105110002C00AF007808AE002F00E301E201E308A5
:10512000031D3B295D08620203183B296208220027
:1051300099008530F700F70B9B280030F80021001C
:105140001D08833978049D000F30F8001F08F039DE
:1051500078049F000D30F700F70BAC2803102F00E8
:10516000620DE600630DE7000310660DF900670DA0
:10517000FA0079083A3EE60020307A3DE700E9017E
:10518000E801A0312000E125A8312F006708850043
:1051900066088400780880007908813F0430F800B0
:1051A00021001D08833978049D000F30F8001F0886
:1051B000F03978049F002F00E101E001DF01DE01FA
:1051C000E4016408093C031CF9280D30F700F70BD3
:1051D000E728E901E801A0312000E125A83178089D
:1051E0002F00DE077908DF3D0030E03DE13DE40AB5
:1051F000E128831061083100E3002F0060083100CE
:10520000E2002F005F083100E1002F005E0831004E
:10521000E000E701E601E5010A30E400A0312000EA
:105220002E26A8317A082F00E1007908E0007808DE
:10523000DF007708DE000D30F700F70B1D290310A3
:10524000620DE600630DE7000130E6070030E73D40
:105250000310660DF900670DFA0079083A3E8400E4
:1052600020307A3D85005E0880005F08813FE20AB9
:105270000319E30A8F28AE30230091000330920017
:10528000883120004520A8310030F80021001D0899
:10529000833978049D000F30F8001F08F039780436
:1052A0009F009D149D1852292C00B10121001C085B
:1052B0002C00B0002F005D08E600F63023009100BE
:1052C00001309200883120004520A8312F00E701ED
:1052D000660867020318AC2A67083100AD00033086
:1052E000AE0098312000C327A83192307807F8002B
:1052F0002230FA000318FA0A78082F00EA007A0828
:10530000EB000310670DFA01F9000310F90DFA0D17
:1053100079083A3E840020307A3D85000008EC0090
:1053200001310008ED003F31ED0CEC0CED0CEC0C04
:10533000ED0CEC0CED0CEC0C0F30ED056C08F700EF
:10534000FA017A08ED006B0885006A0884006C0891
:10535000800067083100AD000330AE0098312000B6
:10536000C327A831923078078400223085000318C3
:10537000850A00082F00EA003100D1003730D20042
:10538000883120008123A83120303300AB008831E0
:1053900020002020A8312F0067083100AD00033025
:1053A000AE0098312000C327A83101307807923E23
:1053B000F8002230FA000318FA0A78082F00EA00F1
:1053C0007A08EB000310670DFA01F9000310F90DDC
:1053D000FA0D79083A3E840020307A3D85000008B5
:1053E000EC0001310008ED003F310F30EC05ED011C
:1053F000EC0DED0DEC0DED0DEC0DED0DEC0DED0DE1
:10540000F030EC050310670D013EFA01F9000310BE
:10541000F90DFA0D79083A3E840020307A3D850076
:105420000008EE0001310008EF003F316F08EE0088
:10543000EF016E080F39F700FA0177086C04F700E6
:105440007A086D04FA007708EC007A08ED006B0822
:1054500085006A0884006C08800067083100AD0090
:105460000330AE0098312000C327A83101307807FF
:10547000923E8400223085000318850A00082F0020
:10548000EA003100D1003730D2008831200081237A
:10549000A83120303300AB00883120002020A83113
:1054A0002F0067083100AD000330AE0098312000B6
:1054B000C327A83102307807923EF8002230FA0064
:1054C0000318FA0A78082F00EA007A08EB000310A4
:1054D000670D013EFA01F9000310F90DFA0D790884
:1054E0003A3E840020307A3D85000008EC0001310E
:1054F0000008ED003F316C08F700FA017A08ED0072
:105500006B0885006A0884006C0880006708310019
:10551000AD000330AE0098312000C327A83102301F
:105520007807923E8400223085000318850A00081F
:105530002F00EA003100D1003730D200883120003E
:105540008123A83120303300AB0088312000202097
:10555000A8312F00E70A68290D303300AB008831ED
:1055600020002020A8310A303300AB008831200011
:105570002020A83121000E1022000E10200008006B
:10558000203031004F1E3030D0004E08F700CE1FC3
:10559000D12AF709F70A7708CE002D30D000CF17AF
:1055A0004F144E08D4006430D50088312000D12734
:1055B000A83177083100CE0030307807D1004E088E
:1055C000D4000A30D50088312000D127A8313030EE
:1055D00077073100D30030307807D2005008F70049
:1055E000303051020319F82ACF14CF1B4F150C2B62
:1055F0005008D1002030D000303052020319042B63
:105600004F14CF1BCF140C2B031D4F14031D0C2B59
:105610005108D2002030D1004F19132BCF181B2B6B
:105620004F18232B2B2B50083300AB008831200060
:105630002020A831310051083300AB008831200010
:105640002020A831310052083300AB0088312000FF
:105650002020A831310053083300AB0088312000EE
:105660002020A83108003100D301D401D501D60192
:10567000D701D801D901DA01DB01D208031D512B72
:105680000230D6004030D500D401D3010230DA0018
:105690005030D9000F30D800FF30D7008030DB0009
:1056A0009B2B520B652B0230D6005030D5001030AA
:1056B000D400D3010230DA005030D9001F30D800B6
:1056C000FF30D7008130DB009B2B5208023C031DCA
:1056D0007B2B0230D6005030D5006030D400D3018F
:1056E0000230DA005130D9006F30D800FF30D700D7
:1056F0008330DB009B2B5208033C031D912B0230AF
:10570000D6005130D5007030D400D3010230DA0019
:105710005130D9007F30D800FF30D7008430DB0013
:105720009B2BFF30D600D500D400D300DA00D9007F
:10573000D800D700DB00D330F8000830F900B031D2
:105740002000122804083100D8003B30DF009A30D6
:10575000DE00CA30DD00DC010A30DA0083142530B7
:105760008500813084005408E3005308E2005208A9
:10577000E1005108E0005F08E7005E08E6005D0810
:10578000E5005C08E400A03120002E26A83178084E
:10579000F708031DE22B31005A08013A031DD22BF2
:1057A0002000E22B58080319E42B0F395A02031981
:1057B000DB2B0318EE2BD81BEE2B581BE42B2030D1
:1057C000E52B20003100D8013030F707770833008F
:1057D000AB00883120002020A831310083105F0801
:1057E000E3005E08E2005D08E1005C08E000E7011C
:1057F000E601E5010A30E400A03120002E26A831A0
:105800007A083100DF007908DE007808DD007708CB
:10581000DC00DA0BAE2B200008003100D008031D9D
:105820007F2C0330D800E401E501F801F901FA0109
:105830005508D900E501F801F901FA015408DA0028
:10584000F801F901FA015308DB0051083300C900DF
:10585000CA010130CC00CB01883120000421A831DD
:10586000310051083300C900CA01CC018030CB009F
:10587000883120000421A831310052083300CC00C7
:10588000310051083300CB00310050083300CA000A
:1058900031004F083300C9002530CE008830CD00DC
:1058A000D0010430CF002530D2008730D100D6019E
:1058B000D501D4010130D300883120003321A83133
:1058C0000230F700F70B622C000031005108330062
:1058D000C9000130CA00CC00CB018831200004216E
:1058E000A831310051083300C900CA01CC01803011
:1058F000CB00883120000421A831F52C3100500B59
:10590000F62C1330DC00E301E401E501F801F901B4
:10591000FA015608DD00E401E501F801F901FA0198
:105920005508DE00E501F801F901FA015408DF002D
:10593000F801F901FA015308E00051083300C900E9
:10594000CA010130CC00CB01883120000421A831EC
:10595000310051083300C900CA01CC018030CB00AE
:10596000883120000421A831310052083300CC00D6
:10597000310051083300CB00310050083300CA0019
:1059800031004F083300C9002530CE008C30CD00E7
:10599000D0010530CF002530D2008730D100D601AC
:1059A000D501D4010130D300883120003321A83142
:1059B0000230F700F70BDA2C0000310051083300F9
:1059C000C9000130CA00CC00CB018831200004217D
:1059D000A831310051083300C900CA01CC01803020
:1059E000CB00883120000421A83131005708F8008D
:1059F000B0312000BE2A5B302300910006309200B7
:105A0000883120004520A83131002F08B7002E082A
:105A1000B6002D08B5002C08B40037083302031C6B
:105A20004D2D031D232D36083202031C4D2D031D61
:105A3000232D35083102031C4D2D031D232D300865
:105A4000340203184D2D2D0049083100EE002D00C1
:105A500048083100ED002D0047083100EC002D0012
:105A600046083100EB0037083200A3003100360849
:105A70003200A200310035083200A10031003408A4
:105A80003200A000903120009921A831103031005F
:105A9000B5070030B63DB73D0D2DB83120000029C7
:105AA0003100B8012D08F039B900BA01BB01300846
:105AB0002C07C40031082D3DC50032082E3DC6001C
:105AC00033082F3DC700FF30C4070F30C53D0030FD
:105AD000C63DC73DBC014508F039BD00BE01BF0150
:105AE0003B08C3003A08C2003908C1003808C000AA
:105AF00043083F02031CCE2D031D8E2D42083E029B
:105B0000031CCE2D031D8E2D41083D02031CCE2DFE
:105B1000031D8E2D3C0840020318CE2D430837028A
