:06000000B8312B2C0000BA
:0800080083018031200077081C
:10001000A0007808A1007908A2007A08A3002300B4
:1000200011082000A400230012082000A5002300CE
:1000300013082000A600230014082000A700850153
:1000400091308400001C2628111846288501913023
:100050008400801E2D28911A48282008F7002108C6
:10006000F8002208F9002308FA0024082300910070
:10007000200025082300920020002608230093007A
:1000800020002708230094000900200080314A281E
:1000900080316B2896018030970012309600000066
:1000A0000130B1070318B20A0319B30A0319B40ADD
:1000B000111080312D28D434ED3272104937693A4D
:1000C000E930EC34FA320D0500008921EF36703644
:1000D000653AE5060A006E28281C812859081F3C4D
:1000E000031C81285908D90A1F39193E8400203081
:1000F00085000318850A911E7B28230019088000BB
:100100002000911280312D28D520522AA024EE34CF
:10011000F4346136693DE5060A008921EF36703610
:10012000653AE5060A00CD24D329C9274E10462694
:10013000C12948104937693AE930EC34FA320D05E3
:1001400000010923EC307334A0347310EE377410BF
:10015000E3376E37E531F432E4060A0089294D238E
:100160002010D0244326CF23A02AF332A021EF3A37
:100170006E3A65392010201020103A10303C2518B6
:100180003826D8060A0089294D232010D02443267A
:10019000CF232026EF377010C3377537F432721033
:1001A000201020103A10303C2518322C0D0500018B
:1001B00089294D232010CD22C1292010A02AF332F5
:1001C000A021EF3A6E3A65392010201020103A1025
:1001D000303C25183826D8060A0089294D232010DE
:1001E000CD22C12920102026EF377010C337753774
:1001F000F4327210201020103A10303C2518322CA6
:100200000D0500018926C9294610D0244326CF2395
:10021000A02AF332A021EF3A6E3A6539201020105F
:1002200020103A10303C25183826D8060A008926B6
:10023000C9294610D0244326CF23A02AEE316F3897
:10024000F9326410C3377537F43272103A10303C0B
:1002500025183826D8060A008926C9294610D02430
:100260004326CF232026EF377010C3377537F4327B
:100270007210201020103A10303C2518322C0D0539
:1002800000018926C9294610D0244326CF23A02B5C
:10029000F234F432A021EF3A6E3A65392010201082
:1002A0003A10303C2518322C0D0500018926C92949
:1002B0004610CD22C1292010A02AF332A021EF3A06
:1002C0006E3A65392010201020103A10303C251865
:1002D0003826D8060A008926C9294610CD22C12908
:1002E0002010A02AEE316F38F9326410C337753709
:1002F000F43272103A10303C25183826D8060A001D
:100300008926C9294610CD22C12920102026EF3781
:100310007010C3377537F4327210201020103A1065
:10032000303C2518322C0D0500018921EF3670363E
:10033000653AE5060A00CD34F339E9376E104636E2
:10034000E1396810E93920376F3AA0316F37EE3262
:10035000633A65320D0500005B28C921CC27C72E02
:10036000201D2000CD34F339E9376E104636E139CF
:100370006810E93920376F3AA0316F37EE32633AAF
:1003800065320D0500004122371A3918A024EE34D9
:10039000F4346136693DE5060A008921EF3670368E
:1003A000653AE5060A00892BD224D422201DA0122A
:1003B0006410A812301A4C2CA9060A008929C528F5
:1003C0002010201DA0126410A812301A4C2CA9066F
:1003D0000A00892044225210201DA0126410A81285
:1003E000301A4C2CA9060A0009284D1020102010A4
:1003F0003A102532201425183426D8140D05000192
:100400008929C820C42757103A10253220142518EE
:100410003426D8140D050001892BC520CB1754298B
:1004200049103A102532201425183426D8140D0509
:10043000000109294127C72220103A102532201433
:1004400025183426D8140D05000189214F2249278B
:1004500047103A102532201425183426D8140D05DB
:100460000001892D4122371A39185D10C634EE304B
:100470006C10C337ED36613764103A1025183426F6
:10048000D8060A000D05533A61397410ED30EB328D
:100490005F39E531E534F632DF31EF36ED306E327B
:1004A0000D050001892DC227D3295D103E1F3E1086
:1004B000000145376410ED30EB325F39E531693BBF
:1004C000E52FE337ED366137E4068A060A00F33498
:1004D00067376136A0326E32A03B693A6810532309
:1004E000C4060A00E437EE137410E6346E32A02915
:1004F00046220D05000089163E104937F630EC34CF
:1005000064104639E136651049222039E531E53479
:10051000F632641DA012D8060A0089163E1043293F
:1005200043106539F237F2100D05000189042D1FC3
:100530002039E531E534F63264104329431DA01219
:10054000D8060A0089042010A0316F36EC32633AD5
:10055000A021D221201DA012D8060A0089163E1023
:100560004937F630EC346410E432F634E332A02438
:100570004410F232E332693B65320D050001890413
:100580002D1F2039E531E534F632641D201020108E
:10059000A012D8060A0089042010A0267910E4329F
:1005A000F634E332A024441DA012D8060A00892D97
:1005B000C227D3295D103C1E3C10000189163E1055
:1005C0004639E136651049223A10252C0D05000107
:1005D00089163E10C3376E3A65377410F334FA3219
:1005E0003A1025320D050000533A61397410D326B4
:1005F0004610F53969376710F232F132733AA03993
:10060000E530F13A6537E3320D0500014539F2373F
:10061000F2102029E531E534F634EE33A031EF361F
:10062000ED306E32A034EE316F37F334733A653704
:100630007410F7347434203AE8322032E539E93363
:10064000EE060A00D3264610F5396510F232F13A6B
:10065000E53974106136EC37F732E4060A00D32628
:100660004610F5396510F232F13AE5397410E4328A
:10067000EE3C65320D050001D23274397910F23248
:10068000F13AE5397410F4372021CF295310D024E2
:10069000C3060A004539F237F2102029E531E53466
:1006A000F634EE33A031EF36ED306E32A034EE3159
:1006B0006F37F334733A65377410F7347434203A73
:1006C000E8322032E539E933EE060A004537641096
:1006D000D3264610F53969376710F232F132733A92
:1006E000A039E530F13A6537E3320D050000C9273E
:1006F000A024EE34F4346136693DE5060A00892110
:10070000EF367036653AE5060A0041224310493754
:10071000693AE930EC34FA320D0500018921EF36EF
:100720007036653AE5060A00533A61397410D32BE6
:10073000C522D0060A008929F7326538A039F4327B
:1007400070103A10A53A0D05000145274410D32B2F
:10075000C522D0060A00533A61397410C324C72950
:100760002032613A6110E3376E3B6539F3346F37FD
:100770000D058000D3264610E430F4302036E939E8
:100780007410E93920337536EC10A1100D05000006
:10079000D3264610E430F4302036E9397410E939B4
:1007A000A0326D38F43C0D050000533A61397410E5
:1007B000CD27C4222022D526CD2C0D050001892667
:1007C0004F224510201020103A102518322C0D050C
:1007D000000109286139E136311020103A10303C0F
:1007E00025183826D8060A0009286139E136321062
:1007F00020103A10303C25183426D8060A00453718
:100800006410CD27C4222022D526CD2C0D05000052
:10081000533A61397410CD27C422A026C520D32AAB
:10082000D2220D050000533A61397410CD27C4223D
:10083000A026C520D32AD222202B6F36F430E732EF
:100840000D050000533A61397410D32BC522D00630
:100850000A008929F7326538A039F43270103A104D
:10086000A53A0D05800145274410D32BC522D0069B
:100870000A00F4326D385F3A6F383A10252C0D05B6
:100880000001F4326D385F316F3A3A10252C0D05B6
:10089000000070325F3B6136F5323A10252C0D05B1
:1008A0000000E334E7395F3B6136F5323A10252C1E
:1008B0000D050000E33A72396537F42FF630EC3A53
:1008C000651DA012D8060A00F6376C3AE133E52F11
:1008D000F630EC3A651DA012D8060A00533A613989
:1008E0007410CD27C422202AC5295410492B0D0588
:1008F00000018929F7326538A039F43270103A10B6
:10090000A53A0D050001533A613974104636E139B4
:1009100068104539E13965104136EC060A00453763
:1009200064104636E13968104539E13965104136C1
:10093000EC060A00533A613974104636E139681002
:100940004539E13965103110D332633A6F390D05FD
:1009500000018929E531F437721041326439E539F3
:10096000731D2018F812301C4C2C0D050001453762
:1009700064104636E13968104539E13965103110A7
:10098000D332633A6F390D050000533A6139741060
:100990004636E1396810C337F03CA018A029E5318C
:1009A000F437F2060A0089297531F332633A6F3958
:1009B000A0206432F232F3393A10303C2518382640
:1009C000D8060A00453764104636E1396810C33747
:1009D000F03CA018A029E531F437F2060A00533A9A
:1009E000613974104636E13968105739693A651033
:1009F000C432ED370D05000189264F224510201025
:100A000020103A102518322C0D050001892064327F
:100A1000F232F33920103A10303C25183826D80627
:100A20000A000928E131EB327427F5363A10303CE0
:100A300025183426D8060A005739693A6510C4309B
:100A4000F4300D050001453764104636E139681071
:100A50005739693A6510C432ED370D050000533A35
:100A6000613974104636E13968105739693A6510B2
:100A7000B435C23CF432A0297531F332633A6F3990
:100A80000D050001453764104636E13968105739C5
:100A9000693A6510B435C23CF432A0297531F3329D
:100AA000633A6F390D050000533A613974104636C8
:100AB000E1396810D23261320D05000189264F22DA
:100AC0004510201020103A102518322C0D05000179
:100AD00089206432F232F33920103A10303C251864
:100AE0003826D8060A000928E131EB327427F5369A
:100AF0003A10303C25183426D8060A00D22241226A
:100B00002022412AC1060A00CD34F339E9376E109C
:100B10004636E1396810E93920376F3AA0316F372E
:100B2000EE32633A65320D050001453764104636F2
:100B3000E1396810D23261320D050000533A613953
:100B400074104636E1396810D2326132A020643226
:100B5000F232F3390D050001D23261322022613ABE
:100B6000611DA012301958102518322CA01230190E
:100B700058102518322C0D050001453764104636F3
:100B8000E1396810D2326132A0206432F232F33996
:100B90000D050000533A613974104636E13968108A
:100BA000D3264610C337F03C0D05000145376410CD
:100BB0004636E1396810D3264610C337F03C0D05A0
:100BC0000000533A613974104636E1396810D32673
:100BD0004610D23261320D050001D232613220223C
:100BE000613A611D20000D05453764104636E13934
:100BF0006810D3264610D23261320D050000533AF8
:100C0000613974104636E1396810D32646105739D9
:100C1000693AE5060A00453764104636E13968103E
:100C2000D32646105739693AE5060A00533A613926
:100C300074104636E139681041326439E539731071
:100C4000D232F332F4060A00453764104636E139F1
:100C5000681041326439E5397310D232F332F40648
:100C60000A000D05DF2FDF2FDF2FDF2FDF2FDF2F14
:100C7000DF2FDF2FDF2FDF2F0D050001DF2FDF2913
:100C8000F430723AA0316F38F92FE430F430DF2FAE
:100C90000D050001533A61397410DB12641074348D
:100CA0005D10E430F430A0316F38F9068A060A008E
:100CB0000D05DF2FDF226E32A0316F38F92FE430BF
:100CC000F430DF2FDF2F0D050001DF2FDF2FDF2FA7
:100CD000DF2FDF2FDF2FDF2FDF2FDF2FDF2F0D05A0
:100CE0000D0500004937A0396D33A036E939F334DA
:100CF0006F372032613A6110733A613974102010F5
:100D000061326439E539731DA0124C2C0D050001C8
:100D10004937A0396D33A036E939F3346F372032C3
:100D2000613A611065376410201020106132643917
:100D3000E539731DA0124C2C0D0500014937A02682
:100D4000C92920234D105739693A6510F337753991
:100D5000E3322032613A611061326439E539731D42
:100D6000A0124C2C0D0500014937A026C9292023CB
:100D70004D105739693A6510E430F430A039693DB7
:100D800065102010201020102010201DA012EC3A19
:100D90000D050D050002D334FA32A030F232611095
:100DA000F23261320D050001F5396532DF39693DF6
:100DB00065103D1025367510A839F2312018F8124B
:100DC000301C4C2CA9060A00EC376F38A031EF3AE2
:100DD0006E3A3D1025322010A839F2312018F81251
:100DE000301C4C2CA9068A060A0057396138203A73
:100DF000F234E733653965323A10D232F332743A5D
:100E000069376710E430F430DF3BF234F432DF301E
:100E100064327210F437A039F430723A0D050000D4
:100E20005538E430F432A039693D65106139E53058
:100E30000D050001F5396532DF39693D65103D105A
:100E40002536E4060A00EC376F38DF31EF3A6E3AA8
:100E5000A01EA012F5068A060A000D05DF2FDF2F5F
:100E6000DF2FDF2FDF2FDF2FDF2FDF2FDF2FDF2F12
:100E7000DF2FDF2FDF2FDF2FDF2F0D05DF2FDF2FFE
:100E8000DF29F430723AA032F832E33AF432DF3636
:100E9000E939F3346F37DF2FDF2FDF068A060A00C8
:100EA000C337ED366137641049223A10252C0D0501
:100EB0000D05000189042D1FA0246E3B61366932A7
:100EC000A0214D22A024C4100D0500010D05DF2F27
:100ED000DF2FDF2F45376410653CE531753AE52F8C
:100EE000ED34F339E937EE2FDF2FDF2FDF068A2FBE
:100EF000DF2FDF2FDF2FDF2FDF2FDF2FDF2FDF2F82
:100F0000DF2FDF2FDF2FDF2FDF2FDF2FDF2F0D056D
:100F10000000533A61397410653CE531753AE52FAC
:100F2000E337ED366137E4060A0089163E1055387E
:100F3000EC34EE35A031EF36ED306E320D050001A8
:100F40000910201054396137F336693AA020E3358F
:100F5000EE37EC326732E5060A0089163E10533A46
:100F6000613AF539A031E832E3350D050001091089
:100F7000201054396137F336693AA026C929A026D2
:100F8000C32AA029F430F43AF3060A00E634EE341A
:100F900073346532A0346E10733A613AF539DF313B
:100FA000E832E3350D05000089163E10D3264610C1
:100FB000613BE134EC30623665106334E531EB06B9
:100FC0000A000910201054396137F336693AA0201D
:100FD000E335EE37EC326732E5060A0089042D1F4F
:100FE000A0306C36EF3BE4060A0089042D1F203246
:080FF0006537F932E4060A003E
:101000000D050D050D05BD1EBD1EBD1EBD1EBD1E63
:10101000BD1EBD1EBD1EBD1EBD1EBD1EBD1EBD1EF8
:10102000BD1EBD1EBD1EBD1EBD1EBD1EBD1EBD1EE8
:10103000BD1EBD1EBD1EBD1EBD1EBD1EBD1EBD1ED8
:10104000BD1E0D0500015434E939A0347310CD27BD
:10105000CD24CA24A021C9235310D02443104221F7
:101060004D10E6377210CD24D31B5F21C2263317F3
:101070000D050001CC30733AA03A7032613A653206
:10108000A0376E10A539A012731620317910493798
:10109000EF3A65170D050D050001B21B2D257537BB
:1010A0002D193500B1193A18331DB31A0001DF2F7D
:1010B000DF2FC324C7292028C921A029F430723A80
:1010C000A027F032F230F4346F37DF2FDF2FDF0646
:1010D0008A060A00F730693A69376710E6377210F6
:1010E000C227D3292028C921A031EF36ED306E3236
:1010F00000010D05F730693A69376710E63772105D
:10110000C227D3292028C921A031EF36ED306E3215
:1011100000010D050D05BD1EBD1EBD1E0D050D05F5
:10112000C634EE34733465322038F237E332F339A3
:10113000AE068A2BE1347410E6377210C227D32929
:101140002028C921203A75396E106F336610ED32B0
:10115000000145376410ED3069370D0500002100AE
:101160000D1222000D120830F800B6280000F81702
:10117000C928F8132F00C30C220003180D16031CF6
:101180000D127817C9287813F80BBA28C728000061
:101190000D1684308400840BCB280000F81BB9287E
:1011A000781BC328200008000B088B132300951719
:1011B000151400000000891B8B1713087F390319D1
:1011C00020292F00C000230011082F00C100230098
:1011D00012082F00C2004008C3002000AF202F00DB
:1011E0004108230091002F004208230092000B08C1
:1011F0008B139517151400000000891B8B17130D16
:10120000140D7F39031920292F00C0002300110875
:101210002F00C100230012082F00C2004008C300A5
:101220002000AF202F004108230091002F0042082A
:1012300023009200910A0319920A2000D428230067
:10124000200008000B088B132300951715140000CD
:101250000000891B8B170318562913087F392C00AF
:10126000E100230011082C00E200230012082C00EA
:10127000E30061082F00C3002000AF202C006208AB
:10128000230091002C006308230092000B088B13AD
:101290009517151400000000891B8B172C00DE0B1E
:1012A00052295429230056297A292300130D140D9D
:1012B0007F392C00E100230011082C00E2002300FC
:1012C00012082C00E30061082F00C3002000AF20AB
:1012D0002C006208230091002C0063082300920078
:1012E000910A0319920A03102C00DE0B78297A293F
:1012F00020002229200008007730230091000330CD
:1013000092002000D4202100101022001010210093
:101310000C1222000C127F30230091000330920047
:101320002000D420B8310A2D8530230091000330ED
:1013300092002000D4207830210099001E109E10C9
:101340001E11003023008C0090008D00EB308F00C8
:1013500021001E129E161E179E131D14903022008F
:101360009800323099008E302300910003309200B3
:101370002000D420B8310D2D84302300910000309E
:1013800092002000D42021009116C0308B048D30B3
:1013900023009100003092002000D420B831102D9D
:1013A0005B3023009100003092002000D420111007
:1013B0008F30980099019601803097001230960086
:1013C000000021001114C0308B046530230091000F
:1013D000003092002000D420B831132DC3302300F8
:1013E0009100013092002000D4202800631664147C
:1013F000E410E3166313E3130130F600FB00FC0175
:10140000FD00FE01E201CD30230091000130920089
:101410002000D420B831162D2F005D080739F700C1
:101420005D0CF800F80CF80C1F30F80578085F0721
:1014300084000030603D8500F801F80AF70A212A8F
:10144000F80DF70B202ADE080319292A78088004F2
:101450002C2AF809780880052000080024001108CB
:1014600030002C0824009100140C031C342A1108AD
:10147000F700200008002400110830002C08240088
:101480009100140C031C412A1108F70020000800E9
:101490002F005D08003A20000319522A013A03196F
:1014A000C22A332B2F00EC01EB016C086402031CF1
:1014B0007A2A031D5F2A63086B0203187A2A6108DF
:1014C0006B07840062086C3D850000083000A800AE
:1014D0002400951240309400093092002A30950083
:1014E00030002808AC0020002E222F00EB0A031940
:1014F000EC0A552A3000A301A201A101A001230892
:101500002F006A02031CC12A031D9E2A30002208F4
:101510002F006902031CC12A031D9E2A30002108E6
:101520002F006802031CC12A031D9E2A6708300091
:101530002002031C9D2A2F00C12A2F0065083000BD
:10154000200784002F0066083000213D850024001C
:10155000951240309400093092002A3095000130F5
:101560003000AC0020002E227708800001303000CF
:10157000A0070318A10A0319A20A0319A30A7F2AC4
:101580002F00342B2F00EE01ED016E086402031CC6
:10159000EA2A031DCF2A63086D020318EA2A6108AC
:1015A0006D07840062086E3D850000083000A800C9
:1015B0002400951240309400093092002A309500A2
:1015C00030002808AC0020003B222F00ED0A031950
:1015D000EE0AC52A3000A701A601A501A40127082B
:1015E0002F006A02031C312B031D0E2B300026082E
:1015F0002F006902031C312B031D0E2B3000250820
:101600002F006802031C312B031D0E2B67083000CE
:101610002402031C0D2B2F00312B2F0065083000F6
:10162000240784002F0066083000253D8500240033
:10163000951240309400093092002A309500023013
:101640003000AC0020003B227708800001303000E1
:10165000A4070318A50A0319A60A0319A70AEF2A63
:101660002F00342B20002F00200008009F302F0077
:10167000C6004008DD00DE010130E000DF0120008F
:101680000C222F004008DD00DE01E0018030DF0089
:1016900020000C222F004108E0004008DF003F0836
:1016A000DE003E08DD002430E200D630E100E40137
:1016B0000130E3002430E600D230E500EA01E90120
:1016C000E8010430E700200048222F004008DD0038
:1016D0000130DE00E000DF0120000C222F00400876
:1016E000DD00DE01E0018030DF0020000C222F0051
:1016F0004208203C031D802B0130F800822B822BF6
:101700000030F800200008002E00C008031DFB2B4D
:101710000330CD00DA01DB01F801F901FA014508D7
:10172000CE00DB01F801F901FA014408CF00F8010D
:10173000F901FA014308D00041082F00DD00DE0165
:101740000130E000DF0120000C222E0041082F00B4
:10175000DD00DE01E0018030DF0020000C222E00E1
:1017600042082F00E0002E0041082F00DF002E006D
:1017700040082F00DE002E003F082F00DD0024303F
:10178000E2008D30E100E4010430E3002E0048085F
:101790002F00E6002E0047082F00E5002E004C0821
:1017A0002F00EA002E004B082F00E9002E004A0807
:1017B0002F00E8002E0049082F00E70020004822F3
:1017C0000230F700F70BE22B00002E0041082F003B
:1017D000DD000130DE00E000DF0120000C222E00E1
:1017E00041082F00DD00DE01E0018030DF00200035
:1017F0000C22762C2E00400B772C1330D100D9010F
:10180000DA01DB01F801F901FA014608D200DA0138
:10181000DB01F801F901FA014508D300DB01F80109
:10182000F901FA014408D400F801F901FA0143086A
:10183000D50041082F00DD00DE010130E000DF01AE
:1018400020000C222E0041082F00DD00DE01E00107
:101850008030DF0020000C222E0042082F00E00024
:101860002E0041082F00DF002E0040082F00DE0070
:101870002E003F082F00DD002430E2009130E1000F
:10188000E4010530E3002E0048082F00E6002E009A
:1018900047082F00E5002E004C082F00EA002E001C
:1018A0004B082F00E9002E004A082F00E8002E0008
:1018B00049082F00E700200048220230F700F70B0C
:1018C0005F2C00002E0041082F00DD000130DE00FB
:1018D000E000DF0120000C222E0041082F00DD0077
:1018E000DE01E0018030DF0020000C222E0020000D
:1018F00008002E00CF1B8F2C0F30F7004E0EF7057F
:101900000A3077020318872C3030F707892C4F08EC
:10191000F70777082F00C3002000AF202E000F30FC
:10192000CE050A304E020318972C3030992CCF1375
:101930004F08CE074E082F00C3002000AF2008003C
:10194000933023009100003092002000D420210029
:101950008F1122008F1521008F1022008F14280074
:101960005D082F00C10028005C082F00C00028007F
:101970005B082F00BF0028005A082F00BE0020007F
:101980003623F808031DCC2CA13023009100003031
:1019900092002000D4200F2F28005D082E00C200E6
:1019A00028005C082E00C10028005B082E00C00043
:1019B00028005A082E00BF00C601C501C401C3019A
:1019C0002330C800B730C700CC01CB01CA0140307A
:1019D000C900200084232C00D9010030D904590407
:1019E0002B006A042800C200C301C401C5012B00FA
:1019F0006B08F1002C00D9010030D90459042B00E8
:101A00006F042800C600C701C801C9012C002008C6
:101A1000F200D9010030D904590424042800CA0076
:101A2000CB01CC01CD012C002508F300D9010030F9
:101A3000D904590429042800CE00CF01D001D101D6
:101A40002C00D8010030D80458042D04F400D9012A
:101A50000030D904590431042800D200D301D40144
:101A6000D5012C003208F500D9010030D904590401
:101A700036042800D600D701D801D901AE302300A2
:101A8000910000309200031022302C00DE00200074
:101A90002221280045082E00CE003730CF0020003C
:101AA0007924280044082E00CE003730CF002000D3
:101AB0007924280043082E00CE003730CF002000C4
:101AC0007924280042082E00CE003730CF002000B5
:101AD00079240D302F00C3002000AF200A302F00E2
:101AE000C3002000AF20C3302300910000309200DB
:101AF000031022302C00DE002000222171082E006D
:101B0000CE003730CF00200079240D302F00C300E5
:101B10002000AF200A302F00C3002000AF20D830B3
:101B20002300910000309200031022302C00DE00D0
:101B300020002221280049082E00CE003730CF0097
:101B400020007924280048082E00CE003730CF002E
:101B500020007924280047082E00CE003730CF001F
:101B600020007924280046082E00CE003730CF0010
:101B7000200079240D302F00C3002000AF200A3050
:101B80002F00C3002000AF20ED3023009100003073
:101B90009200031022302C00DE0020002221720867
:101BA0002E00CE003730CF00200079240D302F00DA
:101BB000C3002000AF200A302F00C3002000AF2058
:101BC00002302300910001309200031022302C00DB
:101BD000DE002000222128004D082E00CE003730E4
:101BE000CF002000792428004C082E00CE0037308A
:101BF000CF002000792428004B082E00CE0037307B
:101C0000CF002000792428004A082E00CE0037306B
:101C1000CF00200079240D302F00C3002000AF201A
:101C20000A302F00C3002000AF201730230091009E
:101C300001309200031022302C00DE00200022210F
:101C4000280051082E00CE003730CF002000792424
:101C5000280050082E00CE003730CF002000792415
:101C600028004F082E00CE003730CF002000792406
:101C700028004E082E00CE003730CF0020007924F7
:101C80000D302F00C3002000AF200A302F00C3000A
:101C90002000AF202C30230091000130920003106F
:101CA00022302C00DE002000222173082E00CE00FE
:101CB0003730CF00200079240D302F00C3002000E2
:101CC000AF200A302F00C3002000AF204130230096
:101CD000910001309200031022302C00DE00200021
:101CE000222174082E00CE003730CF002000792446
:101CF0000D302F00C3002000AF200A302F00C3009A
:101D00002000AF20563023009100013092000310D4
:101D100022302C00DE0020002221280055082E0051
:101D2000CE003730CF0020007924280054082E0040
:101D3000CE003730CF0020007924280053082E0031
:101D4000CE003730CF0020007924280052082E0022
:101D5000CE003730CF00200079240D302F00C30093
:101D60002000AF200A302F00C3002000AF206B30CE
:101D70002300910001309200031022302C00DE007D
:101D800020002221280059082E00CE003730CF0035
:101D900020007924280058082E00CE003730CF00CC
:101DA00020007924280057082E00CE003730CF00BD
:101DB00020007924280056082E00CE003730CF00AE
:101DC000200079240D302F00C3002000AF200A30FE
:101DD0002F00C3002000AF2080302300910001308D
:101DE0009200031022302C00DE0020002221750812
:101DF0002E00CE003730CF00200079240D302F0088
:101E0000C3002000AF200A302F00C3002000AF2005
:101E1000953023009100013092002000D42008006A
:101E20002F005708003A200003191A2F013A03190E
:101E3000432F6D2F2F00E001DF0160085E02031CBD
:101E4000422F031D272F5D085F020318422F5B08F6
:101E50005F0784005C08603D85000008E300240003
:101E6000951240309400093092002A3095002F00DE
:101E700063083000AC0020002E222F00DF0A031977
:101E8000E00A1D2F6E2F2F00E201E10162085E02C1
:101E9000031C6B2F031D502F5D08610203186B2F6D
:101EA0005B08610784005C08623D85000008E30070
:101EB0002400951240309400093092002A30950099
:101EC0002F0063083000AC0020003B222F00E10A05
:101ED0000319E20A462F6E2F20002F002000080071
:101EE00005302F00DB005908DD00DE010130E00085
:101EF000DF0120000C222F005908DD00DE01E00187
:101F00008030DF0020000C222F005A08E000590822
:101F1000DF005808DE005708DD002430E200EB3017
:101F2000E100E4010130E3002430E600EC30E5009C
:101F3000EA01E901E8010130E700200048222F0012
:101F40005908DD000130DE00E000DF0120000C2236
:101F50002F005908DD00DE01E0018030DF002000A5
:101F60000C222F005C08F8002000080024308500B7
:101F7000E730840000080319CB2F0530F800F70183
:101F8000F70BC02FF80BBF2F2E30F700F70BC62F23
:101F9000C92F800BBD2F08002B003D0884003E0890
:101FA0008500003FC0000130C1003F084102031816
:101FB000E32F4108C10A3D07840000303E3D850003
:101FC0000008C006D52F4008F800200008000F3098
:101FD0002B00A000A201A101A301903120007626D0
:101FE000883108002A005C085B020319F92F0030D1
:0A1FF000FA2F0130F800200008006D
:102000002F005708003A200003190A28013A031943
:102010005528A1282F00E2015D08620203182B2831
:1020200062085B07840000305C3D85000008E80022
:102030002400951240309400093092002A30950017
:102040002F0068083000AC00883120002E2290312B
:102050002F00E20A0C28E401E30164086102031C7A
:102060005428031D372860086302031854285E08AB
:10207000630784005F08643D85000008E8002400D1
:10208000951240309400093092002A3095002F00BC
:1020900068083000AC00883120002E2290312F00DB
:1020A000E30A0319E40A2D28A3282F00E5015D089F
:1020B00065020318762865085B07840000305C3DE4
:1020C00085000008E8002400951240309400093093
:1020D00092002A3095002F0068083000AC0088314B
:1020E00020003B2290312F00E50A5728E701E60146
:1020F00067086102031C9F28031D8228600866028E
:1021000003189F285E08660784005F08673D850006
:102110000008E80024009512403094000930920035
:102120002A3095002F0068083000AC00883120006C
:102130003B2290312F00E60A0319E70A7828A328EA
:1021400020002F00A328200008002F00BF08031D37
:1021500054290630CA000230CB004408D800450894
:10216000D900DA01DB01F801F901FA015808CC00C5
:102170004308D8004408D9004508DA00DB01F8011B
:10218000F901FA015808CD00F801F901FA014208F5
:10219000CE004008DD00DE010130E000DF018831C3
:1021A00020000C2290312F004008DD00DE01E0010C
:1021B0008030DF00883120000C2290312F00410850
:1021C000DA004008D9003F08D8003E08D700243084
:1021D000DC00DA30DB00DE010130DD008831200078
:1021E000102790312F004008DD000130DE00E000B4
:1021F000DF01883120000C2290312F004008DD00E3
:10220000DE01E0018030DF00883120000C229031B7
:102210002F004008DD00DE010130E000DF018831E1
:1022200020000C2290312F004008DD00DE01E0018B
:102230008030DF00883120000C2290312F004108CF
:10224000DA004008D9003F08D8003E08D700243003
:10225000DC00DB30DB000430DD004708DF0046082F
:10226000DE004908E1004808E000200000200230BC
:10227000F700F70B392900002F004008DD0001307E
:10228000DE00E000DF01883120000C2290312F00B9
:102290004008DD00DE01E0018030DF0088312000F1
:1022A0000C229031092A2F003F0B0A2A0630CF005A
:1022B0001230D0004508D800D901DA01DB01F8015D
:1022C000F901FA015808D1004408D8004508D9009E
:1022D000DA01DB01F801F901FA015808D2004308DC
:1022E000D8004408D9004508DA00DB01F801F901FB
:1022F000FA015808D300F801F901FA014208D400A4
:102300004008DD00DE010130E000DF0188312000FF
:102310000C2290312F004008DD00DE01E00180300A
:10232000DF00883120000C2290312F004108DA00B4
:102330004008D9003F08D8003E08D7002430DC0010
:10234000DF30DB00DE010130DD00883120001027A6
:1023500090312F004008DD000130DE00E000DF0199
:10236000883120000C2290312F004008DD00DE0172
:10237000E0018030DF00883120000C2290312F00F6
:102380004008DD00DE010130E000DF01883120007F
:102390000C2290312F004008DD00DE01E00180308A
:1023A000DF00883120000C2290312F004108DA0034
:1023B0004008D9003F08D8003E08D7002430DC0090
:1023C000E030DB000530DD004708DF004608DE00B6
:1023D0004908E1004808E000200000200230F70032
:1023E000F70BF02900002F004008DD000130DE006F
:1023F000E000DF01883120000C2290312F004008DE
:10240000DD00DE01E0018030DF00883120000C2299
:1024100090312F00D5014108DA004008D9003F086B
:10242000D8003E08D7008831200070279031780806
:102430000139013C031D392A2F0055080A3C0318B5
:10244000292AC830D70088312000B62790312F2A9A
:102450002F000A30D70088312000B62790312F0096
:102460005508643C0318372A2000392A2F00D50A62
:102470000B2A200008002F00BF08031DD62A0630B3
:10248000C6002030C700D501D601F801F901FA01D4
:102490004408C800D601F801F901FA014308C9004F
:1024A000F801F901FA014208CA004008DD00DE0126
:1024B0000130E000DF01883120000C2290312F0034
:1024C0004008DD00DE01E0018030DF0088312000BF
:1024D0000C2290312F004108DA004008D9003F0853
:1024E000D8003E08D7002430DC00D630DB00DE0107
:1024F0000130DD0088312000102790312F00400886
:10250000DD000130DE00E000DF01883120000C2218
:1025100090312F004008DD00DE01E0018030DF0057
:10252000883120000C2290312F004008DD00DE01B0
:102530000130E000DF01883120000C2290312F00B3
:102540004008DD00DE01E0018030DF00883120003E
:102550000C2290312F004108DA004008D9003F08D2
:10256000D8003E08D7002430DC00D730DB00DE0185
:102570000430DD0088312000102790312F00400802
:10258000DD000130DE00E000DF01883120000C2298
:1025900090312F004008DD00DE01E0018030DF00D7
:1025A000883120000C229031752B2F003F0B762BA9
:1025B0000630CB002130CC00D401D501D601F80182
:1025C000F901FA014508CD00D501D601F801F9015C
:1025D000FA014408CE00D601F801F901FA014308D6
:1025E000CF00F801F901FA014208D0004008DD00EF
:1025F000DE010130E000DF01883120000C22903143
:102600002F004008DD00DE01E0018030DF0088316E
:1026100020000C2290312F004108DA004008D90038
:102620003F08D8003E08D7002430DC00DB30DB0058
:10263000DE010130DD0088312000102790312F00AD
:102640004008DD000130DE00E000DF0188312000BD
:102650000C2290312F004008DD00DE01E0018030C7
:10266000DF00883120000C2290312F004008DD006F
:10267000DE010130E000DF01883120000C229031C2
:102680002F004008DD00DE01E0018030DF008831EE
:1026900020000C2290312F004108DA004008D900B8
:1026A0003F08D8003E08D7002430DC00DC30DB00D7
:1026B000DE010530DD0088312000102790312F0029
:1026C0004008DD000130DE00E000DF01883120003D
:1026D0000C2290312F004008DD00DE01E001803047
:1026E000DF00883120000C2290312F00D1014108F9
:1026F000DA004008D9003F08D8003E08D7008831EA
:1027000020007027903178080139013C031DA52B6A
:102710002F0051080A3C0318952BC830D700883188
:102720002000B62790319B2B2F000A30D70088312C
:102730002000B62790312F005108643C0318A32BCA
:102740002000A52B2F00D10A772B2000080031088C
:10275000F7003208F8003308F9003408FA007A0864
:102760002E00C7007908C6007808C5007708C400A5
:10277000CF01D001D1014708BE00D001D1014608E8
:10278000BF00D1014508C0004408C1003C08C20098
:102790003D08C300AC302300910001309200883125
:1027A0002000D42090312E00C8014808053C031CAD
:1027B000F32B7E3048078400243085000318850AF7
:1027C0000008CD00CE003730CF00883120007924BA
:1027D000903120302F00C30088312000AF2090318D
:1027E0002E00C80AD52B0D302F00C30088312000E1
:1027F000AF2090310A302F00C30088312000AF2075
:10280000903128004A082E00C90028004B082E00ED
:10281000CA00023028004C072E00CB0000302800F0
:102820004D3D2E00CC0028005D082F00C10028007F
:102830005C082F00C00028005B082F00BF002800A4
:102840005A082F00BE008831200036239031F80846
:10285000031D342CB23023009100013092008831E6
:102860002000D4209031522E28005D082F00C10096
:1028700028005C082F00C00028005B082F00BF0064
:1028800028005A082F00BE002E004C082F00C5005B
:102890002E004B082F00C4002E004A082F00C30052
:1028A0002E0049082F00C2002430C7007E30C60029
:1028B000C9010630C8002000A52006302800CA073C
:1028C0000030CB3DCC3DCD3D0630CE070030CF3D76
:1028D000D03DD13D0630F40774073F3C0318AC2CC3
:1028E0004A082E00C90028004B082E00CA000230FA
:1028F00028004C072E00CB00003028004D3D2E0054
:10290000CC0028005D082F00C10028005C082F00C3
:10291000C00028005B082F00BF0028005A082F00C5
:10292000BE002E004C082F00C5002E004B082F00C3
:10293000C4002E004A082F00C3002E0049082F00B3
:10294000C2002230C7009E30C600C9010630C80050
:102950002000A520F40128002E00CD01CE01CF01DA
:10296000D001D101D201D301D401D501D601D701C3
:10297000D801D901DA01DB01DC01DD01DE01DF0173
:10298000E001E101E201E301E401E501E601E70123
:10299000E801E901EA01EB01EC01ED01EE01EF01D3
:1029A0002F00A001A101A201A301A401A501A6017C
:1029B000A701A801A901AA01AB01AC01AD01AE01BB
:1029C000AF01B001B101B201B301B401B501B6016B
:1029D000B701B801B901BA01BB01BC012800450823
:1029E0002F00BF00C001C101C2013F082E00CD0071
:1029F000280044082F00BF00280045082F00C00011
:102A0000C101C2013F082E00CE00280043082F005C
:102A1000BF00280044082F00C000280045082F00F0
:102A2000C100C2013F082E00CF00280042082E003E
:102A3000D0007108D100280049082F00BF00C00154
:102A4000C101C2013F082E00D200280048082F0013
:102A5000BF00280049082F00C000C101C2013F0883
:102A60002E00D300280047082F00BF002800480888
:102A70002F00C000280049082F00C100C2013F08F4
:102A80002E00D400280046082E00D5007208D6007B
:102A900028004D082F00BF00C001C101C2013F083E
:102AA0002E00D70028004C082F00BF0028004D083A
:102AB0002F00C000C101C2013F082E00D80028002D
:102AC0004B082F00BF0028004C082F00C000280032
:102AD0004D082F00C100C2013F082E00D900280078
:102AE0004A082E00DA007308DB00280051082F0086
:102AF000BF00C001C101C2013F082E00DC00280058
:102B000050082F00BF00280051082F00C000C1014D
:102B1000C2013F082E00DD0028004F082F00BF0033
:102B2000280050082F00C000280051082F00C100C5
:102B3000C2013F082E00DE0028004E082E00DF00F4
:102B40000030E000E100E2007408E30028005508CE
:102B50002F00BF00C001C101C2013F082E00E400E8
:102B6000280054082F00BF00280055082F00C0007F
:102B7000C101C2013F082E00E500280053082F00C4
:102B8000BF00280054082F00C000280055082F005F
:102B9000C100C2013F082E00E600280052082E00A6
:102BA000E7007508E800280059082F00BF00C001A1
:102BB000C101C2013F082E00E900280058082F007B
:102BC000BF00280059082F00C000C101C2013F0802
:102BD0002E00EA00280057082F00BF0028005808E0
:102BE0002F00C000280059082F00C100C2013F0873
:102BF0002E00EB00280056082E00EC0028005D088F
:102C00002F00C10028005C082F00C00028005B08CE
:102C10002F00BF0028005A082F00BE008831200076
:102C200036239031F808031D1F2E9B30230091009E
:102C30000130920088312000D4209031522E28009B
:102C40005D082F00C10028005C082F00C00028008C
:102C50005B082F00BF0028005A082F00BE00C501E6
:102C6000C401C301C20120003B2228005D082F00DF
:102C7000C10028005C082F00C00028005B082F005E
:102C8000BF0028005A082F00BE00C501C401C301BF
:102C9000C2012430C7008D30C600C9014030C800D1
:102CA0002000A52008002A006E08FA006D088400A4
:102CB0007A08850000082B00A0002A006C08850017
:102CC0006B088400F7012B002008F800780803192E
:102CD0006D2E77081A00F80B692E2A006D08840003
:102CE0006E0885008001B8312000662DAA302B00C7
:102CF000A40020085038A50022088500210884007F
:102D00002308F80003198C2E2330870076308600C4
:102D100012001E00F80B882E02302307B400743016
:102D20003407F8002330FA000318FA0A7808B700CD
:102D30007A08B80001303402B9002330BE00753083
:102D4000BD003908BF0088312000CC2790312B000E
:102D5000380885003708840078088000013034077F
:102D6000B5002330B8007430B7003508B900BA0197
:102D700039083A020318CD2E3A083707840000308C
:102D8000383D85000008BC003C082000111EC62EFE
:102D900023009A002B00BA0AB82ED73023009100E6
:102DA0000230920088312000D42090312B00BB01EA
:102DB00039083B020318F62E3B0837078400003021
:102DC000383D85000008BC002E00CE003730CF0013
:102DD000883120007924903120302F00C3008831C1
:102DE0002000AF2090312B00BB0AD82E0D302F00D1
:102DF000C30088312000AF2090310A302F00C3007B
:102E000088312000AF20903108002C006508F801BF
:102E1000640203180E2F6408F7001A2FF701083018
:102E2000E600E40DF70D650877020318F700F80DCA
:102E3000E60B112F2000080078082C004C08E40055
:102E40006430E5002000052777082C00CC007808C6
:102E50003030031D322FCD1C3E2FCD193E2F4D1A81
:102E60002030352FCD114D124D14F80778082F0062
:102E7000C30088312000AF2090312C004C08E400C2
:102E80000A30E5002000052777082C00CC007808E0
:102E90003030031D512FCD195A2F4D1C5A2F4D1A6A
:102EA0002030F80778082F00C30088312000AF20B9
:102EB00090312C003030CC074C082F00C3008831F3
:102EC0002000AF209031080021000F1122000F11C7
:102ED000240011082B00380824009100140C031C56
:102EE0006E2F1108F80011082B00370824009100FC
:102EF000140C031C782F1108F70021000F11220079
:102F00000F15200008002400951240309400FF3077
:102F100092003A3095002B002B08B8002A08B70021
:102F2000200064272400951240309400FF30920066
:102F30003A3095002B00B8010330B7002000642719
:102F400078082B00AD007708AC002C08F7002D089E
:102F50000F39FA002C08F8007A08F9002000080060
:102F60002E0041082F00DD000130DE00E000DF010F
:102F7000883120000C2290312E0041082F00DD0006
:102F8000DE01E0018030DF00883120000C2290312A
:102F9000080095302300910007309200883120000E
:102FA000D4209031A0302300910007309200883166
:102FB0002000D42090318831E72790310230A900D9
:102FC00003302A006D072B00A00000302A006E3D60
:102FD0002B00A100A3002008A200A83120006A2D28
:102FE00090318831F2279031F8080319FA2F063012
:0C2FF000A900FC2F0430A900B831272CE8
:103000002B00A401A501A601A701A801A901AA01FD
:10301000AB01AC01AD01AE01AF0142302300910024
:103020000230920088312000D420983152302300A1
:1030300091000230920088312000D42098312B007A
:10304000B0012308300203183F283008210784000C
:103050000030223D85000008B7002E00CE0037303A
:10306000CF00883120007924983120302F00C30010
:1030700088312000AF2098312B00B00A21280D3074
:103080002F00C30088312000AF2098310A302F0074
:10309000C30088312000AF2098312B002208B800EF
:1030A0002108B7002308B900BA01BA01013039027A
:1030B0003A0203186B283A08370784000030383D7D
:1030C00085000008AA3C031D692801303A07F80072
:1030D0009028BA0A56283A08370784000030383D4D
:1030E00085000008AA3C031D832867302300910057
:1030F0000230920088312000D4209831FF30F8004F
:103100002B0090289028723023009100023092000A
:1031100088312000D4209831FF30F8002B0090280F
:103120007808B1003108FF3C031D9B28A430F8004B
:103130000530F900272A31082107B2000030223D6E
:10314000B3003208840033088500003100080F39CD
:10315000B4003408B700B8013808023C031CCA2880
:103160000310380DC53E8400223085000318850AFF
:1031700000083702031DC8280310380D013EC53E64
:103180008400223085000318850A0008F800F22820
:10319000B80AAC287B302300910002309200031063
:1031A0001F302C00DE0088312000222198312B00B6
:1031B00037082E00CE003730CF0088312000792428
:1031C00098310D302F00C30088312000AF20983196
:1031D0000A302F00C30088312000AF209831FF3023
:1031E000F8002B007808B5003508FF3C031DFD28CA
:1031F000A430F8000530F900272A31082302B60070
:103200003308B8003208B7003608B9000130390277
:10321000370784000030383D85000008BA000130CF
:103220003902BC003808BE003708BD003C08BF00AA
:1032300088312000CC27983178082B00BB003B0850
:103240003A02031D27290130F8007E297E298D309E
:10325000230091000230920088312000D420983160
:1032600096302300910002309200031013302C009E
:10327000DE0088312000222198312B003A082E00F0
:10328000CE003730CF0088312000792498310D30BE
:103290002F00C30088312000AF2098310A302F0062
:1032A000C30088312000AF209831A2302300910064
:1032B00002309200031013302C00DE008831200011
:1032C000222198312B003B082E00CE003730CF0052
:1032D00088312000792498310D302F00C3008831C7
:1032E0002000AF2098310A302F00C3008831200021
:1032F000AF2098310030F8002B007E29F808031D1C
:103300008629A430F8000530F900272A3208840005
:103310003308850000310008F039F700770EB70058
:103320000F30B7053708B80038080C3C031D9C293E
:103330000130F800F229F229AE302300910002306A
:10334000920088312000D4209831BF3023009100B2
:1033500002309200031013302C00DE008831200070
:10336000222198312B0038082E00CE003730CF00B4
:1033700088312000792498310D302F00C300883126
:103380002000AF2098310A302F00C3008831200080
:10339000AF209831CB30230091000230920003100F
:1033A00013302C00DE0088312000222198310C30AF
:1033B0002E00CE003730CF0088312000792498319C
:1033C0000D302F00C30088312000AF2098310A3023
:1033D0002F00C30088312000AF2098310030F80062
:1033E0002B00F229F808031DFA29A430F800053053
:1033F000F900272A3408A40001303207B700003052
:10340000333DB80002303602B9003808850037086D
:1034100084003908F8000319152A23308700773013
:10342000860012001E00F80B112A02303602A50099
:103430002614593023009100023092008831200078
:10344000D4209831A430F8000530F9002B00B831B1
:103450002000492DD530230091000330920088319F
:103460002000D42098312B002508840026088500F0
:10347000003FA700250884002608850001310008C8
:10348000B101B001AF01AE00B100AE01AF01B001BA
:10349000250884002608850002310008B601B50120
:1034A000B401B3003408FA003308F900F701F80159
:1034B0007708AE047808AF043308B0043408B104C8
:1034C000250884002608850003310008B601B501EF
:1034D000B401B3003508FA003408F9003308F800E5
:1034E000F7017708AE043308AF043408B004350898
:1034F000B1042508840026088500043FF700F80180
:10350000F901FA0177082E04A80078082F04A90011
:1035100079083004AA007A083104AB002508840039
:103520002608850005310008AF01AE00AF00AE01EE
:103530002508840026088500063FFA012E04AC0009
:103540007A082F04AD00DF30230091000330920091
:1035500003100C302C00DE0088312000222198312D
:103560002B0027082E00CE003730CF0088312000F6
:10357000792498310D302F00C30088312000AF200E
:1035800098310A302F00C30088312000AF209831D5
:10359000E930230091000330920003100E302C001C
:1035A000DE0088312000222198312B002B082E00CC
:1035B000CE003730CF0088312000792498312B009D
:1035C0002A082E00CE003730CF0088312000792421
:1035D00098312B0029082E00CE003730CF008831DB
:1035E0002000792498312B0028082E00CE00373097
:1035F000CF0088312000792498310D302F00C3008E
:1036000088312000AF2098310A302F00C300883164
:103610002000AF209831F430230091000330920055
:1036200003100E302C00DE0088312000222198315A
:103630002B002D082E00CE003730CF00883120001F
:10364000792498312B002C082E00CE003730CF0083
:1036500088312000792498310D302F00C300883143
:103660002000AF2098310A302F00C300883120009D
:10367000AF2098312B0027082E00BC000130BD0080
:1036800090312000A72398312B0027082E00BC0082
:103690000230BD0090312000A7239831FF30230075
:1036A00091000330920088312000D4209831A83155
:1036B000502E64302B00A5006E30230091000430A2
:1036C000920088312000D420983179302300910075
:1036D0000430920003100E302C00DE0088312000F0
:1036E000222198312B0025082C00CC001B30CD0066
:1036F000903120001C2798310D302F00C3008831F5
:103700002000AF2098310A302F00C30088312000FC
:10371000AF20983121008C1222008C16210010104D
:103720002200101421000C1222000C12903098007C
:103730002B00A901A801A908031D0F2C25082802A8
:1037400003180F2C28082200990064302F00D7009E
:1037500088312000B627983183302B00AB00303001
:10376000AA00903120008327983179082B00A70008
:103770007808A60027082E00CE003730CF00883109
:103780002000792498312B0026082E00CE003730F7
:10379000CF0088312000792498312C302F00C300CD
:1037A00088312000AF20983120302F00C3008831AD
:1037B0002000AF209831AF302B00AB003030AA0092
:1037C000903120008327983179082B00A7007808D2
:1037D000A60027082E00CE003730CF008831200009
:1037E000792498312B0026082E00CE003730CF00E8
:1037F00088312000792498310D302F00C3008831A2
:103800002000AF2098310A302F00C30088312000FB
:10381000AF2098312B00A80A0319A90A9B2BA831C5
:103820002000502E2B00AF08031DC32C0630B6001D
:10383000D830B700C601C701F801F901FA01340810
:10384000B800C701F801F901FA013308B900F8011D
:10385000F901FA013208BA0030082F00DD00DE015C
:103860000130E000DF01883120000C2298312B006C
:1038700030082F00DD00DE01E0018030DF008831FC
:1038800020000C2298312B0031082F00DA002B0089
:1038900030082F00D9002B002F082F00D8002B0054
:1038A0002E082F00D7002330DC008630DB00DE013D
:1038B0000130DD0088312000102798312B003008BE
:1038C0002F00DD000130DE00E000DF018831200044
:1038D0000C2298312B0030082F00DD00DE01E001C2
:1038E0008030DF00883120000C2298312B00300816
:1038F0002F00DD00DE010130E000DF018831200013
:103900000C2298312B0030082F00DD00DE01E00191
:103910008030DF00883120000C2298312B003108E4
:103920002F00DA002B0030082F00D9002B002F08C1
:103930002F00D8002B002E082F00D7002330DC00EA
:103940008730DB00DE010430DD00883120001027E5
:1039500098312B0030082F00DD000130DE00E00040
:10396000DF01883120000C2298312B0030082F0015
:10397000DD00DE01E0018030DF00883120000C2214
:103980009831782D2B002F0B792D0630BB00DC30C1
:10399000BC00C501C601C701F801F901FA013508EB
:1039A000BD00C601C701F801F901FA013408BE00E3
:1039B000C701F801F901FA013308BF00F801F90164
:1039C000FA013208C00030082F00DD00DE010130AE
:1039D000E000DF01883120000C2298312B003008F4
:1039E0002F00DD00DE01E0018030DF0088312000A3
:1039F0000C2298312B0031082F00DA002B00300800
:103A00002F00D9002B002F082F00D8002B002E08E4
:103A10002F00D7002330DC008B30DB00DE010130CB
:103A2000DD0088312000102798312B0030082F004E
:103A3000DD000130DE00E000DF01883120000C22D3
:103A400098312B0030082F00DD00DE01E0018030CE
:103A5000DF00883120000C2298312B0030082F0025
:103A6000DD00DE010130E000DF01883120000C22A2
:103A700098312B0030082F00DD00DE01E00180309E
:103A8000DF00883120000C2298312B0031082F00F4
:103A9000DA002B0030082F00D9002B002F082F0050
:103AA000D8002B002E082F00D7002330DC008C30EC
:103AB000DB00DE010530DD00883120001027983161
:103AC0002B0030082F00DD000130DE00E000DF01B8
:103AD000883120000C2298312B0030082F00DD00A7
:103AE000DE01E0018030DF00883120000C229831B7
:103AF0002B00C10131082F00DA002B0030082F0005
:103B0000D9002B002F082F00D8002B002E082F00E3
:103B1000D700883120007027983178080139013C9E
:103B2000031DB12D2B0041080A3C0318A02DC830FD
:103B30002F00D70088312000B6279831A72D2B0001
:103B40000A302F00D70088312000B62798312B008B
:103B50004108643C0318AF2D2000B12D2B00C10A91
:103B60007A2D200008008330230091000430920059
:103B700088312000D42098312B00250884002608A5
:103B80008500003FA70027082E00BC00BD01903132
:103B90002000A72398312B00AB01AA01A901A8019D
:103BA000AB08031DFD2D2A08F43C031CFD2D031D4D
:103BB000DD2D2908233C031CFD2D28005D082B006A
:103BC000B10028005C082B00B00028005B082B0027
:103BD000AF0028005A082B00AE002B08B5002A08B9
:103BE000B4002908B3002808B200200012240130D4
:103BF0002B00AA070030AB3DD02D27082E00BC00BB
:103C00000230BD0090312000A72398318F3023006F
:103C100091000430920088312000D4209831A831DE
:103C2000502E9A30230091000430920088312000F9
:103C3000D42098312B002508840026088500003107
:103C40000008A70025088400260885000131000827
:103C5000B101B001AF01AE00B100AE01AF01B001E2
:103C6000250884002608850002310008B601B50148
:103C7000B401B3003408FA003308F900F701F80181
:103C80007708AE047808AF043308B0043408B104F0
:103C9000250884002608850003310008B601B50117
:103CA000B401B3003508FA003408F9003308F8000D
:103CB000F7017708AE043308AF043408B0043508C0
:103CC000B1042508840026088500043FF700F801A8
:103CD000F901FA0177082E04A80078082F04A9003A
:103CE00079083004AA007A083104AB00A930230017
:103CF000910004309200031013302C00DE00883154
:103D00002000222198312B002B082E00CE003730C6
:103D1000CF0088312000792498312B002A082E000A
:103D2000CE003730CF0088312000792498312B0025
:103D300029082E00CE003730CF00883120007924AA
:103D400098312B0028082E00CE003730CF00883164
:103D50002000792498310D302F00C30088312000D5
:103D6000AF2098310A302F00C30088312000AF20E7
:103D700098312B0027082E00BC000130BD00903187
:103D80002000A723983128005D082B00B1002800EF
:103D90005C082B00B00028005B082B00AF00280057
:103DA0005A082B00AE002B08B5002A08B4002908D9
:103DB000B3002808B200200012242B0027082E0090
:103DC000BC000230BD0090312000A7239831B730ED
:103DD000230091000430920088312000D4209831D3
:103DE000A831502EC5302300910004309200883154
:103DF0002000D42098312B00250884002608850057
:103E000000310008A700250884002608850001313C
:103E10000008B101B001AF01AE00B100AE01AF01C9
:103E2000B001250884002608850002310008B6018B
:103E3000B501B401B3003408FA003308F900F70102
:103E4000F8017708AE047808AF043308B0043408EA
:103E5000B104250884002608850003310008B60156
:103E6000B501B401B3003508FA003408F90033088D
:103E7000F800F7017708AE043308AF043408B00443
:103E80003508B1042508840026088500043FF700A2
:103E9000F801F901FA0177082E04A80078082F0428
:103EA000A90079083004AA007A083104AB00D330A5
:103EB0002300910004309200031016302C00DE0025
:103EC00088312000222198312B002B082E00CE00B3
:103ED0003730CF0088312000792498312B002A0810
:103EE0002E00CE003730CF00883120007924983161
:103EF0002B0029082E00CE003730CF00883120005B
:103F0000792498312B0028082E00CE003730CF00BE
:103F100088312000792498310D302F00C30088317A
:103F20002000AF2098310A302F00C30088312000D4
:103F3000AF2098312B0027082E00BC000130BD00B7
:103F400090312000A723983128005D082F00C10080
:103F500028005C082F00C00028005B082F00BF006D
:103F600028005A082F00BE00C501C401C301C201C8
:103F7000903120003B2298312B0027082E00BC00F6
:103F80000230BD0090312000A7239831E230230099
:103F900091000430920088312000D4209831A8315B
:103FA000502E03302B00A0002030A2000930A100C9
:103FB0000430A3009031200076269831A8316F2E6E
:10400000EF30230091000430920088312000D4204A
:10401000A0312B0025088400260885000031000807
:104020002C00AE002E00BC000130BD0090312000FD
:10403000A723A0312B00A701A801A901AA01AB0168
:10404000AC01AD012508840026088500003FA700CB
:104050002508840026088500013100082C00B101E4
:10406000B001AF01AE00B100AE01AF01B0012B0055
:104070002508840026088500023100082C00B601BE
:10408000B501B401B3003408FA003308F900F701B0
:10409000F8017708AE047808AF043308B004340898
:1040A000B1042B0025088400260885000331000890
:1040B0002C00B601B501B401B3003508FA0034088C
:1040C000F9003308F800F7017708AE043308AF04AD
:1040D0003408B0043508B1042B00250884002608F4
:1040E0008500043FF700F801F901FA0177082C0078
:1040F0002E042B00A80078082C002F042B00A90008
:1041000079082C0030042B00AA007A082C00310416
:104110002B00AB0025088400260885000731000825
:104120002C00AF01AE00AF00AE012B0025088400CB
:1041300026088500083FFA012C002E042B00AC0055
:104140007A082C002F042B00AD00FC3023009100D6
:104150000430920003100C302C00DE008831200067
:104160002221A0312B0027082E00CE003730CF00AF
:10417000883120007924A0310D302F00C300883110
:104180002000AF20A0310A302F00C300883120006A
:10419000AF20A031063023009100053092000310BB
:1041A0000E302C00DE00883120002221A0312B00AF
:1041B0002B082E00CE003730CF0088312000792424
:1041C000A0312B002A082E00CE003730CF008831D6
:1041D00020007924A0312B0029082E00CE00373092
:1041E000CF00883120007924A0312B0028082E0030
:1041F000CE003730CF00883120007924A0310D3037
:104200002F00C30088312000AF20A0310A302F00DA
:10421000C30088312000AF20A0311130230091006D
:104220000530920003100E302C00DE008831200093
:104230002221A0312B002D082E00CE003730CF00D8
:10424000883120007924A0312B002C082E00CE00CC
:104250003730CF00883120007924A0310D302F0075
:10426000C30088312000AF20A0310A302F00C300E6
:1042700088312000AF20A0312B0027082E00BC0081
:10428000BD0190312000A723A0311C3023009100F4
:104290000530920088312000D420A0312B00EF019E
:1042A000EE016F082D02031CF229031D5B292C0867
:1042B0006E020318F2296E0D2C00A0002B006F0D6A
:1042C0002C00A100A00DA10DA00DA10DA00DA10D10
:1042D000A00DA10DA00DA10DC030A005A2012208C6
:1042E0003F3C031C9E297E3022078400233085003A
:1042F0000318850A22082007B0000030213DB100D4
:10430000FA01300880007E302207840023308500C7
:104310000318850A0008AE002E00CE003730CF000B
:10432000883120007924A03120302F00C30088314B
:104330002000AF20A0312C00A20A6F292B006E0DA7
:10434000F9006F0DFA00F90DFA0DF90DFA0DF90DDE
:10435000FA0DF90DFA0DF90DFA0DC030F9057908CD
:1043600028072C00A3007A082B00293D2C00A4006C
:1043700000302B002A3D2C00A50000302B002B3DE7
:104380002C00A60028005D082F00C10028005C0852
:104390002F00C00028005B082F00BF0028005A082B
:1043A0002F00BE002C0026082F00C5002C00250879
:1043B0002F00C4002C0024082F00C3002C00230869
:1043C0002F00C2002330C7007E30C600C901403034
:1043D000C80090312000A520A0312B00EE0A03195F
:1043E000EF0A512927082E00BC000230BD00903191
:1043F0002000A723A0310D302F00C30088312000FA
:10440000AF20A0310A302F00C30088312000AF2038
:10441000A031233023009100053092008831200024
:10442000D420A031A831502E2F3023009100053028
:10443000920088312000D420A0312B002508840070
:1044400026088500003100082E00BB00BC000130AA
:10445000BD0090312000A723A03128005D082E0068
:10446000C20028005C082E00C10028005B082E0056
:10447000C00028005A082E00BF0090312000B0274D
:10448000A0312B00AA01A901A801A7010130AB00AE
:104490000230AC000330AD000430AE00AF01B0011B
:1044A000B101B201B301B401B501B601B701B80160
:1044B000B901BA01BB01BC01BD01BE01BF01C00110
:1044C000C101C201C301C401C501C601C701C801C0
:1044D000C901CA01CB01CC01CD01CE01CF01D00170
:1044E000D101D201D301D401D501D601D701D80120
:1044F000D901DA01DB01DC01DD01DE01DF01E001D0
:10450000E101E201E301E401E501E601E701E8017F
:10451000E901EA01EB01EC01ED01EE01EF012C00F4
:10452000A001A101A201A301A401A501A601A70167
:10453000A801A901AA01AB01AC01AD01AE01AF0117
:10454000B001B101B201B301B401B501B601B701C7
:10455000B801B901BA01BB01BC01BD01BE01BF0177
:10456000C001C101C201C301C401C501C601C70127
:10457000C801C901CA01CB01CC01CD01CE01CF01D7
:10458000D001D101D201D301D401D501D601D70187
:10459000D801D901DA01DB01DC01DD01DE01DF0137
:1045A000E001E101E201E301E401E501E601E701E7
:1045B000E801E901EA01EB01EC01ED01EE01EF0197
:1045C0002D00A001A101A201A301A401A501A60142
:1045D000A701A801A901AA01AB01AC01AD01AE017F
:1045E000AF01B001B101B201B301B401B501B6012F
:1045F000B701B801B901BA01BB01BC01BD01BE01DF
:10460000BF01C001C101C201C301C401C501C6018E
:10461000C701C801C901CA01CB01CC01CD01CE013E
:10462000CF01D001D101D201D301D401D501D601EE
:10463000D701D801D901DA01DB01DC01DD01DE019E
:10464000DF01E001E101E201E301E401E501E6014E
:10465000E701E801E901EA01EB01EC01ED01EE01FE
:10466000EF012E00A001A101A201A301A401A50157
:10467000A601A701A801A901AA01AB01AC01AD01E6
:10468000AE01AF01B001B101B201B301B401B50196
:10469000B601B701B801B901BA0128005D082F00C1
:1046A000C10028005C082F00C00028005B082F0014
:1046B000BF0028005A082F00BE002B002A082F0038
:1046C000C5002B0029082F00C4002B0028082F004C
:1046D000C3002B0027082F00C2002330C7007B3007
:1046E000C6000130C900C80190312000A520A031CA
:1046F0002B002508840026088500003100082E00C4
:10470000BB00BC000230BD0090312000A723A031C7
:104710004230230091000530920088312000D420DF
:10472000A031A831502E5430230091000530920062
:1047300088312000D420A0312B00250884002608D1
:104740008500003100082C00AE002E00BC000130B6
:10475000BD0090312000A723A0312B00A701A801A4
:10476000A901AA01AB01AC01AD012508840026080E
:104770008500003FA7002508840026088500013138
:1047800000082C00B101B001AF01AE00B100AE01D4
:10479000AF01B0012B0025088400260885000231F6
:1047A00000082C00B601B501B401B3003408FA00CA
:1047B0003308F900F701F8017708AE047808AF0470
:1047C0003308B0043408B1042B00250884002608FF
:1047D0008500033100082C00B601B501B401B30017
:1047E0003508FA003408F9003308F800F7017708B3
:1047F000AE043308AF043408B0043508B1042B000C
:104800002508840026088500043FF700F801F90117
:10481000FA0177082C002E042B00AA0078082C003F
:104820002F042B00AB0079082C0030042B00AC00C7
:104830007A082C0031042B00AD00250884002608DE
:104840008500073100082C00AF01AE00AF00AE01BB
:104850002B002508840026088500083FFA012C005B
:104860002E042B00A8007A082C002F042B00A9008E
:104870005E30230091000530920003100C302C00B4
:10488000DE00883120002221A0312B0027082E00D5
:10489000CE003730CF00883120007924A0310D3090
:1048A0002F00C30088312000AF20A0310A302F0034
:1048B000C30088312000AF20A03168302300910070
:1048C0000530920003100E302C00DE0088312000ED
:1048D0002221A0312B002D082E00CE003730CF0032
:1048E000883120007924A0312B002C082E00CE0026
:1048F0003730CF00883120007924A0312B002B08DD
:104900002E00CE003730CF00883120007924A0312E
:104910002B002A082E00CE003730CF00883120002F
:104920007924A0310D302F00C30088312000AF2042
:10493000A0310A302F00C30088312000AF20A03101
:104940007330230091000530920003100E302C00CC
:10495000DE00883120002221A0312B0029082E0002
:10496000CE003730CF00883120007924A0312B00D1
:1049700028082E00CE003730CF008831200079245F
:10498000A0310D302F00C30088312000AF20A031AE
:104990000A302F00C30088312000AF20A0312B0047
:1049A00027082E00BC00BD0190312000A723A031B4
:1049B0002B00AE01AF01B001B101B201B301B401EE
:1049C000B501B601B701B801B901BA01BB01BC011B
:1049D000BD01BE01BF01C001C101C201C301C401CB
:1049E000C501C601C701C801C901CA01CB01CC017B
:1049F000CD01CE01CF01D001D101D201D301D4012B
:104A0000D501D601D701D801D901DA01DB01DC01DA
:104A1000DD01DE01DF01E001E101E201E301E4018A
:104A2000E501E601E701E801E901EA01EB01EC013A
:104A3000ED017E3023009100053092008831200086
:104A4000D420A03128005D082F00C10028005C0898
:104A50002F00C00028005B082F00BF0028005A0864
:104A60002F00BE00883120003623A031F808031D36
:104A7000432D8430230091000530920088312000BE
:104A8000D420A0310A2E2C00A701A601A501A40163
:104A9000A708031DF72DA608031DF72D25082B00D9
:104AA00029020318552D2C00F72D031D5D2D280814
:104AB0002C0024020318F72D2B002C00240DF700E6
:104AC000250DF800260DF900270DFA00F70DF80D59
:104AD000F90DFA0DF70DF80DF90DFA0DF70DF80DAA
:104AE000F90DFA0DF70DF80DF90DFA0DF70DF80D9A
:104AF000F90DFA0DC030F70577082B002A072C00B6
:104B0000A00078082B002B3D2C00A10079082B0079
:104B10002C3D2C00A2007A082B002D3D2C00A30078
:104B200028005D082E00C20028005C082E00C1008D
:104B300028005B082E00C00028005A082E00BF0085
:104B40002C0023082E00C6002C0022082E00C500D1
:104B50002C0021082E00C4002C0020082E00C300C9
:104B60002330C8007E30C700CC01CB01CA014030E1
:104B7000C900883120008423A0312B00EE016E088B
:104B80003F3C031CDF2D7E306E0784002330850000
:104B90000318850A00082C00AE002E00CE00373026
:104BA000CF00883120007924A03120302F00C300AD
:104BB00088312000AF20A0312B00EE0ABF2D0D3030
:104BC0002F00C30088312000AF20A0310A302F0011
:104BD000C30088312000AF20A03101302C00A40791
:104BE0000318A50A0319A60A0319A70A482D2B00C2
:104BF00027082E00BC000230BD0090312000A72302
:104C0000A0319530230091000530920088312000BA
:104C1000D420A031A831502E9E30230091000530C1
:104C2000920088312000D420A03128005D082E0099
:104C3000C20028005C082E00C10028005B082E007E
:104C4000C00028005A082E00BF0090312000B02775
:104C5000A0312B00AA01A901A801A70128005D0825
:104C60002E00C20028005C082E00C10028005B084E
:104C70002E00C00028005A082E00BF002B002A0872
:104C80002E00C6002B0029082E00C5002B00280886
:104C90002E00C4002B0027082E00C3002330C800BC
:104CA0007B30C700CC01CB01CA010430C900883178
:104CB00020008423A031AC30230091000530920005
:104CC00003100B302C00DE00883120002221A0319F
:104CD0002B002B082E00CE003730CF00883120006B
:104CE0007924A03120302F00C30088312000AF206C
:104CF000A0312B002C082E00CE003730CF00883199
:104D000020007924A03120302F00C30088312000FA
:104D1000AF20A0312B002D082E00CE003730CF0061
:104D2000883120007924A03120302F00C300883141
:104D30002000AF20A0312B002E082E00CE003730EF
:104D4000CF00883120007924A0310D302F00C3001E
:104D500088312000AF20A0310A302F00C3008831F5
:104D60002000AF20A031BD3023009100053092001B
:104D700088312000D420A031A831502ECA30230021
:104D800091000530920088312000D420A031280005
:104D90005D082E00C20028005C082E00C10028001B
:104DA0005B082E00C00028005A082E00BF0090317A
:104DB0002000B027A031280061082E00C200280082
:104DC00060082E00C10028005F082E00C0002800E7
:104DD0005E082E00BF0090312000B027A0312B00CC
:104DE000AA01A901A801A701AE01AD011030AC00D4
:104DF000AB0128005D082E00C20028005C082E00D0
:104E0000C10028005B082E00C00028005A082E00B0
:104E1000BF002B002A082E00C6002B0029082E00F8
:104E2000C5002B0028082E00C4002B0027082E00E8
:104E3000C3002330C8007F30C700CC01CB01013054
:104E4000CA00C901883120008423A03128006108EC
:104E50002F00C100280060082F00C00028005F0854
:104E60002F00BF0028005E082F00BE002B002E0878
:104E70002F00C5002B002D082F00C4002B002C088C
:104E80002F00C3002B002B082F00C2002330C700C7
:104E90007F30C6000130C900C80190312000A52034
:104EA000A031D630230091000530920088312000D7
:104EB000D420A031A831502E1630230091000630A6
:104EC000920088312000D420A0312B0025088400D6
:104ED0002608850000310008E7002E00BC000130E4
:104EE000BD0090312000A723A0312B00A701A8010D
:104EF000A901AA01AB01AC01AD01AE01AF01B00146
:104F0000B101B201B301B401B501B601B701B801F5
:104F1000B901BA01BB01BC01BD01BE01BF01C001A5
:104F2000C101C201C301C401C501C601C701C80155
:104F3000C901CA01CB01CC01CD01CE01CF01D00105
:104F4000D101D201D301D401D501D601D701D801B5
:104F5000D901DA01DB01DC01DD01DE01DF01E00165
:104F6000E101E201E301E401E501E60128005D0859
:104F70002F00C10028005C082F00C00028005B083B
:104F80002F00BF0028005A082F00BE00C501C40131
:104F9000C301C2012330C7007730C600C9014030C9
:104FA000C80090312000A520A0318831A024A03174
:104FB0002B00250884002608850000310008E70042
:104FC0002E00BC000230BD0090312000A723A0318C
:104FD0002430230091000630920088312000D42034
:064FE000A031A831502EA3
:1050000020302C005C1E3030E0005B08F700DB1F16
:105010001128F709F70A7708DB002D30E000DC17CC
:105020005C145B08E4006430E50090312000052743
:10503000A83177082C00DB0030307807E1005B08EE
:10504000E4000A30E500903120000527A831303017
:1050500077072C00E30030307807E2006008F700A3
:105060003030610203193828DC14DC1B5C154C2835
:105070006008E1002030E00030306202031944286B
:105080005C14DC1BDC144C28031D5C14031D4C2831
:105090006108E2002030E1005C195328DC185B282D
:1050A0005C1863286B2860082F00C300883120003B
:1050B000AF20A8312C0061082F00C30088312000E8
:1050C000AF20A8312C0062082F00C30088312000D7
:1050D000AF20A8312C0063082F00C30088312000C6
:1050E000AF20A8310800280063166414E410E3160A
:1050F0006313E3132B003008B70037080139F800B9
:105100002800E4127818E41603102B00370C01393C
:10511000F80028006412781864162B00370CF7008A
:10512000F70C3F30F70577080139F8002800E41143
:105130007818E4152B00370CF700F70CF70C1F302C
:10514000F70577080139F80028006411781864150C
:1051500003302B00B70037080139F8002800E413AA
:105160007818E41703102B00370C0139F8002800D9
:105170006413781864172B003008B700B901B80120
:105180007B0801390030B804D3302300910001308E
:105190009200031009302C00DE008831200022210B
:1051A000A8317B082C00DB001830DC002000002038
:1051B00020302F00C30088312000AF20A8312830D4
:1051C0002F00C30088312000AF20A8312B00390800
:1051D0002E00CE003730CF00883120007924A8314E
:1051E0002B0038082E00CE003730CF008831200049
:1051F0007924A83129302F00C30088312000AF2046
:10520000A8310D302F00C30088312000AF20A83115
:105210000A302F00C30088312000AF20A8317C085D
:10522000013900302B00B804DE302300910001303A
:105230009200031009302C00DE008831200022216A
:10524000A8317C082C00DB001830DC002000002096
:1052500020302F00C30088312000AF20A831283033
:105260002F00C30088312000AF20A8312B0039085F
:105270002E00CE003730CF00883120007924A831AD
:105280002B0038082E00CE003730CF0088312000A8
:105290007924A83129302F00C30088312000AF20A5
:1052A000A8310D302F00C30088312000AF20A83175
:1052B0000A302F00C30088312000AF20A8312B0016
:1052C00037080F39F700F70EF70DF70DC030F70567
:1052D0007708B804E93023009100013092000310F0
:1052E00009302C00DE00883120002221A8312B005B
:1052F00037082C00DB001830DC00200000202030B4
:105300002F00C30088312000AF20A83128302F00A3
:10531000C30088312000AF20A8312B0039082E00AF
:10532000CE003730CF00883120007924A8312B00FF
:1053300038082E00CE003730CF0088312000792485
:10534000A83129302F00C30088312000AF20A831B8
:105350000D302F00C30088312000AF20A8310A3063
:105360002F00C30088312000AF20A83130302B003F
:10537000B804F430230091000130920003100A3089
:105380002C00DE00883120002221A83103302C00BF
:10539000DB001830DC002000002020302F00C3008C
:1053A00088312000AF20A83128302F00C300883179
:1053B0002000AF20A8312B0039082E00CE00373056
:1053C000CF00883120007924A8312B0038082E0026
:1053D000CE003730CF00883120007924A831293021
:1053E0002F00C30088312000AF20A8310D302F00DE
:1053F000C30088312000AF20A8310A302F00C3003D
:1054000088312000AF20A831280062080139F70058
:10541000F70DF70DF70DF830F70577082B00B804F6
:105420000030230091000230920003100A302C005B
:10543000DE00883120002221A831280062082C00DB
:10544000DB001830DC002000002020302F00C300DB
:1054500088312000AF20A83128302F00C3008831C8
:105460002000AF20A8312B0039082E00CE003730A5
:10547000CF00883120007924A8312B0038082E0075
:10548000CE003730CF00883120007924A831293070
:105490002F00C30088312000AF20A8310D302F002D
:1054A000C30088312000AF20A8310A302F00C3008C
:1054B00088312000AF20A8317E080139F700F70DB0
:1054C000F70DFC30F70577082B00B8040C302300EB
:1054D00091000230920003100C302C00DE00883165
:1054E00020002221A8317E082C00DB001830DC00CF
:1054F0002000002020302F00C30088312000AF2082
:10550000A83128302F00C30088312000AF20A831F7
:105510002B0039082E00CE003730CF008831200014
:105520007924A8312B0038082E00CE003730CF0068
:10553000883120007924A83129302F00C300883118
:105540002000AF20A8310D302F00C300883120008B
:10555000AF20A8310A302F00C30088312000AF20CF
:10556000A8317D080139F7000310F70D77082B00EB
:10557000B8041930230091000230920003100A3061
:105580002C00DE00883120002221A8317D082C006B
:10559000DB001830DC002000002020302F00C3008A
:1055A00088312000AF20A83128302F00C300883177
:1055B0002000AF20A8312B0039082E00CE00373054
:1055C000CF00883120007924A8312B0038082E0024
:1055D000CE003730CF00883120007924A83129301F
:1055E0002F00C30088312000AF20A8310D302F00DC
:1055F000C30088312000AF20A8310A302F00C3003B
:1056000088312000AF20A831760801392B00B8047A
:105610002530230091000230920003100A302C0044
:10562000DE00883120002221A83176082C00DB0022
:105630001830DC002000002020302F00C30088310B
:105640002000AF20A83128302F00C300883120006F
:10565000AF20A8312B0039082E00CE003730CF0004
:10566000883120007924A8312B0038082E00CE0084
:105670003730CF00883120007924A83129302F001D
:10568000C30088312000AF20A8310D302F00C300A7
:1056900088312000AF20A8310A302F00C3008831A4
:1056A0002000AF20A8312B00B80DB90DB80DB90DF1
:1056B000B80DB90DB80DB90DF030B8053130230073
:1056C00091000230920003101A302C00DE00883165
:1056D00020002221A8312B0039082E00CE003730BF
:1056E000CF00883120007924A8312B0038082E0003
:1056F000CE003730CF00883120007924A8310D301A
:105700002F00C30088312000AF20A8310A302F00BD
:10571000C30088312000AF20A8312B003808F800E2
:105720003908F9007908B2007808B10021000F119A
:1057300022000F112400951240309400FF30920097
:105740003A3095002B003208B8003108B70090318C
:1057500020006427A83121000F1122000F150D3001
:10576000F700F70BB12B21000F1122000F112400BD
:10577000951240309400FF3092003A3095002B0093
:10578000B8010330B700903120006427A8317808B1
:105790002B00B4007708B30021000F1122000F1571
:1057A0002B003308B50034080F39B6003508F8006F
:1057B0003608F900200008008318E22B2430850009
:1057C0001A308400F701F801F901FA012D00AA014D
:1057D000AB01AC01AD0127082604250424040319FC
:1057E000212C2030AE000310A00DA10DA20DA30DA1
:1057F000AA0DAB0DAC0DAD0D27082D02031D0A2C13
:1058000026082C02031D0A2C25082B02031D0A2C36
:1058100024082A02031C1B2C2408AA022508031CA6
:10582000250FAB022608031C260FAC022708031C19
:10583000270FAD020314F70DF80DF90DFA0DAE0B9D
:10584000F32B2A0880002B08813F2C08823F2D086B
:10585000833F200008002230230091000430920092
:1058600088312000D420A83164302B00A5002930D5
:10587000230091000430920003100E302C00DE0053
:10588000883120002221A8312B0025082C00CC00D3
:105890001B30CD00903120001C27A8310D302F0087
:1058A000C30088312000AF20A8310A302F00C30088
:1058B00088312000AF20A8312100101022001014E0
:1058C0002030F80021001D08833978049D000F3036
:1058D000F8001F08F03978049F000D30F700F70B2F
:1058E0006F2C2B00B0012000732079082800BB002A
:1058F0007808BA000C30F80021001D0883397804BC
:105900009D000F30F8001F08F03978049F000D301B
:10591000F700F70B892C2B00B001200073207908C9
:105920002800BD007808BC000030F80021001D08E8
:10593000833978049D000F30F8001F08F03978048F
:105940009F000D30F700F70BA32C2B00AB01AA0131
:10595000AB08031D4F2D25082A0203184F2D2A08D6
:10596000220099008530F700F70BB42C0030F800C6
:1059700021001D08833978049D000F30F8001F08AE
:10598000F03978049F000D30F700F70BC52C031099
:105990002B002A0DAE002B0DAF0003102E0DF900C9
:1059A0002F0DFA0079083A3EF8002030FA3D7808C9
:1059B000AE007A08AF00B001200073202B002F0842
:1059C00085002E088400780880007908813F043023
:1059D000F80021001D08833978049D000F30F8007D
:1059E0001F08F03978049F002B00A901A801A70126
:1059F000A601AC012C08093C031C0F2D0D30F7004B
:105A0000F70B002DB0012000732078082B00A607AB
:105A10007908A73D0030A83DA93DAC0AFA2C8310B7
:105A200029082D00A3002B0028082D00A2002B0020
:105A300027082D00A1002B0026082D00A000A7019B
:105A4000A601A5010A30A4002000DC237A082B005F
:105A5000A9007908A8007808A7007708A6000D30EB
:105A6000F700F70B312D03102A0DAE002B0DAF0000
:105A70000130AE070030AF3D03102E0DF9002F0DA1
:105A8000FA0079083A3E840020307A3D85002608E5
:105A900080002708813FAA0A0319AB0AA82C3330DB
:105AA000230091000430920088312000D420A831D6
:105AB0000030F80021001D08833978049D000F3064
:105AC000F8001F08F03978049F0010102200101011
:105AD000200008002B002208840023088500003FD6
:105AE000A4002D302300910007309200883120005F
:105AF000D420A831503023009100073092000310C9
:105B00000C302C00DE00883120002221A8312B002F
:105B100024082E00CE003730CF00883120007924B1
:105B2000A831573023009100073092000310043051
:105B30002C00DE00883120002221A8312B0024080F
