:060000009031972B000077
:0800080083018031200077081C
:10001000A0007808A1007908A2007A08A3002300B4
:1000200011082000A400230012082000A5002300CE
:1000300013082000A600230014082000A7008B1E30
:1000400023280B194328850191308400801E2A281B
:10005000911A45282008F7002108F8002208F90025
:100060002308FA002408230091002000250823001B
:100070009200200026082300930020002708230078
:100080009400090020008031472880319D28643089
:1000900095000130AC070318AD0A0319AE0A031925
:1000A000AF0AAF08031D5E28AE08031D5E28AD0829
:1000B000031D5E282C08633C03188A28AF01AE019B
:1000C000AD01AC010130B0070318B10A0319B20A3F
:1000D0000319B30AB308031D7F283208003C031834
:1000E0008A28FF3A031D7F283108503C03188A28CC
:1000F000FF3A031D7F2830087F3C03188A28803090
:10010000B0025130B13B0130B23B0030B33BB40AD6
:100110000319B50A0B1180312A28D434ED3272103C
:100120004937693AE930EC34FA320D05000089218B
:10013000EF367036653AE5060A002B08023C0319D3
:10014000A5282B08053C031DA7282A1CBA285808F7
:100150001F3C031CBA285808D80A1F39183E8400CF
:10016000203085000318850A911EB4282300190841
:1001700080002000911280312A28D520522AA02404
:10018000EE34F4346136693DE5060A008921EF3624
:100190007036653AE5060A00C927A024EE34F43427
:1001A0006136693DE5060A008921EF367036653A09
:1001B000E5060A00412243104937693AE930EC3438
:1001C000FA320D0500018921EF367036653AE506F1
:1001D0000A00533A61397410D32BC522D0060A00A5
:1001E0008929F7326538A039F43270103A10A53AEF
:1001F0000D05000045274410D32BC522D0060A0068
:10020000CC37E7336532A021C9235310E430F430F2
:100210000D058000D3264610E430F4302036E9394D
:100220007410E93920337536EC10A1100D0500006B
:10023000D3264610E430F4302036E9397410E93919
:10024000A0326D38F43C0D0500000D05091E2D008F
:100250006636E1396810E23AF33C0D0500000929E1
:10026000E530641049223A000933EC307334A03190
:100270006F37EE32633AA027CB060A000933EC3021
:10028000733420376F3AA0316F37EE32633A0D0581
:1002900000006539F237721D6636E1396810ED37B6
:1002A000E4326C10E939A0346E3B613669320D05D9
:1002B00000016636E1396810F434ED32EF3AF406A5
:1002C0000A006636E1396810F332633A6F39A032BA
:1002D000F230F332A031EF367036653AE5060A00A7
:1002E0006539F237721D6636E1396810ED37E43250
:1002F0006C10E939A0346E3B613669320D0500019E
:100300006636E1396810F434ED32EF3AF4060A004B
:100310006636E139681033196B21793A6510F33A82
:10032000E239E531F43772106539E1396510E337A8
:100330006D38EC32F4320D0500006539F237721D6C
:100340006636E1396810ED37E4326C10E939A034D3
:100350006E3B613669320D0500016636E139681081
:10036000F434ED32EF3AF4060A006636E1396810EB
:10037000B435C23CF432A0397531F332633A6F3987
:10038000A032F230F332A031EF367036653AE5062E
:100390000A006636E1396810F434ED32EF3AF406BB
:1003A0000A006636E13968107739693A6510E33733
:1003B0006D38EC32F4320D0500006636E139681014
:1003C000F434ED32EF3AF4060A006636E13968108B
:1003D0007739693A6510E3376D38EC32F4320D0540
:1003E0000000533A61397410ED30EB325F39E5317A
:1003F000E534F632DF31EF36ED306E320D05891619
:100400003E10000145376410ED30EB325F39E531C5
:10041000693BE52FE337ED366137E4068A060A00CB
:10042000F33467376136A0326E32A03B693A681008
:100430005323C4060A00E437EE137410E6346E3218
:10044000A02946220D05000089163E104937F630D6
:10045000EC3464104639E136651049222039E53123
:10046000E534F632641DA012D8060A0089163E1043
:10047000432943106539F237F2100D050001890454
:100480002D1F2039E531E534F63264104329431D30
:10049000A012D8060A0089042010A0316F36EC3271
:1004A000633AA021D221201DA012D8060A00891685
:1004B0003E104937F630EC346410E432F634E3325F
:1004C000A0244410F232E332693B65320D0500018D
:1004D00089042D1F2039E531E534F632641D2010E2
:1004E0002010A012D8060A0089042010A026791036
:1004F000E432F634E332A024441DA012D8060A00E8
:1005000054396137F3347410E337ED366137E4065C
:100510008A042D1F2000A110A137F6327233EC3768
:100520007710653CE531753A6532DF36E939F334E9
:100530006F372036E939F4060A00533A61397410EE
:10054000D3264610F53969376710F232F132733A23
:10055000A039E530F13A6537E3320D050001453940
:10056000F237F2102029E531E534F634EE33A031CC
:10057000EF36ED306E32A034EE316F37F334733A2C
:1005800065377410F7347434203AE8322032E53994
:10059000E933EE060A00D3264610F5396510F2322B
:1005A000F13AE53974106136EC37F732E4060A00A7
:1005B000D3264610F5396510F232F13AE539741058
:1005C000E432EE3C65320D050001D2327439791007
:1005D000F232F13AE5397410F4372021CF29531063
:1005E000D024C3060A004539F237F2102029E5313C
:1005F000E534F634EE33A031EF36ED306E32A03410
:10060000EE316F37F334733A65377410F73474345E
:10061000203AE8322032E539E933EE060A00453760
:100620006410D3264610F53969376710F232F1327B
:10063000733AA039E530F13A6537E3320D05000031
:10064000533A61397410CD27C422A026C520D32A7D
:10065000D2220D050000533A61397410CD27C4220F
:10066000A026C520D32AD222202B6F36F430E732C1
:100670000D050000F4326D385F3A6F383A10252CC2
:100680000D050001F4326D385F316F3A3A10252CB8
:100690000D05000070325F3B6136F5323A10252CB3
:1006A0000D050000E334E7395F3B6136F5323A105F
:1006B000252C0D050000E33A72396537F42FF6302A
:1006C000EC3A651DA012D8060A00F6376C3AE13301
:1006D000E52FF630EC3A651DA012D8060A00533A11
:1006E000613974104636E13968104539E1396510D1
:1006F0004136EC060A00453764104636E139681089
:100700004539E13965104136EC060A00533A613942
:1007100074104636E13968104539E13965103110F9
:10072000D332633A6F390D05000145376410463600
:10073000E13968104539E13965103110D332633A37
:100740006F390D050000533A613974104636E139AE
:100750006810C337F03CA018A029E531F437F20641
:100760000A00453764104636E1396810C337F03C5B
:10077000A018A029E531F437F2060A00C432733A12
:100780006937613AE9376E1061326439E539731DB2
:10079000A004303C25183826D8060A00D33775390E
:1007A000E332A0306432F232F3393A100918F81209
:1007B000301C4C2C0D050001C430F430A039693DCB
:1007C000651DA0040910A012301C4C2C0D05000161
:1007D000C337F03C693767170001DF2FDF2FDF2FAA
:1007E000DF2FDF226E32A0316F38F92FE430F43082
:1007F000DF2FDF2FDF2FDF2FDF068A2FDF2FDF2F07
:10080000DF2FDF2FDF2FDF2FDF2FDF2FDF2FDF2F78
:10081000DF2FDF2FDF2FDF2FDF068A060A00533A94
:1008200061397410653CE531753AE52FE337ED36F3
:100830006137E4060A0089163E105538EC34EE356F
:10084000A031EF36ED306E320D0500010910201099
:1008500054396137F336693AA020E335EE377736FD
:100860006532E7320D05000089163E10533A613AB1
:10087000F539A031E832E3350D05000189042D1F5B
:10088000A0267910733A613AF539A03473102532F5
:100890000D0500100910201054396137F336693AFC
:1008A000A026C929A026C32AA029F430F43AF306C9
:1008B0000A00E634EE3473346532A0346E10733AB5
:1008C000613AF539DF31E832E3350D05000089166C
:1008D0003E10E939A0294D23A030F6306936613148
:1008E000EC320D0500010910201054396137F33640
:1008F000693AA020E335EE3777366532E7320D05E9
:10090000000189042D1FA0306C36EF3B65320D05C8
:10091000000189042D1F20326537E932E4060A0000
:100920000D055434E9392010ED34F339E9376E10F0
:10093000E939A032F832E33AF432E4068A042D1F92
:100940002018F812E4060A000D05DF2FDF2FDF2F35
:10095000DF2FDF2FDF2FDF2FDF2FDF2FDF2FDF2F27
:10096000DF2FDF2FDF2FDF2FDF2FDF2FDF2F0D0513
:10097000DF2FDF2FDF2FDF2F533A61397410653CF3
:10098000E531753AE52FED34F339E937EE2FDF2FF6
:10099000DF2FDF2FDF068A060A00C337ED36613707
:1009A000641049223A10252C0D050D05000189041B
:1009B0002D1FA0246E3B61366932A0214D22A02458
:1009C000C4100D0500010D05DF2FDF2FDF2FDF2FF6
:1009D000DF226E32A032F832E33AF432DF36E93900
:1009E000F3346F37DF2FDF2FDF2FDF2FDF068A2F64
:1009F000DF2FDF2FDF2FDF2FDF2FDF2FDF2FDF2F87
:100A0000DF2FDF2FDF2FDF2FDF2FDF2FDF2FDF2F76
:100A1000DF2FDF060A004636E13968104937693AA8
:100A2000E930EC34FA320D050001892DCD24532331
:100A30005D10BC16201039230D0500018921EF3609
:100A40007036653AE5060A000D05BD1EBD1EBD1EC9
:100A5000BD1EBD1EBD1EBD1EBD1EBD1EBD1EBD1EBE
:100A6000BD1EBD1EBD1EBD1EBD1EBD1EBD1EBD1EAE
:100A7000BD1EBD1EBD1EBD1EBD1EBD1EBD1EBD1E9E
:100A8000BD1EBD1EBD1E0D0500015434E939A03444
:100A90007310CD27CD24CA24A021C9235310D024FC
:100AA000431042214D10E6377210CD24D31B5F2135
:100AB000C22631170D050001CC30733AA03A7032CE
:100AC000613A6532A0376E103218B21A2F18B41777
:100AD000B21A2C10E23CA024EE37F532AE068A069C
:100AE0000A00DF2FDF2FC324C7292028C921A0290E
:100AF000F430723AA027F032F230F4346F37DF2F3F
:100B0000DF2FDF068A060A00F730693A6937671077
:100B1000E6377210C227D3292028C921A031EF3629
:100B2000ED306E3200014639E136E524441DA01255
:100B3000312C0D050001F0307936EF306410F334BC
:100B4000FA323A1025320D050001F0307936EF30D7
:100B5000641D20000D050D05000189163E10493762
:100B6000F630EC346410E337ED366137E4060A0002
:100B70000D050D05BD1EBD1EBD1E0D050D05C634A2
:100B8000EE34733465322038F237E332F339AE068F
:100B90008A2BE1347410E6377210C227D32920283B
:100BA000C921203A75396E106F336610ED3200019D
:100BB00045376410ED3069370D05000021000D1236
:100BC00022000D120830F800E52D0000F817F82D6E
:100BD000F8133100A00C220003180D16031C0D128F
:100BE0007817F82D7813F80BE92DF62D00000D1667
:100BF00084308400840BFA2D0000F81BE82D781B4C
:100C0000F22D200008000B088B13230095171514F4
:100C100000000000891B8B1713087F390319512E20
:100C20003000ED00230011083000EE002300120810
:100C30003000EF006D083100A0002000DE253000FC
:100C40006E082300910030006F08230092000B080B
:100C50008B139517151400000000891B8B17130DBB
:100C6000140D7F390319512E3000ED0023001108B7
:100C70003000EE00230012083000EF006D08310054
:100C8000A0002000DE2530006E0823009100300017
:100C90006F0823009200910A0319920A2000032E84
:100CA000230020000800CC30230091000030920087
:100CB0002000032621000E1022000E1021008E11AC
:100CC00022008E11D43023009100003092002000C9
:100CD00003269031402CDA3023009100003092003E
:100CE000200003267830210099001E109E101E114E
:100CF000003023008C0090008D00E7308F00210031
:100D00001E129E161E179E171D14A030220098005A
:100D100032309900E330230091000030920020002F
:100D200003269031432CBD30230091000030920007
:100D30002000032621009116C0308B04C63023000A
:100D4000910000309200200003269031462C8D3017
:100D500023009100003092002000032611108730FC
:100D600098009901960180309700960100002100BB
:100D70001114C0308B049730230091000030920092
:100D8000200003269031492C253085002A3084002C
:100D900000080319D92E0530F800F701F70BCE2E05
:100DA000F80BCD2E2E30F700F70BD42ED72E800B5C
:100DB000CB2E08002400110830004C0824009100BC
:100DC000140C031CE02E1108F7002000080030006E
:100DD000ED1BFD2E0F30F7006C0EF7050A30770281
:100DE0000318F52E3030F707F72E6D08F707770850
:100DF0003100A0002000DE2530000F30EC050A3065
:100E00006C020318052F3030072FED136D08EC0727
:100E10006C083100A0002000DE2508000B30230004
:100E2000910005309200200003263000B301B40188
:100E3000B501B601B701B801B901BA01BB01BC01E6
:100E4000BD01BE01BF01C001C101C201C301C40196
:100E5000C501C60121008F1022008F100A3030001A
:100E6000CA002000C42624009512403094000930A6
:100E700092002A3095009E303000CC002000DA2607
:100E80001530230091000530920020000326300029
:100E9000C7014708133C031C652F13304707840024
:100EA000253085000318850A2400951240309400EF
:100EB000093092002A3095003000CC012000DA265B
:100EC000770880003000C70A492FC8014808133C42
:100ED000031C802F13304807840025308500031839
:100EE000850A0008CA00EC003730ED002000E72634
:100EF00020303100A0002000DE253000C80A662F17
:100F000021008F1022008F141E3023009100053025
:100F100092002000032690314C2C0B088B132300E9
:100F20009517151400000000891B8B170318C12F9B
:100F300013087F393000ED00230011083000EE0067
:100F4000230012083000EF006D083100A0002000DF
:100F5000DE2530006E082300910030006F0823006A
:100F600092000B088B139517151400000000891BC5
:100F70008B173000EC0BBD2FBF2F2300C12FE52FA7
:100F80002300130D140D7F393000ED0023001108EC
:100F90003000EE00230012083000EF006D08310031
:100FA000A0002000DE2530006E08230091003000F4
:100FB0006F0823009200910A0319920A031030006F
:100FC000EC0BE32FE52F20008D2F200008003000D0
:100FD0004908F80148020318F02F4808F700FC2FD1
:100FE000F7010830CA00C80DF70D49087702031849
:0C0FF000F700F80DCA0BF32F20000800DA
:1010000030006D0884006E088500003F3100A000AC
:101010000130A10030006F083100210203181C28A4
:101020002108A10A30006D07840000306E3D850064
:1010300000083100A0060A282008F8002000080057
:101040003000BC01BD01BE01BF01C001C101C20130
:10105000C301C401C501C601C701C801C901CA0154
:10106000CB01CC01CD01CE01CF01D001D101D20104
:10107000D301D401D501D601D701D801D901DA01B4
:10108000DB01DC01DD01DE01F130230091000130E4
:10109000920080312000032688313000DF013B08B8
:1010A0005F0203186C285F083907840000303A3D5E
:1010B00085000008E700EC003730ED0080312000AB
:1010C000E726883120303100A00080312000DE2565
:1010D00088313000DF0A4F280D303100A000803108
:1010E0002000DE2588310A303100A0008031200048
:1010F000DE25883130003A08E8003908E7003B086F
:10110000E900EA01EA01013069026A02031898283D
:101110006A08670784000030683D85000008AA3C23
:10112000031D962801306A07F800BC28EA0A8328C4
:101130006A08670784000030683D85000008AA3C03
:10114000031DB0281030230091000230920080313E
:10115000200003268831FF30F8003000BC28BC286E
:101160001B302300910002309200803120000326C2
:101170008831FF30F80030007808E0006008FF3C5C
:10118000031DC7283C30F8000830F900532A6008D6
:101190003907F80000303A3DFA007808E1007A0893
:1011A000E2006108840062088500003100080F3900
:1011B000E3006308E700E8016808023C031CFA2822
:1011C0000310680DDF3E8400243085000318850A73
:1011D00000086702031DF8280310680D013EDF3E7A
:1011E0008400243085000318850A0008F8002129AE
:1011F000E80ADC282430230091000230920003101A
:101200001F303000EC00803120008D278831300005
:101210006708EC003730ED0080312000E726883188
:101220000D303100A00080312000DE2588310A30E9
:101230003100A00080312000DE258831FF30F80029
:1012400030007808E4006408FF3C031D2C293C3082
:10125000F8000830F900532A60083B02E5006208F4
:10126000E8006108E7006508E900013069026707E6
:1012700084000030683D85000008EA000130690202
:10128000EC006808EE006708ED006C08EF00200035
:10129000002078083000EB006B086A02031D542917
:1012A0000130F800A829A829363023009100023027
:1012B000920080312000032688313F3023009100C6
:1012C00002309200031013303000EC008031200017
:1012D0008D27883130006A08EC003730ED0080310E
:1012E0002000E72688310D303100A0008031200039
:1012F000DE2588310A303100A00080312000DE2553
:1013000088314B30230091000230920003101330DB
:101310003000EC00803120008D27883130006B08D0
:10132000EC003730ED0080312000E72688310D30A9
:101330003100A00080312000DE2588310A303100E4
:10134000A00080312000DE2588310030F800300018
:10135000F808031DB0293C30F8000830F900532A82
:10136000610884006208850000310008F039F70048
:10137000770EE7000F30E7056708E80068080B3CC8
:10138000031DC6290130F8001A2A1A2A57302300F3
:1013900091000230920080312000032688316830AD
:1013A0002300910002309200031013303000EC0053
:1013B000803120008D27883130006808EC003730FC
:1013C000ED0080312000E72688310D303100A0008B
:1013D00080312000DE2588310A303100A0008031C4
:1013E0002000DE2588317430230091000230920005
:1013F000031013303000EC00803120008D2788313D
:101400000B303000EC003730ED0080312000E72653
:1014100088310D303100A00080312000DE25883178
:101420000A303100A00080312000DE2588310030F4
:10143000F8003000F808031D222A3C30F80008307C
:10144000F900532A6308BC0001306107F80000303E
:10145000623DFA007808E7007A08E8000230650289
:10146000E90068088500670884006908F800031926
:10147000412A253087001D30860012001E00F80B1F
:101480003D2A02306502DD005E1402302300910027
:101490000230920080312000032688313C30F80071
:1014A0000830F900300090312000742C20303000DA
:1014B000401E3030C4003F08F700BF1F672AF709FD
:1014C000F70A7708BF002D30C400C01740143F084A
:1014D000C8006430C90080312000E72788317708D0
:1014E0003000BF0030307807C5003F08C8000A3020
:1014F000C90080312000E72788313030770730007D
:10150000C70030307807C6004408F7003030450285
:1015100003198E2AC014C01B4015A22A4408C50016
:101520002030C4003030460203199A2A4014C01BF0
:10153000C014A22A031D4014031DA22A4508C60098
:101540002030C5004019A92AC018B12A4018B92A6C
:10155000C12A44083100A00080312000DE258831F6
:10156000300045083100A00080312000DE258831A0
:10157000300046083100A00080312000DE2588318F
:10158000300047083100A00080312000DE2588317E
:10159000080030003608FA00350884007A08850013
:1015A0000008B8003408850033088400F7013808C3
:1015B000F80078080319E02A77081A00F80BDC2AEB
:1015C00035088400360885008001903120000C2DFC
:1015D000AA303000BC0038084038BD003A08850009
:1015E000390884003B08F8000319FE2A25308700DB
:1015F0001E30860012001E00F80BFA2A02303B074C
:10160000CC001C304C07F8002530FA000318FA0A09
:101610007808CF007A08D00001304C02D100253084
:10162000EE001D30ED005108EF00200000203000DA
:10163000500885004F0884007808800001304C076E
:10164000CD002530D0001C30CF004D08D100D20194
:101650005108520203183D2B52084F0784000030F6
:10166000503D85000008D40054082000111E362B80
:1016700023009A003000D20A282B803023009100EA
:101680000230920080312000032688313000D301DF
:10169000510853020318652B53084F07840000308C
:1016A000503D85000008D400EC003730ED0080315B
:1016B0002000E726883120303100A0008031200052
:1016C000DE2588313000D30A482B0D303100A000D0
:1016D00080312000DE2588310A303100A0008031C1
:1016E0002000DE25883108000F303000B800BA0134
:1016F000B901BB012000E8220800D530F80007300E
:10170000F9000800F701F80130004C0803104D18EB
:10171000F707F70CF80CCD18F707F70CF80C4D1974
:10172000F707F70CF80CCD19F707F70CF80C4D1A62
:10173000F707F70CF80CCD1AF707F70CF80C4D1B50
:10174000F707F70CF80CCD1BF707F70CF80C200087
:101750000800E93023009100003092008031200021
:101760000326883130004208C300F0302300910086
:101770000030920003100E303000EC008031200069
:101780008D27883130004308C6001B30C70046084B
:10179000C8006430C90080312000E727883177080D
:1017A0003000C60078083030031DDD2BC71CE92B44
:1017B000C719E92B471A2030E02BC71147124714ED
:1017C000F80778083100A00080312000DE2588313C
:1017D00030004608C8000A30C90080312000E727E1
:1017E000883177083000C60078083030031DFE2BA2
:1017F000C719072C471C072C471A2030F807780810
:101800003100A00080312000DE25883130003030EA
:10181000C60746083100A00080312000DE2588314F
:101820000D303100A00080312000DE2588310A30E3
:101830003100A00080312000DE25883121000E100B
:1018400022000E141430F80021001D08833978049A
:101850009D000F30F8001F08F03978049F000D300C
:10186000F700F70B312C9D149D18342C1B08F80041
:101870001C082C00B2007808B1000C30F8002100E0
:101880001D08833978049D000F30F8001F08F039D7
:1018900078049F000D30F700F70B4C2C9D149D1819
:1018A0004F2C1B08F8001C082C00B4007808B3006B
:1018B0000030F80021001D08833978049D000F30A6
:1018C000F8001F08F03978049F000D30F700F70B7F
:1018D000672C9D149D186A2C1B08F8001C082C000E
:1018E000AE007808AD003000C501C401C508031D75
:1018F000E02C430844020318E02C4408220099001D
:101900008530F700F70B822C0030F80021001D080D
:10191000833978049D000F30F8001F08F0397804EF
:101920009F000D30F700F70B932C03103000440D8F
:10193000C600450DC7000310460DF900470DFA001B
:101940007908393E840020307A3D850021009D14BD
:101950009D18A82C1B0880001C08813F0430F8004B
:101960001D08833978049D000F30F8001F08F039F6
:1019700078049F000D30F700F70BBC2C03103000EB
:10198000440DC600450DC7000130C6070030C73DF5
:101990000310460DF900470DFA007908393E84001E
:1019A00020307A3D850021009D149D18D52C1B0800
:1019B00080001C08813F3000C40A0319C50A762C38
:1019C000FA3023009100003092008031200003267D
:1019D00088310030F80021001D08833978049D000B
:1019E0000F30F8001F08F03978049F009D149D18EF
:1019F000F72C1B08F8001C082C00B0007808AF007A
:101A000030004308C60000302300910001309200EE
:101A100080312000032688313000C7014608470284
:101A200003183D2E4708CC000330CD002000822350
:101A300091307807F8002230FA000318FA0A780883
:101A40003000CC007A08CD000310470DFA01F900F0
:101A50000310F90DFA0D7908393E840020307A3DE3
:101A600085000008CE0001310008CF003F31CF0CC7
:101A7000CE0CCF0CCE0CCF0CCE0CCF0CCE0C0F302E
:101A8000CF054E08F700FA017A08CF004D0885000F
:101A90004C0884004E0880004708CC000330CD007D
:101AA00020008223913078078400223085000318BB
:101AB000850A00083000CC00EC003730ED008031A2
:101AC0002000E726883120303100A000803120003E
:101AD000DE25883130004708CC000330CD002000DF
:101AE000822301307807913EF8002230FA00031873
:101AF000FA0A78083000CC007A08CD000310470DB0
:101B0000FA01F9000310F90DFA0D7908393E840045
:101B100020307A3D85000008CE0001310008CF005A
:101B20003F310F30CE05CF01CE0DCF0DCE0DCF0DF5
:101B3000CE0DCF0DCE0DCF0DF030CE050310470DDD
:101B4000013EFA01F9000310F90DFA0D7908393E4A
:101B5000840020307A3D85000008D0000131000863
:101B6000D1003F315108D000D10150080F39F700A2
:101B7000FA0177084E04F7007A084F04FA00770854
:101B8000CE007A08CF004D0885004C0884004E082E
:101B900080004708CC000330CD00200082230130B4
:101BA0007807913E8400223085000318850A0008DA
:101BB0003000CC00EC003730ED0080312000E7260B
:101BC000883120303100A00080312000DE258831AE
:101BD00030004708CC000330CD00200082230230C3
:101BE0007807913EF8002230FA000318FA0A7808C4
:101BF0003000CC007A08CD000310470D013EFA01F9
:101C0000F9000310F90DFA0D7908393E84002030EF
:101C10007A3D85000008CE0001310008CF003F3139
:101C20004E08F700FA017A08CF004D0885004C08ED
:101C300084004E0880004708CC000330CD0020000F
:101C4000822302307807913E8400223085000318F9
:101C5000850A00083000CC00EC003730ED00803100
:101C60002000E726883120303100A000803120009C
:101C7000DE2588313000C70A0E2D0D303100A0005E
:101C800080312000DE2588310A303100A00080310B
:101C90002000DE25883121000E1022000E10883130
:101CA0002000662E20302300910003309200803106
:101CB00020000326883130003F088400400885005A
:101CC000003FC1004108C2002000A92B9031272904
:101CD0002F004608450203196F2E0030702E013088
:061CE000F80020000800DE
:102000000F3023009100043092008031200003261D
:102010009031300033088400340885000031000816
:10202000003A200003191B28013A03195229033AE8
:102030000319AE29932B30003408B6003308B500DD
:102040001B302300910004309200803120000326D1
:10205000903126302300910004309200803120001E
:10206000032690318831742390310230AB00013067
:1020700030003507F8000030363DFA007808B80027
:102080007A08B9003908BB003808BA003A08840059
:102090003B088500003FBC0001303A07F8000030E3
:1020A0003B3DFA007808BD007A08BE003C08BF003E
:1020B000883120007D2390317908FA007808840067
:1020C0007A0885000930F800253087002030860026
:1020D00012001E00F80B68283000C90148084902A8
:1020E0000318822820304907840025308500031812
:1020F000850A00083F02031D80280130F80084286B
:10210000C90A6E280030F800F8080319AD2890308D
:102110002300910004309200031023303000EC00C3
:10212000803120008D27903130003C08BF001830EE
:10213000C00088312000562290310D303100A000BF
:1021400080312000DE2590310A303100A00080313E
:102150002000DE259031302930003C08BF00883156
:1021600020007D2390317908FA00780884007A08ED
:1021700085000930F80025308700203086001200E5
:102180001E00F80BBF2830004808083C0319D3286C
:102190004808C80A203E8400253085000318850AB7
:1021A0003F088000DD288B30230091000230920030
:1021B00080312000032690313000A43023009100AC
:1021C000043092008031200003269031CD3023006E
:1021D00091000430920003100C303000EC0080318C
:1021E00020008D27903130003C08EC003730ED00A6
:1021F00080312000E7269031D43023009100043054
:102200009200031004303000EC00803120008D2754
:10221000903130003C08013A200003191329A13AFB
:1022200003191D291E2930003E08C0003D08BF00CB
:1022300088312000522E903127292729D7302300BA
:102240009100043092008031200003269031E33069
:102250002300910004309200803120000326903149
:10226000883168269031F80803194C29B308031DFA
:102270004629B208031D462929083102031C4929B1
:10228000031D462930082802031849290630AB00EF
:102290004B290330AB004E290430AB000030F8006E
:1022A0007808952B30003408B6003308B500343078
:1022B00023009100043092008031200003269031E9
:1022C0003E302300910004309200031012303000A1
:1022D000EC00803120008D2790312B083000BF00AA
:1022E0001830C00088312000562290310D30310066
:1022F000A00080312000DE2590310A303100A0009E
:1023000080312000DE2590314A30230091000430D6
:102310009200803120000326903101303000B80057
:102320002030BA000B30B9000130BB0088312000EA
:10233000E82290312B08063C031DAA2959302300BE
:10234000910004309200803120000326903101304A
:10235000F800AC290030F8007808952B30003408DC
:10236000B6003308B50067302300910004309200B6
:102370008031200003269031733023009100043017
:1023800092008031200003269031883174239031EF
:102390003000350884003608850001318008031DAF
:1023A000862B813023009100043092008031200080
:1023B000032690310530AB00883168269031F8084B
:1023C000031D792B2F0046084502031DF6291830FE
:1023D00023009100013092008031200003269031CB
:1023E0000030F800F900112A112A2F0045083000AA
:1023F000BC0001302F0045070F39C50030003C08F4
:10240000CC000C30CD008831200082239031780838
:10241000153EF8002430FA000318FA0A7A08F90089
:10242000112A79083000B8007808B700370884000E
:102430003808850004310008BC0001310008BD00E7
:1024400001310008BE0001310008BF003D31BE303F
:102450002300910003309200031018303000EC008C
:10246000803120008D27903130003F08EC0037305C
:10247000ED0080312000E726903130003E08EC006E
:102480003730ED0080312000E726903130003D08E4
:10249000EC003730ED0080312000E726903130002D
:1024A0003C08EC003730ED0080312000E726903109
:1024B0000D303100A00080312000DE2590310A303F
:1024C0003100A00080312000DE2590313000370837
:1024D00084003808850000310008BC000131000884
:1024E000BD0001310008BE0001310008BF003D31D0
:1024F000CE302300910003309200031013303000DF
:10250000EC00803120008D27903130003F08EC0036
:102510003730ED0080312000E726903130003E0852
:10252000EC003730ED0080312000E726903130009C
:102530003D08EC003730ED0080312000E726903177
:1025400030003C08EC003730ED0080312000E726F9
:1025500090310D303100A00080312000DE25903117
:102560000A303100A00080312000DE25903130009B
:10257000370884003808850008310008BC000131A4
:102580000008BD0001310008BE0001310008BF0095
:102590003D31DC30230091000330920003100F30F6
:1025A0003000EC00803120008D27903130003F0852
:1025B000EC003730ED0080312000E726903130000C
:1025C0003E08EC003730ED0080312000E7269031E6
:1025D00030003D08EC003730ED0080312000E72668
:1025E000903130003C08EC003730ED0080312000A5
:1025F000E72690310D303100A00080312000DE252B
:1026000090310A303100A00080312000DE25903169
:10261000E83023009100033092008031200003262F
:10262000903104303000BC00FA30CA008031200004
:10263000C42690313000BC0B142B2E303100A0008A
:1026400080312000DE25903104303000BC00FA30AB
:10265000CA0080312000C42690313000BC0B272BEB
:102660002E303100A00080312000DE259031043072
:102670003000BC00FA30CA0080312000C4269031FE
:102680003000BC0B3A2B2E303100A00080312000EE
:10269000DE25903104303000BC00FA30CA008031B1
:1026A0002000C42690313000BC0B4D2B2E30310061
:1026B000A00080312000DE2590310D303100A000D7
:1026C00080312000DE2590310A303100A0008031B9
:1026D0002000DE25903104303000BC00FA30CA0002
:1026E00080312000C42690313000BC0B6E2B2000BE
:1026F000DC29ED302300910003309200803120006E
:10270000032690310630AB008F2B30008930230038
:102710009100043092008031200003269031003077
:10272000F8007808952B0030F8009031162D230022
:102730009F15A0309B0001309C00A6309E00903079
:102740009D0021000D1222000D162400951240302C
:102750009400093092002A30950022009D129D11AC
:102760001D1221008E120E168E112000A901A80143
:102770002A100330AB00AF01AE01AD01AC01B301D3
:10278000B201B101B001B501B401B701B601D80180
:102790002C00AC01AB01AA01A901AE01AD01B00151
:1027A000AF01B201B101B401B30123008C018D016D
:1027B0008E018F019001220092019101092C203499
:1027C000603418340034FF34603439340034FF345A
:1027D000C0340034FF34C03400349334C034003487
:1027E000FF346334D53400340534C03400340C3441
:1027F00080347934003401340134723400340034CC
:10280000093401340034023401340934C034003452
:10281000003413308500DF30840085171200F70084
:10282000003A0319232C1200F800F81B1B2C3F3927
:10283000870012008600781B1200781F12001E000D
:10284000F70B1D2C0E2C2430230091000530920034
:10285000803120000326903145302300910005305F
:10286000920080312000032690315C3023009100DB
:102870000530920080312000032690318031532EA4
:10288000903180316B2E90318031932E9031803198
:10289000A72E903180310E2F90312F005E107130B5
:1028A00023009100053092008031200003269031F2
:1028B00084302300910005309200803120000326EF
:1028C00090312F005E185C2D2000D8080319262DAA
:1028D00020303000BA001830B9002000580830000D
:1028E000BB0088312000202890317908FA00780850
:1028F00084007A0885002330F80024308700EF3008
:10290000860012001E00F80B812C933023009100EA
:1029100005309200031009303000EC0080312000B7
:102920008D2790312F005F083000EC00B730ED00AC
:1029300080312000E72690310D303100A000803139
:102940002000DE2590310A303100A00080312000C7
:10295000DE2590319B30230091000530920003105A
:102960000E303000EC00803120008D279031300097
:102970003008BF001830C000883120005622903146
:102980000D303100A00080312000DE2590310A306A
:102990003100A00080312000DE259031A5302300D9
:1029A00091000530920080312000032690313000E4
:1029B000B201300832020318F72CF03032078400DD
:1029C000243085000318850A0008B300EC00373076
:1029D000ED0080312000E726903120303100A0004A
:1029E00080312000DE2590313000B20AD92CAA3087
:1029F00023009100053092008031200003269031A1
:102A000020303000B4001830B3002030B600383029
:102A1000B50088312000C92A90313000311C1C2DAE
:102A20002430B400EF30B300200000282F005E10E7
:102A300078185E14272D3000AD302300910005304A
:102A400092008031200003269031612C2F0020005D
:102A50002B08033C031D442DB308031D3C2DB20875
:102A6000031D3C2D29083102031C442D031D3C2D60
:102A7000300828020318442D883168269031F80860
:102A80000319442D0630AB002F005E185C2D023078
:102A90003000B300C830CA0080312000C426903115
:102AA0003000B30B4A2D2E303100A00080312000C1
:102AB000DE259031612C2F00B830230091000530C5
:102AC000920080312000032690312E303100A0008A
:102AD00080312000DE25903104303000B300FA3020
:102AE000CA0080312000C42690313000B30B6F2D16
:102AF0002000652DD83023009100053092008031F0
:082B0000200003269031630060
:020000040001F9
:04000E00823FFF1E10
:00000001FF
;PIC16F1789
;CRC=7983  CREATED="01-6-25 17:42"
